:020000040800F2
:1000000088930524AD020008C9B6000831AA00088B
:10001000C1B600088148000849DB00080000000064
:1000200000000000000000000000000089BB000884
:10003000894800080000000011B70008B9C0000896
:10004000CB020008CB020008CB020008CB0200085C
:10005000CB020008CB020008CB020008CB0200084C
:10006000CB020008CB020008CB020008CB0200083C
:10007000CB020008CB020008CB020008CB0200082C
:10008000CB020008CB020008A9170008CB02000829
:10009000CB020008CB020008CB0200089148000800
:1000A000CB020008CB020008CB020008CB020008FC
:1000B000C1C20008CB020008CB020008CB02000836
:1000C000CB020008CB020008CB020008CB020008DC
:1000D000CB02000829DB000839DB0008CB0200084E
:1000E000CB020008CB02000800000000CB02000891
:1000F000CB020008CB020008CB020008CB020008AC
:10010000CB020008CB020008CB020008CB0200089B
:1001100041C40008CB020008D1C20008E1C20008B7
:10012000CB020008CB020008CB020008CB0200087B
:10013000CB020008CB020008CB020008CB0200086B
:1001400000000000000000000000000000000000AF
:10015000CB020008CB020008CB020008CB0200084B
:10016000CB020008CB020008CB020008CB0200083B
:10017000CB020008CB020008CB0200080000000000
:10018000CB020008CB020008CB020008CB0200081B
:10019000CB020008CB020008CB020008CB0200080B
:1001A000CB020008CB020008CB020008CB020008FB
:1001B000CB020008CB020008CB020008CB020008EB
:1001C000CB020008CB020008CB020008CB020008DB
:1001D000CB020008CB020008CB020008CB020008CB
:1001E000CB020008CB020008CB020008CB020008BB
:1001F000CB020008CB020008CB020008CB020008AB
:10020000CB020008CB020008CB020008CB0200089A
:10021000CB020008CB020008CB020008CB0200088A
:10022000CB020008CB020008CB020008000000004F
:10023000CB020008CB02000800000000CB0200083F
:10024000CB020008CB020008CB020008CB0200085A
:10025000CB020008CB020008CB020008CB0200084A
:10026000CB020008CB020008CB020008CB0200083A
:10027000CB020008CB020008CB02000800000000FF
:10028000CB020008CB020008CB02000800000000EF
:1002900000000000CB020008DFF80CD000F0B6FE32
:1002A00000480047693505088893052407488047BA
:1002B0000748804707480047FEE7FEE7FEE7FEE7FE
:1002C000FEE7FEE7FEE7FEE7FEE7FEE7A9480008D7
:1002D000D1C10008990200082DE9F05F0546002011
:1002E00092469B4688460646814640241BE02846A7
:1002F00041464746224600F0CBFB53465A46C01AB9
:10030000914110D311461846224600F0B2FB2D1A37
:1003100067EB01084F4622460120002100F0A9FBAF
:1003200017EB00094E41201EA4F10104DFDC484612
:1003300031462A464346BDE8F09F2DE9F0410024AE
:10034000061B254671F1000605DA01240027D0EBD3
:10035000070067EB0101161E73F1000605DA00279E
:10036000D2EB0702012567EB0303FFF7B5FF8646D3
:100370000E4617469C46AC4204D00025D0EB050E35
:1003800065EB010624B10020D2EB000760EB030C03
:10039000704631463A466346BDE8F08140EA0103C3
:1003A0009B0703D009E008C9121F08C0042AFAD22B
:1003B00003E011F8013B00F8013B521EF9D27047EF
:1003C000D2B201E000F8012B491EFBD27047002297
:1003D000F6E710B513460A4604461946FFF7F0FF44
:1003E000204610BD30B505462A460B4612F8010BD3
:1003F00013F8014B08B1A042F8D01CB1002802D07C
:100400006D1CF1E7284630BD10B5044604E00B78BA
:1004100000F8013B03B1491C521EF8D2204610BD22
:10042000421C10F8011B0029FBD1801A704710B53F
:10043000002200E0521C835C8C5CA34201D1002BA3
:10044000F8D1D8B2E1B2401A10BD30B5054600204F
:10045000034600E05B1C934205D2EC5CC85C201AAA
:1004600001D1002CF6D130BD0FB400B58DB010A96C
:1004700009900B9000914FF0FF300A9000200C90F3
:1004800005480690054807906A4609A80F9900F0AC
:1004900023FB0DB05DF814FBF50A0008130B0008F0
:1004A0002DE9FF5F1D464FF0FF3BD5E90146914620
:1004B0005F464FF00008A9697F1C01988847296AA8
:1004C000824688470028F6D1BAF1FF3F0CD024F4C9
:1004D000C064002E19DD600614D5BAF12B0F09D0C7
:1004E000BAF12D0F0ED103E0584604B0BDE8F09FDD
:1004F00044F48064A9697F1C01988847761E82466F
:10050000002E02DDBAF1300F03D0B9F1000F26D072
:1005100032E0A969761E44F400747F1C0198884774
:100520008246002E05DDBAF1780F06D0BAF1580FD9
:1005300003D0B9F1000F10D01EE0B9F1000F02D0C6
:10054000B9F1100F18D1A969761E24F400747F1C2C
:10055000019888478246102002E0082000E00A2027
:10056000814609E008FB0908A969761E44F4007475
:100570007F1C019888478246002E05DD494650467B
:1005800000F096FA0028EDDAE96901988847A0059D
:1005900002D46FF00100A8E7E00725D1600613D56B
:1005A000600502D5C8F1000000E0404629680A1D38
:1005B0002A600968220501D5087015E0220701D5D7
:1005C000088011E008600FE02868011D29600068BC
:1005D000210502D580F8008006E0210702D5A0F8A9
:1005E000008001E0C0F8008038467EE72DE9FF5F1B
:1005F000D2E901A74FF00008916999461446DDF849
:1006000038B0464601988847054659EA0B0005D0A0
:1006100009E0A169761C019888470546216A2846A9
:1006200088470028F5D1681C03D05FEACA7005D05E
:1006300015E04FF0FF3004B0BDE8F09F2068011DC9
:100640002160D0F800800AE05FEACA7001D108F8A2
:10065000015BA169761C7F1E019888470546002F23
:100660001ADD681C18D0B9F1000F0DD0E81705EBA2
:10067000D060421120F01F0059F822102A1A0120E0
:1006800090400142E0D107E0BBF1000FDCD1216ACC
:10069000284688470028D7D0E16901988847BBF1F0
:1006A000000F07D1002E05DD5FEACA7002D10021DC
:1006B00088F80010A068B84203DDBBF1000F03D03A
:1006C00017B16FF00100B6E73046B4E72DE9FF4FF0
:1006D000087883B09946FF2805D0491C2D2804D0FE
:1006E0000024002008E000200BE00124F9E700EBE3
:1006F000800003EB4000491C0B78FF2BF7D104B1BD
:10070000404200230293147819461D462D2C01D037
:100710002B2C04D1521C2D2C13D000240294AA4659
:100720001478FF2C0FD00A25A3FB057801FB058167
:100730004FF0000C03FB0C11521CE3194AEB0101B2
:10074000EEE70124EAE7814453EA010002D019F5FB
:10075000C87F06DA03980021C0E9001107B0BDE8A0
:10076000F08F0025AE4E2F46DFF8B882184600F015
:10077000F5FBCDE90001B9F1000002DAC9F100048E
:1007800000E004460023A74A1AEB030B42EB045A8D
:1007900012E0E00707D02A4633463846414600F0CB
:1007A000FCFA074688462A4633461046194600F0AA
:1007B000F4FA05460E466410002CEAD1DDE900018A
:1007C000B9F1000F5A46534606DA00F058FB3A4694
:1007D000434600F054FB05E000F0DFFA3A4643469A
:1007E00000F0DBFA029A0AB181F00041039AC2E9F3
:1007F0000001B3E72DE9FF4F1F468DB0D7E9014651
:100800004FF0FF382E2045464FF000090B90B96994
:100810006D1C0E988847396A824688470028F6D1B1
:10082000BAF1FF3F0AD024F4D064002E11DDBAF1F2
:100830002B0F08D0BAF12D0F0BD102E0404611B0BA
:100840008DE744F48064B9696D1C0E988847824630
:10085000761E6946600501D52D2000E02B208DF81D
:10086000000001F1010B0DF1200809E0B9696D1CD0
:100870000E98884782460F9844F40074761E0560EF
:10088000002E02DDBAF1300FF0D00B998A453ED12F
:1008900044F0800406E00F99681CA9F1010944F4B2
:1008A00000740860B9696D1C761E0E9888478246F0
:1008B0003028F0D02BE00B998A4505D1200603D4CF
:1008C00044F08004761E18E0504663F0B7FB08B38E
:1008D0000DF11302761EAAF1300044F40074934522
:1008E00006D20BF8010B200607D5A9F1010003E0A1
:1008F000200602D409F101008146A00502D50F9916
:10090000681C0860B9696D1C0E9888478246002EE5
:10091000D1DC53E0002E51DDBAF1650F02D0BAF1FF
:10092000450F4BD1A00549D5B9696D1C24F440741D
:10093000761E0E9888478246002E0CDD2B2804D0A8
:10094000BAF12D0F07D144F48074B9696D1C0E986B
:1009500088478246761EE00501D52D2100E02B2137
:1009600008F8011BCDF82C8021E00DF12901761E3D
:1009700044F4007488450CD2AAF1300010F0FF0056
:1009800088F8000002D10B99884509D908F10108BF
:1009900006E0E00501D5244801E042F20F708146EF
:1009A000B9696D1C0E98884782460F980560002E25
:1009B00004DD504663F042FB0028D6D1F9690E9859
:1009C0008847FF208BF8000088F800000020069080
:1009D00007904B466A4608A906A8FFF777FEA005D0
:1009E00002D46FF001002AE714F0240F0AD0E007C8
:1009F00014D1DDE906123868031D3B600068C0E9C8
:100A000000120BE0DDE9060100F0E4FA0146E00720
:100A100004D13868021D3A600068016028460EE77C
:100A2000000014400000F03FF1D8FFFF70B506460B
:100A300063F09AF9046805460A220021304600F066
:100A4000CDF82C6070BD30B50B4601460020202249
:100A5000012409E021FA02F59D4205D303FA02F5CB
:100A6000491B04FA02F52844151EA2F10102F1DC2B
:100A700030BD202A04DB203A00FA02F10020704742
:100A80009140C2F1200320FA03F3194390407047CC
:100A9000202A04DB203A21FA02F00021704721FAD3
:100AA00002F3D040C2F1200291400843194670473A
:100AB0003A2800D2303820F02002412A01D3A2F196
:100AC0003700884201D34FF0FF307047026811446D
:100AD0001378016018467047D16004495161044998
:100AE000116200211161114600F0C8BACD0A000858
:100AF00069100008426842B1016811F8013B23B156
:100B0000521EC0E90012184670470121C160881EBC
:100B1000704742685AB1C368016843B983688B4221
:100B200005D0491E521CC0E90012002070474FF04A
:100B3000FF3070470FB40B0010B58AB00FA90091B9
:100B40000E994FF00004234ACC60214CCDE90642B7
:100B500000D004236FF00042CDE901321E4A089212
:100B600002466B460020FFF745FE0AB010BC5DF858
:100B700014FBF0B585B007464FF0FF300091CDE98A
:100B800001011E46002015460C4604903B466A466D
:100B9000314604A8FFF7CEFF04990346601825B13B
:100BA00009B1024600E022462A6000290ED0002B3F
:100BB00002DD0099814209D00094001BCDE90104B7
:100BC0003B466A46314604A8FFF7B4FF05B0F0BDC6
:100BD000F50A0008130B0008691000082DE9F0471A
:100BE00091460F4680460446002614F8015B2DB15D
:100BF00000F036FA0068405DC007F6D12B2D02D018
:100C00002D2D18D0641E4A463946204600F0CCFBF4
:100C100027B13968A14201D1C7F8008071054FF0B2
:100C200002040BD54042002803DD63F09DF8046008
:100C3000A007BDE8F08746F48066E4E70028F8DA0C
:100C400063F092F804606FF00040F2E72DE9FE4F88
:100C5000804681EA0300C00F0C46009021F000415D
:100C600023F00045B8EB0200A94105D240462146D9
:100C700090461C460B46024623F00040104347D0E6
:100C8000270DC7F30A00C3F30A510290401A0190DE
:100C900040286BDAC3F3130040F4801B009892469F
:100CA00020B10023D2EB030A63EB0B0B01985946EA
:100CB000C0F140025046FFF7DCFE06460D465046A6
:100CC0005946019A00F0BAF910EB0800614100247E
:100CD00087EA115284EAE7731A4340D0009A62B35C
:100CE000019A012A4FEA075215DC001B61EB020151
:100CF0004FF0004202EA0752CDE90042001C41F5E4
:100D0000801132462B4600F0E4FB03B0BDE8F08FC3
:100D100040462146F9E7001B61EB0201001C41F54A
:100D2000801300185B412018A2F5001747EB030160
:100D300040EAD570B6196D4111E06D084FEA3606EC
:100D400045EAC0754FEA0752001B61EB0201001C27
:100D500041F5801149084FEA3000001951413246EF
:100D60002B4603B0BDE8F04F00F0A4BB0098012271
:100D700040000023D0EB020263EBE07300982146B1
:100D80004FEAE074B8EB000061EB0401E9E783F09F
:100D900000435BE781F0004158E72DE9FE4F81EA0F
:100DA000030404F0004421F0004100944FF0000BD4
:100DB00023F0004350EA01045ED052EA03045BD002
:100DC000C3F30A54C1F30A552C44A4F2F33401943A
:100DD000A0FB0254C1F3130141F48011C3F31303C8
:100DE00043F4801301FB024400FB034E840A970A7C
:100DF00044EA815447EA8357A4FB076802958D0AA9
:100E000005FB07854FEA932C04FB0C542705029D34
:100E10004FEA065847EA1637B5EB08056EEB070CA4
:100E2000870E920E47EA811742EA8312A7FB02015E
:100E3000B6EB0B0164EB00042B0D43EA0C335E1898
:100E400044EB1C50DA465146E7FB0201C5F313049C
:100E50004FEA0B3343EA14534FEA0432019C43EA4E
:100E60000603A4F10C040294009CCDE900B400F048
:100E700030FB03B0BDE8F08F00200146F9E72DE913
:100E8000F04D81EA030404F0004B21F000451446C4
:100E90004FF0000A23F0004150EA050220D054EA46
:100EA00001021DD0C5F30A570246C5F31303C1F36F
:100EB0001300C1F30A5640F4801543F48013A7EBE6
:100EC0000608101BD64608F2FD3873EB050002D366
:100ED00008F1010801E092185B41B8F1000F03DA54
:100EE00000200146BDE8F08D00204FF48011064639
:100EF00084460EE0171B73EB050705D3121B63EB4B
:100F0000050306434CEA010C49084FEA30009218E9
:100F10005B4150EA0107EDD152EA030012D082EAA8
:100F2000040083EA0501084305D0101BAB4106D23B
:100F30000122002306E000224FF0004302E06FF0A0
:100F4000010253101AEB06004CEB085110EB0A009B
:100F500041EB0B01BDE8F04D00F0ACBA0EB540F22C
:100F6000334202920022CDE90022134600F0B1FA8A
:100F700003B000BDC1F30A52C1F3130140F2FF33C5
:100F800041F480119A4202DA00200146704740F293
:100F900033439A42A2F2334202DC5242FFF778BD59
:100FA000FFF767BD30B5041E71F1000404DB4FF09C
:100FB0000044404264EB0101141E73F1000405DBA0
:100FC0001C464FF00043524263EB0403994208BFB2
:100FD000904230BD01F0004330B421F0004150EAAE
:100FE000010206D00A0DA2F56072C1F31301002AB6
:100FF00002DC30BC00207047440F44EAC104C10049
:10100000E01830BC00EBC25000F01DBA1CB5094816
:101010000090094801900546009C06E0E06840F019
:10102000010394E8070098471034AC42F6D3FFF769
:1010300037F9000010F1060830F10608202A06DB17
:10104000CB17203A41FA02F043EAE07306E041FA96
:1010500002F3D040C2F12002914008431946704784
:10106000004870470049060810B50446FFF7F8FF2E
:101070000068005D00F0010010BD00002DE9F34F95
:101080008BB04FF0000801F10C000C464FF0010B43
:1010900046460DF1080A01906269012101989047C6
:1010A000051E2DD0252D2CD0216A8847C0B162693C
:1010B000012101989047216A88470028F7D1411EF5
:1010C00062690198904700E0761CA1690B988847F7
:1010D000216A88470028F7D1E1690B988847DBE748
:1010E000A1690B9888470746A84201D1761CD3E72F
:1010F000E1690B9888477F1C02D1B8F1000F6FD0CF
:1011000046E1002762693D463946019890472A2802
:1011100004D162690121019890470125DFF884928A
:101120006269012101989047A0F130010A290AD291
:101130004F45E5DC07EB870100EB4107303FDFD48B
:1011400045F01005ECE7E90601D46FF000476C2884
:101150000AD04C2814D0682815D06A280DD07428DD
:101160001CD07A281AD01DE06269012101989047AD
:101170006C2802D045F0040514E045F002050DE0AE
:1011800045F020050AE0626901210198904768282E
:1011900002D045F0080505E045F4006562690121CB
:1011A00001989047C4E9015765283DD019DC5828BB
:1011B0007AD00CDC452837D004DC252826D04128FD
:1011C00031D131E046282FD047282CD12CE05B28A4
:1011D00077D0612828D063287CD0642823D15AE0B6
:1011E000D0E06F2848D008DC66281DD067281BD0C7
:1011F000692821D06E2816D127E0702845D07328A1
:1012000068D0752847D078280DD14DE0A1690B989A
:101210008847054625283FF469AFE1690B98884760
:101220006D1C3FF46AAFB3E023466A466FF00100DD
:101230000B99FFF7DFFA9EE045F040006060A807D9
:1012400023464FF0000236D43EE0E8077FF447AF74
:101250002068011D21600068290501D506701BE783
:10126000290701D5068017E7A90703D5F117C0E9BB
:10127000006111E706600FE745F040006060A807D5
:1012800023464FF0080216D41EE040F60E0125EA70
:101290000100606016E045F040006060A80723464A
:1012A0004FF00A0207D40FE045F040006060A80745
:1012B00008D5234610226FF001000B99AFF3008090
:1012C00059E007E0234610226FF001000B99FFF769
:1012D000E7F850E04FF000094F464B46632802D034
:1012E0005B2806D040E0E80601D40120A060012779
:1012F0003AE062690121019890475E2805D14FF0DC
:1013000001096269494601989047216939B900216C
:101310000A46534643F82120491C0829FADBB0B39A
:10132000216969B9C11700EBD16253110AEB83013E
:1013300022F01F02821A01200B68904003430B60C9
:1013400062690121019890475D28E8D1B9F1000F49
:1013500009D00020514651F82020D24341F82020E6
:10136000401C0828F7DB02AB224600976FF0010013
:101370000B99FFF73BF900280CDA401C08D1BBF1B0
:10138000000F05D04FF0FF300DB0BDE8F08FFFE744
:101390004046F9E7E90701D108F1010806444FF09A
:1013A000000B79E6CCCCCC0C2DE9F05F82460078BE
:1013B000002715468B460AF10104B946302801D0B2
:1013C0009DB113E014F8010B0127782803D05828A9
:1013D00001D045B10AE00DB1102D07D1002710252D
:1013E00014F8010B02E0082500E00A250026B046AB
:1013F0000EE005FB080005FB06F1012701EB104696
:101400001FFA80F8B6F5803F00D3B94614F8010BF7
:101410002946FFF74DFB0028EBDABBF1000F05D0A2
:101420000FB1641E00E05446CBF80040B9F1000F44
:1014300006D062F099FC02210160C81EBDE8F09F51
:1014400048EA0640FAE70029A8BF7047401C490057
:1014500008BF20F00100704710B4B0FA80FC00FA19
:101460000CF050EA010404BF10BC704749B1CCF144
:10147000200421FA04F411FA0CF118BF01212143D0
:101480000843A3EB0C01CB1D4FEA00614FEA10208B
:1014900042BF002010BC704700EBC350104400292D
:1014A000A4BF10BC7047401C490008BF20F00100D9
:1014B00010BC704710B5141E73F1000408DA401C0C
:1014C00041F1000192185B411A4301D120F0010063
:1014D00010BD2DE9F04D92469B4611B1B1FA81F253
:1014E00002E0B0FA80F220329046FFF7C2FA0446DA
:1014F0000F4640EA0A0041EA0B0153465A460843A8
:1015000013D0114653EA010019D0C8F140025046E9
:10151000FFF7BEFA05460E46504659464246FFF7CB
:10152000A8FA084305D0012004E020463946BDE86A
:10153000F08D0020054346EAE0762C4337430A98B5
:101540006305E40AA0EB08000022FD0A44EA4754C0
:101550000A3002D500200146E9E70105101969416A
:10156000DDE9084500196941BDE8F04DA2E770B515
:101570008C1810F8015B15F0070301D110F8013B3E
:101580002A1106D110F8012B03E010F8016B01F8C5
:10159000016B5B1EF9D12B0705D40023521E0DD41D
:1015A00001F8013BFAE710F8013BCB1A921C03E06B
:1015B00013F8015B01F8015B521EF9D5A142D8D3A3
:1015C000002070BD00000000B0B50446006842F283
:1015D000001140F48070C4F20201884218D142F236
:1015E0000830C4F20200006810F4403F18D007F041
:1015F00017F861680546B1F5803F05D0B1F5403F69
:101600002CD0B1F5003F2AD1080CB5FBF0F526E04F
:1016100046F20830C5F60200006810F4403FE6D1FB
:101620004FF40020002105F043FF61680546A1F555
:1016300080224FEAB2420A2A11D8DFE802F00707F7
:101640000707070755535951570000BF6FF00100B6
:1016500000EA5140B5FBF0F501E000BFAD0804F031
:101660001FFE41F2030188420ED8206842F6015164
:10167000C0F231118D4281682CBF41F4807121F498
:1016800080718160B0BD00BF4BF62140C0F2BE004A
:10169000854205D82068816821F440718160B0BD21
:1016A00047F64100C0F27D10854207D8206801222C
:1016B000816862F309218160B0BD00BF20684FF2EC
:1016C0008101C0F2FA218D42816805D8022262F3BD
:1016D00009218160B0BD00BF41F440718160B0BD9F
:1016E000ED09BCE76D09BAE72D09B8E72D0AB6E7A1
:1016F000AD09B4E700000000F0B581B00446006811
:101700008168C9074AD14FF6C0778168C7F6FF776D
:1017100007F17F0211420BD0606D40F01000606550
:10172000A06D40F00100A065012001B0F0BD00BF38
:101730008168394041F00101816004F0B9FD42F255
:10174000000246F20836C4F20202216802F58073F4
:1017500002F54275C5F60206994208BF2E4691422F
:1017600008BF2E4699420546306814D110F01F007C
:1017700014D110E08868C00704D18868384040F070
:101780000100886004F094FD401B2168032802D307
:101790000868C007C0D00868C007EBD0002001B0BF
:1017A000F0BD00000000000040F63400C2F200402E
:1017B00003F02EBC0000000000F0F6F800F014F971
:1017C00000F0A2F800F0CCF800F032F960F094FFDD
:1017D000FEE700000000000040F2642B4BF2806442
:1017E0004BF610094BF283764BF262574BF603052A
:1017F0004FF00008C2F2004BC0F60604C0F606091E
:10180000C0F60606C0F60607C0F606050FE000BFE4
:1018100020464946324662F069FA2AA062F066FA2A
:101820003846294662F062FA00F026F9E0B1DBF8AA
:1018300000004FF0FF3161F0E3FB0128F7D161F0C8
:101840005BFFB8F1000F8246E2D049F2E031AAEB2B
:101850000800C0F204018842DAD2204609A10BA296
:1018600062F044FA0AA006E020464946324662F099
:101870003DFA1EA0D04662F039FA3846294662F099
:1018800035FAD4E71B5B303B33316D005B455D00BF
:10189000416C61726D20747269676765726564205E
:1018A0006275742069676E6F726564206475652067
:1018B000746F20352D6D696E20636F6F6C646F7768
:1018C0006E2E0000436F6E646974696F6E206D65E3
:1018D000742C2073656E64696E6720656D65726730
:1018E000656E637920534D532E2E2E00534D532099
:1018F00073656E742E20436F6F6C646F776E207308
:101900007461727465642E0010B582B040F2642474
:10191000C2F20044206828B901200021032261F0AE
:101920003BF9206041F2D97007A1C0F600004FF4E6
:101930008072002304344FF00C0CCDE900C461F038
:10194000F3FC02B010BD00BF416C61726D5F4E6F61
:10195000746966795F5461736B00000000000000D9
:1019600080B582B002F008FB02F06AFD02F0ECFAEA
:101970004AF6716045F27C3CC0F6000006A14FF4C7
:1019800000620023C2F2054C4FF0080ECDE900ECD6
:1019900061F0CAFC02B080BD4C76676C5F54617325
:1019A0006B0000000000000080B582B000F090FBEA
:1019B0004BF6C91045F2803CC0F6000006A14FF47A
:1019C00080720023C2F2054C4FF0040ECDE900EC0A
:1019D00061F0AAFC02B080BD5254435F416C617259
:1019E0006D5F5461736B000080B582B000F0E4F865
:1019F00000F0EEFA02F070FE4BF6A93045F2843C9E
:101A0000C0F6000006A14FF480720023C2F2054C1C
:101A10004FF0050ECDE900EC61F086FC02B080BD10
:101A200053656E736F725F5461736B00000000004A
:101A300010B582B040F26C24C2F20044206828B98C
:101A400001200021032261F0A7F820604DF65130FB
:101A500007A1C0F600004FF48072002304344FF059
:101A60000A0CCDE900C461F05FFC02B010BD00BFFC
:101A7000566F69636500000010B5C0B040F68C4039
:101A800039A1C2F200400B22642308F0F5FE61F098
:101A900023FE012804D1C92000F09AFE03E000BF14
:101AA000C92060F029FD40F68C4032A1C2F200400E
:101AB0001422642308F0E0FE61F00EFE012803D139
:101AC000C92000F085FE02E0C92060F015FD40F25B
:101AD00078026C462DA1C2F20042204662F030F935
:101AE0002046FEF79DFC82B240F68C40C2F20040D8
:101AF0006423214608F0C0FE61F0EEFD012803D109
:101B0000C92000F065FE02E0C92060F0F5FC40F25B
:101B1000B8026C4621A1C2F20042204662F010F9E0
:101B20002046FEF77DFC82B240F68C40C2F20040B7
:101B30006423214608F0A0FE61F0CEFD012803D108
:101B4000C92000F045FE02E0C92060F0D5FC40F657
:101B50008C4014A1C2F200400122642308F08CFEE4
:101B6000002040B010BD00BF41542B434D47463DBF
:101B7000310D0A0041542B43534D503D34392C3123
:101B800036372C302C380D0A0000000041542B430E
:101B90004D47533D222573220D0A000025730D0A7F
:101BA000000000001A00000040F27030C2F2004055
:101BB000103070470000000080B540F270304BF2EA
:101BC000F161C2F200404BF2D162C0F60001C0F6F2
:101BD0000002016042F2D171426040F69802C0F604
:101BE0000001C2F20042C0E9021270210177052013
:101BF00000F0EEFD002080BD2DE9F04184B040F200
:101C0000703443F2AC30C2F2004403900020CDF8AF
:101C100007000190207F2568E36803A90322A847F5
:101C200048B9A16855208847207F01A96568072227
:101C3000E368A84720B1012004B0BDE8F08100BFEF
:101C40009DF904E031216FEA0E00BEF1000F81EA38
:101C5000400248BF420050B25300002848BF81EA0A
:101C6000420358B25A00002848BF81EA430250B2EA
:101C70005300002848BF81EA420358B25A000028A6
:101C800048BF81EA430250B25300002848BF81EAAE
:101C9000420358B25A00002848BF81EA430250B2BA
:101CA0005300002848BF81EA42039DF805C083EA3B
:101CB0000C0042B24300002A48BF81EA400358B2F8
:101CC0005A00002848BF81EA430250B2530000285E
:101CD00048BF81EA420358B25A00002848BF81EA4F
:101CE000430250B25300002848BF81EA420358B271
:101CF0005A00002848BF81EA430250B2550000282C
:101D000048BF81EA42059DF8068068B26A00002853
:101D100048BF81EA450282EA080042B24500002A33
:101D200048BF81EA400568B26A00002848BF81EADE
:101D3000450250B25500002848BF81EA420568B20A
:101D40006A00002848BF81EA450250B255000028C9
:101D500048BF81EA420568B26A00002848BF81EAAC
:101D6000450250B25500002848BF81EA42059DF85F
:101D7000072068B26E00002848BF81EA450686EA5F
:101D8000020045B24600002D48BF81EA400670B20D
:101D90007500002848BF81EA460568B26E00002839
:101DA00048BF81EA450670B27500002848BF81EA45
:101DB000460568B26E00002848BF81EA450670B249
:101DC0007500002848BF81EA460568B26E00002809
:101DD00048BF81EA450670B2750000289DF80800EA
:101DE00048BF81EA460545406EB26F00002E48BFED
:101DF00081EA45077DB27E00002D48BF81EA470693
:101E000075B27700002D48BF81EA46077DB27E009B
:101E1000002D48BF81EA470675B27700002D48BF04
:101E200081EA46077DB27E00002D48BF81EA470661
:101E300075B27700002D48BF81EA46077DB27E006B
:101E4000002D48BF81EA47069DF809506E4077B2E1
:101E50007300002F48BF81EA46035EB25F00002E88
:101E600048BF81EA43077BB27E00002B48BF81EA6E
:101E7000470673B27700002B48BF81EA46077BB262
:101E80007E00002B48BF81EA470673B27700002B23
:101E900048BF81EA46077BB27E00002B48BF81EA3B
:101EA000470673B27700002B48BF81EA46079DF8CA
:101EB0000A10FBB28B4229D10002C82362F31340FF
:101EC0009FED141A28444FEA0C31584341EA081197
:101ED00041EA1211642200EE100A01FB02F09FEDAC
:101EE0000E2A84F818E0B8EE400A00EE012A00EE4F
:101EF000100A0020B8EE400A84ED042A20EE010A00
:101F000084ED050A04B0BDE8F08100BF022004B0F2
:101F1000BDE8F08100008035000048C200000000EC
:101F2000B0B582B0FE2840F2903428BFFE20C2F245
:101F3000004401221F2898BF1F202568E36841093B
:101F4000207401F140008DF80300A07C0DF1030125
:101F5000A847207C03212568E36861F35F108DF8B2
:101F60000400A07C01A90122A847657C032D17D09D
:101F7000022D0BD0012D1FD110208DF80500A07C63
:101F8000E368D4F800C00DF1050112E011208DF8CE
:101F90000600A07CE368D4F800C00DF1060108E05B
:101FA00013208DF80700A07CE368D4F800C00DF181
:101FB00007010122E047657402B0B0BD00000000D7
:101FC00040F29030C2F20040143070470000000030
:101FD00010B582B040F290344BF2F160C2F200448E
:101FE000C0F600004BF2D16140F69803206042F247
:101FF000D170C0F60001C0F600006160C2F200437B
:10200000C4E902034620A07440F24520208200204B
:10201000606101208DF806000DF1060146200122C5
:1020200009F066FB4520FFF77BFF11208DF80700C4
:10203000A07CE368D4F800C00DF107010122E0475D
:1020400000200221617402B010BD000000000000F9
:10205000B0B582B040F290350020C2F20045ADF834
:1020600006000DF106010222A87C6C68EB68A0470F
:1020700010B1012002B0B0BDBDF8060040F2591108
:102080002A7C40BA484300EE100A02EB42004000AE
:1020900001EE100A687CB8EE400A02284FF00000FA
:1020A000B8EE411A80EE010AB6EE001A20EE011ACF
:1020B00001FE000A85ED050A02B0B0BD0000000077
:1020C00040F27000C2F200407047000000000000C3
:1020D00010B500248021C5F602040022204604F039
:1020E000D7F804F500602021002204F0D1F840F276
:1020F0007000C2F20040BDE8104000F005B90000D9
:102100002DE9F04186B040F600050646C5F6020509
:102110008021A5F5006800224046002704F0B8F8A9
:1021200020210022284604F0B3F8802101224046F5
:10213000012404F0ADF8022000F07AFB46F0010023
:1021400000F07EFA102001A9CDE9010703200490D8
:1021500028460597039403F0BFFF2021002228465C
:1021600004F096F8022000F063FB1021284604F0EA
:1021700087F801382021B0FA80F00122460928466C
:1021800004F086F8022000F053FB202100222846AC
:1021900004F07EF8022000F04BFB1021284604F0EA
:1021A0006FF801382021B0FA80F00122400946EA98
:1021B0004006284604F06CF8022000F039FB20218C
:1021C0000022284604F064F8022000F031FB1021C0
:1021D000284604F055F801382021B0FA80F0012299
:1021E000400946EA8006284604F052F8022000F032
:1021F0001FFB20210022284604F04AF8022000F0AC
:1022000017FB1021284604F03BF801382021B0FAD2
:1022100080F00122400946EAC006284604F038F85A
:10222000022000F005FB20210022284604F030F8AF
:10223000022000F0FDFA1021284604F021F80138B0
:102240002021B0FA80F00122400946EA0016284613
:1022500004F01EF8022000F0EBFA202100222846AC
:1022600004F016F8022000F0E3FA1021284604F0EA
:1022700007F801382021B0FA80F00122400946EA2F
:102280004016284604F004F8022000F0D1FA20217C
:102290000022284603F0FCFF022000F0C9FA1021BA
:1022A000284603F0EDFF01382021B0FA80F001222A
:1022B000400946EA8016284603F0EAFF022000F0B3
:1022C000B7FA20210022284603F0E2FF022000F0A6
:1022D000AFFA1021284603F0D3FF01382021B0FACD
:1022E00080F00122400946EAC014284603F0D0FFDE
:1022F000022000F09DFA80210022404603F0C8FF32
:10230000E0B206B0BDE8F0812DE9F04100240646B8
:10231000C5F6020480210022204603F0B9FF04F52F
:10232000006520210022284603F0B2FF802101220F
:10233000204603F0ADFF022000F07AFA8E2000F074
:102340007FF9002000F07CF980210022204603F074
:102350009FFFB0794FF0CD08002200FB08F1C90AB9
:1023600001EB410100EB41078021204603F090FF83
:1023700020210022284603F08BFF802101222046E5
:1023800003F086FF022000F053FA802000F058F995
:10239000F8B200F055F980210022204603F078FFC2
:1023A0007079002200FB08F1C90A01EB410100EB42
:1023B00041078021204603F06BFF202100222846A0
:1023C00003F066FF80210122204603F061FF022016
:1023D00000F02EFA822000F033F9F8B200F030F964
:1023E00080210022204603F053FF3079002200FBB9
:1023F00008F1C90A01EB410100EB410780212046A9
:1024000003F046FF20210022284603F041FF8021EF
:102410000122204603F03CFF022000F009FA84204C
:1024200000F00EF9F8B200F00BF9802100222046EE
:1024300003F02EFFF078002200FB08F1C90A01EB3F
:10244000410100EB41078021204603F021FF2021BC
:102450000022284603F01CFF80210122204603F0C1
:1024600017FF022000F0E4F9862000F0E9F8F8B246
:1024700000F0E6F880210022204603F009FFB07842
:10248000002200FB08F1C90A01EB410100EB410702
:102490008021204603F0FCFE20210022284603F084
:1024A000F7FE80210122204603F0F2FE022000F018
:1024B000BFF9882000F0C4F8F8B200F0C1F880211C
:1024C0000022204603F0E4FEF079002200FB08F130
:1024D000C90A01EB410100EB41078021204603F0CE
:1024E000D7FE20210022284603F0D2FE80210122BF
:1024F000204603F0CDFE022000F09AF98A2000F079
:102500009FF8F8B200F09CF880210022204603F0EA
:10251000BFFE308841F27B42810851436422490C5E
:1025200001FB1200672281B251430022890A01EBAC
:10253000410100EB41068021204603F0A9FE202145
:102540000022284603F0A4FE80210122204603F049
:102550009FFE022000F06CF98C2000F071F8F0B2C0
:1025600000F06EF880210022204603F091FE8021C9
:102570000022204603F08CFE20210022284603F092
:1025800087FE80210122204603F082FE022000F017
:102590004FF98E2000F054F8802000F051F880218F
:1025A00000222046BDE8F04103F072BE00000000AA
:1025B00010B504468020FFF7A3FD0109A1EB8101BE
:1025C00000EB4100A0718220FFF79AFD0109A1EB09
:1025D000810100EB410060718420FFF791FD01094A
:1025E000A1EB810100EB410020718620FFF788FDFF
:1025F0000109A1EB810100EB4100E0708820FFF7A9
:102600007FFD0109A1EB810100EB4100A0708A2050
:10261000FFF776FD0109A1EB810100EB4100E071BC
:102620008C20FFF76DFD0109A1EB810100EB41005A
:102630004FF4FA6151FA80F0208010BD00000000D4
:10264000B0B586B040F600040021C5F6020405913D
:10265000054603910320049001A92046102201920F
:102660000122029203F038FD20210022204603F0CF
:102670000FFE05F001021021204603F009FE0220A2
:1026800000F0D6F820210122204603F001FE0220AE
:1026900000F0CEF820210022204603F0F9FDC5F31A
:1026A00040021021204603F0F3FD022000F0C0F8A4
:1026B00020210122204603F0EBFD022000F0B8F8B3
:1026C00020210022204603F0E3FDC5F38002102103
:1026D000204603F0DDFD022000F0AAF820210122AF
:1026E000204603F0D5FD022000F0A2F820210022B0
:1026F000204603F0CDFDC5F3C0021021204603F0B3
:10270000C7FD022000F094F820210122204603F0AA
:10271000BFFD022000F08CF820210022204603F0AB
:10272000B7FDC5F300121021204603F0B1FD0220D1
:1027300000F07EF820210122204603F0A9FD0220AE
:1027400000F076F820210022204603F0A1FDC5F319
:1027500040121021204603F09BFD022000F068F893
:1027600020210122204603F093FD022000F060F8B2
:1027700020210022204603F08BFDC5F3801210219A
:10278000204603F085FD0220ED0900F051F82021DC
:102790000122204603F07CFD022000F049F82021B0
:1027A0000022204603F074FD102120462A4603F043
:1027B0006FFD022000F03CF820210122204603F0AA
:1027C00067FD022000F034F806B0B0BD0000000044
:1027D00080B541F2040E40F21803CEF2000EC2F2B0
:1027E0000043DEF80020D3F800C04DF68363C4F246
:1027F0001B33ACFB0331890C48434FF47A714843D7
:10280000DEF80010891A81420ED2DEF80010891A13
:1028100081423EBFDEF80010891A814204D2DEF800
:102820000010891A8142EBD380BD00000000000037
:1028300080B541F2040E40F21803CEF2000EC2F24F
:102840000043DEF80020D3F800C04DF68363C4F2E5
:102850001B33ACFB0331890C4843DEF80010891AA6
:1028600081420ED2DEF80010891A81423EBFDEF8A6
:102870000010891A814204D2DEF80010891A8142C0
:10288000EBD380BD000000004EF6FC5141F2000089
:10289000CEF20001CEF200000A6842F080720A60B7
:1028A0000168C90701D100214160016841F00101BF
:1028B000016070470000000080B54FF47A70FFF7A8
:1028C00087FF4BF25D504BF27671C0F60600C0F602
:1028D000060140F6B83200F0CBF978B14BF28060D7
:1028E0004BF608014BF27F72C0F60600C0F60601F7
:1028F000C0F6060261F0FAF9B3A04EE1B8A0BBA1A0
:1029000041F2883200F0B4F980B14BF280604BF6AE
:1029100008014BF27F72C0F60600C0F60601C0F651
:10292000060261F0E3F9B3A037E100BF4BF2767124
:10293000B5A0C0F6060140F6B83200F099F978B1BA
:102940004BF280604BF608014BF27F72C0F6060036
:10295000C0F60601C0F6060261F0C8F9ACA01CE1A1
:102960004BF27671AFA0C0F6060140F6B83200F027
:102970007FF978B14BF280604BF608014BF27F7221
:10298000C0F60600C0F60601C0F6060261F0AEF918
:10299000A8A002E14BF2BB404BF27671C0F60600F4
:1029A000C0F6060144F6206200F062F980B14BF2F5
:1029B00080604BF608014BF27F72C0F60600C0F64D
:1029C0000601C0F6060261F091F99FA0E5E000BFA4
:1029D0004BF2DE404BF27671C0F60600C0F60601FF
:1029E00040F6B83200F044F990B14BF280604BF6FB
:1029F00008014BF27F72C0F60600C0F60601C0F671
:102A0000060261F073F94BF20760C0F60600C4E0FD
:102A10004BF2767191A0C0F6060140F6B83200F094
:102A200027F998B14BF280604BF608014BF27F72A8
:102A3000C0F60600C0F60601C0F6060261F056F9BF
:102A40004BF22360C0F60600A7E000BF4BF2045033
:102A50004BF27671C0F60600C0F6060140F6B832B9
:102A600000F006F990B14BF280604BF608014BF292
:102A70007F72C0F60600C0F60601C0F6060261F0DD
:102A800035F94BF2EF50C0F6060086E04BF22F50BE
:102A90004BF27671C0F60600C0F6060140F6B83279
:102AA00000F0E6F890B14BF280604BF608014BF273
:102AB0007F72C0F60600C0F60601C0F6060261F09D
:102AC00015F94BF23860C0F6060066E04BF2505044
:102AD0004BF27671C0F60600C0F6060140F6B83239
:102AE00000F0C6F890B14BF280604BF608014BF253
:102AF0007F72C0F60600C0F60601C0F6060261F05D
:102B0000F5F84BF2D550C0F6060046E04BF2806077
:102B10004BF610014BF28372C0F60600C0F60601B8
:102B2000C0F6060261F0E2F84BF26750C0F606000C
:102B300061F05CFE4BF262504BF60301C0F60600FA
:102B4000C0F6060161F0D2F840F2B850C2F200407F
:102B500000F08EFB00281CBF012080BD40F2B85061
:102B6000C2F2004000F0E4FF40F2A830C2F20040A0
:102B700000F066F900B34BF280604BF608014BF2AF
:102B80007F72C0F60600C0F60601C0F6060261F0CC
:102B9000ADF84BF26660C0F6060061F027FE4BF21E
:102BA00062504BF60301C0F60600C0F6060161F064
:102BB0009DF8012080BD00BF40F2A830C2F2004065
:102BC00000F0A6FA002080BD415420E9809AE4BFBD
:102BD000A1E6B58BE8AF95E5A4B1E8B4A50D00007A
:102BE00041542B5253540D0A000000007265616479
:102BF00079000000E6A8A1E59D97E5A48DE4BD8DD0
:102C0000E5A4B1E8B4A50D00415445300D0A00001B
:102C10004154453020E8AEBEE7BDAEE5A4B1E8B40E
:102C2000A50D000041542B43574D4F44453D310DF8
:102C30000A000000E6A8A1E5BC8FE8AEBEE7BDAE85
:102C4000E5A4B1E8B4A50D005769466920E8BF9E28
:102C5000E68EA5E5A4B1E8B4A50D000041542B43D0
:102C600049504D55583D300D0A000000000000004D
:102C70002DE9F04FC1B015468846044603F018FB15
:102C8000064654B32046FDF7CBFB82B240F6F8303F
:102C9000C2F200406423214607F0EEFD4BF2806053
:102CA0004BF610014BF28372C0F60600C0F6060127
:102CB000C0F6060261F01AF84BF65E002146C0F637
:102CC000060061F013F84BF262504BF60301C0F6B8
:102CD0000600C0F6060161F009F803F0E9FA801B6E
:102CE000A84249D240F2B23940F264344BF2625AFF
:102CF0004BF6030BC2F20049C2F2004401AFC0F62A
:102D0000060AC0F6060B04E003F0D2FA801BA842C4
:102D100032D24FF4807248463946234608F0E8FE26
:102D20000028F1D14BF280604BF610014BF2837218
:102D3000C0F60600C0F60601C0F6060260F0D6FF37
:102D400027A0394660F0D2FF5046594660F0CEFFCA
:102D500038464146FDF746FB70BB4BF27971384669
:102D6000C0F60601FDF73EFB0028CDD00124204629
:102D700041B0BDE8F08F00BF4BF280604BF6100110
:102D80004BF28372C0F60600C0F60601C0F60602DA
:102D900060F0ACFF22A060F0A9FF01244BF262506A
:102DA0004BF60301C0F60600C0F6060160F09EFF78
:102DB000204641B0BDE8F08F4BF280604BF6100129
:102DC0004BF28372C0F60600C0F60601C0F606029A
:102DD00060F08CFF09A0414660F088FF0024DDE729
:102DE0004553503832363620E5A484E79086E79B79
:102DF000B8E5BA94203A20257300000045535038B6
:102E000032363620E6A380E6B58BE588B0E79BAE88
:102E1000E6A087E5938DE5BA94203A20257300005B
:102E20004553503832363620E7AD89E5BE85E59307
:102E30008DE5BA94E8B685E697B60000000000007C
:102E40002DE9F047AAB04BF23E54804640F6F830E8
:102E5000C0F60604C2F2004011226423214607F0A6
:102E60000BFD4BF280604BF610014BF28372C0F603
:102E70000600C0F60601C0F6060260F037FF4BF60A
:102E80005E002146C0F6060060F030FF4BF2625053
:102E90004BF60301C0F60600C0F6060160F026FFFF
:102EA00003F006FA054603F003FA401B00097C28EC
:102EB00000F2B28040F2B23640F266374BF220792F
:102EC0004BF2797AC2F20046C2F2004705ACC0F676
:102ED0000609C0F6060A06E003F0EAF9401BB0F561
:102EE000FA6F80F099808022304621463B4608F0F8
:102EF000FFFD0028F0D120464946FDF773FA38B9A6
:102F000020465146FDF76EFA0028E5D084E000BF68
:102F10004BF2207105A8C0F60601FDF763FA002800
:102F20007AD008F103010D3008F1040208F105031D
:102F300008F10607CDF810808DE88E006CA125AA57
:102F40000DF19E03FDF790FA072865D146F24A116C
:102F5000DDF89E00C0F26E0188424FF0000088F854
:102F600002005DD046F24651DDF89E00C0F26201DB
:102F7000884257D046F24D11DDF89E00C0F2720132
:102F8000884251D047F24101DDF89E00C0F2720143
:102F900088424BD046F24D11DDF89E00C0F2790117
:102FA000884245D047F24A51DDF89E00C0F26E01DA
:102FB00088423FD047F24A51DDF89E00C0F26C01D2
:102FC000884239D047F24151DDF89E00C0F26701D6
:102FD000884233D046F25351DDF89E00C0F27001B2
:102FE00088422DD046F24F31DDF89E00C0F27401C8
:102FF000884227D046F64E71DDF89E00C0F2760179
:10300000884221D046F24451DDF89E00C0F26301AF
:1030100088421BD001211DE001202AB0BDE8F087C5
:10302000012014E0022012E0032010E004200EE052
:1030300005200CE006200AE0072008E0082006E052
:10304000092004E00A2002E00B2000E00C2088F8B0
:103050000200002146F64D722598C0F26E029042A1
:103060004FF0FF0088F807002CD047F25452259803
:10307000C0F26502904227D046F257522598C0F21E
:103080006402904222D046F654022598C0F275029E
:1030900090421DD047F246222598C0F26902904224
:1030A00018D046F253122598C0F27402904213D001
:1030B00047F253522598C0F26E0290420ED0012082
:1030C00010E000BF01200AE0022008E0032006E033
:1030D000042004E0052002E0062000E0072088F834
:1030E00007000020002918BF01202AB0BDE8F087A2
:1030F000253373202533732025686864202568688C
:10310000643A256868643A25686864202568640024
:103110002DE9F04F85B000284CD0C7794BF2806A7A
:103120004BF6100B4BF28378A7F10801C0F6060AA4
:10313000C0F6060BC0F6060811F1070F044650460C
:103140005946424638BF002760F0D0FD4BF24F7021
:10315000C0F6060060F0CAFD4BF262594BF603015F
:10316000C0F60609C0F60601484660F0BFFD5046AD
:103170005946424660F0BAFD1FA52188A278207901
:10318000E3786679A47955F82770CDE9000622A086
:103190000294039760F0AAFD4BF603014846C0F67F
:1031A000060160F0A3FD50465946424660F09EFD80
:1031B00026A011E04BF280604BF608014BF27F72C3
:1031C000C0F60600C0F60601C0F6060260F08EFDED
:1031D0004BF64F10C0F6060060F088FD4BF26250CF
:1031E0004BF60301C0F60600C0F6060105B0BDE8C7
:1031F000F04F60F07BBD00BFB0B7060830B80608DE
:10320000E5B70608A1B70608C4B80608F2B706086D
:1032100096B8060847B80608E5BD93E5898DE69798
:10322000B6E997B4EFBC9A253034642D253032646A
:103230002D2530326420253032643A253032643A0C
:103240002530326420282573290000003D3D3D3D96
:103250003D3D3D3D3D3D3D3D3D3D3D3D3D3D3D3D9E
:103260003D3D3D3D3D3D3D3D3D3D3D3D0000000082
:103270002DE9F04F81B02DED028B84B040F2502B40
:103280000290C2F2004B40F2B230C2F20040002184
:10329000CBF802108BF8001008F006FC4BF28068A7
:1032A0004BF610094BF28376C0F60608C0F6060905
:1032B000C0F6060640464946324660F017FD4BF61A
:1032C0002F10C0F6060060F011FD4BF262574BF66E
:1032D0000304C0F60607C0F606043846214660F02F
:1032E00005FD4BF21E4540F6F830C0F60605C2F269
:1032F00000409C226423294607F0BEFA4046494616
:10330000324660F0F3FC4BF65E002946C0F606003C
:1033100060F0ECFC3846214660F0E8FC4046494647
:10332000324660F0E3FC0FF2547061F05FFA384609
:10333000214660F0DBFC02F0BBFF044602F0B8FF60
:10334000001B41F2873188424FF00108039400F2DC
:10335000118140F2B23744F67C74C2F2004740F269
:10336000FE39C2F205444FF0011605E00120024487
:10337000ABF80420100469D0384608F085FB00281B
:1033800000F0CE80384608F09BFB9BF8001089B116
:10339000BBF802304B4517D8C5B2BBF80420591C06
:1033A0007B2DABF80210E054E0D07D2DE2D14FF63A
:1033B000FF70DCE7C1B27B29DED18BF80080CBF84F
:1033C00002602070D8E700BF4BF280654BF6080121
:1033D000C0F606054BF27F722846C0F60601C0F61D
:1033E000060260F083FC0FF2B06060F07FFC4BF2ED
:1033F000625A4BF60301C0F6060AC0F606015046B3
:1034000060F074FC0020CBF802008BF80000384616
:1034100008F04AFB4BF610014BF283722846C0F6C7
:103420000601C0F6060260F061FC4BF62F10C0F6F4
:10343000060060F05BFC50464FF001164BF60301AE
:10344000C0F6060160F052FC6AE000BF0020605444
:10345000CBF802008BF80000384608F025FB4BF64D
:1034600010054BF2837A4BF28060C0F60605C0F679
:10347000060AC0F606002946524660F037FC4BF6B5
:103480002F10C0F6060060F031FC4BF262504BF694
:103490000301C0F60600C0F606010E4660F026FCE9
:1034A0004BF280602946C0F60600524660F01EFCD2
:1034B0000FF2046061F09AF94BF262503146C0F6A7
:1034C000060060F013FC4BF280602946C0F606004F
:1034D00052464FF0011660F009FC0FF200602146E1
:1034E00060F004FC4BF262504BF60301C0F606009C
:1034F000C0F6060160F0FAFB029888B120460BF096
:10350000A7F9D8B10FF2E05105460BF07DF9002183
:103510000BF042F9002840F0C58028460BF00CF96A
:103520000520FFF755F902F0C3FE0399401A41F256
:1035300088318842FFF420AF1AE000BF4BF2806070
:103540004BF608014BF27F72C0F60600C0F606018A
:10355000C0F6060260F0CAFB4BF61D10C0F606006E
:1035600060F0C4FB4BF26250C0F6060066E700BF95
:103570004FF001084FF47A70FFF72AF94BF2077405
:1035800040F6F830C0F60604C2F20040032264237D
:10359000214607F071F94BF280604BF610014BF2B7
:1035A0008372C0F60600C0F60601C0F6060260F09F
:1035B0009DFB4BF65E002146C0F6060060F096FBD0
:1035C0004BF262504BF60301C0F60600C0F606014E
:1035D00060F08CFB4FF47A70FFF7FAF84BF25D5015
:1035E0004BF27671C0F60600C0F606014FF4FA629F
:1035F000FFF73EFBE8B14BF280604BF608014BF25F
:103600007F72C0F60600C0F60601C0F6060260F042
:103610006DFB4BF2AF50C0F6060061F0E7F84BF2DD
:1036200062504BF60301C0F60600C0F6060160F0DA
:103630005DFB4BF28060B8F1000FC0F606000FD0C2
:103640004BF608014BF27F72C0F60601C0F6060287
:1036500060F04CFB4BF252600124C0F606000EE015
:103660004BF610014BF28372C0F60601C0F606025B
:1036700060F03CFB4BF295500024C0F6060061F070
:10368000B5F84BF262504BF60301C0F60600C0F6E7
:10369000060160F02BFB204604B0BDEC028B01B0AC
:1036A000BDE8F08F0FF24841019503900BF0ACF8A4
:1036B0000FF2484104460BF0A7F805460BF0BCF8A2
:1036C00038B1296929B11F220298FCF79DFE00211B
:1036D000C1770FF22C4120460BF096F805460BF00F
:1036E000ABF850B1296941B1029D1F2205F12000BC
:1036F000FCF78AFE002085F83F000FF20C412046BF
:103700000BF082F805460BF097F850B1296941B1EA
:10371000029D072205F14000FCF776FE002085F8A7
:1037200047000FF2EC3120460BF06EF805460BF027
:1037300083F850B1296941B1029D3F2205F148004B
:10374000FCF762FE002085F887000FF2CC3120469E
:103750000BF05AF805460BF06FF850B1296941B1EA
:10376000029D1F2205F18800FCF74EFE002085F81F
:10377000A7004BF69E012046C0F606010BF044F868
:1037800004460BF059F850B1216941B1029C07225F
:1037900004F1A800FCF738FE002084F8AF004BF6D7
:1037A000E2010398C0F606010BF02EF807460298D6
:1037B0000025C0F8305238460BF00EF88246032838
:1037C000A8BF4FF0030A0128C0F23C8102984BF2D7
:1037D000A57600F5967B9FEDD48AC0F606064FF0DD
:1037E00000080FE0029908F101080BED020AC2453A
:1037F000D1F830020BF1800B00F10100C1F830026A
:1038000000F02081384641460AF0C6FF4BF2E071D5
:103810008146C0F606010AF0F7FF04460BF00CF8EB
:1038200040B1216931B1ABF17C000F22FCF7ECFD16
:103830000BF86D5C4BF6D9014846C0F606010AF05C
:10384000E3FF04460AF0F8FF40B1216931B1ABF162
:103850006C001F22FCF7D8FD0BF84D5C4BF6B9014C
:103860004846C0F606010AF0CFFF04460AF0E4FF1E
:1038700040B1216931B1ABF14C001F22FCF7C4FD0E
:103880000BF82D5C4BF634014846C0F606010AF0F1
:10389000BBFF04460AF0D0FF40B1216931B1ABF162
:1038A00014000722FCF7B0FD0BF80D5C4BF6D001BD
:1038B0004846C0F606010AF0A7FF04460AF0BCFF1E
:1038C00020B1206910B1FDF7B1F800E000204BF6FF
:1038D000AE014BF82C0C4846C0F606010AF094FFE6
:1038E00004460AF0A9FF28B1206918B1FDF79EF837
:1038F00001E000BF00204BF2ED714BF8280C484668
:10390000C0F606010AF080FF04460AF095FF28B1D0
:10391000206918B1FDF78AF801E000BF00204BF8DC
:10392000240C48467FA10AF06FFF04460AF084FF8A
:1039300020B1206910B1FDF779F800E000204BF6C6
:10394000E8014BF8200C4846C0F606010AF05CFF7F
:1039500004460AF071FF28B1206918B1FDF766F836
:1039600001E000BF00204BF2CE71CBF800004846CA
:10397000C0F606010AF048FF04460AF05DFF28B1D0
:10398000206918B1FDF752F801E000BF00204BF2AA
:10399000B8714BF8040C4846C0F606010AF034FF33
:1039A00004460AF049FF28B1206918B1FDF73EF836
:1039B00001E000BF00204BF2F6714BF80C0C4846BA
:1039C000C0F606010AF020FF04460AF035FFB0EE0B
:1039D000480A38B1B0EE480A206918B160F0F8F929
:1039E000B7EEC00B4BF64F014846C0F606010BED93
:1039F000070A0AF009FF04460AF01EFFB0EE480A63
:103A000038B1B0EE480A206918B160F0E1F9B7EEBC
:103A1000C00B484631460BED060A0AF0F5FE044697
:103A20000AF00AFFB0EE480A00283FF4DBAEB0EE21
:103A3000480A206900283FF4D5AE60F0C9F9B7EE16
:103A4000C00BCFE64BF2D9710398C0F606010AF01D
:103A5000DBFE04460AF0F0FE50B1216941B1029C40
:103A60001F2204F50D70FCF7CFFC002084F85302F0
:103A700001980AF061FE4FF000087BE5E7AD89E5AB
:103A8000BE85204A534F4E20E695B0E68DAEE4B891
:103A9000AD2E2E2E0D000000455350383236362004
:103AA000E78EAFE5BDA2E7BC93E586B2E58CBAE64A
:103AB000BAA2E587BA000000E68890E58A9FE88E02
:103AC000B7E58F96E5AE8CE695B4204A534F4E206D
:103AD000E695B0E68DAE210D00000000E58685E597
:103AE000AEB93A2025730A00726573756C74730061
:103AF0006C6F636174696F6E0000000069640000A0
:103B00006E616D6500000000636F756E7472790000
:103B1000706174680000000074696D657A6F6E658D
:103B2000000000006C6F7700000000000000000043
:103B30002DE9F04F81B00028009000F097814BF202
:103B400080694BF610084BF28376C0F60609C0F682
:103B50000608C0F6060648464146324660F0C6F8FA
:103B60004BF22E70C0F6060060F0C0F84BF26257C0
:103B70004BF60304C0F60607C0F606043846214695
:103B800060F0B4F848464146324660F0AFF8009D18
:103B9000C7A0294660F0AAF83846214660F0A6F88A
:103BA00048464146324660F0A1F805F12001C4A024
:103BB00060F09CF83846214660F098F84846414647
:103BC000324660F093F805F14001C2A060F08EF833
:103BD0003846214660F08AF848464146324660F051
:103BE00085F805F14801BEA060F080F8384621460E
:103BF00060F07CF848464146324660F077F805F1BF
:103C00008801BAA060F072F83846214660F06EF87C
:103C100048464146324660F069F805F1A801B6A071
:103C200060F064F83846214660F060F84846414646
:103C3000324660F05BF805F50D71B4A060F056F8FF
:103C40003846214660F052F848464146324660F018
:103C50004DF8B4A060F04AF83846214660F046F8C6
:103C6000D5F830020128C0F2FE804BF2806A4BF694
:103C7000100B4BF283744BF262564BF60307002590
:103C8000C0F6060AC0F6060BC0F60604C0F6060625
:103C9000C0F60607DDF8008050465946224608F176
:103CA000B00960F023F801354BF20B70C0F6060046
:103CB000294660F01BF83046394660F017F8504648
:103CC0005946224660F012F84BF678004946C0F695
:103CD000060060F00BF83046394660F007F85046B1
:103CE0005946224660F002F84BF2AD6008F1C0017F
:103CF000D8F80021C0F606005FF0F8FF30463946DC
:103D00005FF0F4FF5046594622465FF0EFFF4BF25A
:103D1000CD6008F1E001D8F80421C0F606005FF09C
:103D2000E5FF304639465FF0E1FF504659462246EE
:103D30005FF0DCFF4BF60710D8F80811C0F606005C
:103D40005FF0D4FF304639465FF0D0FF5046594609
:103D500022465FF0CBFF4BF6F100D8F80C11C0F60D
:103D600006005FF0C3FF304639465FF0BFFF5046A4
:103D7000594622465FF0BAFF98ED440A4BF6180008
:103D8000B7EEC00AC0F6060053EC102B5FF0AEFF92
:103D9000304639465FF0AAFF5046594622465FF04A
:103DA000A5FF98ED450A4BF29660B7EEC00AC0F643
:103DB000060053EC102B5FF099FF304639465FF058
:103DC00095FF5046594622465FF090FF4BF2ED605A
:103DD00008F58C71D8F82021C0F606005FF086FF48
:103DE000304639465FF082FF5046594622465FF022
:103DF0007DFF98ED490A4BF68400B7EEC00AC0F685
:103E0000060053EC102B5FF071FF304639465FF02F
:103E10006DFF5046594622465FF068FF4BF28F70A7
:103E2000D8F82811C0F606005FF060FF304639462A
:103E30005FF05CFF5046594622465FF057FF4BF259
:103E40008760D8F82C11C0F606005FF04FFF3046AF
:103E500039465FF04BFF009808F18008D0F8300237
:103E60008542FFF619AF01B0BDE8F08F4BF28060DC
:103E70004BF608014BF27F72C0F60600C0F6060151
:103E8000C0F606025FF032FF4BF66B10C0F606007C
:103E90005FF02CFF4BF262504BF60301C0F60600B8
:103EA000C0F6060101B0BDE8F04F5FF01FBF00BFD4
:103EB000E59F8EE5B8824944EFBC9A257300000067
:103EC000E59F8EE5B882E5908DE7A7B0EFBC9A2517
:103ED00073000000E59BBDE5AEB6EFBC9A2573000C
:103EE000E8B7AFE5BE84EFBC9A257300E697B6E568
:103EF0008CBAEFBC9A257300E697B6E58CBAE581DB
:103F00008FE7A7BBEFBC9A2573000000E69C80E515
:103F1000908EE69BB4E696B0E697B6E997B4EFBC10
:103F20009A2573003D3D3D3D3D3D3D3D3D20E6AF85
:103F30008FE697A5E5A4A9E6B094203D3D3D3D3D23
:103F40003D3D3D3D0000000080B500F071FA38B104
:103F500040F60C010068C2F200410860002080BDFC
:103F6000012080BD0000000040F60C00C2F20040BD
:103F700008307047000000002DE9F0418AB040F29F
:103F8000004404ADC5F602044FF4807004F5806669
:103F9000049001202946CDE9050003200790304612
:103FA0000027089702F098F8204629464FF4005859
:103FB000CDF8108002F090F84FF480710022304666
:103FC00002F066F94FF400510022204602F060F939
:103FD0003220FEF7FDFB4FF400510022204602F094
:103FE00057F90120FEF7F4FB4FF4807101223046AF
:103FF00002F04EF90A20FEF7EBFB4FF40051204689
:1040000001F0AAFF20462946CDE90487069702F071
:1040100063F864206424FEF7DBFB09A80090042009
:10402000019040F6EC00BB21C2F2004048F2401281
:104030000223029402F0ACFB9DF8241081F03901B8
:104040000843C0B2002818BF01200AB0BDE8F081C3
:1040500040F60C00C2F2004080797047000000007A
:104060002DE9F04F85B040F60C05BB21C2F20045AA
:1040700048F24E12281D00906420029040F6EC0099
:104080000223C2F200400124019402F081FB18B126
:10409000204605B0BDE8F08F95F90400B0F1FF3F70
:1040A000C0B207DD000722D00124204605B0BDE8DC
:1040B000F08F00BF00F00F00687100208DF8130032
:1040C0000DF1130000906420029040F6EC00BA213C
:1040D000C2F2004048F24E1202230124019402F081
:1040E00073FC687906280BD328790007DCD10020FF
:1040F000A5F805000124204605B0BDE8F08F00BFFB
:10410000AC7168B344F6281840F6EC0405F10806D3
:104110000027C0F606084FF064094FF0040A0DF1BD
:104120000F0BC2F2004404E068790137063687427B
:1041300016D238F81720BB2102232046CDE900BA59
:10414000CDF8089002F024FB0028EDD1BDF8110055
:104150002988BDF80F20081A30807280E4E700BF7C
:104160000024204605B0BDE8F08F000000000000EC
:1041700070B5A2EB000E5C1A0EF10105013440F29D
:10418000000E4FF0C046C6F2020E6C43DDF810C0C0
:104190002A253580050AC0B2AEF80050AEF80000FE
:1041A000100AAEF80000D0B2AEF800002B2030802C
:1041B000080AAEF80000C8B2AEF80000180AAEF85F
:1041C0000000D8B2AEF800002C20E108308004F0E6
:1041D000070000F0DA8011F00303A1F101024DD0D5
:1041E000BCF80040012BAEF80040BCF80240AEF82D
:1041F0000040BCF80440AEF80040BCF80640AEF801
:104200000040BCF80840AEF80040BCF80A40AEF8E8
:104210000040BCF80C40AEF80040BCF80E40AEF8D0
:10422000004005D10CF1100C1146032A2AD2ACE053
:10423000BCF81040022BAEF80040BCF81240AEF8BB
:104240000040BCF81440AEF80040BCF81640AEF890
:104250000040BCF81840AEF80040BCF81A40AEF878
:104260000040BCF81C40AEF80040BCF81E40AEF860
:10427000004040F0B58002390CF1200C032AC0F058
:10428000848000BF3CF8402B0439AEF800203CF895
:104290003E2CAEF800203CF83C2CAEF800203CF858
:1042A0003A2CAEF800203CF8382CAEF800203CF850
:1042B000362CAEF800203CF8342CAEF800203CF848
:1042C000322CAEF800203CF8302CAEF800203CF840
:1042D0002E2CAEF800203CF82C2CAEF800203CF838
:1042E0002A2CAEF800203CF8282CAEF800203CF830
:1042F000262CAEF800203CF8242CAEF800203CF828
:10430000222CAEF800203CF8202CAEF800203CF81F
:104310001E2CAEF800203CF81C2CAEF800203CF817
:104320001A2CAEF800203CF8182CAEF800203CF80F
:10433000162CAEF800203CF8142CAEF800203CF807
:10434000122CAEF800203CF8102CAEF800203CF8FF
:104350000E2CAEF800203CF80C2CAEF800203CF8F7
:104360000A2CAEF800203CF8082CAEF800203CF8EF
:10437000062CAEF800203CF8042CAEF800203CF8E7
:10438000022CAEF800207FF47DAF40B3BCF80010E3
:104390000128AEF8001022D0BCF802100228AEF8B6
:1043A00000101CD0BCF804100328AEF8001016D082
:1043B000BCF806100428AEF8001010D0BCF80810A5
:1043C0000528AEF800100AD0BCF80A100628AEF88E
:1043D000001008BF70BDBCF80C00AEF8000070BD46
:1043E000BCF820300339AEF80030BCF82230AEF80B
:1043F0000030BCF82430AEF80030BCF82630AEF8FF
:104400000030BCF82830AEF80030BCF82A30AEF8E6
:104410000030BCF82C30AEF80030BCF82E300CF177
:10442000300CAEF80030032ABFF42CAFADE700002B
:1044300040F6B850C2F20040704700000000000093
:104440002DE9F04F81B000244FF0C046C6F20204BF
:104450004FF0F00EA6F800E0C32020809622A6F8C8
:1044600000E04FF0360822806822A6F80080B623CC
:1044700022803A22328005222280B022328080229D
:104480002280B527338020232380022323804FF00E
:10449000290A3780002723800323238004232780D1
:1044A0004FF0130B2380B123338009232280102285
:1044B0002280B4223280B722278012253280C62281
:1044C0002280C522328024222280E42232803122BE
:1044D0002280E8223280402222808A2222801922F1
:1044E00027804FF02B0927804B21A4F800A01D2026
:1044F0002280A522228033222280E02232802122C3
:10450000A4F800E04FF0E10C2380A4F800B025806F
:1045100025803C25A4F80090258044252580218015
:104520001B212180182121801721218020802280B9
:10453000A6F800C0A4F800E023800C23A4F800B083
:1045400023800D232380272323803B2323804D2397
:1045500025804FF6FF7523800B2323802180218047
:104560002080EC202280A6F800802080C320A6F8BE
:1045700000E020806920A6F800E020801120A6F845
:1045800000B030807820FEF723F940F6B85040F2B2
:10459000E011C2F20040A6F800A0C0F240112A22A9
:1045A0000160F821A6F800802180018840883280CF
:1045B0004A1E278093B2414301382780D2B21B0A9A
:1045C0002380CB08228082B2A6F8009027804FEA91
:1045D0001222C0B22780228020804FF02C00308031
:1045E00001F0070044D013F00307A3F1010219D032
:1045F000012F114625802580258025802580258056
:10460000258025800FD0022F2580258025802580BC
:1046100025802580258025804AD1991E032A05D230
:1046200026E000BF1946032A22D300BF04392580A3
:104630002580258025802580258025802580258052
:104640002580258025802580258025802580258042
:104650002580258025802580258025802580258032
:104660002580258025802580258025802580DDD119
:1046700090B1012825800FD0022825800CD0032876
:10468000258009D00428258006D00528258003D060
:104690000628258018BF258040F6342040F2E731F7
:1046A000C2F200400068C16301B0BDE8F08F00BFF6
:1046B000D91E258025802580258025802580258080
:1046C0002580032AB2D2D3E74FF6F050C2F204405D
:1046D000704700000000000080B54FF6F0503C210C
:1046E000C2F20440FBF773FE80BD00000000000032
:1046F00080B54FF6F051B3EE041AC2F20441B7EEA2
:10470000083A01F1100391F838C0B1F800E023F83D
:104710001CE002EE10EA0B8A8A8A488AB8EE422A26
:104720001844CB8A10440A8B18444B8B10448A8B54
:104730001844CB8B10440A8C18444B8C10448A8C40
:104740001844CB8C10440A8D18444B8D10448A8D2C
:104750001844CB8D10440A8E18444B8E10448A8E18
:104760001844CB8E104440F6CD42184400EE100A97
:104770000CF101004243B8EE400A120C02EB820237
:1047800080EE010A9FED0C1A22EE012AA0EB8200B6
:1047900081F83800002020EE010A9FED081A82EE11
:1047A000012A80EE010A22EE031A81ED011A20EEA1
:1047B000030A81ED020A80BD3333534000FF7F4777
:1047C0004FF6F051C2F2044108807047000000002B
:1047D0000021A0F8041180F80611704700000000C5
:1047E00040F24810C2F2004000680068016841F0E1
:1047F00020010160016841F0100101607047000074
:10480000B0B582B001680A68D469A30609D5526AB6
:10481000B0F80431FF2B04D8C5180133A0F80431D7
:104820002A71E20623D5096810220A62B0F8041141
:10483000E9B1012180F8061140F26C21C2F2004179
:104840000A680021019192B101A9054610465EF067
:1048500057FB0199284651B14EF604514FF0805252
:10486000CEF200010A60BFF34F8FBFF36F8F14F0D9
:104870000E0F03D000680E210068016202B0B0BDC7
:10488000FEE700000000000070470000000000008C
:104890004FF4007001F014BCEFF3108072B600BF4B
:1048A000FEE700000000000044F60400C5F6020028
:1048B000816841F0020181600168890409D40168BE
:1048C00089045CBF01685FEA814102D40168890400
:1048D000F2D5704700000000B3F5804F03461BD1AE
:1048E000B0B5002053F822C0CCF6F0708D680CEA09
:1048F000000C8C69D1E9000E40EA0C00C96840EA5E
:104900000E1040EA0520204340EA0141BDE8B040D6
:10491000002043F8221070476FF07041002043F8E8
:104920002210704700000000B0B50A6850F822302D
:1049300023F0010340F82230D1F808E0CB68D1E938
:1049400000C2BEF1080F08BF42F04002D1E90445A1
:104950001A438B692243CC692A430D6A1A434B6A76
:1049600022438C6A2A43CD6A1A430B6B22434C6B59
:104970002A438D6B1A4350F82C30224340F2804476
:10498000CFF6C0742A4323401A4342EA0E0240F88D
:104990002C200A6BB2F5801F05D10A684AB1026863
:1049A00042F4801202600A681AB1496B026811432E
:1049B00001600020B0BD000070B5D1E900CED1E9A2
:1049C00002564CEA0E130C6940F2000C43EA052330
:1049D000CFF6F07C43EA06464D690CEB04548B6934
:1049E0002643FE3500EB8202334343EA05635360FE
:1049F0000268D20209D54268096943681A430CEB80
:104A0000015122F4700211434160002070BD00008A
:104A10007047000000000000704700000000000028
:104A20007047000000000000704700000000000018
:104A3000704700000000000090F85020012A01D1CA
:104A40000220704710B582B042F20834002301936F
:104A5000C4F202040093A4F542720368934227D182
:104A60004FF6006ECFF6FF7E54F80E209B681A4377
:104A700052071DD4D1F800C02268BCF1000F22F407
:104A8000404323D04A681A4322604FF60052CFF6C3
:104A9000FF72A25854F80E301A43D20726D122686A
:104AA00040F61F739A438968114341EA0C011CE0E8
:104AB000416D41F0200141650121002280F8502024
:104AC00002B0BDE810400846704700BF4FF60051E5
:104AD0002360CFF6FF71615854F80E201143C907C7
:104AE00004D1216840F61F72914321600021E4E760
:104AF000F0B581B00022009290F85020012A03D135
:104B00000221084601B0F0BD0768012380F850304B
:104B1000BB685B0700F196810C684FF6FF7CB4F12F
:104B2000FF3FC0F20F0C4FEA94630FDD94FAA4F23A
:104B300014EA0C0FB2FA82F208BFA20E012402F0AE
:104B40001F0204FA02F2FC692243FA614A681F2636
:104B500003F01F03C2F3012402F01F02964007EB8B
:104B6000840403FA02F2256B25EA06063243226327
:104B7000BA68BB6802F0040203F00803D21840F0E0
:104B800096800A6807258E68C2F34063C2F3045218
:104B900007EB830395405C6906FA02F224EA0505F7
:104BA0002A435A6141F20002C5F60042126802F03F
:104BB0007042B2F1805F33D14A69FB680E2606EA83
:104BC000530302FA03F30C69042C39D007F1600295
:104BD0000E6806F0F84652F82450334305F00045BD
:104BE0002B4342F824300B694E7E52F82350012E9D
:104BF00025F0004508BF05F1004542F823500A7E24
:104C00000B693E69013A03F01F03B2FA82F226F4FF
:104C1000F0465209D2029A4032433A6147E000BF5F
:104C2000FA684B69FE68D2064FEA560402D404F0D3
:104C30000E0201E004F0080293400C69042CC5D177
:104C40003A6E0B6802F0F8429B069A4218D13A6E0F
:104C500022F000423A667A6E02F0F8429A4214D08C
:104C6000BA6E02F0F8429A4218D1BA6E22F00042AF
:104C7000BA66FA6E02F0F8429A4214D017E000BF0A
:104C80007A6E02F0F8429A42EAD17A6E22F000423D
:104C90007A66BA6E02F0F8429A42E6D0FA6E02F0F4
:104CA000F8429A4203D1FA6E22F00042FA66BA68DC
:104CB000D20779D1D1F800E00023C968D7F8C02025
:104CC0000EEA0C04C4F25273A24301F018042CFA49
:104CD00004F603F52D0506EA0E06A94246EA02018E
:104CE000C7F8C0105DD142F20011C4F202018F4238
:104CF00026D042F20001C4F202018F423CD11F21B2
:104D0000C1F2F0418E4540F3C38040F2FF71C2F61C
:104D100030618E4540F3A98040F60001C2F6306153
:104D20008E4500F0478141F20001C3F260218E45BB
:104D300000F036810021C4F221318E451DD045E1BD
:104D40001F21C1F2F0418E4500F388800721C0F693
:104D500090418E4500F3AA800221C0F230418E4579
:104D600000F0A1800421C0F660018E4540F02E8144
:104D70004023C1F6201300E0002393FAA3F143F689
:104D8000C132B1FA81F1C0F20A0213424FF00102BE
:104D900008BF990E01F01F0102FA01F1FA691143EF
:104DA000F961BEF1FF3F01DD002150E042F2000158
:104DB00046F2083CC4F20201C5F6020C01F580720D
:104DC00001F542739742624608BF1A468F4242F28B
:104DD000001408BF1A4647F48073C4F20204A342C9
:104DE000136827D18A68D1F808111143C90729D15E
:104DF000002103F0E074CCF684318E4508BF13F433
:104E0000000163D00021CCF252718E4540F0A080A9
:104E10000021B1EB146F40F09B80ACF542718F42E2
:104E2000C2D1DCF8001021F0E071214341F0807123
:104E3000A5E000BF4FF60051CFF6FF715CF80110FE
:104E4000C907D5D0416D41F0200141650121002203
:104E500080F85020084601B0F0BD00BF40F2FF715D
:104E6000C2F630618E4500F38F802021C1F2F041FF
:104E70008E4500F0A58040F20041C2F600218E452B
:104E800040F0A48040F60003C2F6306375E700BF2F
:104E90000721C0F690418E4508DC0221C0F2304166
:104EA0008E457FF45FAF012367E700BF0821C0F69E
:104EB00090418E457AD01021C1F2C0018E4540F05C
:104EC000858040F20013C2F2801356E7ACF54271C0
:104ED0008F427FF469AFDCF8001042F6635221F094
:104EE000E071C0F23E52214341F40001CCF80010C1
:104EF00040F21801C2F2004109688909A1FB0212BF
:104F00009109022202EB41010091009900293FF42E
:104F10004BAF009901390091009900293FF444AF4B
:104F2000009901390091009900293FF43DAF0099A3
:104F300001390091009900293FF436AF00990139F9
:104F40000091009900294FF00001E2D17FE700BFF6
:104F5000ACF542718F424FF000017FF478AF002230
:104F6000CCF6B872964508BF13F480027FF46FAF99
:104F7000DCF8001021F0E071214341F48001CCF80D
:104F80000010002163E700BF40F60001C2F6306167
:104F90008E450FD041F20001C3F260218E4515D13C
:104FA00042F20003C3F29063E7E600BF8023C1F63C
:104FB0005053E2E641F20003C3F26023DDE600BF96
:104FC00040F20023C2F2B053D7E600BF0021002315
:104FD000C4F684318E4504BF0023C4F6B873CCE612
:104FE00042F200020168C4F20202914218BF704707
:104FF00080B500F009F880B2BDE88040FFF7E0BB63
:1050000070470000000000000068006C704700005E
:105010002DE9F04F81B0044642F2000046F208311B
:10502000C4F20200C5F60201276800F5807A00F597
:105030004279574508BF4946874208BF49463E68FE
:105040007D68B207D1F800800FD515F002010CD0B1
:10505000606DC00603D4606D40F40060606520465A
:10506000FFF7D6FC276802213960710708F01F0B93
:1050700002D515F0040104D1310755D515F008010A
:1050800052D0214651F8542FD20603D40A6842F474
:1050900000720A60FA6812F4406F3FD1BBFA8BF2DB
:1050A000ABF10503B3FA83F352095B09384642EAD0
:1050B000030CABF10903B3FA83F342F20002C4F22A
:1050C0000202574508BF10465B0943EA0C02D207AB
:1050D000024618BF3A46B84208BF0246D268920458
:1050E0001CD43A68120719D5BA6852070CD47A68EA
:1050F00022F00C027A60086820F48070086008686A
:10510000C00407D50AE000BF606D04F1580140F00B
:1051100010006065086840F0010008602046FFF755
:105120005FFF27680C213960B10602D515F0200118
:1051300004D171062CD515F0400129D0214651F833
:10514000542FD20603D40A6842F400520A6042F295
:1051500000023846C4F20202574508BF104608F064
:105160001E030246062B08BF3A46BBF1000F08BFDC
:105170003A46B84208BF0246F86C10F4C07FFB689C
:10518000D26879D02046FFF747FC27686020386056
:1051900030060CD515F0800009D0606D40F48030E9
:1051A0006065204600F0C8F9276880203860F00567
:1051B0000DD515F480700AD0606D40F40030606544
:1051C0002046FFF731FC27684FF480703860B00547
:1051D0000DD515F400700AD0606D40F48020606534
:1051E0002046FFF725FC27684FF400703860F00672
:1051F00027D515F0100024D0206BA0B1BBF1000F13
:105200005CD046F2083042F20001C5F60200574574
:1052100008BF4846C4F202018F4208BF48460068F2
:1052200010F4404F0BD0606D40F480606065A06D5D
:1052300040F00200A0652046FFF7E2FE276810203C
:105240003860700514D515F4806011D0606D40F49D
:1052500080406065A06D40F00800A0654FF480605C
:105260003860204601B0BDE8F04FFFF7D9BB00BF62
:1052700001B0BDE8F08F00BF900106D503F4406097
:1052800002F40053C0187FF47DAF386840067FF504
:1052900079AF12F400107FF475AFB868000711D42D
:1052A000786820F060007860086820F4805008601A
:1052B0000868C0053FF566AF0AE000BFF8688007E0
:1052C000B1D1BCE7606D04F1580140F01000606599
:1052D000086840F00100086054E70000000000008A
:1052E00070B582B0044600284FF0000001902DD028
:1052F000606D30B9204600F023F90020A06584F8E5
:1053000050002068816889004FF6C071C5F6FF71B2
:1053100002D582680A4082608268D20031D48268F5
:1053200001F18051114042F6635241F08051816099
:1053300040F21801C0F23E52C2F2004109688909E8
:10534000A1FB0212012101EB921105E0012630467A
:1053500002B070BD019901390191019989B101999A
:1053600001390191019961B10199013901910199C5
:1053700000291FBF019901390191019918BF002926
:10538000E8D18168C90009D4616D012641F010019E
:105390006165A16D41F00101A16500E00026816811
:1053A000626D02F0100201F004018918616D40F095
:1053B000918021F48171023161658168C90728D12A
:1053C00042F2001240F48071C4F20202914242F2B1
:1053D0000001C4F2020140F0A5808A68D1F80831CA
:1053E0001A43D20715D101F5807201F5427346F2D6
:1053F000080C9042C5F6020C1A4618BF0CF5407214
:10540000884208BF1A466068116821F47C1108437D
:10541000106000F045FF41F2030100228842A068BD
:10542000A0F1100188BF0122B1FA81F1237F49095F
:105430001140226B617D154616BF4D034A031C20A7
:10544000012B45EA034141EA020141EA000106D18C
:10545000206A0022CFF6FE7202EB40400143606AF0
:1054600020B100F47870A26A1043014320684CF226
:105470000303CFF6F073C2681A401143C16081681C
:10548000826801F0040102F00802891836D1217DFA
:1054900044F20305E26AC36842EA813123EA050265
:1054A0001143C16094F83810012901691AD14FF6EF
:1054B0001E020125CFF60042CFF6FF751140D4E958
:1054C0000F231943636C05EB02421143A26C19438D
:1054D000114309E041F0100001266065304602B03A
:1054E00070BD00BF21F0010101610169626B21F013
:1054F0007041114301612046FCF766F82068E168BD
:105500000129026B22F00F0102D1A269013A114375
:1055100001630121606D61F301006065304602B0F6
:1055200070BD00BF46F20802C5F602021268D2073B
:105530003FF459AF6DE70000704700000000000025
:10554000B0B5B8B0044602A828309821002533959C
:10555000CDE93655CDE93455FAF739FF42F200016D
:105560002068C4F20201884202D038B0B0BD00BF4A
:105570004FF400200290022004900C210395CDE905
:105580000510CDE90700C02009902020CDE90A05CB
:1055900002A802F065F908B1FFF77EF944F2D8409D
:1055A000C5F60200016841F020010160016801F0C8
:1055B000200101910199816841F0010181608068B9
:1055C00033A900F00100019001984020339003209E
:1055D0003490002035900020C5F6020000F07CFDDC
:1055E00012200621002201F027FD122001F010FDFB
:1055F00038B0B0BD0000000070B542F2000446F2C1
:105600000836C4F20204016804F5807204F542739E
:10561000C5F60206914208BF1E46A14208BF1E46BB
:1056200035688968490703D490F85010012901D1E1
:10563000022070BD012180F850100646FCF75CF88E
:1056400020B1002086F85000012070BD306804F5BC
:1056500080729042314618BF0446736D40F6017661
:1056600005F01F0C23EA0606231A06F580764E6520
:1056700018BFBCF1000F03D14E6D26F480164E65A5
:10568000B3FA83F54E6DF3044FF0000644BF8E6D00
:1056900026F0060600236D098E651C26066081F83B
:1056A0005030436823F01C034360D1F810E0734688
:1056B000BEF1080F0E6B18BF0423426842EA0302D2
:1056C00042600EB12DB10EE0426842F0100242601D
:1056D0004DB9BCF1090F29D8012240F2212302FA69
:1056E0000CF21A4222D0C268920115D54A6D0123EC
:1056F00063F30D324A656FF04001BEF1080F08BF39
:105700006FF020014FF02002436808BF402219408B
:1057100041604168114341604FF6C0728168C7F62D
:10572000FF72114004318160002070BD4A6D42F467
:1057300080124A65E268920102D4002070BD00BF69
:105740004A6D012363F30D324A65BEF1080F4168CB
:1057500008D121F020014160416841F040014160E1
:10576000002070BD21F040014160416841F02001FE
:105770004160002070BD00002DE9F041044600F0BA
:1057800097FD1CB3054694F83500022822D140F25B
:105790000F472668C4F2020740F26F48BE426FF01E
:1057A0000E00C4F202081DDC6F21C4F202018E4219
:1057B0002ADC3F21C4F202018E4241DC1021C4F2F6
:1057C00002018E4263D028215CE000BF0120BDE8C9
:1057D000F08100BF802060650120002184F8341032
:1057E000BDE8F08146451BDC40F23F41C4F20201B6
:1057F0008E422DDC40F21041C4F202018E4246D0AE
:1058000040F228413EE000BF9F21C4F202018E42D7
:1058100028DC7021C4F202018E4238D0882131E0A8
:1058200040F29F41C4F202018E4223DC40F27041FB
:10583000C4F202018E422AD040F2884122E000BF29
:105840004021C4F202018E4221D058211AE000BF4B
:1058500040F24041C4F202018E4218D040F2584159
:1058600010E000BFA021C4F202018E420FD0B82187
:1058700008E000BF40F2B841C4F202018E4206D0F7
:1058800040F2A041C4F202018E42314607D13146B6
:10589000306820F01E0041F8140B6FF080000A6899
:1058A000464500EA020008601ADC9F20C4F20200AC
:1058B000864233DC5720C4F2020086425ADC1020B4
:1058C000C4F20200864200F097802820C4F2020051
:1058D000864200F091804020C4F202008AE000BFBE
:1058E00045F22F40C5F6020086422DDC40F2B7405B
:1058F000C4F2020086424BDC40F27040C4F2020067
:10590000864279D040F28840C4F20200864273D0C9
:1059100040F2A040C4F202006CE000BF40F2274019
:10592000C4F20200864243DCA020C4F20200864298
:1059300062D0B820C4F2020086425DD040F210402E
:10594000C4F2020056E000BF45F26B40C5F602000B
:1059500086423FDC45F23040C5F6020086424BD01D
:1059600045F24440C5F60200864245D045F2584013
:105970003EE000BF5820C4F2020086423CD07020B6
:10598000C4F20200864237D08820C4F2020031E01F
:1059900040F2B840C4F2020086422DD045F20840E1
:1059A000C5F60200864227D045F21C4020E000BF29
:1059B00040F22840C4F2020086421DD040F240402E
:1059C000C4F20200864217D040F25840C4F20200EE
:1059D00010E000BF45F26C40C5F6020086420BD0D5
:1059E00045F29440C5F60200864205D045F280405B
:1059F000C5F60200864204D1206E016821F4807150
:105A00000160306820F00100306000BF3068C007DE
:105A100010D000F04DFC401B0628F7D32020606515
:105A2000032084F835000120002184F83410BDE8FB
:105A3000F08100BF20680821B8424FF03F0211DC1E
:105A40006F23C4F2020398421EDC3F23C4F2020318
:105A5000984235DC1023C4F20203984257D0282321
:105A600050E000BF40451BDC40F23F43C4F202035C
:105A700098422DDC40F21043C4F20203984246D013
:105A800040F228433EE000BF9F23C4F20203984245
:105A900028DC7023C4F20203984238D0882331E016
:105AA00040F29F43C4F20203984223DC40F2704369
:105AB000C4F2020398422AD040F2884322E000BF99
:105AC0004023C4F20203984221D058231AE000BFB9
:105AD00040F24043C4F20203984218D040F25843C7
