:020000040800F2
:10000000805F0024AD02000829600008415200080A
:1000100021600008610A0008C9770008000000009C
:10002000000000000000000000000000A9640008BB
:10003000690A000800000000A1600008C964000807
:10004000CB020008CB020008CB020008CB0200085C
:10005000CB020008CB020008CB020008CB0200084C
:10006000CB020008CB020008CB020008CB0200083C
:10007000CB020008CB020008CB020008CB0200082C
:10008000CB020008CB020008CB020008CB0200081C
:10009000CB020008CB020008CB020008CB0200080C
:1000A000CB020008CB020008CB020008CB020008FC
:1000B000CB020008CB020008CB020008CB020008EC
:1000C000CB020008CB020008CB020008CB020008DC
:1000D000CB020008CB020008CB020008CB020008CC
:1000E000CB020008CB02000800000000CB02000891
:1000F000CB020008CB020008CB020008CB020008AC
:10010000CB020008CB020008CB020008CB0200089B
:10011000CB020008CB020008116800082168000823
:10012000CB020008CB020008CB020008CB0200087B
:10013000CB020008CB020008CB020008CB0200086B
:1001400000000000000000000000000000000000AF
:10015000CB020008CB020008CB020008CB0200084B
:10016000CB020008CB020008CB020008CB0200083B
:10017000CB020008CB020008CB0200080000000000
:10018000CB020008CB020008CB020008CB0200081B
:10019000CB020008CB020008CB020008CB0200080B
:1001A000CB020008CB020008CB020008CB020008FB
:1001B000CB020008CB020008CB020008CB020008EB
:1001C000CB020008CB020008CB020008CB020008DB
:1001D000CB020008CB020008CB020008CB020008CB
:1001E000CB020008CB020008CB020008CB020008BB
:1001F000CB020008CB020008CB020008CB020008AB
:10020000CB020008CB020008CB020008CB0200089A
:10021000CB020008CB020008CB020008CB0200088A
:10022000CB020008CB020008CB020008000000004F
:10023000CB020008CB02000800000000CB0200083F
:10024000CB020008CB020008CB020008CB0200085A
:10025000CB020008CB020008CB020008CB0200084A
:10026000CB020008CB020008CB020008CB0200083A
:10027000CB020008CB020008CB02000800000000FF
:10028000CB020008CB020008CB02000800000000EF
:1002900000000000CB020008DFF80CD000F05CFA90
:1002A00000480047F9790008805F0024074880472C
:1002B0000748804707480047FEE7FEE7FEE7FEE7FE
:1002C000FEE7FEE7FEE7FEE7FEE7FEE7A90A000815
:1002D000F9650008990200082DE9F05F0546002045
:1002E00092469B4688460646814640241BE02846A7
:1002F00041464746224600F067F853465A46C01A20
:10030000914110D311461846224600F04EF82D1A9E
:1003100067EB01084F4622460120002100F045F816
:1003200017EB00094E41201EA4F10104DFDC484612
:1003300031462A464346BDE8F09FD2B201E000F8BC
:10034000012B491EFBD270470022F6E710B5134679
:100350000A4604461946FFF7F0FF204610BD421C2E
:1003600010F8011B0029FBD1801A7047034611F8D1
:10037000012B00F8012B002AF9D11846704730B53F
:100380000B46014600202022012409E021FA02F553
:100390009D4205D303FA02F5491B04FA02F52844ED
:1003A000151EA2F10102F1DC30BD202A04DB203A47
:1003B00000FA02F1002070479140C2F1200320FAB8
:1003C00003F3194390407047202A04DB203A21FAB6
:1003D00002F00021704721FA02F3D040C2F120025E
:1003E00091400843194670472DE9FE4F804681EA47
:1003F0000300C00F0C46009021F0004123F000459F
:10040000B8EB0200A94105D24046214690461C4661
:100410000B46024623F00040104347D0270DC7F398
:100420000A00C3F30A510290401A019040286BDA87
:10043000C3F3130040F4801B0098924620B10023C0
:10044000D2EB030A63EB0B0B01985946C0F1400253
:100450005046FFF7AAFF06460D4650465946019AF8
:1004600000F092F910EB08006141002487EA115274
:1004700084EAE7731A4340D0009A62B3019A012AD2
:100480004FEA075215DC001B61EB02014FF00042FE
:1004900002EA0752CDE90042001C41F580113246C4
:1004A0002B4600F092F903B0BDE8F08F404621469C
:1004B000F9E7001B61EB0201001C41F580130018F5
:1004C0005B412018A2F5001747EB030140EAD57005
:1004D000B6196D4111E06D084FEA360645EAC07560
:1004E0004FEA0752001B61EB0201001C41F580112D
:1004F00049084FEA30000019514132462B4603B0FB
:10050000BDE8F04F00F052B90098012240000023EE
:10051000D0EB020263EBE073009821464FEAE074EF
:10052000B8EB000061EB0401E9E783F000435BE70F
:1005300081F0004158E72DE9FE4F81EA030404F001
:10054000004421F0004100944FF0000B23F00043E1
:1005500050EA01045ED052EA03045BD0C3F30A54AC
:10056000C1F30A552C44A4F2F3340194A0FB0254C5
:10057000C1F3130141F48011C3F3130343F4801357
:1005800001FB024400FB034E840A970A44EA8154AB
:1005900047EA8357A4FB076802958D0A05FB078588
:1005A0004FEA932C04FB0C542705029D4FEA065892
:1005B00047EA1637B5EB08056EEB070C870E920E6F
:1005C00047EA811742EA8312A7FB0201B6EB0B014F
:1005D00064EB00042B0D43EA0C335E1844EB1C5013
:1005E000DA465146E7FB0201C5F313044FEA0B3329
:1005F00043EA14534FEA0432019C43EA0603A4F190
:100600000C040294009CCDE900B400F0DEF803B0C5
:10061000BDE8F08F00200146F9E72DE9F04D81EAB1
:10062000030404F0004B21F0004514464FF0000A8B
:1006300023F0004150EA050220D054EA01021DD007
:10064000C5F30A570246C5F31303C1F31300C1F300
:100650000A5640F4801543F48013A7EB0608101BDC
:10066000D64608F2FD3873EB050002D308F1010805
:1006700001E092185B41B8F1000F03DA0020014657
:10068000BDE8F08D00204FF48011064684460EE050
:10069000171B73EB050705D3121B63EB050306431A
:1006A0004CEA010C49084FEA300092185B4150EACD
:1006B0000107EDD152EA030012D082EA040083EA76
:1006C0000501084305D0101BAB4106D201220023CF
:1006D00006E000224FF0004302E06FF001025310E9
:1006E0001AEB06004CEB085110EB0A0041EB0B0132
:1006F000BDE8F04D00F05AB8C1F30A52C1F313013E
:1007000040F2FF3341F480119A4202DA00200146A0
:10071000704740F233439A42A2F2334202DC524223
:10072000FFF752BEFFF741BE30B5041E71F1000461
:1007300004DB4FF00044404264EB0101141E73F1EE
:10074000000405DB1C464FF00043524263EB0403F8
:10075000994208BF904230BD1CB509480090094835
:1007600001900546009C06E0E06840F0010394E833
:10077000070098471034AC42F6D3FFF791FD000014
:1007800028A5000848A50008202A06DBCB17203A38
:1007900041FA02F043EAE07306E041FA02F3D04086
:1007A000C2F12002914008431946704710B5141E4B
:1007B00073F1000408DA401C41F1000192185B411A
:1007C0001A4301D120F0010010BD2DE9F04D9246F1
:1007D0009B4611B1B1FA81F202E0B0FA80F2203208
:1007E0009046FFF7E2FD04460F4640EA0A0041EA60
:1007F0000B0153465A46084313D0114653EA0100F1
:1008000019D0C8F140025046FFF7DEFD05460E46FE
:10081000504659464246FFF7C8FD084305D001201F
:1008200004E020463946BDE8F08D0020054346EA45
:10083000E0762C4337430A986305E40AA0EB0800EE
:100840000022FD0A44EA47540A3002D5002001463E
:10085000E9E7010510196941DDE908450019694119
:10086000BDE8F04DA2E7000080B586B08DF8170016
:100870000491ADF80E2002930298019001989DF822
:100880001710049ABDF80E30EE464FF0640CCEF807
:1008900000C000F0F5FD002818BF012006B080BDA3
:1008A00080B586B08DF817000491ADF80E20029344
:1008B0000298019001989DF81710049ABDF80E3027
:1008C000EE464FF0640CCEF800C000F0E9FE0028C0
:1008D00018BF012006B080BD80B582B0019001989C
:1008E000816805208847002002B080BD000000001C
:1008F00080B500F009F800F023F808F08DFCFFE760
:10090000FEE700000000000080B582B045F20470F0
:10091000C2F20040694648600220086040F671203B
:10092000C0F600004AF22841C0F600014FF4807280
:10093000002308F031FE02B080BD0000000000007E
:1009400080B582B045F25C70C2F2004069464860F2
:100950000120086046F28970C0F600004AF2E241C8
:10096000C0F600014FF48072002308F015FE02B0BB
:1009700080BD00000000000080B540F21C40C2F2C3
:10098000004040F6A101C0F60001016040F6690197
:10099000C0F60001416040F6B911C0F60001816067
:1009A00040F23C41C2F20041C16070210177FFF783
:1009B00093FF80BD0000000080B582B001900198D7
:1009C0004FF47A71484300F003F802B080BD000094
:1009D00083B0029041F20400CEF200000068019062
:1009E00000200090029840F20401C2F20041096820
:1009F0004DF68362C4F21B32A1FB0221890C4843ED
:100A00000090FFE741F20400CEF200000068019977
:100A1000401A0099884201D2FFE7F3E703B070471C
:100A20004EF6FC51CEF20001086840F0807008607C
:100A300041F20000CEF200000068C00738B9FFE7BD
:100A400041F20401CEF2000100200860FFE741F20C
:100A50000001CEF20001086840F001000860704714
:100A6000FFE7FEE700000000704700000000000004
:100A700080B582B00190FFE71F2004F0F5FE14203E
:100A8000009008F071F9002004F0EEFE009808F0E4
:100A90006BF9F1E70000000081B0EFF3108072B64F
:100AA0000090FFE7FEE7000044F60C01C5F60201E6
:100AB000086840F002000860FFE744F60400C5F64D
:100AC000020000688004002801D4FFE7F5E77047C2
:100AD00080B584B003900291019200930098B0F524
:100AE000804F1DD1FFE70398019950F821000021A4
:100AF000CCF6F0710840029B1968D3F804E0D3F8F3
:100B000008C0DA6841EA0E1141EA0C219B691943D9
:100B100041EA024108430399019A41F8220006E0A4
:100B20000399019A6FF0704041F82200FFE700201E
:100B300004B080BD0000000080B586B0059004912F
:100B400005990498026851F8220020F0010041F84C
:100B5000220004988068082803D1FFE74020039012
:100B600002E000200390FFE7039804990091D1F878
:100B700004E0D1F808C0CB680A6940EA0E0040EAF8
:100B80000C00184310434A6910438A691043CA692C
:100B900010430A6A10434A6A10438A6A1043C96ABA
:100BA000084302900498016B02980843029004984D
:100BB000416B0298084302900498816B02980843A5
:100BC00002904FF67F30C0F208000190019840F487
:100BD00080100190019840F400100190019840F4B9
:100BE000E020019005980499096850F821000199C6
:100BF0008843029908430599049A126841F8220033
:100C00000498006BB0F5801F0ED1FFE704980068D0
:100C100050B1FFE70598006820F480100499096B33
:100C2000084305990860FFE70498006838B1FFE7BA
:100C30000498426B0599086810430860FFE700209C
:100C400006B080BD0000000084B0039002910192C4
:100C500002990868D1F804C08B68CA6840EA0C1091
:100C600040EA032040EA02400B690022CFF6F0720E
:100C700002EB035210434A69FE3240EA026089697E
:100C800008430399019A01EB8201486003980068C8
:100C9000C002002818D5FFE70398406820F47000D0
:100CA0000090029801690020CFF6F07000EB01512E
:100CB0000098084300900398406820F47000009961
:100CC000084303994860FFE7002004B07047000024
:100CD00080B584B0039000F09FFA029003980190D1
:100CE0000198013048B1FFE740F20C00C2F2004029
:100CF0000178019808440190FFE7FFE700F08CFAC3
:100D00000299401A0199884201D2FFE7F6E704B040
:100D100080BD00000000000080B5BEB000203D9006
:100D20003C903B903A90399040F21800C2F200405B
:100D3000006808B1FFE767E040F21801C2F2004125
:100D40000120086008A80690C021FFF7FDFA069868
:100D5000002109914FF0807208921A9101F090FAE7
:100D600018B1FFE7FFF798FEFFE7FFE744F2D44032
:100D7000C5F60200016841F480510160006800F48A
:100D8000805007900798FFE74FF680703990022057
:100D900002903A90002003903B90032004903C90F6
:100DA0000C2001903D9041F20000C5F6020039A9E7
:100DB000059100F02DF80198DDF808C0039B049A16
:100DC00005994CF6337ECDF8E4E0CDF8E8C03B93CE
:100DD0003C923D9040F60040C5F6020000F018F845
:100DE000029B039A049805994FF0800CCDF8E4C05B
:100DF0003A933B923C9009203D9040F60000C5F6A6
:100E0000020000F005F8FFE73EB080BD00000000E2
:100E100090B00F900E9100200D908020C5F600003C
:100E20000A90FFE70E9800680D99C840002800F06E
:100E3000CF81FFE70E9800680D9A0121914008408C
:100E40000C900C98002800F0BF81FFE70E984068D6
:100E500000F00300012807D0FFE70E98406800F07B
:100E6000030002282FD1FFE70F9880680B900D98A0
:100E70004100032000FA01F10B9888430B900E9873
:100E8000C0680D99490000FA01F10B9808430B90D6
:100E90000B980F9988600F9840680B900D9901206E
:100EA00000FA01F10B9888430B900E984068C0F34C
:100EB00000100D9900FA01F10B9808430B900B9864
:100EC0000F994860FFE70E98406800F00300032880
:100ED00018D0FFE70F98C0680B900D9841000320D1
:100EE00000FA01F10B9888430B900E9880680D99D9
:100EF000490000FA01F10B9808430B900B980F99E9
:100F0000C860FFE70E98406800F00300022826D171
:100F1000FFE70F980D996FF0030202EA51010844B0
:100F2000006A0B900D9800F0070081000F2000FA76
:100F300001F10B9888430B900E9800690D9901F010
:100F40000701890000FA01F10B9808430B900B98F8
:100F50000F990D9B02EA530211440862FFE70F98B4
:100F600000680B900D984100032000FA01F10B98E6
:100F700088430B900E98406800F003000D994900DB
:100F800000FA01F10B9808430B900B980F99086039
:100F90000E9880798007002800F01581FFE7FFE7B1
:100FA00044F2F440C5F60200016841F0020101601C
:100FB000006800F0020009900998FFE70D9820F002
:100FC000030040F20841C5F6000140580B900D980F
:100FD00000F0030081000F2000FA01F10B98884314
:100FE0000B900F980021C5F60201884203D1FFE75C
:100FF000002008907AE00F9840F20041C5F6020107
:10100000884203D1FFE7012007906CE00F9840F67B
:101010000001C5F60201884203D1FFE702200690D5
:101020005EE00F9840F60041C5F60201884203D108
:10103000FFE70320059050E00F9841F20001C5F64C
:101040000201884203D1FFE70420049042E00F9898
:1010500041F20041C5F60201884203D1FFE70520B5
:10106000039034E00F9841F60001C5F60201884272
:1010700003D1FFE70620029026E00F9841F60041D9
:10108000C5F60201884203D1FFE70720019018E06E
:101090000F9842F20001C5F60201884203D1FFE732
:1010A000082000900AE00F9942F20042C5F60202C1
:1010B0000A20914208BF09200090FFE700980190A4
:1010C000FFE701980290FFE702980390FFE703987B
:1010D0000490FFE704980590FFE705980690FFE766
:1010E00006980790FFE707980890FFE708980D9982
:1010F00001F00301890000FA01F10B9808430B90FD
:101100000B980D9921F0030140F20842C5F6000248
:1011100088504FF0B04000680B900C990B988843B2
:101120000B900E988079C006002805D5FFE70C9932
:101130000B9808430B90FFE70B984FF0B041086005
:101140000420C5F6000000680B900C990B988843AA
:101150000B900E9880798006002805D5FFE70C9942
:101160000B9808430B90FFE70B980421C5F600018C
:1011700008600A9840680B900C990B9888430B9074
:101180000E9880798007002805D5FFE70C990B9809
:1011900008430B90FFE70B980A9948600A9800688B
:1011A0000B900C990B9888430B900E988079C00790
:1011B00028B1FFE70C990B9808430B90FFE70B98B9
:1011C0000A990860FFE7FFE70D9801300D9029E6C6
:1011D00010B070470000000082B00190ADF802101E
:1011E0008DF801209DF8010028B1FFE7BDF802004D
:1011F0000199886105E0BDF8020000040199886149
:10120000FFE702B07047000041F20000C5F6004061
:101210000068000C7047000045F2C460C2F2004054
:10122000006870470000000083B0019000910198B1
:1012300090F8410020283BD1FFE7FFE7019890F8A4
:101240004000012804D1FFE702208DF80B0033E0B5
:101250000199012081F84000FFE7FFE70199242070
:1012600081F8410001980168086820F001000860D9
:1012700001980168086820F480500860009A01987D
:10128000016808681043086001980168086840F028
:10129000010008600199202081F84100FFE70199D1
:1012A000002081F84000FFE700208DF80B0003E0EC
:1012B00002208DF80B00FFE79DF80B0003B070478C
:1012C00084B002900191029890F84100202840D10A
:1012D000FFE7FFE7029890F84000012804D1FFE7FC
:1012E00002208DF80F0038E00299012081F84000BB
:1012F000FFE7FFE70299242081F841000298016886
:10130000086820F0010008600298006800680090FA
:10131000009820F4706000900199009840EA012044
:1013200000900098029909680860029801680868AE
:1013300040F0010008600299202081F84100FFE799
:101340000299002081F84000FFE700208DF80F008F
:1013500003E002208DF80F00FFE79DF80F0004B0B6
:10136000704700000000000080B582B00090009837
:1013700020B9FFE701208DF807007BE0009890F886
:10138000410040B9FFE70099002081F84000009833
:1013900000F0B2FAFFE70099242081F8410000989C
:1013A0000168086820F00100086000980168406842
:1013B00020F07060086100980168886820F400409F
:1013C00088600098C068012807D1FFE7009801688D
:1013D000806840F40040886006E0009801688068FA
:1013E00040F404408860FFE70098C068022807D1F5
:1013F000FFE700980168486840F40060486006E034
:1014000000980168486820F400604860FFE7009891
:101410000168486848F20002C0F2002210434860A8
:1014200000980168C86820F40040C860009A1168FC
:10143000106953699269184340EA0220C860009A13
:101440001168D069126A1043086000980168086842
:1014500040F001000860009900204864009A2021B3
:1014600082F8411000990863009981F842008DF8D4
:101470000700FFE79DF8070002B080BD00000000F4
:1014800080B588B0DDF828C00690ADF8161004923B
:10149000ADF80E30069890F84100202840F0F68014
:1014A000FFE7FFE7069890F84000012804D1FFE726
:1014B00002208DF81F00EDE00699012081F8400020
:1014C000FFE7FFE7FFF7A8FE0290069802996A4639
:1014D00011604FF400410122192304F001F820B1FA
:1014E000FFE701208DF81F00D4E00699222081F843
:1014F00041000699102081F84200069900204864B6
:101500000499069A5162BDF80E10069A5185069903
:1015100048630698408DB0F5807F14D3FFE70699A5
:10152000FF2008850698BDF8161090F82820EC4694
:1015300042F20043C8F20003CCF800304FF0807351
:1015400003F0A2FF14E00698408D069908850698DE
:10155000BDF8161090F82820EC4642F20043C8F27D
:101560000003CCF800304FF0007303F08DFFFFE76D
:10157000FFE70698408D00285FD0FFE706980A999C
:10158000029A04F011F820B1FFE701208DF81F0046
:1015900080E006980068406A0699496A08700699D2
:1015A000486A013048620699088D01380885069915
:1015B000488D013848850698408DE8B3FFE70698C6
:1015C000008DC8BBFFE706980A9B02996A46116026
:1015D0008021002203F084FF20B1FFE701208DF875
:1015E0001F0057E00698408DB0F5807F11D3FFE7CC
:1015F0000699FF2008850698BDF8161090F8282057
:10160000EC460023CCF800304FF0807303F03CFF31
:1016100011E00698408D069908850698BDF81610C9
:1016200090F82820EC460023CCF800304FF00073EF
:1016300003F02AFFFFE7FFE79BE706980A99029A63
:1016400004F066F820B1FFE701208DF81F0021E0CB
:10165000069801682020C86106990A6851684EF60C
:101660000003CFF6006319405160069981F84100EC
:101670000699002081F84200FFE70699002081F8D2
:101680004000FFE700208DF81F0003E002208DF8E6
:101690001F00FFE79DF81F0008B080BD000000009C
:1016A00080B588B0DDF828C00690ADF81610049219
:1016B000ADF80E30069890F84100202840F01181D6
:1016C000FFE7FFE7069890F84000012804D1FFE704
:1016D00002208DF81F0008E10699012081F84000E2
:1016E000FFE7FFE7FFF798FD0290069802996A4628
:1016F00011604FF400410122192303F0F1FE20B1E3
:10170000FFE701208DF81F00EFE00699212081F806
:1017100041000699102081F8420006990020486493
:101720000499069A5162BDF80E10069A51850699E1
:1017300048630698408DB0F5807F07D3FFE7069990
:10174000FF2008854FF08070019007E00698408DDB
:10175000069908854FF000700190FFE70698008D0C
:1017600010B3FFE706980168406A0078886206991E
:10177000486A013048620699488D013848850699C3
:10178000088D013808850698BDF81610028D0132C3
:10179000019BEE4642F2000CC8F2000CCEF800C0ED
:1017A000D2B203F071FE0FE00698BDF8161090F863
:1017B0002820019BEE4642F2000CC8F2000CCEF845
:1017C00000C003F061FEFFE7FFE70698408D0028A8
:1017D0005ED0FFE706980A99029A03F0EDFF20B168
:1017E000FFE701208DF81F007FE006980168406A3E
:1017F000007888620699486A013048620699488DE7
:10180000013848850699088D013808850698408D6D
:10181000E8B3FFE70698008DC8BBFFE706980A9B70
:1018200002996A4611608021002203F059FE20B11E
:10183000FFE701208DF81F0057E00698408DB0F5B6
:10184000807F11D3FFE70699FF2008850698BDF831
:10185000161090F82820EC460023CCF800304FF00A
:10186000807303F011FE11E00698408D06990885FB
:101870000698BDF8161090F82820EC460023CCF806
:1018800000304FF0007303F0FFFDFFE7FFE79CE738
:1018900006980A99029A03F03BFF20B1FFE7012066
:1018A0008DF81F0021E0069801682020C861069984
:1018B0000A6851684EF60003CFF600631940516084
:1018C000069981F841000699002081F84200FFE75F
:1018D0000699002081F84000FFE700208DF81F00E6
:1018E00003E002208DF81F00FFE79DF81F0008B0FD
:1018F00080BD00000000000080B5B8B03790002027
:101900003690359034903390329002A8C021FEF783
:101910001BFD3798006845F20041C4F2000188427F
:101920003DD1FFE70020039008210291239002A8F7
:1019300000F0A6FC18B1FFE7FFF7AEF8FFE7FFE7FE
:1019400044F2E040C5F60200016841F00201016086
:10195000006800F0020001900198FFE7C02032907B
:1019600012203390002034900320359004203690CC
:1019700040F20040C5F6020032A9FFF749FAFFE73E
:1019800044F2E840C5F60200016841F4001101602C
:10199000006800F4001000900098FFE7FFE738B0FF
:1019A00080BD00000000000040F20C00C2F20040C8
:1019B000027845F2C461C2F2004108681044086030
:1019C000704700000000000080B582B0032000F0E6
:1019D0004FF901F089FF44F21842C5F6020211687E
:1019E000C1F303234AF2F031C0F60001CB5C03F0EF
:1019F0001F03D84000900098126802F00F02895C23
:101A000001F01F01C84040F20801C2F20041086025
:101A1000009840F20401C2F200410860002000F08A
:101A200013F820B1FFE701208DF8070005E000F072
:101A3000E7F800208DF80700FFE79DF8070002B0E7
:101A400080BD00000000000080B590B00E900E98A0
:101A50000F2810D8FFE70E9936200090002200F0E2
:101A6000EFF8009800F0E0F80E9840F21001C2F292
:101A70000041086003E001208DF83F004EE0FFE7E1
:101A800044F2E840C5F60200016841F0100101602F
:101A9000006800F0100001900198FFE706A802A975
:101AA00001F08AFE0B980490049820B9FFE701F03A
:101AB000F3FE059004E001F0EFFE40000590FFE723
:101AC00005984DF68361C4F21B31A0FB01014FF074
:101AD000FF3000EB9140039040F2DC40C2F2004046
:101AE00041F20001C4F20001016040F2E731C1603F
:101AF0000399416000210161816002F029FF48B92A
:101B0000FFE740F2DC40C2F2004002F09DFF8DF89A
:101B10003F0003E001208DF83F00FFE79DF83F0004
:101B200010B080BD0000000010B581B0009000989A
:101B300040784EF69851CEF2000108604EF6A05162
:101B4000CEF20001086820F00100086000984068AB
:101B50004EF69C52CEF200021060DDF800E09EF8D6
:101B60000C0000079EF80B2040EA02609EF800205F
:101B70009EF808309EF809C09EF80A4040EAC4402A
:101B80009EF80D4040EA84409EF80E4040EA4440F2
:101B90009EF80FE040EA0E4040EA0C2040EA430085
:101BA0001043086001B010BDBFF35F8F4EF62451A3
:101BB000CEF20001086820F4803008604EF694519F
:101BC000CEF2000100200860704700000000000015
:101BD00081B00090009840F001004EF69451CEF292
:101BE000000108604EF62451CEF20001086840F46E
:101BF00080300860BFF34F8FBFF36F8F01B0704725
:101C000081B0FFE744F2F440C5F60200016841F0FC
:101C100002010160006800F0020000900098FFE7F8
:101C200001B070470000000080B582B0ADF806003A
:101C3000BDF9060005F0CCFD02B080BD000000003B
:101C400080B586B0ADF816000491039205F0D8FD7A
:101C50000290BDF91600019002980499039A04F0CD
:101C6000E7F90146019805F0D3FD06B080BD0000FC
:101C700080B582B00190019805F0EEFD02B080BD04
:101C800080B584B0029044F60C00C5F602000068EE
:101C900000F004010020B0EB910F13D1FFE744F6F0
:101CA0000C00C5F60200006800F0070002998842A7
:101CB00004D0FFE701208DF80F002EE000208DF802
:101CC0000F002AE044F60C01C5F60201086820F076
:101CD0000700029A10430860FFF79EFA0190FFE7A1
:101CE00044F60400C5F60200006800F4005100202C
:101CF000B0EB513F0DD1FFE7FFF78EFA0199401A83
:101D0000B0F57A7F04D9FFE701208DF80F0004E0D9
:101D1000E6E700208DF80F00FFE79DF80F0004B004
:101D200080BD00000000000080B501F089FD44F294
:101D30002041C5F602010968C1F302124AF2F031EE
:101D4000C0F60001895C01F01F01C84080BD0000A1
:101D500088B0079044F22840C5F60200016801F0FF
:101D6000030106910068C0F30530059044F22C4051
:101D7000C5F602000068C0F300100490049844F215
:101D80003C41C5F60201096889B2C908484300EE22
:101D9000100AB8EE400A8DED020A0598002800F0FE
:101DA0001181FFE70698009048B1FFE700980128ED
:101DB00065D0FFE70098022800F08380A3E044F29A
:101DC0000040C5F60200006800F020010020B0EBE2
:101DD000511F31D0FFE744F20040C5F60200006811
:101DE000C0F3C10149F20000C0F2D030C8400390F6
:101DF0009DED030AB8EE400A9DED051AB8EE411AB2
:101E000080EE010A44F23840C5F6020000686FF324
:101E10005F2001EE100AB8EE411A9DED022A9FEDF7
:101E20006F3A02EE031AB7EE002A31EE021A20EEE4
:101E3000010A8DED010A21E09DED050AB8EE401A78
:101E40009FED680A80EE010A44F23840C5F60200B0
:101E500000686FF35F2001EE100AB8EE411A9DEDA5
:101E6000022A9FED5E3A02EE031AB7EE002A31EE27
:101E7000021A20EE010A8DED010AFFE765E09DEDF3
:101E8000050AB8EE401A9FED560A80EE010A44F2A8
:101E90003840C5F6020000686FF35F2001EE100ABB
:101EA000B8EE411A9DED022A9FED4C3A02EE031A5C
:101EB000B7EE002A31EE021A20EE010A8DED010A7A
:101EC00043E09DED050AB8EE401A9FED430A80EE0F
:101ED000010A44F23840C5F6020000686FF35F2043
:101EE00001EE100AB8EE411A9DED022A9FED3B3A31
:101EF00002EE031AB7EE002A31EE021A20EE010AB2
:101F00008DED010A21E09DED050AB8EE401A9FED26
:101F1000340A80EE010A44F23840C5F60200006837
:101F20006FF35F2001EE100AB8EE411A9DED022A10
:101F30009FED2A3A02EE031AB7EE002A31EE021A9A
:101F400020EE010A8DED010AFFE79DED010A44F242
:101F50003840C5F60200016889B2490A01EE101A3C
:101F6000B8EE411AB7EE002A31EE021A80EE010AED
:101F70000799BCEEC00A81ED000A9DED010A0168D7
:101F8000C1F3064101EE101AB8EE411A31EE021A01
:101F900080EE010A0799BCEEC00A81ED010A9DEDB1
:101FA000010A0068C0F3066001EE100AB8EE411A9B
:101FB00031EE021A80EE010A0798BCEEC00A80EDED
:101FC000020A07E00799002008600799486007990E
:101FD0008860FFE708B0704720BCBE4B00000039A6
:101FE0000024744A0024744C88B0079044F22840BE
:101FF000C5F60200016801F0030106910068C0F314
:102000000550059044F22C40C5F602000068C0F36C
:1020100000200490049844F24441C5F60201096886
:1020200089B2C908484300EE100AB8EE400A8DEDA7
:10203000020A0598002800F01181FFE70698009039
:1020400048B1FFE70098012865D0FFE70098022813
:1020500000F08380A3E044F20040C5F6020000686F
:1020600000F020010020B0EB511F31D0FFE744F217
:102070000040C5F602000068C0F3C10149F200004B
:10208000C0F2D030C84003909DED030AB8EE400A7C
:102090009DED051AB8EE411A80EE010A44F2404067
:1020A000C5F6020000686FF35F2001EE100AB8EE7B
:1020B000411A9DED022A9FED6F3A02EE031AB7EE28
:1020C000002A31EE021A20EE010A8DED010A21E00C
:1020D0009DED050AB8EE401A9FED680A80EE010AF0
:1020E00044F24040C5F6020000686FF35F2001EE45
:1020F000100AB8EE411A9DED022A9FED5E3A02EEFB
:10210000031AB7EE002A31EE021A20EE010A8DED15
:10211000010AFFE765E09DED050AB8EE401A9FED64
:10212000560A80EE010A44F24040C5F602000068FB
:102130006FF35F2001EE100AB8EE411A9DED022AFE
:102140009FED4C3A02EE031AB7EE002A31EE021A66
:1021500020EE010A8DED010A43E09DED050AB8EE7F
:10216000401A9FED430A80EE010A44F24040C5F652
:10217000020000686FF35F2001EE100AB8EE411A0A
:102180009DED022A9FED3B3A02EE031AB7EE002ABC
:1021900031EE021A20EE010A8DED010A21E09DEDDB
:1021A000050AB8EE401A9FED340A80EE010A44F2A7
:1021B0004040C5F6020000686FF35F2001EE100A90
:1021C000B8EE411A9DED022A9FED2A3A02EE031A5B
:1021D000B7EE002A31EE021A20EE010A8DED010A57
:1021E000FFE79DED010A44F24040C5F60200016898
:1021F00089B2490A01EE101AB8EE411AB7EE002A68
:1022000031EE021A80EE010A0799BCEEC00A81ED98
:10221000000A9DED010A0168C1F3064101EE101AA2
:10222000B8EE411A31EE021A80EE010A0799BCEEAF
:10223000C00A81ED010A9DED010A0068C0F3066045
:1022400001EE100AB8EE411A31EE021A80EE010AD0
:102250000798BCEEC00A80ED020A07E0079900204B
:1022600008600799486007998860FFE708B07047E1
:1022700020BCBE4B000000390024744A0024744C7A
:1022800080B59AB0189000208DF857008DF8560050
:102290001898C0780007002848D5FFE71898806E86
:1022A000149078B1FFE71498B0F5801F13D0FFE7C2
:1022B0001498B0F5001F16D0FFE71498B0F5401F32
:1022C00019D019E044F22C41C5F60201086840F427
:1022D0000030086014E018980830022103F014FF61
:1022E0008DF857000CE018982830022103F0F4FF15
:1022F0008DF8570004E003E001208DF85700FFE758
:102300009DF8570060B9FFE744F25041C5F602015D
:10231000086820F44010189A926E1043086004E098
:102320009DF857008DF85600FFE7FFE718984078B2
:10233000C007002840D0FFE71898806D139004284C
:1023400020D81399DFE801F0030C141C1D0044F29F
:102350002C41C5F60201086840F40030086015E021
:1023600018980830002103F0CFFE8DF857000DE0DB
:1023700018982830002103F0AFFF8DF8570005E0D2
:1023800004E003E001208DF85700FFE79DF85700B7
:1023900060B9FFE744F25041C5F60201086820F039
:1023A0000700189A926D1043086004E09DF85700EA
:1023B0008DF85600FFE7FFE718984078800700285F
:1023C0004BD5FFE71898C06D129088B1FFE71298BF
:1023D000402816D0FFE7129880281AD0FFE71298FD
:1023E000C0281ED0FFE71298B0F5807F1AD01AE0FF
:1023F00044F22C41C5F60201086840F40030086040
:1024000015E018980830002103F07EFE8DF8570083
:102410000DE018982830002103F05EFF8DF857007A
:1024200005E004E003E001208DF85700FFE79DF888
:10243000570060B9FFE744F25041C5F60201086851
:1024400020F4E070189AD26D1043086004E09DF803
:1024500057008DF85600FFE7FFE7189840784007CF
:10246000002850D5FFE71898D0F8A8001190A0B127
:10247000FFE71198B0F5001F18D0FFE71198B0F5ED
:10248000800F1BD0FFE71198B0F5C00F1ED0FFE7FB
:102490001198B0F5000F1AD01AE044F22C41C5F69D
:1024A0000201086840F40030086015E01898083010
:1024B000002103F029FE8DF857000DE01898283010
:1024C000002103F009FF8DF8570005E004E003E068
:1024D00001208DF85700FFE79DF8570068B9FFE726
:1024E00044F25841C5F60201086820F46000189AC9
:1024F000D2F8A8201043086004E09DF857008DF83A
:102500005600FFE7FFE7189840780007002850D5ED
:10251000FFE71898D0F8AC001090A0B1FFE7109832
:10252000B0F1807F18D0FFE71098B0F1007F1BD08A
:10253000FFE71098B0F1407F1ED0FFE71098B0F190
:10254000806F1AD01AE044F22C41C5F602010868E7
:1025500040F40030086015E018980830002103F0BE
:10256000D3FD8DF857000DE018982830002103F0B6
:10257000B3FE8DF8570005E004E003E001208DF87C
:102580005700FFE79DF8570068B9FFE744F258414C
:10259000C5F60201086820F0E060189AD2F8AC2075
:1025A0001043086004E09DF857008DF85600FFE7DF
:1025B000FFE71898C078800700283ED5FFE71898F5
:1025C000C06C0F90F0B1FFE70F98102808D0FFE71C
:1025D0000F9820280DD0FFE70F98302811D012E077
:1025E00044F22C41C5F60201086840F4003008604E
:1025F0000DE018980830022103F086FD8DF8570091
:1026000005E004E003E001208DF85700FFE79DF8A6
:10261000570060B9FFE744F24C41C5F60201086873
:1026200020F03000189AD26C1043086004E09DF846
:1026300057008DF85600FFE7FFE718984078C0066E
:1026400000284ED5FFE71898006E0E90A0B1FFE766
:102650000E98B0F5805F18D0FFE70E98B0F5005FD8
:102660001BD0FFE70E98B0F5405F1ED0FFE70E9835
:10267000B0F5804F1AD01AE044F22C41C5F60201A1
:10268000086840F40030086015E018980830002110
:1026900003F03AFD8DF857000DE01898283000211E
:1026A00003F01AFE8DF8570005E004E003E0012076
:1026B0008DF85700FFE79DF8570060B9FFE744F237
:1026C0005041C5F60201086820F4E040189A126EE5
:1026D0001043086004E09DF857008DF85600FFE7AE
:1026E000FFE718984078800600284CD5FFE7189837
:1026F000406E0D90C8B1FFE70D98B0F5803F15D042
:10270000FFE70D98B0F5003F18D0FFE70D98B0F542
:10271000403F1BD0FFE70D98B0F5802F17D0FFE7A3
:102720000D98B0F5A02F13D013E016E018980830DC
:10273000012103F0E9FC8DF857000EE018982830CD
:10274000012103F0C9FD8DF8570006E005E004E023
:1027500003E001208DF85700FFE79DF8570060B9AE
:10276000FFE744F25041C5F60201086820F4E0207A
:10277000189A526E1043086004E09DF857008DF8D7
:102780005600FFE7FFE718984078400600284ED52E
:10279000FFE71898D0F8B0000C90C8B1FFE70C988C
:1027A000B0F1805F15D0FFE70C98B0F1005F18D052
:1027B000FFE70C98B0F1405F1BD0FFE70C98B0F139
:1027C000804F17D0FFE70C98B0F1A04F13D013E063
:1027D00016E018980830012103F096FC8DF8570098
:1027E0000EE018982830012103F076FD8DF857008F
:1027F00006E005E004E003E001208DF85700FFE764
:102800009DF8570068B9FFE744F25841C5F6020148
:10281000086820F0E040189AD2F8B0201043086011
:1028200004E09DF857008DF85600FFE7FFE7189881
:102830004078000600283BD5FFE71898006F0B9002
:10284000D8B1FFE70B98B0F1805F05D0FFE70B9898
:10285000B0F1005F09D011E044F22C41C5F602014D
:10286000086840F4003008600CE018980830012136
:1028700003F04AFC8DF8570004E003E001208DF8D6
:102880005700FFE79DF8570060B9FFE744F2504159
:10289000C5F60201086820F04050189A126F1043E4
:1028A000086004E09DF857008DF85600FFE7FFE749
:1028B0001898C078C007002837D0FFE71898806CB8
:1028C0000A90032817D80A99DFE801F014020B13C5
:1028D00044F22C41C5F60201086840F4003008605B
:1028E0000DE018980830022103F00EFC8DF8570017
:1028F00005E004E003E001208DF85700FFE79DF8B4
:10290000570060B9FFE744F24C41C5F60201086880
:1029100020F00300189A926C1043086004E09DF8C0
:1029200057008DF85600FFE7FFE7189880784006BB
:10293000002840F1B480FFE744F60001C5F602012B
:10294000086840F480700860FEF766FC1690FFE7A8
:1029500044F60000C5F602000068C00500280CD44B
:10296000FFE7FEF759FC1699401A652804D3FFE7E4
:1029700003208DF8570000E0EAE79DF85700002893
:1029800040F08780FFE744F27040C5F6020000681F
:1029900000F440701899D1F8B41001F440718842E5
:1029A00013D0FFE744F27041C5F60201086820F435
:1029B00040701790086840F480300860086820F480
:1029C0008030086017980860FFE71898D0F8B400C6
:1029D000B0F5807F1FD1FFE7FEF71EFC1690FFE7E2
:1029E00044F27040C5F60200006800F002010020C9
:1029F000B0EB510F0ED1FFE7FEF70EFC1699401A0F
:102A000041F28931884204D3FFE703208DF8570053
:102A100000E0E5E7FFE79DF85700A0BBFFE7FFE711
:102A20001898D0F8B40000F44070B0F5407F13D18E
:102A3000FFE744F21041C5F60201086820F47C501B
:102A4000189AD2F8B4204FF6F043C0F6FF731A403C
:102A500040EA1210086008E044F21041C5F6020195
:102A6000086820F47C500860FFE71898D0F8B4207C
:102A70006FF31F3244F27041C5F60201086810433B
:102A80000860FFE704E09DF857008DF85600FFE767
:102A900004E09DF857008DF85600FFE7FFE718980F
:102AA0000068C007002800F04C80FFE71898C06F4E
:102AB000099028282BD80999DFE801F01529292940
:102AC0002929292916292929292929291E29292994
:102AD000292929292629292929292929272929296B
:102AE00029292929280016E018980830012103F027
:102AF0000BFB8DF857000EE018982830012103F0E9
:102B0000EBFB8DF8570006E005E004E003E0012050
:102B10008DF85700FFE79DF8570060B9FFE744F2D2
:102B20005441C5F60201086820F03800189AD26FA7
:102B30001043086004E09DF857008DF85600FFE749
:102B4000FFE7189800788007002839D5FFE7189824
:102B5000806F0890052819D80899DFE801F0030470
:102B60000C14151616E018980830012103F0CCFA61
:102B70008DF857000EE018982830012103F0ACFBC7
:102B80008DF8570006E005E004E003E001208DF831
:102B90005700FFE79DF8570060B9FFE744F2544142
:102BA000C5F60201086820F00700189A926F1043DA
:102BB000086004E09DF857008DF85600FFE7FFE736
:102BC00018980078400700283BD5FFE71898D0F800
:102BD00094000790052819D80799DFE801F003044D
:102BE0000C14151616E018980830012103F08CFA21
:102BF0008DF857000EE018982830012103F06CFB87
:102C00008DF8570006E005E004E003E001208DF8B0
:102C10005700FFE79DF8570068B9FFE744F25841B5
:102C2000C5F60201086820F00700189AD2F894202F
:102C30001043086004E09DF857008DF85600FFE748
:102C4000FFE718980078800600284ED5FFE718980F
:102C5000D0F890000690C8B1FFE70698B0F1805F09
:102C600015D0FFE70698B0F1005F18D0FFE706988F
:102C7000B0F1405F1BD0FFE70698B0F1804F17D04E
:102C8000FFE70698B0F1A04F13D013E016E01898B4
:102C90000830002103F038FA8DF857000EE018983C
:102CA0002830022103F018FB8DF8570006E005E0FC
:102CB00004E003E001208DF85700FFE79DF857007E
:102CC00068B9FFE744F25441C5F60201086820F0F4
:102CD000E040189AD2F890201043086004E09DF874
:102CE00057008DF85600FFE7FFE718980078400678
:102CF00000284ED5FFE71898D0F89C000590C8B181
:102D0000FFE70598B0F5806F15D0FFE70598B0F59F
:102D1000006F18D0FFE70598B0F5406F1BD0FFE7B4
:102D20000598B0F5805F17D0FFE70598B0F5A05F74
:102D300013D013E016E018980830002103F0E4F9EE
:102D40008DF857000EE018982830022103F0C4FADD
:102D50008DF8570006E005E004E003E001208DF85F
:102D60005700FFE79DF8570068B9FFE744F2584164
:102D7000C5F60201086820F4E050189AD2F89C20A9
:102D80001043086004E09DF857008DF85600FFE7F7
:102D9000FFE718980078000600284ED5FFE718983E
:102DA000D0F8A0000490C8B1FFE70498B0F5005F28
:102DB00015D0FFE70498B0F5804F18D0FFE70498CE
:102DC000B0F5C04F1BD0FFE70498B0F5004F17D007
:102DD000FFE70498B0F5204F13D013E016E01898E1
:102DE0000830002103F090F98DF857000EE0189894
:102DF0002830022103F070FA8DF8570006E005E054
:102E000004E003E001208DF85700FFE79DF857002C
:102E100068B9FFE744F25841C5F60201086820F49A
:102E20006040189AD2F8A0201043086004E09DF892
:102E300057008DF85600FFE7FFE718980078000765
:102E4000002820D5FFE71898D0F88400B0F5805FFF
:102E50000CD1FFE718982830022103F03DFA20B189
:102E6000FFE701208DF85600FFE7FFE744F25441E9
:102E7000C5F60201086820F44050189AD2F8842060
:102E800010430860FFE718980078C006002820D596
:102E9000FFE71898D0F89800B0F5807F0CD1FFE7D5
:102EA00018982830022103F017FA20B1FFE701201B
:102EB0008DF85600FFE7FFE744F25841C5F60201DE
:102EC000086820F44070189AD2F8982010430860DF
:102ED000FFE718988078000700283CD5FFE718988E
:102EE000D0F8A400039050B1FFE70398B0F5803FFD
:102EF0000DD0FFE70398B0F5003F10D010E0189810
:102F00000830002103F000F98DF857000CE0189804
:102F10002830022103F0E0F98DF8570004E003E0C7
:102F200001208DF85700FFE79DF8570068B9FFE7CB
:102F300044F25841C5F60201086820F44030189A5E
:102F4000D2F8A4201043086004E09DF857008DF8E3
:102F50005600FFE7FFE718988078400700283FD524
:102F6000FFE71898D0F888000290B0F5801F0AD0CB
:102F7000FFE70298B0F5001F0ED0FFE70298B0F50A
:102F8000401F11D011E044F22C41C5F6020108683F
:102F900040F4003008600CE018982830012103F05C
:102FA0009BF98DF8570004E003E001208DF85700ED
:102FB000FFE79DF8570068B9FFE744F25441C5F6B2
:102FC0000201086820F44010189AD2F888201043B3
:102FD000086004E09DF857008DF85600FFE7FFE712
:102FE00018988078C007A8B3FFE71898006D019083
:102FF00028B1FFE70198B0F5803F09D010E044F216
:103000002C41C5F60201086840F4003008600BE06E
:1030100018980830022103F077F88DF8570003E084
:1030200001208DF85700FFE79DF8570060B9FFE7D2
:1030300044F24C41C5F60201086820F48030189A29
:10304000126D1043086004E09DF857008DF856009B
:10305000FFE7FFE71898C078800600280CD5FFE747
:1030600018982830022103F037F920B1FFE701203A
:103070008DF85600FFE7FFE7189880788007002852
:103080003CD5FFE71898D0F880000090D0B1FFE75A
:103090000098B0F5807F0AD0FFE70098B0F5007F78
:1030A0000ED0FFE70098B0F5407F0AD00BE044F265
:1030B0002C41C5F60201086840F40030086006E0C3
:1030C00005E004E003E001208DF85700FFE79DF8DC
:1030D000570068B9FFE744F25441C5F60201086899
:1030E00020F44070189AD2F880201043086004E061
:1030F0009DF857008DF85600FFE7FFE71898807895
:10310000C00600280CD5FFE744F25041C5F6020185
:10311000086820F00040189A526F10430860FFE7DB
:103120001898C078C00600280DD5FFE744F210417A
:10313000C5F60201086820F48040189AD2F8B82039
:1031400010430860FFE718988078800600280CD5A7
:10315000FFE744F25041C5F60201086820F0807094
:10316000189AD26E10430860FFE71898C07840069E
:10317000002811D5FFE7FFE744F21041C5F6020130
:10318000086820F4004008601898D0F8BC2008684F
:1031900010430860FFE7FFE71898C0780006002892
:1031A0000CD5FFE744F24C41C5F60201086820F057
:1031B0004050189A526D10430860FFE718988078C5
:1031C000000600280DD5FFE744F25441C5F6020180
:1031D000086820F44000189AD2F88C201043086048
:1031E000FFE718980079C00790B1FFE718980830FA
:1031F000002102F089FF8DF857009DF8570008B9AB
:10320000FFE704E09DF857008DF85600FFE7FFE761
:10321000189800798007002812D5FFE71898083021
:10322000012102F071FF8DF857009DF8570008B991
:10323000FFE704E09DF857008DF85600FFE7FFE731
:10324000189800794007002812D5FFE71898083031
:10325000022102F059FF8DF857009DF8570008B978
:10326000FFE704E09DF857008DF85600FFE7FFE701
:10327000189800790007002812D5FFE71898283021
:10328000002103F029F88DF857009DF8570008B980
:10329000FFE704E09DF857008DF85600FFE7FFE7D1
:1032A00018980079C006002812D5FFE71898283032
:1032B000012103F011F88DF857009DF8570008B967
:1032C000FFE704E09DF857008DF85600FFE7FFE7A1
:1032D000189800798006002812D5FFE71898283042
:1032E000022102F0F9FF8DF857009DF8570008B948
:1032F000FFE704E09DF857008DF85600FFE7FFE771
:103300009DF8560020B9FFE700208DF8670003E024
:1033100001208DF86700FFE79DF867001AB080BDB7
:1033200080B586B004900391049820B9FFE701208E
:103330008DF817003CE2039842F20001C5F200212B
:10334000096801F00F01884216D9FFE742F2000038
:10335000C5F20020016821F00F01039A11430160BA
:10336000006800F00F000399884204D0FFE70120B5
:103370008DF817001CE2FFE704980078400700284A
:1033800019D5FFE70498006944F21841C5F6020117
:10339000096801F0700188420CD9FFE744F2184136
:1033A000C5F60201086820F07000049A1269104303
:1033B0000860FFE7FFE7049800780007002819D5A8
:1033C000FFE70498406944F21C41C5F60201096810
:1033D00001F0700188420CD9FFE744F21C41C5F6A8
:1033E0000201086820F07000049A526910430860D6
:1033F000FFE7FFE704980078C006002819D5FFE72B
:103400000498806944F21C41C5F60201096801F480
:10341000E06188420CD9FFE744F21C41C5F6020185
:10342000086820F4E060049A926910430860FFE79E
:10343000FFE7049800788006002819D5FFE7049874
:10344000C06944F22041C5F60201096801F070012B
:1034500088420CD9FFE744F22041C5F60201086812
:1034600020F07000049AD26910430860FFE7FFE77C
:10347000049800788007002819D5FFE70498C068F1
:1034800044F21841C5F60201096801F00F018842B3
:103490000CD9FFE744F21841C5F60201086820F094
:1034A0000F00049AD26810430860FFE7FFE7049812
:1034B0000078C007002800F08C80FFE744F2184134
:1034C000C5F60201086820F47060049A92681043FF
:1034D000086004984068022811D1FFE744F20040D8
:1034E000C5F60200006800F400310020B0EB514F37
:1034F00004D1FFE701208DF8170059E13EE0049860
:103500004068032811D1FFE744F20040C5F60200ED
:10351000006800F000710020B0EB516F04D1FFE7AC
:1035200001208DF8170043E127E004984068012846
:1035300011D1FFE744F20040C5F60200006800F434
:1035400080710020B0EB112F04D1FFE701208DF82E
:1035500017002DE110E044F20040C5F602000068BB
:1035600000F004010020B0EB910F04D1FFE701202F
:103570008DF817001CE1FFE7FFE7FFE744F2104179
:10358000C5F60201086820F00700049A526810434B
:103590000860FDF741FE0190FFE744F21040C5F6D8
:1035A0000200006800F0380004994968B0EBC10FD0
:1035B0000ED0FFE7FDF730FE0199401A41F2893144
:1035C000884204D3FFE703208DF81700F0E0E4E71A
:1035D000FFE7049800788007002819D5FFE70498D2
:1035E000C06844F21841C5F60201096801F00F01F4
:1035F00088420CD2FFE744F21841C5F60201086880
:1036000020F00F00049AD26810430860FFE7FFE73C
:10361000039842F20001C5F20021096801F00F0190
:10362000884216D2FFE742F20000C5F2002001688E
:1036300021F00F01039A11430160006800F00F00B0
:103640000399884204D0FFE701208DF81700AFE00E
:10365000FFE7049800784007002819D5FFE7049891
:10366000006944F21841C5F60201096801F07001D1
:1036700088420CD2FFE744F21841C5F602010868FF
:1036800020F07000049A126910430860FFE7FFE71A
:10369000049800780007002819D5FFE704984069CE
:1036A00044F21C41C5F60201096801F0700188422C
:1036B0000CD2FFE744F21C41C5F60201086820F075
:1036C0007000049A526910430860FFE7FFE704980E
:1036D0000078C006002819D5FFE70498806944F2F5
:1036E0001C41C5F60201096801F4E06188420CD270
:1036F000FFE744F21C41C5F60201086820F4E060CF
:10370000049A926910430860FFE7FFE70498007885
:103710008006002819D5FFE70498C06944F22041CB
:10372000C5F60201096801F0700188420CD2FFE77A
:1037300044F22041C5F60201086820F07000049AA6
:10374000D26910430860FFE7FFE700F0CDF844F2CC
:103750001842C5F602021168C1F303234AF2F031A0
:10376000C0F60001CB5C03F01F03D8400090009826
:10377000126802F00F02895C01F01F01C84040F29C
:103780000801C2F200410860009840F20401C2F250
:103790000041086040F21000C2F200400068FEF7ED
:1037A00053F98DF80B009DF80B008DF81700FFE71B
:1037B0009DF8170006B080BD82B00190009101997C
:1037C0003F20086044F21040C5F60200006800F097
:1037D00007000199486044F21840C5F602000168EC
:1037E00001F47061019A9160016801F00F01019A82
:1037F000D160006800F070000199086144F21C403B
:10380000C5F60200016801F07001019A516100687B
:1038100000F4E0600199886144F22040C5F602009E
:10382000006800F070000199C86142F20000C5F222
:103830000020006800F00F000099086002B0704797
:1038400080B582B000F050F844F21842C5F602028A
:103850001168C1F303234AF2F031C0F60001CB5CDA
:1038600003F01F03D84001900198126802F00F0284
:10387000895C01F01F0120FA01F140F20800C2F258
:1038800000400160019940F20402C2F2004211605E
:10389000006802B080BD000080B5FFF7D1FF44F2A0
:1038A0001C41C5F602010968C1F302124AF2F03167
:1038B000C0F60001895C01F01F01C84080BD000016
:1038C00080B5FFF7BDFF44F21C41C5F6020109684F
:1038D000C1F302224AF2F031C0F60001895C01F026
:1038E0001F01C84080BD00008AB044F21040C5F6F8
:1038F0000200006800F0380001460191182800F22B
:103900005F810199DFE811F019005C015C015C0145
:103910005C015C015C015C013A005C015C015C01E2
:103920005C015C015C015C0140005C015C015C01CC
:103930005C015C015C015C01460044F20040C5F69C
:103940000200006800F020010020B0EB511F0ED0F3
:10395000FFE744F20040C5F602000068C0F3C10171
:1039600049F20000C0F2D030C840029005E049F2B0
:103970000000C0F2D0300290FFE727E140F60010CF
:10398000C0F23D00029021E147F64000C0F27D10F8
:1039900002901BE144F22840C5F60200016801F0E4
:1039A000030108910068C0F30510079044F22C4011
:1039B000C5F60200006800F001000690069844F287
:1039C0003441C5F60201096889B2C908484300EECE
:1039D000100AB8EE400A8DED040A0798002800F09E
:1039E000EB80FFE70898009048B1FFE700980128B6
:1039F00065D0FFE70098022800F08380A3E044F23E
:103A00000040C5F60200006800F020010020B0EB85
:103A1000511F31D0FFE744F20040C5F602000068B4
:103A2000C0F3C10149F20000C0F2D030C840059097
:103A30009DED050AB8EE400A9DED071AB8EE411A51
:103A400080EE010A44F23040C5F6020000686FF3D0
:103A50005F2001EE100AB8EE411A9DED042A9FED99
:103A60005E3A02EE031AB7EE002A31EE021A20EE99
:103A7000010A8DED030A21E09DED070AB8EE401A18
:103A80009FED570A80EE010A44F23040C5F602006D
:103A900000686FF35F2001EE100AB8EE411A9DED49
:103AA000042A9FED4D3A02EE031AB7EE002A31EEDA
:103AB000021A20EE010A8DED030AFFE765E09DED95
:103AC000070AB8EE401A9FED450A80EE010A44F25B
:103AD0003040C5F6020000686FF35F2001EE100A67
:103AE000B8EE411A9DED042A9FED3B3A02EE031A0F
:103AF000B7EE002A31EE021A20EE010A8DED030A1C
:103B000043E09DED070AB8EE401A9FED320A80EEC1
:103B1000010A44F23040C5F6020000686FF35F20EE
:103B200001EE100AB8EE411A9DED042A9FED2A3AE3
:103B300002EE031AB7EE002A31EE021A20EE010A55
:103B40008DED030A21E09DED070AB8EE401A9FEDC6
:103B5000230A80EE010A44F23040C5F602000068F4
:103B60006FF35F2001EE100AB8EE411A9DED042AB2
:103B70009FED193A02EE031AB7EE002A31EE021A4F
:103B800020EE010A8DED030AFFE744F23040C5F64E
:103B90000200006881B2012000EB512009909DEDE8
:103BA000030A9DED091AB8EE411A80EE010ABCEE37
:103BB000C00A8DED020A02E000200290FFE705E056
:103BC00040F60010C0F23D000290FFE702980AB0F4
:103BD000704700BF20BCBE4B000000390024744A6F
:103BE0000024744C0000000080B58CB00A900A9844
:103BF00028B9FFE701208DF82F0000F09DBD0A983D
:103C00000078C007002800F0B980FFE744F21040B8
:103C1000C5F60200006800F03800069044F2284023
:103C2000C5F6020000680590069810280AD0FFE744
:103C3000069818281CD1FFE7059800F00300022819
:103C400016D1FFE744F20040C5F60200006800F418
:103C500000310020B0EB514F09D0FFE70A984068CF
:103C600028B9FFE701208DF82F0000F065BD84E042
:103C7000FFE70A984068B0F5803F09D1FFE744F2BA
:103C80000041C5F60201086840F48030086032E067
:103C90000A98406868B9FFE744F20041C5F602019E
:103CA000086820F480300860086820F480200860EC
:103CB00020E00A984068B0F5A02F0DD1FFE744F24C
:103CC0000041C5F60201086840F4802008600868D9
:103CD00040F4803008600CE044F20041C5F6020177
:103CE000086820F480300860086820F480200860AC
:103CF000FFE7FFE7FFE7FFE70A984068F0B1FFE75B
:103D0000FDF78AFA0990FFE744F20040C5F6020089
:103D1000006800F400310020B0EB514F0DD1FFE7F7
:103D2000FDF77AFA0999401A652805D3FFE70320C1
:103D30008DF82F0000F000BDE6E71DE0FDF76CFAFE
:103D40000990FFE744F20040C5F60200006800F465
:103D500000310020B0EB514F0DD0FFE7FDF75CFACA
:103D60000999401A652805D3FFE703208DF82F0035
:103D700000F0E2BCE6E7FFE7FFE7FFE70A9800781C
:103D80008007002840F11681FFE744F21040C5F695
:103D90000200006800F03800049044F22840C5F6A4
:103DA000020000680390049850B1FFE704981828B7
:103DB00078D1FFE79DF80C008007002872D1FFE75B
:103DC00044F20040C5F60200006800F00401002043
:103DD000B0EB910F09D0FFE70A98C06828B9FFE758
:103DE00001208DF82F0000F0A7BC44F20041C5F679
:103DF0000201086820F019000A9AD268104308608E
:103E0000FDF70AFA0990FFE744F20040C5F6020008
:103E1000006800F004010020B0EB910F0DD1FFE726
:103E2000FDF7FAF90999401A032805D3FFE70320A3
:103E30008DF82F0000F080BCE6E7FFE7FDF7E4F91E
:103E400041F2030188421DD8FFE70A980069402823
:103E50000AD1FFE744F20441C5F6020108682022B6
:103E600062F3113008600CE044F20441C5F602012F
:103E7000086820F47C300A9A126940EA023008602F
:103E8000FFE70CE044F20441C5F60201086820F0A7
:103E9000FE400A9A126940EA02600860FFE7FFE705
:103EA000FFE786E00A98C06800285CD0FFE744F28C
:103EB0000041C5F60201086820F019000A9AD2688C
:103EC00010430860FDF7A8F90990FFE744F20040AD
:103ED000C5F60200006800F004010020B0EB910F6D
:103EE0000DD1FFE7FDF798F90999401A032805D38A
:103EF000FFE703208DF82F0000F01EBCE6E7FFE788
:103F0000FDF782F941F2030188421DD8FFE70A98C4
:103F1000006940280AD1FFE744F20441C5F60201D6
:103F20000868202262F3113008600CE044F204417A
:103F3000C5F60201086820F47C300A9A126940EA4A
:103F400002300860FFE70CE044F20441C5F60201CC
:103F5000086820F0FE400A9A126940EA0260086090
:103F6000FFE7FFE724E044F20041C5F602010868DC
:103F700020F001000860FDF74FF90990FFE744F2D7
:103F80000040C5F60200006800F004010020B0EB1C
:103F9000910F0CD0FFE7FDF73FF90999401A03286C
:103FA00004D3FFE703208DF82F00C5E3E7E7FFE721
:103FB000FFE7FFE70A980078C006002840F1EB8091
:103FC000FFE744F21040C5F60200006800F0380038
:103FD000029044F22840C5F6020000680190029861
:103FE00008280AD0FFE70298182850D1FFE7019867
:103FF00000F0030001284AD1FFE744F20040C5F673
:104000000200006800F480710020B0EB112F09D08D
:10401000FFE70A98C069802804D0FFE701208DF8E7
:104020002F0089E3FFE7FDF7EFF841F20301884233
:104030001DD8FFE70A98006A20280AD1FFE744F25A
:104040000441C5F602010868102262F39E60086010
:104050000CE044F20441C5F60201086820F0F84083
:104060000A9A126A40EA82600860FFE70CE044F2B4
:104070000C41C5F60201086820F07C500A9A126AC9
:1040800040EA02600860FFE7FFE7FFE782E00A9886
:10409000C069002858D0FFE744F20041C5F602018C
:1040A000086840F080000860FDF7B6F80990FFE767
:1040B00044F20040C5F60200006800F48071002060
:1040C000B0EB112F0CD1FFE7FDF7A6F80999401AC4
:1040D000032804D3FFE703208DF82F002CE3E7E744
:1040E000FFE7FDF791F841F2030188421DD8FFE791
:1040F0000A98006A20280AD1FFE744F20441C5F675
:1041000002010868102262F39E6008600CE044F22D
:104110000441C5F60201086820F0F8400A9A126AC4
:1041200040EA82600860FFE70CE044F20C41C5F60B
:104130000201086820F07C500A9A126A40EA026084
:104140000860FFE7FFE724E044F20041C5F6020102
:10415000086820F080000860FDF75EF80990FFE72E
:1041600044F20040C5F60200006800F480710020AF
:10417000B0EB112F0CD0FFE7FDF74EF80999401A6C
:10418000032804D3FFE703208DF82F00D4E2E7E7EC
:10419000FFE7FFE7FFE70A980078000700284FD500
:1041A000FFE70A98406928B3FFE744F27441C5F677
:1041B0000201086840F001000860FDF72DF8099041
:1041C000FFE744F27440C5F60200006800F0020107
:1041D0000020B0EB510F0CD1FFE7FDF71DF8099956
:1041E000401A032804D3FFE703208DF82F00A3E231
:1041F000E7E724E044F27441C5F60201086820F0C4
:1042000001000860FDF708F80990FFE744F27440E8
:10421000C5F60200006800F002010020B0EB510F6B
:104220000CD0FFE7FCF7F8FF0999401A032804D3E4
:10423000FFE703208DF82F007EE2E7E7FFE7FFE7C7
:104240000A980078800600284FD5FFE70A98806911
:1042500028B3FFE744F20041C5F60201086840F4C4
:1042600080500860FCF7D8FF0990FFE744F2004057
:10427000C5F60200006800F400510020B0EB513F89
:104280000CD1FFE7FCF7C8FF0999401A032804D3B3
:10429000FFE703208DF82F004EE2E7E724E044F229
:1042A0000041C5F60201086820F480500860FCF760
:1042B000B3FF0990FFE744F20040C5F60200006832
:1042C00000F400510020B0EB513F0CD0FFE7FCF7A9
:1042D000A3FF0999401A032804D3FFE703208DF8B0
:1042E0002F0029E2E7E7FFE7FFE70A980078400799
:1042F000002840F1A780FFE744F60001C5F602015F
:10430000086840F480700860FCF786FF0990FFE7BA
:1043100044F60000C5F602000068C00500280CD471
:10432000FFE7FCF779FF0999401A652804D3FFE7F6
:1043300003208DF82F00FFE1EAE7FFE70A98806885
:10434000012809D1FFE744F27041C5F6020108686F
:1043500040F00100086031E00A98806868B9FFE722
:1043600044F27041C5F60201086820F001000860BF
:10437000086820F0040008601FE00A98806805289B
:104380000DD1FFE744F27041C5F60201086840F024
:1043900004000860086840F0010008600CE044F286
:1043A0007041C5F60201086820F001000860086845
:1043B00020F004000860FFE7FFE7FFE7FFE70A9847
:1043C0008068F8B1FFE7FCF727FF0990FFE744F2A8
:1043D0007040C5F60200006800F002010020B0EB5A
:1043E000510F0ED1FFE7FCF717FF0999401A41F270
:1043F0008931884204D3FFE703208DF82F009BE129
:10440000E5E71EE0FCF708FF0990FFE744F2704083
:10441000C5F60200006800F002010020B0EB510F69
:104420000ED0FFE7FCF7F8FE0999401A41F28931F6
:10443000884204D3FFE703208DF82F007CE1E5E7F5
:10444000FFE7FFE70A98406A002800F07181FFE764
:1044500044F21040C5F60200006800F03800182849
:1044600000F0E080FFE70A98406A022840F0B4803C
:10447000FFE744F20041C5F60201086820F08070B1
:104480000860FCF7C9FE0990FFE744F20040C5F65A
:104490000200006800F000710020B0EB516F0CD0FA
:1044A000FFE7FCF7B9FE0999401A032804D3FFE798
:1044B00003208DF82F003FE1E7E7FFE744F22841B2
:1044C000C5F60201086840F2F33290430A9B9A6AEB
:1044D000DB6A42EA0312104308600A99086BD1F8BC
:1044E00034C08B6BCA6B01386FF35F204FF60061ED
:1044F000CFF6FF7101EB4C2189B208440021CFF6C1
:10450000FF7101EB034101F4FE0108444FF07F41CC
:1045100001EB026101F0FE41084444F23041C5F66E
:1045200002010860FFE744F22C41C5F60201009148
:10453000086820F00100086044F23442C5F6020227
:1045400010684FF6F87398430A9B9B6C40EAC300CF
:104550001060086820F00C000A9A126C1043086082
:10456000086820F002000A9A526C1043086008683C
:1045700040F480300860086840F400300860086843
:1045800040F480200860086840F00100086044F2B0
:104590000041C5F60201086840F080700860FCF731
:1045A0003BFE0990FFE744F20040C5F602000068B8
:1045B00000F000710020B0EB516F0CD1FFE7FCF769
:1045C0002BFE0999401A032804D3FFE703208DF836
:1045D0002F00B1E0E7E724E044F20041C5F6020114
:1045E000086820F080700860FCF716FE0990FFE76D
:1045F00044F20040C5F60200006800F0007100209F
:10460000B0EB516F0CD0FFE7FCF706FE0999401A9A
:10461000032804D3FFE703208DF82F008CE0E7E7A1
:10462000FFE784E044F22840C5F6020000680890E5
:1046300044F23040C5F60200006807900A98406ACC
:10464000012837D0FFE7089800F003000A99896A2B
:1046500088422FD1FFE7089800F47C710A98C06A5D
:10466000B0EB111F26D1FFE707986FF35F200A997F
:10467000096B013988421DD1FFE7BDF81C100A986B
:10468000406B0138B0EB512F14D1FFE7079800F4CD
:10469000FE010A98806B0138B0EB114F0AD1FFE799
:1046A000079800F0FE410A98C06B0138B0EB116F1B
:1046B00004D0FFE701208DF82F003DE044F23440A4
:1046C000C5F60200006880B2C00808900A98806CA5
:1046D0000899884229D0FFE744F22C41C5F602012F
:1046E000086820F001000860FCF796FD0990FFE7DC
:1046F000FCF792FD0999401A08B9FFE7F8E744F280
:104700003441C5F6020108684FF6F87290430A9AE0
:10471000926C40EAC200086044F22C41C5F60201E6
:10472000086840F001000860FFE7FFE7FFE7FFE7E8
:1047300000208DF82F00FFE79DF82F000CB080BD02
:1047400080B584B0029001910092029820B9FFE7F1
:1047500001208DF80F0037E0029890F8450040B92D
:10476000FFE70299002081F84400029800F030F839
:10477000FFE7029951F8080BFCF7DEF9029A01995C
:1047800010689268FCF760FA029B009958689A6872
:10479000DB6AFCF79DF902980168826851F82200F3
:1047A00040F0010041F8220044F20001C5F200216E
:1047B000086840F0004008600299012081F8450037
:1047C00000208DF80F00FFE79DF80F0004B080BDBA
:1047D00080B582B00190FCF79FFA02B080BD000066
:1047E00081B0009001B0704781B0009001B0704777
:1047F00081B0009001B0704785B003900291FFE74F
:10480000039890F83C00012804D1FFE702208DF8BE
:10481000130099E00399012081F83C00FFE7FFE7CE
:104820000399022081F83D000398006840680190D8
:104830000398006880680090039800680021C4F223
:104840000101884209D0FFE70398006840F2004167
:10485000C4F2010188420AD1FFE7019820F47000F8
:10486000019002984168019808430190FFE7019880
:1048700020F07000019002980168019808430190AF
:104880000198039909684860039800680021C4F200
:10489000010188423CD0FFE703980068B0F1804FE7
:1048A00036D0FFE70398006840F20041C4F20001EF
:1048B00088422DD0FFE70398006840F60001C4F25B
:1048C0000001884224D0FFE70398006840F60041C9
:1048D000C4F2000188421BD0FFE70398006840F251
:1048E0000041C4F20101884212D0FFE7039800683A
:1048F00041F60001C4F20001884209D0FFE70398A5
:10490000006844F20001C4F2010188420ED1FFE7C1
:10491000009820F080000090029881680098084379
:1049200000900098039909688860FFE703990120C7
:1049300081F83D00FFE70399002081F83C00FFE784
:1049400000208DF81300FFE79DF8130005B07047B5
:1049500080B582B00090009820B9FFE701208DF863
:10496000070045E0009890F83D0040B9FFE7009946
:10497000002081F83C00009800F03EF8FFE7009925
:10498000022081F83D00009951F8040B01F050FF1E
:104990000099012081F84800FFE70099012081F883
:1049A0003E00009981F83F00009981F8400000998D
:1049B00081F84100009981F84200009981F8430094
:1049C000FFE7FFE70099012081F84400009981F892
:1049D0004500009981F84600009981F84700FFE7FB
:1049E0000099012081F83D0000208DF80700FFE7C5
:1049F0009DF8070002B080BD80B584B00390039895
:104A0000006841F20041C4F20001884219D1FFE779
:104A1000FFE744F2E840C5F60200016841F02001DA
:104A20000160006800F0200002900298FFE7372044
:104A3000019000221146FDF703F90198FDF7F4F803
:104A4000FFE704B080BD000083B00190019890F8AA
:104A50003D00012804D0FFE701208DF80B0071E034
:104A60000199022081F83D0001980168C86840F072
:104A70000100C860019800680021C4F20101884269
:104A80003CD0FFE701980068B0F1804F36D0FFE7D7
:104A90000198006840F20041C4F2000188422DD024
:104AA000FFE70198006840F60001C4F20001884267
:104AB00024D0FFE70198006840F60041C4F20001ED
:104AC00088421BD0FFE70198006840F20041C4F221
:104AD0000101884212D0FFE70198006841F6000109
:104AE000C4F20001884209D0FFE70198006844F24F
:104AF0000001C4F20101884219D1FFE70198006862
:104B000080680721C0F20101084000900098062843
:104B10000CD0FFE70098B0F5803F07D0FFE7019881
:104B20000168086840F001000860FFE706E00198AE
:104B30000168086840F001000860FFE700208DF878
:104B40000B00FFE79DF80B0003B07047000000006A
:104B500081B0009001B0704780B584B00390039895
:104B60000068C068029003980068006901909DF891
:104B700004008007002824D5FFE79DF8080080077F
:104B800000281DD5FFE7039801686FF00200086157
:104B9000039901200877039800688069800720B195
:104BA000FFE70398FFF7D4FF06E0039800F0FCF856
:104BB000039800F0FDF8FFE7039900200877FFE76E
:104BC000FFE79DF804004007002825D5FFE79DF882
:104BD0000800400700281ED5FFE7039801686FF022
:104BE000040008610399022008770398006880692F
:104BF00010F4407F04D0FFE70398FFF7A9FF06E019
:104C0000039800F0D1F8039800F0D2F8FFE7039979
:104C100000200877FFE7FFE79DF804000007002861
:104C200024D5FFE79DF80800000700281DD5FFE701
:104C3000039801686FF00800086103990420087761
:104C400003980068C069800720B1FFE70398FFF769
:104C50007FFF06E0039800F0A7F8039800F0A8F89B
:104C6000FFE7039900200877FFE7FFE79DF80400BE
:104C7000C006002825D5FFE79DF80800C0060028DB
:104C80001ED5FFE7039801686FF0100008610399D3
:104C90000820087703980068C06910F4407F04D0AA
:104CA000FFE70398FFF754FF06E0039800F07CF855
:104CB000039800F07DF8FFE7039900200877FFE7ED
:104CC000FFE79DF80400C00778B1FFE79DF80800F2
:104CD000C00748B1FFE7039801686FF00100086161
:104CE000039800F069F8FFE7FFE7019800F0800003
:104CF000802806D0FFE79DF805008006002810D523
:104D0000FFE79DF808000006002809D5FFE7039893
:104D100001686FF4025008610398FFF765FDFFE733
:104D2000FFE79DF80500C00780B1FFE79DF8080088
:104D30000006002809D5FFE7039801686FF480702A
:104D400008610398FFF74CFDFFE7FFE79DF80400BB
:104D50004006002810D5FFE79DF80800400600280F
:104D600009D5FFE7039801686FF0400008610398D8
:104D700000F046F8FFE7FFE79DF8040080060028F2
:104D800010D5FFE79DF808008006002809D5FFE749
:104D9000039801686FF0200008610398FFF728FD71
:104DA000FFE7FFE704B080BD81B0009001B070471D
:104DB00081B0009001B0704780B582B00190019839
:104DC000006841F20001C4F20001884203D1FFE70C
:104DD000FCF7EAFDFFE70198006841F20041C4F2E8
:104DE0000001884208D1FFE745F2B461C2F20041F8
:104DF000086801300860FFE702B080BD00000000D5
:104E000081B0009001B0704783B00190FFE7019836
:104E100090F88400012804D1FFE702208DF80B00F0
:104E20002CE00199012081F88400FFE7FFE7019958
:104E30002420C1F88800019800680068009001985B
:104E40000168086820F001000860009820F0005018
:104E5000009001990020486600980199096808604F
:104E600001992020C1F88800FFE70199002081F80E
:104E70008400FFE700208DF80B00FFE79DF80B0092
:104E800003B070470000000080B584B0029001912B
:104E9000FFE7029890F88400012804D1FFE7022080
:104EA0008DF80F0032E00299012081F88400FFE7BD
:104EB000FFE702992420C1F8880002980068006882
:104EC000009002980168086820F0010008600298CC
:104ED0000068806820F060600199084302990968C1
:104EE0008860029801F078FD0098029909680860CE
:104EF00002992020C1F88800FFE70299002081F87C
:104F00008400FFE700208DF80F00FFE79DF80F00F9
:104F100004B080BD0000000080B584B00290019113
:104F2000FFE7029890F88400012804D1FFE70220EF
:104F30008DF80F0032E00299012081F88400FFE72C
:104F4000FFE702992420C1F88800029800680068F1
:104F5000009002980168086820F00100086002983B
:104F60000068806820F06040019908430299096850
:104F70008860029801F030FD009802990968086085
:104F800002992020C1F88800FFE70299002081F8EB
:104F90008400FFE700208DF80F00FFE79DF80F0069
:104FA00004B080BD0000000080B582B00090009881
:104FB00020B9FFE701208DF8070046E000988069DE
:104FC00008B1FFE700E0FFE70098D0F8880040B99B
:104FD000FFE70099002081F88400009800F03CF879
:104FE000FFE700992420C1F888000098016808684C
:104FF00020F0010008600098806A20B1FFE7009867
:1050000001F02EFDFFE7009801F0C2FE012804D157
:10501000FFE701208DF8070017E000980168486855
:1050200020F49040486000980168886820F02A00C9
:10503000886000980168086840F0010008600098E6
:1050400001F0B2FD8DF80700FFE79DF8070002B000
:1050500080BD00000000000080B5B8B0379000208F
:105060003690359034903390329002A8C021FBF7EF
:105070006BF93798006841F20001C4F201018842DF
:105080003ED1FFE70020039001210291219002A868
:10509000FDF7F6F818B1FFE7FBF7FEFCFFE7FFE7C7
:1050A00044F2F040C5F60200016841F010010160D1
:1050B000006800F0100001900198FFE7FFE744F25C
:1050C000E040C5F60200016841F00201016000689D
:1050D00000F0020000900098FFE74FF4404032904B
:1050E0000220339000203490032035900420369025
:1050F00040F20040C5F6020032A9FBF789FEFFE747
:1051000038B080BD0000000080B58AB008900791DB
:10511000ADF81A2005930898D0F88800202840F0B0
:105120008780FFE7079820B1FFE7BDF81A0020B994
:10513000FFE701208DF827007EE008990020C1F8E4
:10514000900008992120C1F88800FCF765F80290CA
:10515000BDF81A000899A1F85400BDF81A00089982
:10516000A1F8560008988068B0F5805F09D1FFE784
:105170000898006928B9FFE7002004900798039079
:1051800004E00798049000200390FFE7FFE70898E9
:10519000B0F8560088B3FFE70898029B05996A4665
:1051A00011608021002202F087FA40B1FFE70899E0
:1051B0002020C1F8880003208DF827003CE00498E7
:1051C00058B9FFE7039800886FF35F2008990968D2
:1051D000886203980230039008E0049800780899E8
:1051E00009688862049801300490FFE70899B1F8D3
:1051F00056000138A1F85600C9E70898029B0599A6
:105200006A4611604021002202F056FA40B1FFE7E1
:1052100008992020C1F8880003208DF827000BE0B2
:1052200008992020C1F8880000208DF8270003E0AD
:1052300002208DF82700FFE79DF827000AB080BD07
:10524000FFE7FEE70000000081B0009000980068D2
:10525000806900F002010020B0EB510F05D0FFE79C
:105260000098016800208862FFE700980068806964
:10527000C00738B9FFE700980168886940F001006D
:105280008861FFE701B0704780B58AB00990089146
:10529000079200208DF81B0009990968896905911A
:1052A0000490079803909DF81400C006002840F170
:1052B0008680FFE7099801681020C861FFE7099818
:1052C0000068806900F0200200210846B1EB521FFF
:1052D000009007D1FFE79DF81B00B0FA80F040096D
:1052E0000090FFE70098C007002857D0FFE7089814
:1052F0000130002851D0FFE7FBF78EFF0399401AD9
:105300000899884204D8FFE70898002844D1FFE7AD
:1053100009980068406800F480400290099890F86D
:1053200042008DF8070009980068806981B200206A
:10533000B0EBD13F14D0FFE70298B0F5804F0FD00B
:10534000FFE79DF8070020280AD0FFE709980168C9
:10535000486840F480404860FBF75EFF0390FFE739
:10536000FFE709980068806900F020010020B0EB99
:10537000511F10D1FFE7FBF74FFF0399401A1A287E
:1053800008D3FFE7049840F02000049001208DF836
:105390001B0000E0E5E7FFE7FFE790E79DF81B0053
:1053A00028B9FFE7099801682020C861FFE7049841
:1053B00040F00400049001208DF81B00FFE70998DD
:1053C0000068806905909DF81500C00768B1FFE787
:1053D000049840F001000490099801684FF480702F
:1053E000C86101208DF81B00FFE79DF815004007FC
:1053F00000280DD5FFE7049840F0080004900998B4
:1054000001684FF48060C86101208DF81B00FFE740
:105410009DF81500800700280DD5FFE7049840F09F
:1054200002000490099801684FF40070C8610120DF
:105430008DF81B00FFE79DF81B0000B3FFE70998FC
:10544000FFF702FF0998016848684EF60002CFF6A0
:10545000006210404860049A0999486C10434864FF
:105460000999202081F841000999002081F8420023
:10547000FFE70999002081F84000FFE7FFE79DF86A
:105480001B000AB080BD000084B0DDF810C003909E
:10549000ADF80A108DF809200193BDF80A006FF3EA
:1054A0009F209DF8091040EA0140019908430499A2
:1054B000084320F000400090039800684068049979
:1054C00020EA515049F60041CFF6004108400099CA
:1054D000084303990968486004B070470000000061
:1054E00080B586B0DDF820C0049003918DF80B20C4
:1054F0000193FFE704980068806903990840401A07
:10550000B0FA80F040099DF80B10884242D1FFE7C5
:1055100004980199089AFFF7B7FE20B1FFE7012030
:105520008DF817003AE00198013090B3FFE7FBF7E0
:1055300073FE0899401A0199884203D8FFE7019841
:1055400030BBFFE704980068806903990840401A5F
:10555000B0FA80F040099DF80B10884217D1FFE7A0
:105560000499486C40F0200048640499202081F898
:1055700041000499002081F84200FFE704990020CF
:1055800081F84000FFE701208DF8170006E0FFE7F3
:10559000FFE7AFE700208DF81700FFE79DF8170041
:1055A00006B080BD0000000080B586B00590049173
:1055B000039200208DF80B00FFE7059800688069D2
:1055C00000F0040200210846B1EB920F019007D1D0
:1055D000FFE79DF80B00B0FA80F040090190FFE76B
:1055E0000198C007002800F08F80FFE70598049914
:1055F000039AFFF749FE20B1FFE701208DF80B0069
:10560000FFE705980068806900F020010120B0EBF9
:10561000511F4BD1FFE79DF80B00002846D1FFE753
:1056200005980068806900F004010120B0EB910F3B
:1056300008D1FFE70598008D20B1FFE700208DF825
:105640000B00FFE705980068806900F01001012059
:10565000B0EB111F25D1FFE7059801681020C86144
:10566000059904204864059801682020C8610599BF
:105670000A6851684EF60003CFF600631940516086
:10568000059981F841000599002081F84200FFE763
:105690000599002081F84000FFE701208DF80B00FC
:1056A00003E0059900204864FFE7FFE7FBF7B4FD3E
:1056B0000399401A0499884203D8FFE7049810BB65
:1056C000FFE79DF80B00F0B9FFE7059800688069D7
:1056D00000F004010020B0EB910F13D1FFE7059912
:1056E000486C40F0200048640599202081F8410072
:1056F000FFE70599002081F84000FFE701208DF8C1
:105700000B00FFE7FFE758E79DF80B0006B080BDF0
:1057100080B584B0029001910092FFE70298006882
:10572000806900F020010020B0EB511F39D1FFE764
:1057300002980199009AFFF7A7FD20B1FFE7012029
:105740008DF80F0031E0FBF767FD0099401A0199D1
:10575000884203D8FFE7019810BBFFE70298006872
:10576000806900F020010020B0EB511F17D1FFE746
:105770000299486C40F0200048640299202081F88A
:1057800041000299002081F84200FFE702990020C1
:1057900081F84000FFE701208DF80F0005E0FFE7EA
:1057A000BCE700208DF80F00FFE79DF80F0004B064
:1057B00080BD00000000000080B584B0029001911F
:1057C0000092FFE702980068806900F00201002063
:1057D000B0EB510F3ED1FFE702980199009AFFF715
:1057E00053FD20B1FFE701208DF80F0036E001984E
:1057F000013070B3FFE7FBF70FFD0099401A0199E4
:10580000884203D8FFE7019810BBFFE702980068C1
:10581000806900F002010020B0EB510F17D1FFE7C3
:105820000299486C40F0200048640299202081F8D9
:1058300041000299002081F84200FFE70299002010
:1058400081F84000FFE701208DF80F0006E0FFE738
:10585000FFE7B7E700208DF80F00FFE79DF80F0086
:1058600004B080BD0000000080B586B0ADF8160021
:1058700040F20860C2F2004001884288514304911E
:1058800001880139408801388AB283B20021084674
:1058900000F056F90498C0080390049800F007003F
:1058A0000290FFE70398411E0391E8B1FFE7BDF8BE
:1058B00016000021C6F2020101910880BDF8160011
:1058C0000880BDF816000880BDF816000880BDF8F5
:1058D00016000880BDF816000880BDF81600088084
:1058E000BDF816000880DDE7FFE70298411E02912F
:1058F00038B1FFE7BDF816000021C6F202010880AA
:10590000F3E706B080BD000080B592B040F600001D
:10591000C5F6020000904FF48071019100220592BB
:10592000FBF75AFC32200290FBF746F800980199E9
:105930000122FBF751FC0298FBF73EF8F0200E9095
:1059400000F0A6F9C3200D9000F096F90E9800F033
:105950009FF9962000F090F936200C9000F098F90D
:10596000682000F089F93A2000F092F9052000F053
:1059700083F9B02000F08CF98020049000F07CF9CD
:10598000B62000F085F9202000F076F9022003907F
:1059900000F072F9B52000F07BF9039800F06CF983
:1059A0000320119000F068F9059800F065F90420D3
:1059B00000F062F9B12000F06BF9049800F05CF996
:1059C000102000F059F9B42000F062F9059800F0B9
:1059D00053F9B72000F05CF9C62000F04DF9C5205E
:1059E00000F056F9242000F047F9E42000F050F9C7
:1059F000312000F041F9E82000F04AF9402000F0A1
:105A00003BF98A2000F038F9059800F035F905983F
:105A100000F032F92920109000F02EF9192000F042
:105A20002BF9A52000F028F9332000F025F9E0201B
:105A300000F02EF90E9800F01FF90920079000F0F1
:105A40001BF913200F9000F017F91220069000F0B8
:105A500013F9069800F010F92B2000F00DF93C2006
:105A600000F00AF94420089000F006F94B2000F0FD
:105A700003F91B2000F000F9182000F0FDF81720B2
:105A8000099000F0F9F81D200A9000F0F5F82120A7
:105A90000B9000F0F1F8E12000F0FAF80E9800F019
:105AA000EBF8079800F0E8F80F9800F0E5F80C2004
:105AB00000F0E2F80D2000F0DFF8272000F0DCF81D
:105AC0003B2000F0D9F8089800F0D6F84D2000F0FF
:105AD000D3F80B2000F0D0F8099800F0CDF8099821
