:020000040800F2
:10000000308F0524AD02000879650008215A0008E8
:100010007165000839120008D9820008000000004C
:100020000000000000000000000000005968000807
:10003000411200080000000081650008796800088E
:10004000CB020008CB020008CB020008CB0200085C
:10005000CB020008CB020008CB020008CB0200084C
:10006000CB020008CB020008CB020008CB0200083C
:10007000CB020008CB020008CB020008CB0200082C
:10008000CB020008CB020008CB020008CB0200081C
:10009000CB020008CB020008CB020008491200087E
:1000A000CB020008CB020008CB020008CB020008FC
:1000B000CB020008CB020008CB020008CB020008EC
:1000C000CB020008CB020008CB020008CB020008DC
:1000D000CB020008B9820008C9820008CB020008E0
:1000E000CB020008CB02000800000000CB02000891
:1000F000CB020008CB020008CB020008CB020008AC
:10010000CB020008CB020008CB020008CB0200089B
:10011000CB020008CB020008816A0008916A00083F
:10012000CB020008CB020008CB020008CB0200087B
:10013000CB020008CB020008CB020008CB0200086B
:1001400000000000000000000000000000000000AF
:10015000CB020008CB020008CB020008CB0200084B
:10016000CB020008CB020008CB020008CB0200083B
:10017000CB020008CB020008CB0200080000000000
:10018000CB020008CB020008CB020008CB0200081B
:10019000CB020008CB020008CB020008CB0200080B
:1001A000CB020008CB020008CB020008CB020008FB
:1001B000CB020008CB020008CB020008CB020008EB
:1001C000CB020008CB020008CB020008CB020008DB
:1001D000CB020008CB020008CB020008CB020008CB
:1001E000CB020008CB020008CB020008CB020008BB
:1001F000CB020008CB020008CB020008CB020008AB
:10020000CB020008CB020008CB020008CB0200089A
:10021000CB020008CB020008CB020008CB0200088A
:10022000CB020008CB020008CB020008000000004F
:10023000CB020008CB02000800000000CB0200083F
:10024000CB020008CB020008CB020008CB0200085A
:10025000CB020008CB020008CB020008CB0200084A
:10026000CB020008CB020008CB020008CB0200083A
:10027000CB020008CB020008CB02000800000000FF
:10028000CB020008CB020008CB02000800000000EF
:1002900000000000CB020008DFF80CD000F090FA5C
:1002A00000480047A1D70408308F0524074880473D
:1002B0000748804707480047FEE7FEE7FEE7FEE7FE
:1002C000FEE7FEE7FEE7FEE7FEE7FEE76112000855
:1002D00091690008990200082DE9F05F05460020A9
:1002E00092469B4688460646814640241BE02846A7
:1002F00041464746224600F09AF853465A46C01AED
:10030000914110D311461846224600F081F82D1A6B
:1003100067EB01084F4622460120002100F078F8E3
:1003200017EB00094E41201EA4F10104DFDC484612
:1003300031462A464346BDE8F09F2DE9F0410024AE
:10034000061B254671F1000605DA01240027D0EBD3
:10035000070067EB0101161E73F1000605DA00279E
:10036000D2EB0702012567EB0303FFF7B5FF8646D3
:100370000E4617469C46AC4204D00025D0EB050E35
:1003800065EB010624B10020D2EB000760EB030C03
:10039000704631463A466346BDE8F08140EA0103C3
:1003A0009B0703D009E008C9121F08C0042AFAD22B
:1003B00003E011F8013B00F8013B521EF9D27047EF
:1003C000D2B201E000F8012B491EFBD27047002297
:1003D000F6E710B513460A4604461946FFF7F0FF44
:1003E000204610BD30B50B460146002020220124D6
:1003F00009E021FA02F59D4205D303FA02F5491BF3
:1004000004FA02F52844151EA2F10102F1DC30BD08
:10041000202A04DB203A00FA02F1002070479140C4
:10042000C2F1200320FA03F3194390407047202AB9
:1004300004DB203A21FA02F00021704721FA02F38E
:10044000D040C2F1200291400843194670472DE97F
:10045000FE4F804681EA0300C00F0C46009021F059
:10046000004123F00045B8EB0200A94105D2404607
:10047000214690461C460B46024623F0004010439E
:1004800047D0270DC7F30A00C3F30A510290401A60
:10049000019040286BDAC3F3130040F4801B0098EE
:1004A000924620B10023D2EB030A63EB0B0B0198B9
:1004B0005946C0F140025046FFF7AAFF06460D46D6
:1004C00050465946019A00F093F910EB080061413B
:1004D000002487EA115284EAE7731A4340D0009A55
:1004E00062B3019A012A4FEA075215DC001B61EB47
:1004F00002014FF0004202EA0752CDE90042001C1F
:1005000041F5801132462B4600F093F903B0BDE867
:10051000F08F40462146F9E7001B61EB0201001C09
:1005200041F5801300185B412018A2F5001747EB36
:10053000030140EAD570B6196D4111E06D084FEA2C
:10054000360645EAC0754FEA0752001B61EB02010F
:10055000001C41F5801149084FEA30000019514153
:1005600032462B4603B0BDE8F04F00F053B9009877
:10057000012240000023D0EB020263EBE0730098FD
:1005800021464FEAE074B8EB000061EB0401E9E7B3
:1005900083F000435BE781F0004158E72DE9FE4F0F
:1005A00081EA030404F0004421F0004100944FF07C
:1005B000000B23F0004350EA01045ED052EA03042A
:1005C0005BD0C3F30A54C1F30A552C44A4F2F334AC
:1005D0000194A0FB0254C1F3130141F48011C3F351
:1005E000130343F4801301FB024400FB034E840A0F
:1005F000970A44EA815447EA8357A4FB07680295A7
:100600008D0A05FB07854FEA932C04FB0C54270544
:10061000029D4FEA065847EA1637B5EB08056EEB20
:10062000070C870E920E47EA811742EA8312A7FB56
:100630000201B6EB0B0164EB00042B0D43EA0C3313
:100640005E1844EB1C50DA465146E7FB0201C5F345
:1006500013044FEA0B3343EA14534FEA0432019C6C
:1006600043EA0603A4F10C040294009CCDE900B413
:1006700000F0DFF803B0BDE8F08F00200146F9E795
:100680002DE9F04D81EA030404F0004B21F0004510
:1006900014464FF0000A23F0004150EA050220D032
:1006A00054EA01021DD0C5F30A570246C5F31303ED
:1006B000C1F31300C1F30A5640F4801543F48013CC
:1006C000A7EB0608101BD64608F2FD3873EB0500B1
:1006D00002D308F1010801E092185B41B8F1000F64
:1006E00003DA00200146BDE8F08D00204FF48011B0
:1006F000064684460EE0171B73EB050705D3121B55
:1007000063EB050306434CEA010C49084FEA30004D
:1007100092185B4150EA0107EDD152EA030012D072
:1007200082EA040083EA0501084305D0101BAB41AF
:1007300006D20122002306E000224FF0004302E02F
:100740006FF0010253101AEB06004CEB085110EB4E
:100750000A0041EB0B01BDE8F04D00F05BB8C1F3BE
:100760000A52C1F3130140F2FF3341F480119A425F
:1007700002DA00200146704740F233439A42A2F267
:10078000334202DC5242FFF752BEFFF741BE000087
:1007900030B5041E71F1000404DB4FF00044404208
:1007A00064EB0101141E73F1000405DB1C464FF0DD
:1007B0000043524263EB0403994208BF904230BDAC
:1007C0001CB509480090094801900546009C06E0C8
:1007D000E06840F0010394E8070098471034AC4209
:1007E000F6D3FFF75DFD0000108F0608308F060876
:1007F000202A06DBCB17203A41FA02F043EAE073E5
:1008000006E041FA02F3D040C2F1200291400843D1
:100810001946704710B5141E73F1000408DA401C25
:1008200041F1000192185B411A4301D120F001000F
:1008300010BD2DE9F04D92469B4611B1B1FA81F2FF
:1008400002E0B0FA80F220329046FFF7E1FD044664
:100850000F4640EA0A0041EA0B0153465A46084354
:1008600013D0114653EA010019D0C8F14002504696
:10087000FFF7DDFD05460E46504659464246FFF756
:10088000C7FD084305D0012004E020463946BDE8F5
:10089000F08D0020054346EAE0762C4337430A9862
:1008A0006305E40AA0EB08000022FD0A44EA47546D
:1008B0000A3002D500200146E9E701051019694117
:1008C000DDE9084500196941BDE8F04DA2E70000E7
:1008D00000F006F800F020F85CF0CAFBFEE700002C
:1008E00080B582B045F6895046F62C7CC0F60000F3
:1008F00006A14FF400620023C2F2054C4FF0010E36
:10090000CDE900EC5DF060F802B080BD4C76676C1C
:100910005F5461736B000000B0B582B040F27005A7
:10092000C2F20045286828B90120002103225CF0AA
:10093000EFFD286045F631700EA1C0F600004FF4BF
:10094000807200232C1D4FF0030CCDE900C45DF034
:100950003BF845F6C1500AA1C0F600004FF4807282
:10096000002308350224CDE900455DF02DF802B0E2
:10097000B0BD00BF4D33303130325F436F6C6C001F
:100980004D33303130325F43616C63000000000052
:1009900080B541F2040E40F20C03CEF2000EC2F21A
:1009A0000043DEF80020D3F800C04DF68363C4F2A4
:1009B0001B33ACFB0331890C48434FF47A71484335
:1009C000DEF80010891A81420ED2DEF80010891A72
:1009D00081423EBFDEF80010891A814204D2DEF85F
:1009E0000010891A8142EBD380BD00000000000096
:1009F0004EF6FC5141F20000CEF20001CEF20000B2
:100A00000A6842F080720A600168C90701D10021BA
:100A10004160016841F00101016070470000000081
:100A200080B500F071FA38B141F6D2210068C2F207
:100A300000410860002080BD012080BD0000000052
:100A400041F6D220C2F2004008307047000000009A
:100A50002DE9F0418AB040F2004404ADC5F602042D
:100A60004FF4807004F58066049001202946CDE99A
:100A700005000320079030460027089701F054F93D
:100A8000204629464FF40058CDF8108001F04CF96B
:100A90004FF480710022304601F01AFA4FF40051F1
:100AA0000022204601F014FA3220FFF771FF4FF4C4
:100AB00000510022204601F00BFA0120FFF768FFE9
:100AC0004FF480710122304601F002FA0A20FFF74C
:100AD0005FFF4FF40051204601F066F8204629469A
:100AE000CDE90487069701F01FF964206424FFF71D
:100AF0004FFF09A800900420019041F64C30BB2123
:100B0000C2F2004048F240120223029401F09CFA23
:100B10009DF8241081F039010843C0B2002818BFA5
:100B200001200AB0BDE8F08141F6D220C2F20040B7
:100B300080797047000000002DE9F04F85B041F644
:100B4000D225BB21C2F2004548F24E12281D00906A
:100B50006420029041F64C300223C2F2004001248E
:100B6000019401F071FA18B1204605B0BDE8F08F8C
:100B700095F90400B0F1FF3FC0B207DD000722D0B5
:100B80000124204605B0BDE8F08F00BF00F00F0043
:100B9000687100208DF813000DF11300009064209F
:100BA000029041F64C30BA21C2F2004048F24E1297
:100BB00002230124019401F063FB687906280BD31A
:100BC00028790007DCD10020A5F805000124204683
:100BD00005B0BDE8F08F00BFAC7168B34EF60C48AD
:100BE00041F64C3405F108060027C0F605084FF021
:100BF00064094FF0040A0DF10F0BC2F2004404E047
:100C0000687901370636874216D238F81720BB219B
:100C100002232046CDE900BACDF8089001F014FA7D
:100C20000028EDD1BDF811002988BDF80F20081A61
:100C300030807280E4E700BF0024204605B0BDE8A4
:100C4000F08F00000000000070B5A2EB000E5C1AEF
:100C50000EF10105013440F2000E4FF0C046C6F21D
:100C6000020E6C43DDF810C02A253580050AC0B29B
:100C7000AEF80050AEF80000100AAEF80000D0B296
:100C8000AEF800002B203080080AAEF80000C8B291
:100C9000AEF80000180AAEF80000D8B2AEF80000B6
:100CA0002C20E108308004F0070000F0DA8011F019
:100CB0000303A1F101024DD0BCF80040012BAEF8B6
:100CC0000040BCF80240AEF80040BCF80440AEF86A
:100CD0000040BCF80640AEF80040BCF80840AEF852
:100CE0000040BCF80A40AEF80040BCF80C40AEF83A
:100CF0000040BCF80E40AEF8004005D10CF1100CDD
:100D00001146032A2AD2ACE0BCF81040022BAEF800
:100D10000040BCF81240AEF80040BCF81440AEF8F9
:100D20000040BCF81640AEF80040BCF81840AEF8E1
:100D30000040BCF81A40AEF80040BCF81C40AEF8C9
:100D40000040BCF81E40AEF8004040F0B5800239CB
:100D50000CF1200C032AC0F0848000BF3CF8402B2B
:100D60000439AEF800203CF83E2CAEF800203CF8E8
:100D70003C2CAEF800203CF83A2CAEF800203CF8B1
:100D8000382CAEF800203CF8362CAEF800203CF8A9
:100D9000342CAEF800203CF8322CAEF800203CF8A1
:100DA000302CAEF800203CF82E2CAEF800203CF899
:100DB0002C2CAEF800203CF82A2CAEF800203CF891
:100DC000282CAEF800203CF8262CAEF800203CF889
:100DD000242CAEF800203CF8222CAEF800203CF881
:100DE000202CAEF800203CF81E2CAEF800203CF879
:100DF0001C2CAEF800203CF81A2CAEF800203CF871
:100E0000182CAEF800203CF8162CAEF800203CF868
:100E1000142CAEF800203CF8122CAEF800203CF860
:100E2000102CAEF800203CF80E2CAEF800203CF858
:100E30000C2CAEF800203CF80A2CAEF800203CF850
:100E4000082CAEF800203CF8062CAEF800203CF848
:100E5000042CAEF800203CF8022CAEF800207FF401
:100E60007DAF40B3BCF800100128AEF8001022D0CE
:100E7000BCF802100228AEF800101CD0BCF8041018
:100E80000328AEF8001016D0BCF806100428AEF8FF
:100E9000001010D0BCF808100528AEF800100AD0D9
:100EA000BCF80A100628AEF8001008BF70BDBCF8E8
:100EB0000C00AEF8000070BDBCF820300339AEF86D
:100EC0000030BCF82230AEF80030BCF82430AEF868
:100ED0000030BCF82630AEF80030BCF82830AEF850
:100EE0000030BCF82A30AEF80030BCF82C30AEF838
:100EF0000030BCF82E300CF1300CAEF80030032A74
:100F0000BFF42CAFADE7000041F6A460C2F2004090
:100F100070470000000000002DE9F04F81B0002470
:100F20004FF0C046C6F202044FF0F00EA6F800E003
:100F3000C32020809622A6F800E04FF036082280D9
:100F40006822A6F80080B62322803A223280052249
:100F50002280B022328080222280B5273380202355
:100F60002380022323804FF0290A37800027238023
:100F700003232380042327804FF0130B2380B12306
:100F800033800923228010222280B4223280B722AB
:100F9000278012253280C6222280C5223280242258
:100FA0002280E422328031222280E82232804022D4
:100FB00022808A222280192227804FF02B09278045
:100FC0004B21A4F800A01D202280A52222803322DC
:100FD0002280E02232802122A4F800E04FF0E10CD0
:100FE0002380A4F800B0258025803C25A4F800903B
:100FF00025804425258021801B21218018212180E6
:101000001721218020802280A6F800C0A4F800E0EB
:1010100023800C23A4F800B023800D2323802723F2
:1010200023803B2323804D2325804FF6FF752380AB
:101030000B232380218021802080EC202280A6F8B1
:1010400000802080C320A6F800E020806920A6F858
:1010500000E020801120A6F800B030807820FFF753
:1010600097FC41F6A46040F2E011C2F20040A6F8FD
:1010700000A0C0F240112A220160F821A6F80080E9
:1010800021800188408832804A1E278093B24143E4
:1010900001382780D2B21B0A2380CB08228082B27B
:1010A000A6F8009027804FEA1222C0B22780228043
:1010B00020804FF02C00308001F0070044D013F066
:1010C0000307A3F1010219D0012F114625802580C5
:1010D0002580258025802580258025800FD0022F22
:1010E00025802580258025802580258025802580D8
:1010F0004AD1991E032A05D226E000BF1946032AC9
:1011000022D300BF043925802580258025802580B5
:1011100025802580258025802580258025802580A7
:101120002580258025802580258025802580258097
:101130002580258025802580258025802580258087
:10114000258025802580DDD190B1012825800FD014
:10115000022825800CD00328258009D0042825806A
:1011600006D00528258003D00628258018BF2580B5
:1011700041F6944040F2E731C2F200400068C1639A
:1011800001B0BDE8F08F00BFD91E258025802580E5
:1011900025802580258025802580032AB2D2D3E7AB
:1011A0002DE9F04385B041F6A0368846C2F20046EC
:1011B0008146AE210022012330460DF10D0400943A
:1011C000012501956427029700F03EFFAE21012220
:1011D00001233046CDE90045029700F035FF062097
:1011E0000DF10E01CDE90010AE210722012330469A
:1011F000029700F029FF18B105B0BDE8F08300BFE9
:101200009DF80F009DF80E1000029DF8102061F36C
:1012100011409DF812109DF811301044C9F80000DB
:10122000080263F311409DF813100844C8F8000049
:1012300005B0BDE8F0830000FEE7000000000000FC
:1012400070470000000000004FF4007000F060BD27
:10125000EFF3108072B600BFFEE700000000000050
:1012600044F60400C5F60200816841F00201816085
:101270000168890409D4016889045CBF01685FEAD8
:10128000814102D401688904F2D570470000000052
:10129000B3F5804F03461BD1B0B5002053F822C0F0
:1012A000CCF6F0708D680CEA000C8C69D1E9000E68
:1012B00040EA0C00C96840EA0E1040EA05202043CD
:1012C00040EA0141BDE8B040002043F822107047D9
:1012D0006FF07041002043F82210704700000000BA
:1012E000B0B50A6850F8223023F0010340F82230EC
:1012F000D1F808E0CB68D1E900C2BEF1080F08BF01
:1013000042F04002D1E904451A438B692243CC697B
:101310002A430D6A1A434B6A22438C6A2A43CD6AD8
:101320001A430B6B22434C6B2A438D6B1A4350F8C4
:101330002C30224340F28044CFF6C0742A4323402D
:101340001A4342EA0E0240F82C200A6BB2F5801FC5
:1013500005D10A684AB1026842F4801202600A6844
:101360001AB1496B0268114301600020B0BD000052
:1013700070B5D1E900CED1E902564CEA0E130C69E2
:1013800040F2000C43EA0523CFF6F07C43EA064620
:101390004D690CEB04548B692643FE3500EB820249
:1013A000334343EA056353600268D20209D54268B9
:1013B000096943681A430CEB015122F4700211438E
:1013C0004160002070BD00002DE9F041044600F0AE
:1013D0008FFD1CB3054694F83500022822D140F257
:1013E0000F472668C4F2020740F26F48BE426FF012
:1013F0000E00C4F202081DDC6F21C4F202018E420D
:101400002ADC3F21C4F202018E4241DC1021C4F2E9
:1014100002018E4263D028215CE000BF0120BDE8BC
:10142000F08100BF802060650120002184F8341025
:10143000BDE8F08146451BDC40F23F41C4F20201A9
:101440008E422DDC40F21041C4F202018E4246D0A1
:1014500040F228413EE000BF9F21C4F202018E42CB
:1014600028DC7021C4F202018E4238D0882131E09C
:1014700040F29F41C4F202018E4223DC40F27041EF
:10148000C4F202018E422AD040F2884122E000BF1D
:101490004021C4F202018E4221D058211AE000BF3F
:1014A00040F24041C4F202018E4218D040F258414D
:1014B00010E000BFA021C4F202018E420FD0B8217B
:1014C00008E000BF40F2B841C4F202018E4206D0EB
:1014D00040F2A041C4F202018E42314607D13146AA
:1014E000306820F01E0041F8140B6FF080000A688D
:1014F000464500EA020008601ADC9F20C4F20200A0
:10150000864233DC5720C4F2020086425ADC1020A7
:10151000C4F20200864200F097802820C4F2020044
:10152000864200F091804020C4F202008AE000BFB1
:1015300045F22F40C5F6020086422DDC40F2B7404E
:10154000C4F2020086424BDC40F27040C4F202005A
:10155000864279D040F28840C4F20200864273D0BD
:1015600040F2A040C4F202006CE000BF40F227400D
:10157000C4F20200864243DCA020C4F2020086428C
:1015800062D0B820C4F2020086425DD040F2104022
:10159000C4F2020056E000BF45F26B40C5F60200FF
:1015A00086423FDC45F23040C5F6020086424BD011
:1015B00045F24440C5F60200864245D045F2584007
:1015C0003EE000BF5820C4F2020086423CD07020AA
:1015D000C4F20200864237D08820C4F2020031E013
:1015E00040F2B840C4F2020086422DD045F20840D5
:1015F000C5F60200864227D045F21C4020E000BF1D
:1016000040F22840C4F2020086421DD040F2404021
:10161000C4F20200864217D040F25840C4F20200E1
:1016200010E000BF45F26C40C5F6020086420BD0C8
:1016300045F29440C5F60200864205D045F280404E
:10164000C5F60200864204D1206E016821F4807143
:101650000160306820F00100306000BF3068C007D2
:1016600010D000F045FC401B0628F7D32020606511
:10167000032084F835000120002184F83410BDE8EF
:10168000F08100BF20680821B8424FF03F0211DC12
:101690006F23C4F2020398421EDC3F23C4F202030C
:1016A000984235DC1023C4F20203984257D0282315
:1016B00050E000BF40451BDC40F23F43C4F2020350
:1016C00098422DDC40F21043C4F20203984246D007
:1016D00040F228433EE000BF9F23C4F20203984239
:1016E00028DC7023C4F20203984238D0882331E00A
:1016F00040F29F43C4F20203984223DC40F270435D
:10170000C4F2020398422AD040F2884322E000BF8C
:101710004023C4F20203984221D058231AE000BFAC
:1017200040F24043C4F20203984218D040F25843BA
:1017300010E000BFA023C4F2020398420FD0B823E8
:1017400008E000BF40F2A043C4F20203984206D072
:1017500040F2B843C4F20203984240F0C580D4E995
:10176000163707F01F07404502FA07F25A5019DCF6
:101770009F21C4F20201884232DC5721C4F20201E7
:10178000884259DC1021C4F20201884200F09680A0
:101790002821C4F20201884200F090804021C4F266
:1017A000020189E045F22F41C5F6020188422DDC95
:1017B00040F2B741C4F2020188424BDC40F2704172
:1017C000C4F20201884279D040F28841C4F2020199
:1017D000884273D040F2A041C4F202016CE000BF25
:1017E00040F22741C4F20201884243DCA021C4F246
:1017F0000201884262D0B821C4F2020188425DD061
:1018000040F21041C4F2020156E000BF45F26B41C4
:10181000C5F6020188423FDC45F23041C5F60201BF
:1018200088424BD045F24441C5F60201884245D07A
:1018300045F258413EE000BF5821C4F202018842FF
:101840003CD07021C4F20201884237D08821C4F212
:10185000020131E040F2B841C4F2020188422DD0C9
:1018600045F20841C5F60201884227D045F21C41E5
:1018700020E000BF40F22841C4F2020188421DD09E
:1018800040F24041C4F20201884217D040F2584170
:10189000C4F2020110E000BF45F26C41C5F602013E
:1018A00088420BD045F29441C5F60201884205D02A
:1018B00045F28041C5F6020188420BD1616EA26EED
:1018C000E06E4A6030B1016821F480710160D4E9B2
:1018D0001C014160012084F835000020002184F8BB
:1018E0003410BDE8F08100BF0421012237E7000079
:1018F000F0B190F83510022918D180B540F20F42AE
:101900000168C4F20202914214DC6F23C4F20203A4
:10191000994225DC3F23C4F2020399423CDC1023A8
:10192000C4F2020399425DD0282357E0802141652B
:101930000120704740F26F43C4F2020399421BDC5E
:1019400040F23F43C4F2020399422DDC40F21043BF
:10195000C4F20203994245D040F228433EE000BF62
:101960009F23C4F20203994228DC7023C4F20203CD
:10197000994237D0882331E040F29F43C4F20203FA
:10198000994223DC40F27043C4F20203994229D009
:1019900040F2884322E000BF4023C4F20203994290
:1019A00020D058231AE000BF40F24043C4F20203A3
:1019B000994217D040F2584310E000BFA023C4F270
:1019C000020399420ED0B82308E000BF40F2B843AA
:1019D000C4F20203994205D040F2A043C4F20203CC
:1019E000994275D191424FF0040280F8352011DC04
:1019F0006F20C4F20200814222DC3F20C4F20200C8
:101A0000814239DC1020C4F20200814259D02820E2
:101A100054E000BF40F26F40C4F2020081421BDC80
:101A200040F23F40C4F2020081422DDC40F21040FF
:101A3000C4F20200814244D040F228403EE000BFA0
:101A40009F20C4F20200814228DC7020C4F2020010
:101A5000814236D0882031E040F29F40C4F202003B
:101A6000814223DC40F27040C4F20200814228D05F
:101A700040F2884022E000BF4020C4F202008142D0
:101A80001FD058201AE000BF40F24040C4F20200CC
:101A9000814216D040F2584010E000BFA020C4F2AE
:101AA000020081420DD0B82008E000BF40F2B840EB
:101AB000C4F20200814204D040F2A040C4F202000D
:101AC0008142086820F001000860002080BD00BF4E
:101AD0000A6822F00E020A6045F25742C5F6020279
:101AE00091420A6822F001020A600FDC45F22F429F
:101AF000C5F60202914219DC45F20842C5F602021F
:101B0000914229D045F21C4222E000BF45F27F42BB
:101B1000C5F60202914213DC45F25842C5F60202B4
:101B2000914219D045F26C4212E000BF45F23042BA
:101B3000C5F6020291420FD045F2444208E000BFD0
:101B400045F29442C5F60202914205D045F2804228
:101B5000C5F6020291421AD1D0E9181CD0E916E369
:101B60000A6822F480720A6003F01F01012202FA5F
:101B700001F1CEF80410816ECCF80410C16E31B1C1
:101B80000A6822F480720A60D0E91C124A600121BE
:101B900080F83510016D0022002980F8342094D09F
:101BA0008847002080BD0000002908BF70472DE94C
:101BB000F04F81B000F1264242F2004302F1FF7281
:101BC000C5F602030A2598424FEAB22440F2040EF9
:101BD00008BF0925092CC5F6000E38BF4FEAB2250B
:101BE00000F1200C002200270024009529E000BF0E
:101BF0000323066803FA02FA6FF0030303EA5403AF
:101C000046EA0A06066007F01C060F2505FA06F9E3
:101C10005CF8036026EA09064CF80360C36823EA0F
:101C20000A03C360436823EA08034360836823EA26
:101C30000A0383600134043731FA04F302F102022B
:101C40003CD0012303FA04F818EA0109F2D040F26B
:101C5000084324F00305C5F6000307F00C0BED580C
:101C60000F2303FA0BFA009B05EA0A0503FA0BF6A9
:101C7000B542BDD1DEF87C504FF0B04325EA0905EE
:101C8000CEF87C50DEF8805025EA0905CEF8805069
:101C9000DEF8005025EA0905CEF800501E68A508B8
:101CA00026EA09061E6040F20843C5F6000353F811
:101CB000256026EA0A0643F8256099E701B0BDE8E9
:101CC000F04F704700000000B0F5007F18BF70476C
:101CD00080B582B040F270010020C2F20041019054
:101CE000086801A95BF05CFC019850B14EF6045005
:101CF0004FF08051CEF200000160BFF34F8FBFF371
:101D00006F8F02B0BDE88040704700000000000007
:101D10008821C5F600010A68024208BF70470860C2
:101D2000FFF7D2BF000000002DE9F04F83B00F682D
:101D3000002F00F0C98000F1264642F2004506F16E
:101D4000FF76C5F602050A22A8424FEAB62540F200
:101D5000040C08BF092200F120030093092DC5F6E9
:101D6000000C38BF4FEAB622002400264FF00008CE
:101D700001920AE008F101080F6837FA08F206F14B
:101D8000020604F1040400F09F80012202FA08FE1A
:101D900017EA0E09EED0D1F804B003220BF00307C6
:101DA000B2407D1E6FEA020A012D11D88268CD680B
:101DB00002EA0A02B5402A438260CBF3001542686A
:101DC00022EA0E0205FA08F52A43426004E000BF49
:101DD000032F01D103271FE0C2688D6802EA0A02BF
:101DE000B540022F42EA0502C26015D16FF003022E
:101DF00004F01C0502EA580B009A0F2352F80BE07E
:101E0000AB400F692EEA0303AF403B4342F80B306F
:101E1000D1F804B00BF00307026807FA06F302EAF0
:101E20000A021BF4403F42EA03020260A2D044F2DD
:101E3000F44340F2084EC5F60203C5F6000E0F2526
:101E40001A6842F002021A601A6802F00202029254
:101E500028F00302029B04F00C0352F80E709D4020
:101E6000AF43019D05FA03F33B4342F80E304FF0B8
:101E7000B04EDEF800204B6842EA0907DD0258BF89
:101E800022EA09079D02CEF80070DCF8002042EA41
:101E9000090758BF22EA09079D03CCF80070DCF857
:101EA000802042EA090758BF22EA0907DB03CCF881
:101EB0008070DCF87C2042EA090758BF22EA090753
:101EC000CCF87C7056E700BF03B0BDE8F08F00008F
:101ED000002A08BF0904816170470000000000006B
:101EE00041F20000C5F600400068000C7047000099
:101EF00046F62870C2F205400068704700000000F6
:101F000090F84120202A03D190F84020012A01D1E5
:101F100002207047242280F841200268136823F0D1
:101F200001031360136823F480531360136819438B
:101F30001160116841F001011160202180F8411009
:101F4000002180F8401000207047000000000000D1
:101F500090F84120202A03D190F84020012A01D195
:101F600002207047242280F841200268136823F081
:101F700001031360136823F4706343EA01211160C5
:101F8000116841F001011160202180F84110002109
:101F900080F840100020704710B310B590F8411041
:101FA00031B9002180F84010044600F085FA20463F
:101FB000242180F8411090E81210C3680A68012BB0
:101FC00022F001020A6024F070620A618A6822F439
:101FD00000428A6006D14CF400428A600CE000BFE7
:101FE00001207047022B4CF404428A6004D14A68F5
:101FF00042F4006203E000BF4A6822F400624A60D3
:1020000000F1100C4A6842F0007242F400424A604B
:10201000CA6822F40042CA609CE81C101A4342EAD3
:102020000422CA60026A42EA0C020A600A6842F0AC
:1020300001020A6000214164202280F841200163EE
:1020400080F84210002010BD2DE9F04F83B0044607
:1020500090F84100202807D10C9F4FB10D9E3EB152
:1020600094F8400001280BD1022003B0BDE8F08FA6
:102070004FF400706064012003B0BDE8F08F00BF32
:102080009A4693468846012084F84000FFF730FFC7
:10209000216805468A69120449D4222084F8410047
:1020A000402084F842005FFA8AF04FF000096FF395
:1020B0009F28C4F84490676248EA0040668549F664
:1020C0000006C4F83490CFF600464A68CDF8088080
:1020D0003240DDF8388010442A4600F50050486050
:1020E0002046414603F004FEC0B9BAF1010F206852
:1020F00009D04FEA1B218162204641462A4603F05F
:10210000F7FD58B920685FFA8BF181624021002207
:1021100020464346009503F037FD48B384F84090CD
:10212000012003B0BDE8F08F88690004B5D51921FE
:1021300020462A4603F078FC00289CD1FFF7D8FE01
:10214000401B21681A28EFD388690004ECD5606C25
:1021500040F020006064202084F84100002084F8D2
:10216000420084F84000012003B0BDE8F08F00BFBA
:10217000608D40F2000AC0F2FF1AB0F5807F09D3EB
:1021800020680AF5105350F8041F01EA0602FF21E7
:102190000AE000BF618D2068CAB250F8043F3340A6
:1021A00043EA02420AF59233029F1A4307F100798B
:1021B0004FF0FF0B06F580663A43026021850BE085
:1021C000608D21682085C0B24A6849EA00403240EB
:1021D00010434860608DA8B3042100222046434686
:1021E000009503F0D1FC00287FF445AF2068616AB8
:1021F000406A0870218D606A01306062481E208547
:10220000618D01396185618D0029E3D00004E1D140
:102210008021002220464346009503F0B5FC0028AB
:102220007FF429AF608DB0F5807FC9D32168A4F811
:1022300028B0486800EA06020298104340EA0A0003
:10224000C7E700BF204641462A4603F011FD00289B
:102250007FF411AF206820214EF60003C161CFF654
:10226000006342681A40426084F84110002084F8FC
:10227000420084F8400003B0BDE8F08F0000000089
:102280002DE9F04F81B0044690F84100202807D195
:102290000A9F4FB10B9E3EB194F8400001280BD12C
:1022A000022001B0BDE8F08F4FF40070606401209F
:1022B00001B0BDE8F08F00BF9A4691468B460120E1
:1022C00084F84000FFF714FE216805468A6912046D
:1022D0004DD4212084F84100402084F842005FFA68
:1022E0008AF04FF000086FF39F2BC4F844806762B8
:1022F0004BEA0040668549F60046CFF60046C4F832
:1023000034804A68A6F580631A405F461044DDF8C1
:1023100030B040F080702A4640F4005048602046BB
:10232000594603F0E5FCC0B9BAF1010F206809D0A5
:102330004FEA19218162204659462A4603F0D8FC0B
:1023400058B920685FFA89F1816280210022204615
:102350005B46009503F018FC50B384F840800120E0
:1023600001B0BDE8F08F00BF88690004B1D5192124
:1023700020462A4603F058FB002898D1FFF7B8FD05
:10238000401B21681A28EFD388690004ECD5606CE3
:1023900040F020006064202084F84100002084F890
:1023A000420084F84000012001B0BDE8F08F00BF7A
:1023B000608D40F20009C0F2FF19B0F5807F09D3AB
:1023C0002068B4464B4650F8041F01EA0602FF217C
:1023D0000BE000BF618DB4462068CAB250F8043FDC
:1023E000334043EA02424FF000731A4307F1007A88
:1023F0004FF0FF0866463A43026021850CE000BFBB
:10240000608D21682085C0B24A684AEA00403240A7
:1024100010434860608D88B3204659462A4603F031
:1024200067FC00287FF443AF606A216810F8012B35
:102430008A626062608D01386085208D0138208558
:10244000618D0029E6D00004E4D1802100222046DD
:102450005B46009503F098FB00287FF428AF608D61
:10246000B0F5807FCCD32068A4F828804168314043
:10247000394341EA09014160CCE700BF2046594693
:102480002A4603F0F5FB00287FF411AF20682021D5
:102490004EF60003C161CFF6006342681A40426005
:1024A00084F84110002084F8420084F8400001B014
:1024B000BDE8F08F000000002DE9F043B7B0002127
:1024C0000446CDE93511CDE93311329102A8C0217E
:1024D000FDF77DFF45F6FF312068C4F20001884218
:1024E0003CDC45F20041C4F20001884274D045F65C
:1024F0000001C4F20001884240F0EA800820029006
:1025000002A80024039400F097FB08B1FEF7A0FE98
:1025100044F2E04532A9C5F60205286840F0020001
:102520002860286800F00200019001984FF4406094
:1025300032901220CDE933040420369040F200405E
:102540003594C5F60200FFF7EFFBA86840F4800061
:10255000A860A86800F48000B8E000BF45F600411C
:10256000C4F20001884267D041F60041C5F600017F
:10257000884240F0AD801020029002A8002403940D
:1025800000F05AFB08B1FEF763FE44F2E04540F26A
:102590000041C5F60205C5F60201286840F00800B2
:1025A0002860286800F00800019001984FF440501E
:1025B00032901220CDE933040420369001F50060FA
:1025C00032A93594FFF7B0FB686940F0800068617C
:1025D000686900F0800079E00820029002A80024D9
:1025E000039400F029FB08B1FEF732FE44F2E04507
:1025F00032A9C5F60205286840F002002860286864
:1026000000F0020001900198C02032901220CDE924
:102610003304032035900420369040F20040C5F684
:102620000200FFF781FBA86840F40010A860A868CA
:1026300000F400104AE000BF0820029002A8002524
:10264000039500F0F9FA08B1FEF702FE44F2E04605
:1026500040F20047C5F60206C5F6020732AC4FF05D
:1026600012083068214640F00400306030684FF0B6
:10267000040900F0040001900198306840F0010066
:102680003060306800F00100019001984FF4007054
:10269000329007F58060CDE933853595CDF8D89037
:1026A000FFF742FB4FF480702146CDE93208A7F5D1
:1026B0008060CDF8D890CDE93455FFF735FBB06890
:1026C00040F40000B060B06800F400000190019890
:1026D00037B0BDE8F083000040F2040046F62871F0
:1026E000C2F20040C2F2054100780A681044086056
:1026F000704700000000000080B5032000F028F9BA
:1027000001F002FA44F218414EF61643C5F60201F2
:10271000C0F605030A68C2F303229A5C096801F057
:102720000F0102F01F02595CD04040F21002C2F2C9
:10273000004201F01F0120FA01F1116040F20C018A
:10274000C2F2004108600F2000F00AF800281CBF08
:10275000012080BD00F0A8F8002080BD000000002E
:102760000F2847D8B0B58AB004463620002221464B
:10277000002500F0BDF8362000F0A6F840F2080071
:10278000C2F20040046044F2E840C5F6020001686D
:1027900041F010010160006801A900F010000290F2
:1027A000029802A801F0FCF8079C002C18BF012435
:1027B00001F04AF94DF68361A040C4F21B3141F2A9
:1027C0000002A0FB010141F6E040C2F200404FF0E0
:1027D000FF33C4F20002026003EB9141C0E901152E
:1027E00040F2E731C0E9031501F032FE20B10120CB
:1027F0000AB0B0BD0120704741F6E040C2F200408F
:1028000001F07AFE0AB0B0BD10B54EF6A05E437876
:10281000CEF2000E90F800C04EF8083CDEF8003012
:1028200023F00103CEF8003043684EF8043C037BEC
:10283000C27A817A447B120642EA0372837B42EABF
:10284000C141C27B41EA8441447A41EA4341007A72
:1028500041EA024141EA042141EA400040EA0C0019
:10286000CEF8000010BD00004EF62450CEF200005D
:10287000BFF35F8F016821F480310160002101679F
:1028800070470000000000004EF6245140F00100A7
:10289000CEF200010867086840F480300860BFF39A
:1028A0004F8FBFF36F8F704781B044F2F440C5F68D
:1028B0000200016841F002010160006800F00200BE
:1028C0000090009801B07047002848BF704700F0A2
:1028D0001F01012202FA01F14EF20012C0F34A1068
:1028E000CEF2000242F82010704700000000000005
:1028F00070B54EF60C5C4FF0FF36CEF2000C00F1D6
:10290000604505F56445DCF80030C3F3022E8EF017
:102910000703042B28BF0423BEF1030406FA03F3C4
:1029200021EA030100F00F0338BF0024043B002814
:10293000634406FA04F048BF03F10C05A14022EA03
:10294000000008430001287070BD00000000000076
:102950004EF60C514FF6FF03CEF200010A681A4002
:1029600060F30A2242F0806040F0FD70086070471A
:10297000B0B544F60C05C5F6020529684907296873
:1029800006D401F00701081A18BF0120B0BD00BF2E
:1029900021F0070108432860FFF7AAFA044600BFA8
:1029A00055F8080C800407D4FFF7A2FA001BB0F515
:1029B0007A7FF5D90120B0BD0020B0BD0000000035
:1029C00080B501F019F844F220414EF61642C5F6E2
:1029D0000201C0F605020968C1F30211515C01F061
:1029E0001F01C84080BD000080B544F2384EC5F6D6
:1029F000020E5EF8103C5EF8101C5EF80C2CC1F361
:102A0000053CDEF80410BCF1000F19D0C9089FED99
:102A10003C1AD20601EAE27103F003026FF35F3160
:102A200000EE101AB8EE400ADFE802F0022210228F
:102A30005EF8381C89060DD49FED331A18E000BFEC
:102A400000218160C0E9001180BD00BF9FED2D1AFB
:102A50000EE000BF5EF8381C49F20002C0F2D0322E
:102A6000C1F3C10122FA01F101EE101AB8EE411AC8
:102A7000DEF800109FED253A6FF35F2102EE101A89
:102A8000DEF80010C1F34621B8EE422A013100EE13
:102A9000032A00EE10CAB7EE003AB8EE400A81EE03
:102AA000000A32EE031A20EE010A01EE101AB8EE07
:102AB000411A80EE011ABCEEC11A80ED001ADEF850
:102AC0000010C1F30641013101EE101AB8EE411AAF
:102AD00080EE011ABCEEC11A80ED011ADEF800107A
:102AE000C1F30661013101EE101AB8EE411A80EE11
:102AF000010ABCEEC00A10EE101A816080BD00BF52
:102B00000024744A20BCBE4B0024744C00000039E1
:102B100080B544F2404EC5F6020E5EF8183C5EF8F1
:102B2000181C5EF8142CC1F3055CDEF80410BCF12F
:102B3000000F19D0C9089FED3C1AD20501EAE271D5
:102B400003F003026FF35F3100EE101AB8EE400A93
:102B5000DFE802F0022210225EF8401C89060DD444
:102B60009FED331A18E000BF00218160C0E9001119
:102B700080BD00BF9FED2D1A0EE000BF5EF8401C27
:102B800049F20002C0F2D032C1F3C10122FA01F1D0
:102B900001EE101AB8EE411ADEF800109FED253A4A
:102BA0006FF35F2102EE101ADEF80010C1F3462128
:102BB000B8EE422A013100EE032A00EE10CAB7EE49
:102BC000003AB8EE400A81EE000A32EE031A20EE17
:102BD000010A01EE101AB8EE411A80EE011ABCEE9D
:102BE000C11A80ED001ADEF80010C1F30641013170
:102BF00001EE101AB8EE411A80EE011ABCEEC11AAD
:102C000080ED011ADEF80010C1F30661013101EE1A
:102C1000101AB8EE411A80EE010ABCEEC00A10EE9E
:102C2000101A816080BD00BF0024744A20BCBE4BD6
:102C30000024744C000000392DE9F0470446C078A8
:102C400044F22C480007C5F6020828D5A06E4FEACA
:102C5000305103292AD8DFE801F0030B131B00BF12
:102C6000D8F8001041F40031C8F8001010E000BF9F
:102C700004F10800022103F0B7FC064680B906E023
:102C800004F12800022103F043FD064640B9A06E7E
:102C9000D8F8241021F440110843C8F82400002675
:102CA0006078C00706D135462FE000BF0126607866
:102CB000C007F8D0A06D042858D83546DFE800F0EA
:102CC00004140E0B0B0000BFD8F80000354640F48A
:102CD0000030C8F800002F46C5B90DE004F1280007
:102CE000002103F015FD04E004F10800002103F0C9
:102CF0007BFC05462F464DB9D8F82400A16D20F085
:102D0000070000250843C8F824003746607880078C
:102D100031D5E06D4FEAB01004285FD8DFE800F04D
:102D200004140E0A0A0000BFD8F8000040F4003076
:102D3000C8F800002E46FDB90EE000BF04F12800DF
:102D4000002103F0E5FC04E004F10800002103F099
:102D50004BFC05462E467DB9D8F82400E16D20F4E1
:102D6000E07000250843C8F8240004E0012501278D
:102D700060788007CDD43E466078400733D5D4F8DC
:102D8000A8004FEA7050042860D8DFE800F0031371
:102D90000D090900D8F8000040F40030C8F8000020
:102DA000A9460DBB0EE000BF04F12800002103F08E
:102DB000AFFC04E004F10800002103F015FC054617
:102DC000A9468DB9D8F82C00D4F8A81020F46000DA
:102DD00000250843C8F82C0005E000BF01250126A6
:102DE00060784007CBD4B1466078000734D5D4F87A
:102DF000AC004FEA306004285ED8DFE800F003132F
:102E00000D090900D8F8000040F40030C8F80000AF
:102E10002F4615BB0EE000BF04F12800002103F08F
:102E200077FC04E004F10800002103F0DDFB054617
:102E30002F4695B9D8F82C00D4F8AC1020F0E060FB
:102E400000250843C8F82C0006E000BF01254FF01C
:102E5000010960780007CAD44F46E078800730D572
:102E6000E06C4FEA3010032820D8DFE800F00903B7
:102E7000150900BFD8F8000040F40030C8F8000081
:102E80002E46ADB9D8F82000E16C20F030000025C6
:102E90000843C8F8200014E004F10800022103F000
:102EA000A3FB05462E461DB9ECE700BF0125012610
:102EB0006078C00609D434E001250127E078800756
:102EC000CED43E466078C0062BD5206E4FEA303017
:102ED000042839D8DFE800F004140E0A0A0000BF05
:102EE000D8F8000040F40030C8F800002F46CDB9F3
:102EF0000EE000BF04F12800002103F009FC04E00B
:102F000004F10800002103F06FFB05462F464DB980
:102F1000D8F82400216E20F4E04000250843C8F8CA
:102F2000240037466078800635D5606E4FEA304021
:102F3000052815D8DFE800F0041A0E04040400BFC9
:102F40002E46DDB91EE000BF01250127607880060E
:102F5000EBD420E004F12800012103F0D9FB0AE0C2
:102F6000012501266078400619D449E004F10800E3
:102F7000012103F039FB05462E461DB1607840065D
:102F80000DD43DE0D8F82400616E20F4E020002547
:102F90000843C8F824003E466078400630D5D4F88F
:102FA000B0004FEA307005280ED8DFE800F00313B8
:102FB000070303032F46ADB918E000BF04F1280052
:102FC000012103F0A5FB0AE0012501276078000636
:102FD0001AD43CE004F10800012103F005FB05468A
:102FE0002F461DB1607800060ED430E0D8F82C00D2
:102FF000D4F8B01020F0E04000250843C8F82C00B9
:1030000037466078000622D5206F58B1B0F1005FD6
:103010000CD0B0F1805F37D1D8F8000040F4003018
:10302000C8F800002E469DB908E000BF04F1080072
:10303000012103F0D9FA05462E464DB9D8F82400EF
:10304000216F20F0405000250843C8F824003E4678
:10305000E078C0071DD0A06C032855D8DFE800F049
:1030600008024A08D8F8000040F40030C8F8000010
:10307000A9467DB9D8F82000A16C20F003000025F6
:103080000843C8F8200004E001250126E078C007C5
:10309000E1D1B146A078400602D44F4618E000BF07
:1030A000D8F8D40340F48070C8F8D403FEF720FFAA
:1030B000064600BFD8F8D403C00507D4FEF718FFB2
:1030C000801B6428F6D90325032701E02F46FDB1B4
:1030D0002078C00700F06F80E06F4FEAF00005280D
:1030E0004ED8DFE800F0035347030303002D2E46BC
:1030F00054D157E004F10800022103F075FA0546A7
:10310000002DA946C6D1B5E701254FF00109C1E759
:10311000D8F84410D4F8B400414011F4407F11D0E5
:10312000D8F84410D8F8442042F48032C8F844203B
:10313000D8F8442021F4407122F48032C8F84420A9
:10314000C8F84410B0F5807F40F0E082FEF7D0FE72
:10315000064641F2883A0325032700BFD8F8440009
:10316000800700F1D182FEF7C3FE801B5045F5D9E0
:10317000AEE700BF04F12800012103F0C9FA0AE01C
:10318000012501262078800719D446E004F10800C3
:10319000012103F029FA05462E461DB1207880074B
:1031A0000DD43AE0D8F82800E16F20F0380000256F
:1031B0000843C8F828003E46207880072DD5A06F28
:1031C00005280FD8DFE800F004140804040400BF49
:1031D0002F46ADB918E000BF04F12800012103F02B
:1031E00097FA0AE0012501272078400719D447E023
:1031F00004F10800012103F0F7F905462F461DB13F
:10320000207840070DD43BE0D8F82800A16F20F0CB
:10321000070000250843C8F82800374620784007F3
:103220002ED5D4F8940005280ED8DFE800F003135B
:10323000070303032E46ADB918E000BF04F12800D0
:10324000012103F065FA0AE00125012620788006B5
:103250001AD44BE004F10800012103F0C5F905463A
:103260002E461DB1207880060ED43FE0D8F82C0001
:10327000D4F8941020F0070000250843C8F82C006B
:103280003E462078800631D5D4F890004FEA307061
:1032900005280FD8DFE800F004140804040400BF78
:1032A0002F46ADB918E000BF04F12800022103F059
:1032B0002FFA0AE001250127207840061AD44BE0B6
:1032C00004F10800002103F08FF905462F461DB1D7
:1032D000207840060ED43FE0D8F82800D4F89010AB
:1032E00020F0E04000250843C8F828003746207841
:1032F000400631D5D4F89C004FEAB02005280FD8FD
:10330000DFE800F004140804040400BF2E46ADB941
:1033100018E000BF04F12800022103F0F9F90AE0E7
:1033200001250126207800061AD44EE004F1080099
:10333000002103F059F905462E461DB120780006FC
:103340000ED442E0D8F82C00D4F89C1020F4E050C1
:1033500000250843C8F82C003E462078000634D5E6
:10336000D4F8A0004FEA7030052815D8DFE800F047
:10337000041A0E04040400BF2F46E5B120680107BB
:1033800027D4C1063ED4000355D477E004F12800C9
:10339000022103F0BDF90AE0012501272068010799
:1033A000EFD516E004F10800002103F01DF90546F1
:1033B000002D2F46E2D1D8F82C00D4F8A01020F42C
:1033C000604000250843C8F82C00374620680107F4
:1033D000D7D5D4F88400B0F5805F09D104F1280076
:1033E000022103F095F9002818BF0127D4F88400C2
:1033F000D8F8281021F440510843C8F82800206864
:10340000C106C0D5D4F89800B0F5807F09D104F189
:103410002800022103F07CF9002818BF0127D4F806
:103420009800D8F82C1021F440710843C8F82C00FB
:103430002068000322D5D4F8A400B0F5003F11D0D5
:10344000B0F5803F08D0002844D104F108000021E5
:1034500003F0CAF805E000BF04F12800022103F0E0
:1034600057F905462E4655B9D8F82C00D4F8A410C3
:1034700020F4403000250843C8F82C003E46A078D0
:1034800040072CD5D4F88800B0F5401F0BD0B0F51C
:10349000001F0BD0B0F5801F2AD1D8F8000040F4EF
:1034A0000030C8F800002F46D5B907E004F1280025
:1034B000012103F02DF905462F468DB9D8F82800D3
:1034C000D4F8881020F4401000250843C8F82800DC
:1034D00005E000BF01250126A0784007D2D4374679
:1034E000A078C00709D13E462168880015D532E092
:1034F00001250127A078C007F5D0206DB0F5803FE9
:1035000010D018BBD8F8000040F40030C8F8000014
:103510002E4685B1216888001DD460688A0326D4B0
:1035200069E000BF04F10800022103F05DF80546E0
:10353000002D2E46EED1D8F82000216D20F48030E9
:1035400000250843C8F82000CDE700BF012501266B
:1035500021688800E1D504F12800022103F0D8F8A1
:10356000002818BF0126D4E900108A0343D5D4F8F7
:1035700080206FF0010303EB3223022B0BD34FEAC1
:10358000322343B1012B40F0B980D8F8003043F426
:103590000033C8F800303DB3CA022FD4CA0037D474
:1035A0008A0240D44A0048D4CA0F55D109025DD4DA
:1035B000C10766D181076FD4410779D4010700F1B3
:1035C0008380C10600F18C80800607D504F12800B5
:1035D000022103F09DF8002818BF0125002D18BF17
:1035E00001252846BDE8F087D8F8283023F4407339
:1035F0001A43C8F828203546CA02CFD5D8F8242067
:10360000636F22F000421A43C8F82420CA00C7D5CD
:1036100058F81C2CD4F8B83022F480421A4348F8E9
:103620001C2C8A02BED5D8F82420E36E22F08072CA
:103630001A43C8F824204A00B6D558F81C2C22F4A6
:10364000004248F81C2CD4F8BC2058F81C3C1A4303
:1036500048F81C2CCA0FA9D0D8F82020636D22F09E
:1036600040521A43C8F820200902A1D5D8F82810E2
:10367000D4F88C2021F440011143C8F82810C10768
:1036800098D004F10800002102F0AEFF002818BF16
:103690000546606881078FD504F10800012102F01A
:1036A000A3FF002818BF0546606841077FF586AF75
:1036B00004F10800022102F097FF002818BF054618
:1036C000606801077FF57DAF04F12800002103F059
:1036D0001FF8002818BF05466068C1067FF574AF63
:1036E00004F12800012103F013F8002818BF054653
:1036F000606880063FF56AAF70E700BF0125CA0227
:103700007FF54CAF7AE700BFD4F8B4004FF6CF7323
:1037100058F81C2CC0F2FF0300F4407122F47C52D4
:1037200003EA10136FF31F30B1F5407F08BF1A434F
:10373000002548F81C2CD8F844100843C8F8440069
:10374000FFF7ABBC000000002DE9F04381B000287A
:1037500000F0208142F200090446C5F20029D9F8A0
:10376000000000F00F0081420DD9D9F8000020F0D0
:103770000F000843C9F80000D9F8000000F00F005E
:10378000884240F00781206844F218464207C5F697
:1037900002060AD52269336803F070039A4204D9FD
:1037A000336823F070031A43326002070AD5626956
:1037B000736803F070039A4204D9736823F07003AE
:1037C0001A437260C2060AD5A269736803F4E06303
:1037D0009A4204D9736823F4E0631A437260820644
:1037E0000AD5E269B36803F070039A4204D9B3685A
:1037F00023F070031A43B26010F002020AD0E368AB
:10380000376807F00F07BB4204D9376827F00F0766
:103810003B433360C3073FD0306820F47062D4E983
:1038200001031A433260012856F8182C0AD00328E5
:1038300004D002280AD192030BD4ABE0920108D441
:10384000A8E000BFD20504D4A4E000BF520740F1B5
:10385000A180884656F8081C21F00701084346F865
:10386000080CFEF745FB054641F2883756F8080C70
:10387000616800F03800B0EBC10F09D0FEF738FBEB
:10388000401BB842F2D9032001B0BDE8F08300BF6D
:103890002068414600F0020252B1E268336803F04A
:1038A0000F039A4204D2336823F00F031A433260A5
:1038B000D9F8002002F00F0291420CD2D9F8002072
:1038C00022F00F020A43C9F80020D9F8002002F0C4
:1038D0000F028A425ED141070AD52169326802F09F
:1038E0007002914204D2326822F0700211433160BA
:1038F00001070AD56169726802F07002914204D230
:10390000726822F0700211437160C1060AD5A16984
:10391000726802F4E062914204D2726822F4E062BA
:103920001143716080060AD5E069B16801F0700149
:10393000884204D2B16821F070010843B06000F001
:10394000E3F831684EF61642C0F60502C1F30321D2
:10395000515C336803F00F0301F01F01D25C20FAC1
:1039600001F102F01F0040F21002C2F2004221FAFF
:1039700000F0106040F2080040F20C02C2F2004079
:10398000C2F200420068116001B0BDE8F043FEF7EA
:10399000E7BE00BF012001B0BDE8F08300000000D9
:1039A0003F22026044F21842C5F6020252F8083C77
:1039B00003F007034360136803F4706383601368C4
:1039C00003F00F03C360136803F0700303615368CF
:1039D00003F070034361536803F4E063836192680A
:1039E00002F07002C26142F20000C5F200200068DD
:1039F00000F00F000860704780B500F085F844F2D1
:103A000018414EF61643C5F60201C0F605030A68D2
:103A1000C2F303229A5C096801F00F0102F01F0251
:103A2000595C20FA02F201F01F0040F21001C2F2CC
:103A3000004122FA00F0086040F20C01C2F200419D
:103A40000A6080BD0000000080B500F05DF844F21F
:103A5000184C4EF61643C5F6020CC0F60503DCF80A
:103A60000020C2F303229A5CDCF8001001F00F0181
:103A700002F01F02595CD04040F21002C2F2004234
:103A800001F01F0120FA01F1116040F20C02C2F2B4
:103A900000421060DCF80400C0F30210185C00F073
:103AA0001F0021FA00F080BD80B500F02DF844F22F
:103AB000184C4EF61643C5F6020CC0F60503DCF8AA
:103AC0000020C2F303229A5CDCF8001001F00F0121
:103AD00002F01F02595CD04040F21002C2F20042D4
:103AE00001F01F0120FA01F1116040F20C02C2F254
:103AF00000421060DCF80400C0F30220185C00F003
:103B00001F0021FA00F080BD44F20041C5F6020119
:103B10000869C0F3C200032816D002280ED000287E
:103B200032D10868800649F20000C0F2D03058BF98
:103B300070470968C1F3C101C840704747F64000AB
:103B4000C0F27D10704700BF8B6A886AD1F82CC024
:103B50004A6BC0F30510E8B1C2F3CC0203F00303D3
:103B600000EE102A9FED2A1AB8EE400A20EE010A54
:103B70009FED281ADFE803F0022110210A6892065F
:103B80000ED49FED261A18E040F60010C0F23D005A
:103B9000704700BF002070479FED1F1A0DE000BF67
:103BA0000A6849F20003C0F2D033C2F3C10223FA1B
:103BB00002F201EE102AB8EE411A0A6B9FED183A94
:103BC0006FF35F2202EE102A5FEACC7203FE000A56
:103BD00003EE100A086BB8EE422AC0F34620B8EE96
:103BE000433A013030EE020AB7EE002A81EE031AA2
:103BF00030EE020A21EE000A01EE100AB8EE411A78
:103C000080EE010ABCEEC00A10EE100A704700BF39
:103C1000000000390024744A20BCBE4B0024744CC0
:103C2000000000000000000070B3F0B581B0044651
:103C3000007844F20046C007C5F6020626D1207877
:103C4000800740F1C280306910F03801B06A3FD07F
:103C5000182908BF5FEA80703AD0E0683168002810
:103C600062D021F0190108433060FEF741F90546A2
:103C70003068400748D4FEF73BF9401B0228F7D9CB
:103C8000032001B0F0BD00BF01207047306900F093
:103C90003801B06A102905D018290BD100F00300B3
:103CA000022807D130688003C9D560680028C6D1D2
:103CB0003CE100BF6168306800294FD0B1F5A02F0A
:103CC00044D0B1F5803F5FD140F4803062E000BF66
:103CD00030684007E06802D5002800F0278131688D
:103CE00021F0190108433060FEF702F9054600BFD4
:103CF0003068400708D4FEF7FBF8401B02284FF05D
:103D00000300F5D901B0F0BDFEF7EAF841F2030176
:103D100088424FD820697168402821F47C3151D104
:103D200041F4003050E000BF21F001003060FEF7A8
:103D3000DFF805463068400747D5FEF7D9F8401B45
:103D400002284FF00300F5D9DCE700BF40F48020E3
:103D50003060306840F480301CE000BF20F48030D8
:103D60003060306820F480203060FEF7C1F80546EE
:103D7000306880037FF563AFFEF7BAF8401B642814
:103D80004FF00300F4D9BDE720F480303060306894
:103D900020F480203060FEF7ABF8054630688003E1
:103DA0003FF54DAFFEF7A4F8401B6428F6D9032079
:103DB00001B0F0BD7068216920F0FE4040EA01606A
:103DC00002E000BF41EA003070602078C00654D5A0
:103DD000306900F03801B06A082905D0182919D1D6
:103DE00000F00300012815D13068C00503D5E06953
:103DF000802840F09B80FEF773F841F2030188426F
:103E00001ED8206A7168202821F0F84132D141F093
:103E1000804031E0E0690028306819D040F080002F
:103E20003060FEF765F805463068C005E3D4FEF75C
:103E30005FF8401B02284FF00300F5D962E700BF8E
:103E4000F068216A20F07C5040EA0160F06014E0E4
:103E500020F080003060FEF74BF805463068C00562
:103E60000BD5FEF745F8401B02284FF00300F5D9AB
:103E700048E700BF41EA80607060207800073FD4C7
:103E80002078800656D42078400769D4656A9DB3AF
:103E9000306900F03800182840F0A880012DB16A80
:103EA000306B43D001F00302A36A9A423ED1C1F3C2
:103EB0000511E26A914239D10146226B6FF35F210D
:103EC000013A914232D1C0F34622616B01398A42F4
:103ED0002CD1C0F30642A16B01398A4226D1C0F32E
:103EE0000660E16B0139884220D1706BA16CC0F390
:103EF000CC00814240F03481002001B0F0BD00BF11
:103F000060690028706F41D040F001007067FDF7D4
:103F1000EFFF0546706F8007B2D4FDF7E9FF401B45
:103F20000228F7D9032001B0F0BD00BF012001B085
:103F3000F0BD00BFA0690028306845D040F4805033
:103F40003060FDF7D5FF0546306880049BD4FDF74F
:103F5000CFFF401B0228F7D9032001B0F0BD00BFFE
:103F6000D6F8000440F48070C6F80004FDF7C0FFE6
:103F7000054600BFD6F80004C00519D4FDF7B8FF08
:103F8000401B6428F6D9032001B0F0BD20F00100E9
:103F90007067FDF7ADFF0546706F80077FF570AF66
:103FA000FDF7A6FF401B02284FF00300F4D9A9E655
:103FB000A168306F002943D0052939D0012957D194
:103FC00040F001005AE000BF20F480503060FDF75F
:103FD0008FFF0546306880047FF555AFFDF788FFF9
:103FE000401B02284FF00300F4D98BE6306820F024
:103FF00080703060FDF77CFF022D05460CD100BFBC
:10400000306880014CD5FDF773FF401B02284FF04C
:104010000300F5D976E600BF306880017FF56CAF0C
:10402000FDF766FF401B02284FF00300F4D969E654
:1040300040F004003067306F40F001001EE000BF28
:1040400020F001003067306F20F004003067FDF78A
:104050004FFF054641F28837306F80077FF516AF76
:10406000FDF746FF401BB8424FF00300F4D949E684
:1040700020F001003067306F20F004003067FDF75A
:1040800037FF054641F28837306F80073FF5FEAEB7
:10409000FDF72EFF401BB8424FF00300F4D931E684
:1040A00004F12807B06A40F2F33188438ECF084309
:1040B000591E40EA02104FF47E426FF35F21B06256
:1040C00002EB47204FF4FE0280B2E36B0844A16B81
:1040D00002EB01414FF0FE4201F4FE0102EB0362EC
:1040E000084402F0FE4108443063F06A4FF6F8716C
:1040F00020F00100F062706BA26C884340EAC200BD
:104100007063F06A216C20F00C000843F062F06AE2
:10411000616C20F002000843F062F06A40F48030E5
:10412000F062F06A40F40030F062F06A40F48020FF
:10413000F062F06A40F00100F062306840F0807098
:104140003060FDF7D5FE0446306880013FF5D4AEFF
:10415000FDF7CEFE001B02284FF00300F4D9D1E595
:10416000F06A20F00100F062FDF7C2FE0546FDF79F
:10417000BFFEA842FBD0706B4FF6F871A26C88436B
:1041800040EAC2007063F06A40F00100F062002073
:1041900001B0F0BD0000000090B370B5044690F887
:1041A000450015460E4628B9002084F844002046F4
:1041B00000F02AF8206804F10801FDF791F8206862
:1041C0003146A268FDF7D4F8D4E90102E36A294632
:1041D000FDF75EF8A068216851F8202042F0010246
:1041E00041F8202044F20000C5F20020016841F0AF
:1041F00000410160012084F84500002070BD00BF2F
:1042000001207047000000002DE9F043B7B040F2F4
:1042100064100025C2F2004036953595017832953C
:10422000CDE9335500294ED102AC0121017004F1D2
:104230000800B821FCF7CBF84FF0807002902046C0
:104240000395FEF7F9FC08B1FDF702F844F2D440FB
:1042500040F60004C5F60200C5F6020432AD4FF088
:10426000020801684FF0000941F4805101600068C4
:10427000294600F48050019001984FF680703290EA
:1042800004F50060CDF8CC800326CDF8D0900C2743
:1042900035963697FDF748FD32A94CF63370CDE9D7
:1042A000356781E8010304F580602946FDF73CFD90
:1042B00032A98020359681E80103092036902046F6
:1042C0002946FDF731FD37B0BDE8F083000000005E
:1042D0007047000000000000704700000000000070
:1042E000704700000000000090F83C20012A01D136
:1042F00002207047B0B5CB6848F2FF7ED1E901C219
:1043000023F47C5322F47052CFF6F07E42EA030489
:104310000CEA0E030A68234322F477220C691A433D
:1043200024F47623D0F800C01A434B691A438B6AF1
:1043300022F4742E23F470238A6940F200454CF471
:104340008064C4F2010543EA0E03AC4243EA02432F
:104350000FD1002523F07C724B6ACFF6F045CC6973
:1043600005EA03531A4324F00073096A1A4342EA28
:104370000103CCF84430002180F83C100020B0BD8F
:1043800090F83C20012A4FF002025ED0B0B580F8D0
:104390003D2040F2004C0268C4F2010C42F48063FC
:1043A00063455368D2F808E002BF23F470034C68F9
:1043B000234341F2FF740D68C4F2000423F070033C
:1043C000A24243EA050353600CDC40F2FF73C4F2DF
:1043D00000039A4216DCB2F1804F29D040F200432C
:1043E00018E000BF40F2FF33C4F201039A4217DC29
:1043F00041F60003C4F200039A4219D00023C4F22C
:10440000010309E040F60003C4F200039A420FD012
:1044100040F60043C4F200039A4209D00DE000BF09
:1044200044F20003C4F201039A4201D0624504D170
:104430002EF080038968194391600022012180F8E1
:104440003D1080F83C20BDE8B040104670470000A9
:1044500060B310B5044690F83D0028B9002084F8F8
:104460003C00204600F024F8022084F83D0020683B
:10447000211D02F015FB012084F8480084F83E005D
:1044800084F83F0084F8400084F8410084F842003A
:1044900084F8430084F8440084F8450084F846001A
:1044A00084F8470084F83D00002010BD01207047CB
:1044B00041F200410068C4F20001884218BF704711
:1044C00080B582B044F2E8400022C5F602000168DF
:1044D00041F0200101600068002100F020000190FF
:1044E00001983720FEF704FA372002B0BDE880407B
:1044F000FEF7EAB90000000090F83D1001291BD139
:10450000022180F83D10016841F2FF70C4F2000002
:104510008142C86840F00100C8600FDC40F2FF70C3
:10452000C4F20000814217DCB1F1804F2CD040F280
:104530000040C4F2000025E00120704740F2FF3047
:10454000C4F20100814213DC41F60000C4F2000015
:10455000814219D0002013E040F60000C4F20000B0
:10456000814211D040F60040C4F200000AE000BFD2
:1045700044F20000C4F20100814205D040F2004044
:10458000C4F2010081420BD107228868C0F2010207
:1045900002400020062A18BFB2F5803F00D17047C4
:1045A000086840F00100086000207047000000002B
:1045B0007047000000000000F0B581B004460068BC
:1045C000C5680669B10717D515F0020114D06FF060
:1045D00002010161012121778069800704D0204612
:1045E000FFF7E6FF06E000BF204600F09DF82046FA
:1045F00000F042FB00202077700719D515F0040069
:1046000016D020686FF004010161022121778069D2
:1046100010F4407F04D02046FFF7CAFF06E000BF39
:10462000204600F081F8204600F026FB002020778D
:10463000300717D515F0080014D020686FF0080176
:10464000016104212177C069800703D02046FFF76C
:10465000AFFF05E0204600F067F8204600F00CFBB5
:1046600000202077F00619D515F0100016D020682C
:104670006FF01001016108212177C06910F4407FBB
:1046800004D02046FFF794FF06E000BF204600F06C
:104690004BF8204600F0F0FA00202077F00718BF12
:1046A00015F0010006D020686FF00101016120467D
:1046B00000F096FB05F0800716F4025F18BF002F8C
:1046C00002D1F00509D410E020686FF402510161B5
:1046D0002046FFF701FEF00507D537B120686FF4DB
:1046E000807101612046FFF7F3FD700609D515F0D2
:1046F000400006D020686FF040010161204600F0C4
:104700007BFBB0060CD515F0200009D020686FF0B7
:1047100020010161204601B0BDE8F040FFF7E0BD97
:1047200001B0F0BD00000000704700000000000074
:1047300090F83C30012B01D1022070474FEAB202C1
:10474000052A00F223812DE9F041DFE812F007008D
:10475000BB00570095003100F90000BF036843F625
:10476000FF76C4F201061C6AB3421A6A24F00204FE
:1047700022F001021A621A46D3F804C052F818EF68
:104780008D6844EA0504D1F8008040F3818144F249
:104790000007C4F20107BB4200F0858144F6000720
:1047A000C4F20107BB4200F07E8144F2004776E18B
:1047B000036843F6FF77C4F20107D3F820C0BB4279
:1047C0001A6A22F480321A621A465C6852F8546FF0
:1047D0000D68D1F808E040F3DF8044F20007C4F22E
:1047E0000107BB4200F0E38044F60007C4F2010772
:1047F000BB4200F0DC8044F20047D4E0036840F2A2
:10480000004E43F48067C4F2010E1C6A77451A6AB1
:1048100024F4007422F480721A621A465D6852F819
:104820001CCF8E6844EA062407D1CE6840F2FF47C9
:10483000360224F44064BE43344343F6FF76D1F895
:104840000080C4F20106B34240F3D28044F2000774
:10485000C4F20107BB4200F0D28044F60007C4F264
:104860000107BB4200F0CB8044F20047C4F20107CD
:10487000BB4200F0C480C9E0036843F6FF77C4F28E
:104880000107D3F820C0BB421A6A22F480521A6290
:104890001A465C6852F81C6F0D68D1F808E040F3C6
:1048A000CD8044F20007C4F20107BB4200F0D18082
:1048B00044F60007C4F20107BB4200F0CA8044F28C
:1048C0000047C2E0036840F2004E43F48067C4F240
:1048D000010E1C6A77451A6A24F0200422F01002A7
:1048E0001A621A465D6852F818CF8E6844EA0614B8
:1048F00007D1CE686FF0400724F0C00407EA06161F
:10490000344343F6FF76D1F80080C4F20106B34287
:1049100040F3E08044F20007C4F20107BB4200F01C
:10492000E08044F60007C4F20107BB4200F0D980E2
:1049300044F20047C4F20107BB4200F0D280D7E046
:10494000036843F6FF77C4F20107D3F820C0BB42E7
:104950001A6A22F480121A621A465C6852F8546F7E
:104960000D68D1F808E040F3058144F20007C4F275
:104970000107BB4200F0098144F60007C4F20107B9
:10498000BB4200F0028144F20047FAE0012100221C
:1049900080F83C20084670470027C4F20107BB425C
:1049A00005D040F20047C4F20107BB4204D14F6971
:1049B00024F4803444EA07244FF68C775C60CFF609
:1049C000FE7703373E402CF4003746EA05045C6569
:1049D0004E6809699E6547EA0E471F625F6D47F0A2
:1049E00008075F655F6D27F004075F65EEE000BFB5
:1049F0000027C4F20107BB4201D0734506D1D1E9BB
:104A00000576374325F4405646EA07154FF68C776E
:104A10005D60CFF6FE7707EA0C0747EA0807DF611B
:104A20004F680969DF631C62DF6947F00807DF61CF
:104A3000DF6927F00407DF61C8E000BF0027C4F288
:104A40000107BB4205D040F20047C4F20107BB4258
:104A500004D14F6924F4804444EA871448F6FF47A0
:104A60005C60CFF6FF673E402CF4005746EA052411
:104A7000DC614E6809691E6447EA0E371F62DF6910
:104A800047F40067DF61DF6927F48067DF619CE03E
:104A90000027C4F20107BB4205D040F20047C4F230
:104AA0000107BB4205D1CF6824F00C0427F00407AE
:104AB0003C43B34234DD44F20006C4F20106B34283
:104AC00039D044F60006C4F20106B34233D044F2B2
:104AD00000462CE00027C4F20107BB4201D0734519
:104AE00006D1D1E90576374325F4406646EA8705C5
:104AF00048F6FF475D60CFF6FF6707EA0C0747EA15
:104B000008279F614F6809699F631C629F6947F48A
:104B100000679F619F6927F480679F6155E000BF30
:104B20000026C4F20106B34205D040F20046C4F2AA
:104B30000106B34206D12CF44077D1E9056537432D
:104B400047EA050C4FF68C75C3F804C0CFF6FE7526
:104B50000EEA050747EA08079F614F6809695F6326
:104B60001C629F6947F008079F619F6927F004074F
:104B70009F612BE00027C4F20107BB4205D040F241
:104B80000047C4F20107BB4204D14F6924F48024DA
:104B900044EA872448F6FF475C60CFF6FF6707F5D5
:104BA00040773E402CF4001746EA05245C654E68C9
:104BB0000969DE6547EA0E571F625F6D47F40067BB
:104BC0005F655F6D27F480675F65090213681943AD
:104BD00011600021BDE8F041002280F83C20084629
:104BE000704700000000000060B310B5044690F864
:104BF0003D0028B9002084F83C00204600F024F84D
:104C0000022084F83D002068211D01F049FF0120A9
:104C100084F8480084F83E0084F83F0084F840009F
:104C200084F8410084F8420084F8430084F844008A
:104C300084F8450084F8460084F8470084F83D0075
:104C4000002010BD0120704700210068C4F201015E
:104C5000884218BF704781B044F2F040C5F60200A8
:104C6000016841F001010160006800F0010000905E
:104C7000009801B07047000070470000000000007D
:104C800080B5C9B10B1F4FF03F0C4FEAB30E432262
:104C9000BEF1040F38BF0CEBB302825C012A13D1C2
:104CA000BEF1030F1ED8DFE80EF00319111500BF87
:104CB000022280F83F2018E090F83E20012A03D11C
:104CC000022280F83E2010E0012080BD022280F800
:104CD00041200AE0022280F8422006E0022280F809
:104CE000402002E0022280F84320026801F01F0009
:104CF000012101FA00F0116A814311624FF6FF7140
:104D0000C4F200018A42116A40EA0100106219DC13
:104D100040F2FF70C4F2000082422FDD40F6000036
:104D2000C4F20000824243D040F60040C4F20000CA
:104D300082423DD041F60000C4F20000824237D0EA
:104D400048E000BF43F6FF700021C4F20100C4F246
:104D50000101824244F20000C4F2010018DD8242E7
:104D60001ED044F60003C4F201039A4218D044F264
:104D70000043C4F201039A4212D02BE0B2F1804FFB
:104D800016D040F20040C4F20000824210D021E070
:104D90008A4205D040F20043C4F201039A4219D17D
:104DA000536C8A4243F40041516418BF82420BD1D4
:104DB00007219068C0F2010101400020062918BFB8
:104DC000B1F5803F06D180BD40F20040C4F2010041
:104DD0008242EDD0106840F001001060002080BDDC
:104DE00041F200010068C4F20001884218BF704718
:104DF000FDF772BC000000007047000000000000DA
:104E000090F88410012901D1022070472421C0F8B4
:104E1000881001680A680B6822F0005223F0010331
:104E20000B60002343660A602021C0F8881080F8D8
:104E30008430002070470000704700000000000030
:104E4000704700000000000090F88420012A01D182
:104E50000220704770B52422C0F888200268D0F87C
:104E600064E0BEF1000FD2F800C0136823F0010324
:104E70001360936823F0606341EA0301916019D0E5
:104E800091684EF6BC4E9368C0F6050E5B0F4EF669
:104E9000C445C1F34266C0F605051EF80340E95C4F
:104EA0002301B3FBF1F11EF80630AE5D1B01B3FB2D
:104EB000F6F301E001210123A0F86A102021A0F8F7
:104EC0006830C2F800C0C0F88810002180F8841053
:104ED000002070BD0000000090F88420012A01D15C
:104EE0000220704770B52422C0F888200268D0F8EC
:104EF00064E0BEF1000FD2F800C0136823F0010394
:104F00001360936823F0604341EA0301916019D074
:104F100091684EF6BC4E9368C0F6050E5B0F4EF6D8
:104F2000C445C1F34266C0F605051EF80340E95CBE
:104F30002301B3FBF1F11EF80630AE5D1B01B3FB9C
:104F4000F6F301E001210123A0F86A102021A0F866
:104F50006830C2F800C0C0F88810002180F88410C2
:104F6000002070BD0000000070470000000000003D
:104F700070470000000000007047000000000000C3
:104F800070B5016840F62F02CB691A40202A0A68E2
:104F90008E680BD102F0200406F080552D1917D031
:104FA000416F69B3BDE87040084700BF40F60F0588
:104FB0002B420DD0012540F22014C1F20005C0F2B1
:104FC000004406EA050C02EA040515EB0C0525D1A0
:104FD000DD06C46E16D5012C14D112F0100511D0C7
:104FE00010220A628968490666D4B0F85C10B0F8ED
:104FF0005E20B0F85E30002B18BF914240F068820E
:1050000070BD00BFDD0215D516F4800512D04FF437
:1050100080120A62BDE87040FFF7AABFDD0718BF23
:1050200012F4807540F02A819D0706F0010E00F110
:1050300031813AE1190606D502F0800106F4000636
:10504000891940F0CB82590640F10C8112F04001E1
:1050500000F00881016851E8001F026821F040015A
:1050600042E80013F3B1016851E8001F026821F023
:10507000400142E80013002B1FBF016851E8001FE8
:10508000026821F040011CBF42E80013002B09D048
:10509000016851E8001F026821F0400142E8001356
:1050A000002BD7D12021C0F8881000218167BDE8EE
:1050B000704000F0B1BC00BFD0F8802011684B6890
:1050C000B0F85C4099B2002900F0C280A14280F0A3
:1050D000BF80A0F85E30D169B1F5807F00F0AC8070
:1050E000016851E8001F026821F4807142E8001352
:1050F000F3B1016851E8001F026821F4807142E8B1
:105100000013002B1FBF016851E8001F026821F443
:1051100080711CBF42E80013002B09D0016851E8E0
:10512000001F026821F4807142E80013002BD7D1E0
:10513000016851E8021F026821F0010142E80213F0
:10514000F3B1016851E8021F026821F0010142E851
:105150000213002B1FBF016851E8021F026821F0F3
:1051600001011CBF42E80213002B09D0016851E87D
:10517000021F026821F0010142E80213002BD7D17F
:10518000016851E8021F026821F0400142E8021361
:10519000F3B1016851E8021F026821F0400142E8C2
:1051A0000213002B1FBF016851E8021F026821F0A3
:1051B00040011CBF42E80213002B09D0016851E8EE
:1051C000021F026821F0400142E80213002BD7D1F0
:1051D0002021C0F88C100021C166016851E8001F31
:1051E000026821F0100142E80013F3B1016851E8B0
:1051F000001F026821F0100142E80013002B1FBFBE
:10520000016851E8001F026821F010011CBF42E84C
:105210000013002B09D0016851E8001F026821F03B
:10522000100142E80013002BD7D1D0F880100446BB
:105230000846FCF7C9F8204602210167B0F85C1067
:10524000B0F85E20891A89B2BDE87040FFF7F4BD5E
:105250008C427FF4D5AED269B2F5807F7FF4D0AEB8
:10526000B6E100BF190240F1C58112F0804100F0A3
:10527000C181BDE87040FFF777BE00BF01250D6218
:10528000D0F8905045F00105C0F890509D0706F009
:10529000010E0AD5BEF1000F07D002240C62D0F82F
:1052A000904044F00404C0F890405C070AD5BEF179
:1052B000000F07D004250D62D0F8905045F002058C
:1052C000C0F890501D070CD502F0200555EA0C05DA
:1052D00007D008250D62D0F8905045F00805C0F8B9
:1052E00090501D050BD512F0806508D04FF4006575
:1052F0000D62D0F8905045F02005C0F89050D0F8DD
:105300009050002D3FF47CAE9B060BD502F020029E
:1053100006F08053D21805D0426F1AB10446904768
:1053200020462168D0F89020896801F0400102F001
:105330002802891806D10446FFF71EFE0020C4F893
:10534000900070BD016851E8001F026821F490715F
:1053500042E80013F3B1016851E8001F026821F42C
:10536000907142E80013002B1FBF016851E8001F35
:10537000026821F490711CBF42E80013002B09D091
:10538000016851E8001F026821F4907142E800139F
:10539000002BD7D14FF6FE71CEF6FF71026852E8AE
:1053A000022F03680A4043E80226DEB1026852E891
:1053B000022F03680A4043E80226002E1FBF02683E
:1053C00052E8022F03680A401CBF43E80226002E61
:1053D00008D0026852E8022F03680A4043E8022618
:1053E000002EDBD1C16E012927D1016851E8001FD1
:1053F000026821F0100142E80013F3B1016851E89E
:10540000001F026821F0100142E80013002B1FBFAB
:10541000016851E8001F026821F010011CBF42E83A
:105420000013002B09D0016851E8001F026821F029
:10543000100142E80013002BD7D12021C0F88C10B6
:105440000021C166026841679168490640F1CE803B
:10545000016851E8021F026821F0400142E802138E
:10546000F3B1016851E8021F026821F0400142E8EF
:105470000213002B1FBF016851E8021F026821F0D0
:1054800040011CBF42E80213002B09D0016851E81B
:10549000021F026821F0400142E80213002BD7D11D
:1054A000D0F88010002900F0A18046F64162044641
:1054B0000846C0F600020A65FCF71AFA00283FF415
:1054C0009FADD4F88000016DBDE87040084700BF73
:1054D000891A026852E8002F036822F4907243E8A8
:1054E0000026F6B1026852E8002F036822F4907299
:1054F00043E80026002E1FBF026852E8002F036811
:1055000022F490721CBF43E80026002E09D00268E6
:1055100052E8002F036822F4907243E80026002E20
:10552000D7D14FF6FE72CEF6FF72036853E8023F02
:105530000668134046E80235DDB1036853E8023FD0
:105540000668134046E80235002D1FBF036853E884
:10555000023F066813401CBF46E80235002D08D004
:10556000036853E8023F0668134046E80235002D01
:10557000DBD12022C0F88C200022C266426702687C
:1055800052E8002F036822F0100243E80026F6B12B
:10559000026852E8002F036822F0100243E8002658
:1055A000002E1FBF026852E8002F036822F010028D
:1055B0001CBF43E80026002E09D0026852E8002FE5
:1055C000036822F0100243E80026002ED7D189B2EA
:1055D00002220267BDE87040FFF72EBC816F0029F0
:1055E0003FF40EADBDE87040084700BFBDE8704015
:1055F000FFF7C2BCD9017FF503ADB2F1FF3FC8BFD1
:1056000070BDBDE87040FFF71BBC0000000000004B
:1056100010B5D8B10446D0F8880028B9002084F825
:105620008400204600F028F82420C4F88800206870
:10563000A16A0268002922F00101016002D020461F
:1056400001F0D6FA204602F00BF908B1012010BD96
:105650002068416821F490414160816821F02A016D
:105660008160016841F0010101602046BDE8104001
:1056700001F02EBB00000000B0B5B8B0044602A88F
:10568000C0210025CDE93655CDE934553395FAF7DB
:105690009EFE44F200412068C4F20001884231D0ED
:1056A00041F20001C4F20101884263D1002003905D
:1056B0000120029002A8FDF7BFFA08B1FBF7C8FD70
:1056C00044F2E0402524C5F6020003224FF4404393
:1056D000016941F010010161016901F010010191BE
:1056E0000199016841F002010160006800F00200C8
:1056F000019000200199C5F60200042100F58060A8
:1057000026E000BF0220029002A80395FDF794FA5C
:1057100008B1FBF79DFD44F2E0402624C5F60200E7
:1057200000220C23816841F400318160816801F41A
:10573000003101910199016841F0010101600068A7
:10574000072100F00100019001980020C5F6020039
:10575000379133A93393022334930023CDE93532B3
:10576000FCF7E2FA002100222046FDF7C1F82046AE
:10577000FDF7AAF838B0B0BDD0F88C30202B07D197
:105780000123002918BF002A06D11846704700BF20
:1057900002231846704700BF80B50023C36640F659
:1057A0000043D0F800C0C5F600039C4503D0DCF8E8
:1057B00004301B0204D402F097FA002080BD00BF21
:1057C000036853E800CFD0F800E04CF080634EE867
:1057D000003CBCF1000FEED0036853E800CFD0F8D6
:1057E00000E04CF080634EE8003CBCF1000F1FBFAE
:1057F000036853E800CFD0F800E04CF080631CBF92
:105800004EE8003CBCF1000FD5D0036853E800CF50
:10581000D0F800E04CF080634EE8003CBCF1000F93
:10582000CED1C8E70000000044F200420168C4F293
:105830000002914218BF7047B0B541F6CC0441F662
:10584000CE02C2F20044C2F2004205461046217860
:1058500000F0F2FF012228462146BDE8B040FFF7E4
:105860008BBF0000000000002DE9F04381B004462A
:10587000D0F88800202807D10120002918BF002A6D
:1058800006D101B0BDE8F083022001B0BDE8F0838D
:105890001D460E460020C4F890002120C4F8880060
:1058A0001746FCF725FBA4F854708146A4F85670FF
:1058B000A168B1F5805F02D12069002866D0374623
:1058C0000020B4F856100029216867D06A1C28D03F
:1058D000002D53D0804600BFC86900060AD4FCF7EB
:1058E00007FBA0EB0900A84200F284802168086849
:1058F000F2E700BF17B117F8010B04E038F8020B0C
:1059000000276FF35F208862B4F856000138A4F8CE
:105910005600B4F856000028DED13FE0CA691206EE
:1059200009D4CA69120606D4CA6912065CBFCA69DC
:105930005FEA0262F2D51FB117F8012B05E000BF44
:1059400030F8022B00276FF35F228A62B4F85620EA
:10595000013AA4F85620B4F85620002AE1D11DE0FF
:1059600030F8022B00276FF35F228A62B4F85620CA
:10597000013AA4F85620B4F856207AB1CA69120642
:1059800036D5002FECD017F8012BEEE70027304674
:10599000B4F85610002921687FF498AFC869400612
:1059A0001ED42DB3681C14D1C86940062AD4C86916
:1059B000400627D4C869400624D4C86940064FF081
:1059C0000000F1D50DE000BF20680168C069400605
:1059D00018D4FCF78DFAA0EB0900A842F4D909E02D
:1059E00000202021C4F8881001B0BDE8F08300BF7A
:1059F000FCF77EFA03202021C4F8881001B0BDE82E
:105A0000F08300BF00202021C4F8881001B0BDE859
:105A1000F08300000000000070470000000000005C
:105A2000FEE700000000000070B5044600688369CE
:105A3000DB0603D40021002269E000BF0E461021DE
:105A4000C161816989065ED4711C52D0154636BB8E
:105A5000FCF74EFA2068426894F8421083691B04F0
:105A60000CD512F4804209D1202907D0416841F4B5
:105A700080414160FCF73CFA054600BF206881691F
:105A8000890605D4FCF734FA401B1A28F6D328E01F
:105A900081698906DCD536E08169890633D4FCF753
:105AA00027FA401BB0422068F6D9426894F84210A9
:105AB00083691B040CD512F4804209D1202907D038
:105AC000416841F480414160FCF712FA054600BF8D
:105AD000206881698906DFD4FCF70AFA401B1A287E
