:020000040800F2
:1000000060830020AD02000889BF000821B000080D
:1000100081BF0008A14D0008C1E9000800000000F0
:10002000000000000000000000000000F1C6000811
:10003000A94D000800000000D1BF0008D1CD000884
:10004000CB020008CB020008CB020008CB0200085C
:10005000CB020008CB020008CB020008CB0200084C
:10006000CB020008CB020008CB020008CB0200083C
:10007000CB020008CB020008CB020008CB0200082C
:10008000CB020008CB020008B9170008CB02000819
:10009000CB020008CB020008CB020008B14D0008DB
:1000A000CB020008CB020008CB020008CB020008FC
:1000B00019D10008CB020008CB020008CB020008CF
:1000C000CB020008CB020008CB020008CB020008DC
:1000D000CB020008A1E90008B1E90008CB02000842
:1000E000CB020008CB02000800000000CB02000891
:1000F000CB020008CB020008CB020008CB020008AC
:10010000CB020008CB020008CB020008CB0200089B
:1001100099D20008B9D2000829D1000839D10008C5
:10012000CB020008CB020008CB020008CB0200087B
:10013000CB020008CB020008CB020008CB0200086B
:1001400000000000000000000000000000000000AF
:10015000CB020008CB020008CB020008CB0200084B
:10016000CB020008CB020008CB020008CB0200083B
:10017000CB020008CB020008CB0200080000000000
:10018000CB020008CB020008CB020008CB0200081B
:10019000CB020008CB020008CB020008CB0200080B
:1001A000CB020008CB020008CB020008CB020008FB
:1001B000CB020008CB020008CB020008CB020008EB
:1001C000CB020008CB020008CB020008CB020008DB
:1001D000CB020008CB020008CB020008CB020008CB
:1001E000CB020008CB020008CB020008CB020008BB
:1001F000CB020008CB020008CB020008CB020008AB
:10020000CB020008CB020008CB020008CB0200089A
:10021000CB020008CB020008CB020008CB0200088A
:10022000CB020008CB020008CB020008000000004F
:10023000CB020008CB02000800000000CB0200083F
:10024000CB020008CB020008CB020008CB0200085A
:10025000CB020008CB020008CB020008CB0200084A
:10026000CB020008CB020008CB020008CB0200083A
:10027000CB020008CB020008CB02000800000000FF
:10028000CB020008CB020008CB02000800000000EF
:1002900000000000CB020008DFF80CD000F0C0FE28
:1002A000004800474944050860830020074880470C
:1002B0000748804707480047FEE7FEE7FEE7FEE7FE
:1002C000FEE7FEE7FEE7FEE7FEE7FEE7C94D0008B2
:1002D000E9CE0008990200082DE9F05F05460020EC
:1002E00092469B4688460646814640241BE02846A7
:1002F00041464746224600F0D5FB53465A46C01AAF
:10030000914110D311461846224600F0BCFB2D1A2D
:1003100067EB01084F4622460120002100F0B3FBA5
:1003200017EB00094E41201EA4F10104DFDC484612
:1003300031462A464346BDE8F09F2DE9F0410024AE
:10034000061B254671F1000605DA01240027D0EBD3
:10035000070067EB0101161E73F1000605DA00279E
:10036000D2EB0702012567EB0303FFF7B5FF8646D3
:100370000E4617469C46AC4204D00025D0EB050E35
:1003800065EB010624B10020D2EB000760EB030C03
:10039000704631463A466346BDE8F08140EA0103C3
:1003A0009B0703D009E008C9121F08C0042AFAD22B
:1003B00003E011F8013B00F8013B521EF9D27047EF
:1003C000D2B201E000F8012B491EFBD27047002297
:1003D000F6E710B513460A4604461946FFF7F0FF44
:1003E000204610BD30B505462A460B4612F8010BD3
:1003F00013F8014B08B1A042F8D01CB1002802D07C
:100400006D1CF1E7284630BD10B5044604E00B78BA
:1004100000F8013B03B1491C521EF8D2204610BD22
:10042000421C10F8011B0029FBD1801A704710B53F
:10043000002200E0521C835C8C5CA34201D1002BA3
:10044000F8D1D8B2E1B2401A10BD034611F8012B21
:1004500000F8012B002AF9D11846704730B505463F
:100460000020034600E05B1C934205D2EC5CC85CB4
:10047000201A01D1002CF6D130BD00000FB400B518
:100480008DB010A909900B9000914FF0FF300A90A9
:1004900000200C9005480690054807906A4609A878
:1004A0000F9900F023FB0DB05DF814FB090B000859
:1004B000270B00082DE9FF5F1D464FF0FF3BD5E9F4
:1004C000014691465F464FF00008A9697F1C0198DC
:1004D0008847296A824688470028F6D1BAF1FF3F4B
:1004E0000CD024F4C064002E19DD600614D5BAF1D6
:1004F0002B0F09D0BAF12D0F0ED103E0584604B0EE
:10050000BDE8F09F44F48064A9697F1C0198884786
:10051000761E8246002E02DDBAF1300F03D0B9F10B
:10052000000F26D032E0A969761E44F400747F1CC7
:10053000019888478246002E05DDBAF1780F06D073
:10054000BAF1580F03D0B9F1000F10D01EE0B9F185
:10055000000F02D0B9F1100F18D1A969761E24F44A
:1005600000747F1C019888478246102002E0082012
:1005700000E00A20814609E008FB0908A969761E07
:1005800044F400747F1C019888478246002E05DDE4
:100590004946504600F096FA0028EDDAE9690198DC
:1005A0008847A00502D46FF00100A8E7E00725D135
:1005B000600613D5600502D5C8F1000000E0404692
:1005C00029680A1D2A600968220501D5087015E00E
:1005D000220701D5088011E008600FE02868011D9E
:1005E00029600068210502D580F8008006E0210717
:1005F00002D5A0F8008001E0C0F8008038467EE710
:100600002DE9FF5FD2E901A74FF0000891699946F3
:100610001446DDF838B0464601988847054659EA41
:100620000B0005D009E0A169761C019888470546B2
:10063000216A284688470028F5D1681C03D05FEA64
:10064000CA7005D015E04FF0FF3004B0BDE8F09F50
:100650002068011D2160D0F800800AE05FEACA70BE
:1006600001D108F8015BA169761C7F1E01988847BB
:100670000546002F1ADD681C18D0B9F1000F0DD007
:10068000E81705EBD060421120F01F0059F8221046
:100690002A1A012090400142E0D107E0BBF1000F8F
:1006A000DCD1216A284688470028D7D0E169019823
:1006B0008847BBF1000F07D1002E05DD5FEACA7045
:1006C00002D1002188F80010A068B84203DDBBF118
:1006D000000F03D017B16FF00100B6E73046B4E762
:1006E0002DE9FF4F087883B09946FF2805D0491CB3
:1006F0002D2804D00024002008E000200BE0012475
:10070000F9E700EB800003EB4000491C0B78FF2B5E
:10071000F7D104B1404200230293147819461D46D4
:100720002D2C01D02B2C04D1521C2D2C13D00024A5
:100730000294AA461478FF2C0FD00A25A3FB057853
:1007400001FB05814FF0000C03FB0C11521CE31957
:100750004AEB0101EEE70124EAE7814453EA010094
:1007600002D019F5C87F06DA03980021C0E900110C
:1007700007B0BDE8F08F0025AE4E2F46DFF8B882F7
:10078000184600F0F5FBCDE90001B9F1000002DAEE
:10079000C9F1000400E004460023A74A1AEB030B4A
:1007A00042EB045A12E0E00707D02A4633463846A7
:1007B000414600F0FCFA074688462A463346104672
:1007C000194600F0F4FA05460E466410002CEAD1F2
:1007D000DDE90001B9F1000F5A46534606DA00F090
:1007E00058FB3A46434600F054FB05E000F0DFFAC0
:1007F0003A46434600F0DBFA029A0AB181F0004122
:10080000039AC2E90001B3E72DE9FF4F1F468DB0FF
:10081000D7E901464FF0FF382E2045464FF000093A
:100820000B90B9696D1C0E988847396A82468847D3
:100830000028F6D1BAF1FF3F0AD024F4D064002E8C
:1008400011DDBAF12B0F08D0BAF12D0F0BD102E058
:10085000404611B08DE744F48064B9696D1C0E9870
:1008600088478246761E6946600501D52D2000E046
:100870002B208DF8000001F1010B0DF1200809E09B
:10088000B9696D1C0E98884782460F9844F400742D
:10089000761E0560002E02DDBAF1300FF0D00B9904
:1008A0008A453ED144F0800406E00F99681CA9F106
:1008B000010944F400740860B9696D1C761E0E9835
:1008C000884782463028F0D02BE00B998A4505D125
:1008D000200603D444F08004761E18E0504667F0EA
:1008E000B5FC08B30DF11302761EAAF1300044F4F2
:1008F0000074934506D20BF8010B200607D5A9F129
:10090000010003E0200602D409F101008146A005A0
:1009100002D50F99681C0860B9696D1C0E9888474C
:100920008246002ED1DC53E0002E51DDBAF1650F76
:1009300002D0BAF1450F4BD1A00549D5B9696D1C5C
:1009400024F44074761E0E9888478246002E0CDDF3
:100950002B2804D0BAF12D0F07D144F48074B96963
:100960006D1C0E9888478246761EE00501D52D2124
:1009700000E02B2108F8011BCDF82C8021E00DF1BF
:100980002901761E44F4007488450CD2AAF1300087
:1009900010F0FF0088F8000002D10B99884509D9B2
:1009A00008F1010806E0E00501D5244801E042F223
:1009B0000F708146B9696D1C0E98884782460F9862
:1009C0000560002E04DD504667F040FC0028D6D1BB
:1009D000F9690E988847FF208BF8000088F800001E
:1009E0000020069007904B466A4608A906A8FFF724
:1009F00077FEA00502D46FF001002AE714F0240F5F
:100A00000AD0E00714D1DDE906123868031D3B6007
:100A10000068C0E900120BE0DDE9060100F0E4FA2D
:100A20000146E00704D13868021D3A6000680160A1
:100A300028460EE7000014400000F03FF1D8FFFF09
:100A400070B5064667F098FA046805460A22002148
:100A5000304600F0CDF82C6070BD30B50B46014635
:100A600000202022012409E021FA02F59D4205D34D
:100A700003FA02F5491B04FA02F52844151EA2F1F7
:100A80000102F1DC30BD202A04DB203A00FA02F139
:100A9000002070479140C2F1200320FA03F319436C
:100AA00090407047202A04DB203A21FA02F000210E
:100AB000704721FA02F3D040C2F12002914008436E
:100AC000194670473A2800D2303820F02002412AD7
:100AD00001D3A2F13700884201D34FF0FF307047B5
:100AE000026811441378016018467047D1600449C8
:100AF00051610449116200211161114600F0C8BA28
:100B0000E10A00087D100008426842B1016811F84E
:100B1000013B23B1521EC0E9001218467047012163
:100B2000C160881E704742685AB1C368016843B902
:100B300083688B4205D0491E521CC0E90012002078
:100B400070474FF0FF3070470FB40B0010B58AB0FC
:100B50000FA900910E994FF00004234ACC60214C5C
:100B6000CDE9064200D004236FF00042CDE9013206
:100B70001E4A089202466B460020FFF745FE0AB067
:100B800010BC5DF814FBF0B585B007464FF0FF30A0
:100B90000091CDE901011E46002015460C46049047
:100BA0003B466A46314604A8FFF7CEFF0499034648
:100BB000601825B109B1024600E022462A600029EA
:100BC0000ED0002B02DD0099814209D00094001B59
:100BD000CDE901043B466A46314604A8FFF7B4FF5D
:100BE00005B0F0BD090B0008270B00087D100008B8
:100BF0002DE9F04791460F4680460446002614F83A
:100C0000015B2DB100F036FA0068405DC007F6D1F7
:100C10002B2D02D02D2D18D0641E4A463946204671
:100C200000F0CCFB27B13968A14201D1C7F80080A0
:100C300071054FF002040BD54042002803DD67F038
:100C40009BF90460A007BDE8F08746F48066E4E7FE
:100C50000028F8DA67F090F904606FF00040F2E7DE
:100C60002DE9FE4F804681EA0300C00F0C4600903C
:100C700021F0004123F00045B8EB0200A94105D264
:100C80004046214690461C460B46024623F0004053
:100C9000104347D0270DC7F30A00C3F30A5102904F
:100CA000401A019040286BDAC3F3130040F4801B14
:100CB0000098924620B10023D2EB030A63EB0B0BA2
:100CC00001985946C0F140025046FFF7DCFE064647
:100CD0000D4650465946019A00F0BAF910EB08004B
:100CE0006141002487EA115284EAE7731A4340D035
:100CF000009A62B3019A012A4FEA075215DC001BE1
:100D000061EB02014FF0004202EA0752CDE90042D6
:100D1000001C41F5801132462B4600F0E4FB03B085
:100D2000BDE8F08F40462146F9E7001B61EB020168
:100D3000001C41F5801300185B412018A2F5001734
:100D400047EB030140EAD570B6196D4111E06D081B
:100D50004FEA360645EAC0754FEA0752001B61EBC1
:100D60000201001C41F5801149084FEA30000019CA
:100D7000514132462B4603B0BDE8F04F00F0A4BB12
:100D80000098012240000023D0EB020263EBE073E5
:100D9000009821464FEAE074B8EB000061EB0401D3
:100DA000E9E783F000435BE781F0004158E72DE974
:100DB000FE4F81EA030404F0004421F00041009456
:100DC0004FF0000B23F0004350EA01045ED052EADA
:100DD00003045BD0C3F30A54C1F30A552C44A4F2B4
:100DE000F3340194A0FB0254C1F3130141F48011C8
:100DF000C3F3130343F4801301FB024400FB034ECF
:100E0000840A970A44EA815447EA8357A4FB076897
:100E100002958D0A05FB07854FEA932C04FB0C54C1
:100E20002705029D4FEA065847EA1637B5EB080535
:100E30006EEB070C870E920E47EA811742EA831287
:100E4000A7FB0201B6EB0B0164EB00042B0D43EA98
:100E50000C335E1844EB1C50DA465146E7FB0201A6
:100E6000C5F313044FEA0B3343EA14534FEA043239
:100E7000019C43EA0603A4F10C040294009CCDE912
:100E800000B400F030FB03B0BDE8F08F0020014655
:100E9000F9E72DE9F04D81EA030404F0004B21F05D
:100EA000004514464FF0000A23F0004150EA0502C5
:100EB00020D054EA01021DD0C5F30A570246C5F3FB
:100EC0001303C1F31300C1F30A5640F4801543F431
:100ED0008013A7EB0608101BD64608F2FD3873EB0B
:100EE000050002D308F1010801E092185B41B8F156
:100EF000000F03DA00200146BDE8F08D00204FF41A
:100F00008011064684460EE0171B73EB050705D3D8
:100F1000121B63EB050306434CEA010C49084FEA38
:100F2000300092185B4150EA0107EDD152EA03000C
:100F300012D082EA040083EA0501084305D0101BA1
:100F4000AB4106D20122002306E000224FF000430D
:100F500002E06FF0010253101AEB06004CEB08514F
:100F600010EB0A0041EB0B01BDE8F04D00F0ACBA0C
:100F70000EB540F2334202920022CDE90022134620
:100F800000F0B1FA03B000BDC1F30A52C1F313017E
:100F900040F2FF3341F480119A4202DA0020014608
:100FA000704740F233439A42A2F2334202DC52428B
:100FB000FFF778BDFFF767BD30B5041E71F100047F
:100FC00004DB4FF00044404264EB0101141E73F156
:100FD000000405DB1C464FF00043524263EB040360
:100FE000994208BF904230BD01F0004330B421F077
:100FF000004150EA010206D00A0DA2F56072C1F369
:101000001301002A02DC30BC00207047440F44EA80
:10101000C104C100E01830BC00EBC25000F01DBAA2
:101020001CB509480090094801900546009C06E05F
:10103000E06840F0010394E8070098471034AC42A0
:10104000F6D3FFF72DF90000D0E70F0800E80F08EE
:10105000202A06DBCB17203A41FA02F043EAE0737C
:1010600006E041FA02F3D040C2F120029140084369
:101070001946704700487047108B060810B50446A3
:10108000FFF7F8FF0068005D00F0010010BD0000F0
:101090002DE9F34F8BB04FF0000801F10C000C4626
:1010A0004FF0010B46460DF1080A019062690121DB
:1010B00001989047051E2DD0252D2CD0216A8847F8
:1010C000C0B16269012101989047216A88470028D0
:1010D000F7D1411E62690198904700E0761CA16932
:1010E0000B988847216A88470028F7D1E1690B9857
:1010F0008847DBE7A1690B9888470746A84201D1DA
:10110000761CD3E7E1690B9888477F1C02D1B8F1C0
:10111000000F6FD046E1002762693D4639460198CD
:1011200090472A2804D1626901210198904701253E
:10113000DFF884926269012101989047A0F13001A3
:101140000A290AD24F45E5DC07EB870100EB41078E
:10115000303FDFD445F01005ECE7E90601D46FF02D
:1011600000476C280AD04C2814D0682815D06A286B
:101170000DD074281CD07A281AD01DE06269012194
:10118000019890476C2802D045F0040514E045F022
:1011900002050DE045F020050AE062690121019891
:1011A0009047682802D045F0080505E045F4006541
:1011B0006269012101989047C4E9015765283DD033
:1011C00019DC58287AD00CDC452837D004DC2528D7
:1011D00026D0412831D131E046282FD047282CD1C4
:1011E0002CE05B2877D0612828D063287CD0642845
:1011F00023D15AE0D0E06F2848D008DC66281DD003
:1012000067281BD0692821D06E2816D127E07028C6
:1012100045D0732868D0752847D078280DD14DE087
:10122000A1690B988847054625283FF469AFE16915
:101230000B9888476D1C3FF46AAFB3E023466A46BB
:101240006FF001000B99FFF7DFFA9EE045F04000D8
:101250006060A80723464FF0000236D43EE0E8075E
:101260007FF447AF2068011D21600068290501D582
:1012700006701BE7290701D5068017E7A90703D5E4
:10128000F117C0E9006111E706600FE745F0400083
:101290006060A80723464FF0080216D41EE040F60F
:1012A0000E0125EA0100606016E045F04000606034
:1012B000A80723464FF00A0207D40FE045F040008C
:1012C0006060A80708D5234610226FF001000B9933
:1012D000AFF3008059E007E0234610226FF00100D1
:1012E0000B99FFF7E7F850E04FF000094F464B46E7
:1012F000632802D05B2806D040E0E80601D4012034
:10130000A06001273AE062690121019890475E28B8
:1013100005D14FF00109626949460198904721695A
:1013200039B900210A46534643F82120491C0829AF
:10133000FADBB0B3216969B9C11700EBD16253116F
:101340000AEB830122F01F02821A01200B689040F1
:1013500003430B6062690121019890475D28E8D141
:10136000B9F1000F09D00020514651F82020D24396
:1013700041F82020401C0828F7DB02AB22460097EA
:101380006FF001000B99FFF73BF900280CDA401CC5
:1013900008D1BBF1000F05D04FF0FF300DB0BDE814
:1013A000F08FFFE74046F9E7E90701D108F10108AE
:1013B00006444FF0000B79E6CCCCCC0C2DE9F05F65
:1013C00082460078002715468B460AF10104B9468B
:1013D000302801D09DB113E014F8010B01277828C3
:1013E00003D0582801D045B10AE00DB1102D07D126
:1013F0000027102514F8010B02E0082500E00A255B
:101400000026B0460EE005FB080005FB06F10127AB
:1014100001EB10461FFA80F8B6F5803F00D3B946BD
:1014200014F8010B2946FFF74DFB0028EBDABBF15E
:10143000000F05D00FB1641E00E05446CBF8004009
:10144000B9F1000F06D066F097FD02210160C81EB9
:10145000BDE8F09F48EA0640FAE70029A8BF7047B8
:10146000401C490008BF20F00100704710B4B0FADA
:1014700080FC00FA0CF050EA010404BF10BC704775
:1014800049B1CCF1200421FA04F411FA0CF118BF8F
:10149000012121430843A3EB0C01CB1D4FEA00615E
:1014A0004FEA102042BF002010BC704700EBC35031
:1014B00010440029A4BF10BC7047401C490008BF5D
:1014C00020F0010010BC704710B5141E73F1000429
:1014D00008DA401C41F1000192185B411A4301D126
:1014E00020F0010010BD2DE9F04D92469B4611B150
:1014F000B1FA81F202E0B0FA80F220329046FFF7B2
:10150000C2FA04460F4640EA0A0041EA0B0153467C
:101510005A46084313D0114653EA010019D0C8F1C6
:1015200040025046FFF7BEFA05460E465046594661
:101530004246FFF7A8FA084305D0012004E0204600
:101540003946BDE8F08D0020054346EAE0762C439D
:1015500037430A986305E40AA0EB08000022FD0A5D
:1015600044EA47540A3002D500200146E9E7010564
:1015700010196941DDE9084500196941BDE8F04DE0
:10158000A2E770B58C1810F8015B15F0070301D1C4
:1015900010F8013B2A1106D110F8012B03E010F8D6
:1015A000016B01F8016B5B1EF9D12B0705D40023F9
:1015B000521E0DD401F8013BFAE710F8013BCB1A9B
:1015C000921C03E013F8015B01F8015B521EF9D590
:1015D000A142D8D3002070BDB0B50446006842F2E5
:1015E000001140F48070C4F20201884218D142F226
:1015F0000830C4F20200006810F4403F18D007F031
:101600009FFA61680546B1F5803F05D0B1F5403FCE
:101610002CD0B1F5003F2AD1080CB5FBF0F526E03F
:1016200046F20830C5F60200006810F4403FE6D1EB
:101630004FF40020002106F0CBF961680546A1F5C2
:1016400080224FEAB2420A2A11D8DFE802F00707E7
:101650000707070755535951570000BF6FF00100A6
:1016600000EA5140B5FBF0F501E000BFAD0805F020
:10167000A7F841F2030188420ED8206842F60151D2
:10168000C0F231118D4281682CBF41F4807121F488
:1016900080718160B0BD00BF4BF62140C0F2BE003A
:1016A000854205D82068816821F440718160B0BD11
:1016B00047F64100C0F27D10854207D8206801221C
:1016C000816862F309218160B0BD00BF20684FF2DC
:1016D0008101C0F2FA218D42816805D8022262F3AD
:1016E00009218160B0BD00BF41F440718160B0BD8F
:1016F000ED09BCE76D09BAE72D09B8E72D0AB6E791
:10170000AD09B4E700000000F0B581B00446006800
:101710008168C9074AD14FF6C0778168C7F6FF775D
:1017200007F17F0211420BD0606D40F01000606540
:10173000A06D40F00100A065012001B0F0BD00BF28
:101740008168394041F00101816005F041F842F2C1
:10175000000246F20836C4F20202216802F58073E4
:1017600002F54275C5F60206994208BF2E4691421F
:1017700008BF2E4699420546306814D110F01F006C
:1017800014D110E08868C00704D18868384040F060
:101790000100886005F01CF8401B2168032802D373
:1017A0000868C007C0D00868C007EBD0002001B0AF
:1017B000F0BD00000000000042F2B850C2F200008C
:1017C00003F0B6BE0000000000F01EFA00F0FCF9C5
:1017D00000F092F900F0D4F900F002F900F02CF9D1
:1017E00000F032FA00F0A8F900F04AF964F0A8FD20
:1017F000FEE700000000000080B584B0844642F29D
:101800001870CDE90012C2F20000A1210223642267
:101810000292624605F04CFA002818BF012004B07D
:1018200080BD00000000000040F2C43B4CF2565462
:101830004CF2E6694CF259664CF225474CF2D965F8
:101840004FF00008C2F2000BC0F60704C0F607090B
:10185000C0F60706C0F60707C0F607050FE000BF91
:1018600020464946324666F049FB2AA066F046FB10
:101870003846294666F042FB00F00AFAE0B1DBF890
:1018800000004FF0FF3165F0EFFB0128F7D166F063
:101890003BF8B8F1000F8246E2D049F2E031AAEB02
:1018A0000800C0F204018842DAD2204609A10BA246
:1018B00066F024FB0AA006E020464946324666F060
:1018C0001DFB1EA0D04666F019FB3846294666F07F
:1018D00015FBD4E71B5B303B33316D005B455D008E
:1018E000416C61726D20747269676765726564200E
:1018F0006275742069676E6F726564206475652017
:10190000746F20352D6D696E20636F6F6C646F7717
:101910006E2E0000436F6E646974696F6E206D6592
:10192000742C2073656E64696E6720656D657267DF
:10193000656E637920534D532E2E2E00534D532048
:1019400073656E742E20436F6F6C646F776E2073B7
:101950007461727465642E0010B540F2200E002987
:10196000C2F2000E0146DEF8000038D0A1F1C90332
:1019700013F1A00F38BF10BD40F2805C0B1AC2F209
:10198000000C6FF0040248BF5B428142C8BF0522D1
:101990009CF800401E2B88BF1118601C8CF80000BA
:1019A000C2B20EEB8403052A596002D300208CF8E2
:1019B00000000EF1040207CA0844DEF810101044BB
:1019C000DEF81420084446F267611044C6F26661EE
:1019D00050FB01F0411001EBD070CEF8000010BDBB
:1019E00010B582B040F2C434C2F20004206828B9B5
:1019F00001200021032264F013FF206041F629003A
:101A000007A1C0F600004FF48072002304344FF0A9
:101A10000C0CCDE900C465F0BBFC02B010BD00BFEA
:101A2000416C61726D5F4E6F746966795F5461736A
:101A30006B0000000000000080B582B002F0D4FB13
:101A400002F036FE02F0B8FB4BF2614044F24C3C2F
:101A5000C0F6000006A14FF400620023C2F2000CA1
:101A60004FF0080ECDE900EC65F092FC02B080BDAD
:101A70004C76676C5F5461736B00000000000000DF
:101A8000B0B582B002F058FF40F2B835C2F200059E
:101A9000286828B901200021032264F0C1FE2860D3
:101AA0004BF261600EA1C0F600004FF4807200237B
:101AB0002C1D4FF00F0CCDE900C465F069FC4BF212
:101AC000A9400AA1C0F600004FF480720023083537
:101AD0000724CDE9004565F05BFC02B0B0BD00BF56
:101AE0004D33303130325F436F6C6C004D333031E9
:101AF00030325F43616C630080B582B000F0C8FB98
:101B00004CF2892044F2503CC0F6000006A14FF48C
:101B100080720023C2F2000C4FF0040ECDE900ECFD
:101B200065F036FC02B080BD5254435F416C617277
:101B30006D5F5461736B000010B582B040F2CC341D
:101B4000C2F20004206828B901200021032264F0B9
:101B500067FE20604CF2493007A1C0F600004FF448
:101B60008072002304344FF00A0CCDE900C465F004
:101B70000FFC02B010BD00BF526164617200000032
:101B800080B582B000F0F8F800F002FB02F0F0FF40
:101B90004CF2117044F2543CC0F6000006A14FF420
:101BA00080720023C2F2000C4FF0050ECDE900EC6C
:101BB00065F0EEFB02B080BD53656E736F725F54CB
:101BC00061736B000000000080B582B04CF62140CC
:101BD00044F2583CC0F6000006A14FF40072002306
:101BE000C2F2000C4FF0020ECDE900EC65F0D0FB24
:101BF00002B080BD53796E635F4E65746461746139
:101C00005F5461736B00000080B582B04CF6D970F0
:101C100044F25C3CC0F6000006A14FF48072002341
:101C2000C2F2000C4FF0010ECDE900EC65F0B0FB04
:101C300002B080BD53797374656D5F4D6F6E6974CA
:101C40006F725F5461736B0010B582B040F2D43490
:101C5000C2F20004206828B90A200121002264F0A1
:101C6000DFFD20604EF6C91007A1C0F600004FF45A
:101C70008072002304344FF00A0CCDE900C465F0F3
:101C800087FB02B010BD00BF566F6963650000009E
:101C9000B0B5C0B042F6102422A1C2F200040B225B
:101CA0006423204609F0E0F8C92000F0E5FE20A1F9
:101CB00014226423204609F0D7F8C92000F0DCFE86
:101CC00040F290026D4620A1C2F20002284666F062
:101CD0003FF92846FEF7A4FB82B26423204629463A
:101CE00009F0C2F8C92000F0C7FE40F2D0021AA1E4
:101CF000C2F20002284666F02BF92846FEF790FB58
:101D000082B264232046294609F0AEF8C92000F0CB
:101D1000B3FE13A101226423204609F0A5F8002098
:101D200040B0B0BD41542B434D47463D310D0A00F4
:101D300041542B43534D503D34392C3136372C30E0
:101D40002C380D0A0000000041542B434D47533DF1
:101D5000222573220D0A000025730D0A00000000E1
:101D60001A0000000000000040F69410C2F20000CB
:101D7000103070470000000080B540F694104BF61C
:101D8000B171C2F200004BF69172C0F60001C0F6CC
:101D90000002016042F69111426042F21C62C0F6FC
:101DA0000001C2F20002C0E9021270210177052091
:101DB00000F0EEFD002080BD2DE9F04184B040F63A
:101DC000941443F2AC30C2F2000403900020CDF82A
:101DD00007000190207F2568E36803A90322A84734
:101DE00048B9A16855208847207F01A96568072266
:101DF000E368A84720B1012004B0BDE8F08100BF2E
:101E00009DF904E031216FEA0E00BEF1000F81EA76
:101E1000400248BF420050B25300002848BF81EA48
:101E2000420358B25A00002848BF81EA430250B228
:101E30005300002848BF81EA420358B25A000028E4
:101E400048BF81EA430250B25300002848BF81EAEC
:101E5000420358B25A00002848BF81EA430250B2F8
:101E60005300002848BF81EA42039DF805C083EA79
:101E70000C0042B24300002A48BF81EA400358B236
:101E80005A00002848BF81EA430250B2530000289C
:101E900048BF81EA420358B25A00002848BF81EA8D
:101EA000430250B25300002848BF81EA420358B2AF
:101EB0005A00002848BF81EA430250B2550000286A
:101EC00048BF81EA42059DF8068068B26A00002892
:101ED00048BF81EA450282EA080042B24500002A72
:101EE00048BF81EA400568B26A00002848BF81EA1D
:101EF000450250B25500002848BF81EA420568B249
:101F00006A00002848BF81EA450250B25500002807
:101F100048BF81EA420568B26A00002848BF81EAEA
:101F2000450250B25500002848BF81EA42059DF89D
:101F3000072068B26E00002848BF81EA450686EA9D
:101F4000020045B24600002D48BF81EA400670B24B
:101F50007500002848BF81EA460568B26E00002877
:101F600048BF81EA450670B27500002848BF81EA83
:101F7000460568B26E00002848BF81EA450670B287
:101F80007500002848BF81EA460568B26E00002847
:101F900048BF81EA450670B2750000289DF8080028
:101FA00048BF81EA460545406EB26F00002E48BF2B
:101FB00081EA45077DB27E00002D48BF81EA4706D1
:101FC00075B27700002D48BF81EA46077DB27E00DA
:101FD000002D48BF81EA470675B27700002D48BF43
:101FE00081EA46077DB27E00002D48BF81EA4706A0
:101FF00075B27700002D48BF81EA46077DB27E00AA
:10200000002D48BF81EA47069DF809506E4077B21F
:102010007300002F48BF81EA46035EB25F00002EC6
:1020200048BF81EA43077BB27E00002B48BF81EAAC
:10203000470673B27700002B48BF81EA46077BB2A0
:102040007E00002B48BF81EA470673B27700002B61
:1020500048BF81EA46077BB27E00002B48BF81EA79
:10206000470673B27700002B48BF81EA46079DF808
:102070000A10FBB28B4229D10002C82362F313403D
:102080009FED141A28444FEA0C31584341EA0811D5
:1020900041EA1211642200EE100A01FB02F09FEDEA
:1020A0000E2A84F818E0B8EE400A00EE012A00EE8D
:1020B000100A0020B8EE400A84ED042A20EE010A3E
:1020C00084ED050A04B0BDE8F08100BF022004B031
:1020D000BDE8F08100008035000048C2000000002B
:1020E000B0B582B0FE2842F2141428BFFE20C2F21E
:1020F000000401221F2898BF1F202568E3684109BA
:10210000207401F140008DF80300A07C0DF1030163
:10211000A847207C03212568E36861F35F108DF8F0
:102120000400A07C01A90122A847657C032D17D0DB
:10213000022D0BD0012D1FD110208DF80500A07CA1
:10214000E368D4F800C00DF1050112E011208DF80C
:102150000600A07CE368D4F800C00DF1060108E099
:1021600013208DF80700A07CE368D4F800C00DF1BF
:1021700007010122E047657402B0B0BD0000000015
:1021800042F21410C2F20000143070470000000048
:1021900010B582B042F214144BF6B170C2F20004D2
:1021A000C0F600004BF6917142F21C63206042F6CB
:1021B0009110C0F60001C0F600006160C2F2000399
:1021C000C4E902034620A07440F24520208200208A
:1021D000606101208DF806000DF106014620012204
:1021E00009F0E6FE4520FFF77BFF11208DF8070080
:1021F000A07CE368D4F800C00DF107010122E0479C
:1022000000200221617402B010BD00000000000037
:10221000B0B582B042F214150020C2F20005ADF84C
:1022200006000DF106010222A87C6C68EB68A0474D
:1022300010B1012002B0B0BDBDF8060040F2591146
:102240002A7C40BA484300EE100A02EB42004000EC
:1022500001EE100A687CB8EE400A02284FF0000038
:10226000B8EE411A80EE010AB6EE001A20EE011A0D
:1022700001FE000A85ED050A02B0B0BD00000000B5
:1022800040F28800C2F20000704700000000000029
:1022900010B500248021C5F602040022204604F077
:1022A00087FA04F500602021002204F081FA40F250
:1022B0008800C2F20000BDE8104000F005B900003F
:1022C0002DE9F04186B040F600050646C5F6020548
:1022D0008021A5F5006800224046002704F068FA36
:1022E00020210022284604F063FA80210122404682
:1022F000012404F05DFA022000F07AFB46F00100B0
:1023000000F07EFA102001A9CDE901070320049016
:1023100028460597039404F06FF9202100222846EF
:1023200004F046FA022000F063FB1021284604F076
:1023300037FA01382021B0FA80F0012246092846F8
:1023400004F036FA022000F053FB20210022284638
:1023500004F02EFA022000F04BFB1021284604F076
:102360001FFA01382021B0FA80F00122400946EA24
:102370004006284604F01CFA022000F039FB202118
:102380000022284604F014FA022000F031FB10214C
:10239000284604F005FA01382021B0FA80F0012225
:1023A000400946EA8006284604F002FA022000F0BE
:1023B0001FFB20210022284604F0FAF9022000F039
:1023C00017FB1021284604F0EBF901382021B0FA60
:1023D00080F00122400946EAC006284604F0E8F9E8
:1023E000022000F005FB20210022284604F0E0F93D
:1023F000022000F0FDFA1021284604F0D1F901383E
:102400002021B0FA80F00122400946EA0016284651
:1024100004F0CEF9022000F0EBFA20210022284639
:1024200004F0C6F9022000F0E3FA1021284604F077
:10243000B7F901382021B0FA80F00122400946EABC
:102440004016284604F0B4F9022000F0D1FA202109
:102450000022284604F0ACF9022000F0C9FA10214D
:10246000284604F09DF901382021B0FA80F00122BD
:10247000400946EA8016284604F09AF9022000F046
:10248000B7FA20210022284604F092F9022000F039
:10249000AFFA1021284604F083F901382021B0FA60
:1024A00080F00122400946EAC014284604F080F971
:1024B000022000F09DFA80210022404604F078F9C5
:1024C000E0B206B0BDE8F0812DE9F04100240646F7
:1024D000C5F6020480210022204604F069F904F5C3
:1024E000006520210022284604F062F980210122A3
:1024F000204604F05DF9022000F07AFA8E2000F008
:102500007FF9002000F07CF980210022204604F0B1
:102510004FF9B0794FF0CD08002200FB08F1C90A4D
:1025200001EB410100EB41078021204604F040F916
:1025300020210022284604F03BF980210122204678
:1025400004F036F9022000F053FA802000F058F928
:10255000F8B200F055F980210022204604F028F955
:102560007079002200FB08F1C90A01EB410100EB80
:1025700041078021204604F01BF920210022284633
:1025800004F016F980210122204604F011F90220FE
:1025900000F02EFA822000F033F9F8B200F030F9A2
:1025A00080210022204604F003F93079002200FB4C
:1025B00008F1C90A01EB410100EB410780212046E7
:1025C00004F0F6F820210022284604F0F1F88021DA
:1025D0000122204604F0ECF8022000F009FA8420E1
:1025E00000F00EF9F8B200F00BF98021002220462D
:1025F00004F0DEF8F078002200FB08F1C90A01EBD4
:10260000410100EB41078021204604F0D1F8202150
:102610000022284604F0CCF880210122204604F054
:10262000C7F8022000F0E4F9862000F0E9F8F8B2DB
:1026300000F0E6F880210022204604F0B9F8B078D6
:10264000002200FB08F1C90A01EB410100EB410740
:102650008021204604F0ACF820210022284604F016
:10266000A7F880210122204604F0A2F8022000F001
:10267000BFF9882000F0C4F8F8B200F0C1F880215A
:102680000022204604F094F8F079002200FB08F1C3
:10269000C90A01EB410100EB41078021204604F00B
:1026A00087F820210022284604F082F880210122A8
:1026B000204604F07DF8022000F09AF98A2000F00C
:1026C0009FF8F8B200F09CF880210022204604F028
:1026D0006FF8308841F27B42810851436422490CF3
:1026E00001FB1200672281B251430022890A01EBEB
:1026F000410100EB41068021204604F059F82021D9
:102700000022284604F054F880210122204604F0DB
:102710004FF8022000F06CF98C2000F071F8F0B254
:1027200000F06EF880210022204604F041F880215C
:102730000022204604F03CF820210022284604F024
:1027400037F880210122204604F032F8022000F000
:102750004FF98E2000F054F8802000F051F88021CD
:1027600000222046BDE8F04104F022B8000000003D
:1027700010B504468020FFF7A3FD0109A1EB8101FC
:1027800000EB4100A0718220FFF79AFD0109A1EB47
:10279000810100EB410060718420FFF791FD010988
:1027A000A1EB810100EB410020718620FFF788FD3D
:1027B0000109A1EB810100EB4100E0708820FFF7E7
:1027C0007FFD0109A1EB810100EB4100A0708A208F
:1027D000FFF776FD0109A1EB810100EB4100E071FB
:1027E0008C20FFF76DFD0109A1EB810100EB410099
:1027F0004FF4FA6151FA80F0208010BD0000000013
:10280000B0B586B040F600040021C5F6020405917B
:10281000054603910320049001A92046102201924D
:102820000122029203F0E8FE20210022204603F05C
:10283000BFFF05F001021021204603F0B9FF02207E
:1028400000F0D6F820210122204603F0B1FF02203B
:1028500000F0CEF820210022204603F0A9FFC5F3A6
:1028600040021021204603F0A3FF022000F0C0F830
:1028700020210122204603F09BFF022000F0B8F83F
:1028800020210022204603F093FFC5F3800210218F
:10289000204603F08DFF022000F0AAF8202101223B
:1028A000204603F085FF022000F0A2F8202100223C
:1028B000204603F07DFFC5F3C0021021204603F03F
:1028C00077FF022000F094F820210122204603F037
:1028D0006FFF022000F08CF820210022204603F038
:1028E00067FFC5F300121021204603F061FF0220AC
:1028F00000F07EF820210122204603F059FF02203B
:1029000000F076F820210022204603F051FFC5F3A5
:1029100040121021204603F04BFF022000F068F81F
:1029200020210122204603F043FF022000F060F83E
:1029300020210022204603F03BFFC5F38012102126
:10294000204603F035FF0220ED0900F051F8202168
:102950000122204603F02CFF022000F049F820213C
:102960000022204603F024FF102120462A4603F0CF
:102970001FFF022000F03CF820210122204603F036
:1029800017FF022000F034F806B0B0BD00000000D0
:1029900080B541F2040E40F21803CEF2000EC2F2EE
:1029A0000003DEF80020D3F800C04DF68363C4F2C4
:1029B0001B33ACFB0331890C48434FF47A71484315
:1029C000DEF80010891A81420ED2DEF80010891A52
:1029D00081423EBFDEF80010891A814204D2DEF83F
:1029E0000010891A8142EBD380BD00000000000076
:1029F00080B541F2040E40F21803CEF2000EC2F28E
:102A00000003DEF80020D3F800C04DF68363C4F263
:102A10001B33ACFB0331890C4843DEF80010891AE4
:102A200081420ED2DEF80010891A81423EBFDEF8E4
:102A30000010891A814204D2DEF80010891A8142FE
:102A4000EBD380BD000000004EF6FC5141F20000C7
:102A5000CEF20001CEF200000A6842F080720A60F5
:102A60000168C90701D100214160016841F00101FD
:102A7000016070470000000010B5002808BF10BDBD
:102A8000044664F031FF012CEFF3058118BF0128E3
:102A900004D12046BDE81040FFF77ABF0029F8D1E5
:102AA0002046BDE8104063F053B90000000000006C
:102AB000FFF7CABF00000000B0B5A2B002A8802195
:102AC000FDF785FC4FF47A70FFF7D6FF4CF22040FB
:102AD0004CF24C61C0F60700C0F6070140F6B83270
:102AE00000F0FEF980B14CF256504CF2DE614CF22F
:102AF0005562C0F60700C0F60701C0F6070265F090
:102B0000FDF9BDA019E100BFC1A0C4A141F2883206
:102B100000F0E6F980B14CF256504CF2DE614CF216
:102B20005562C0F60700C0F60701C0F6070265F05F
:102B3000E5F9BCA001E100BF4CF24C61BEA0C0F6BB
:102B4000070140F6B83200F0CBF978B14CF256509C
:102B50004CF2DE614CF25562C0F60700C0F6070188
:102B6000C0F6070265F0CAF9B5A0E6E04CF24C6188
:102B7000B8A0C0F6070140F6B83200F0B1F978B15C
:102B80004CF256504CF2DE614CF25562C0F6070032
:102B9000C0F60701C0F6070265F0B0F9B1A0CCE0BD
:102BA00040F27034C2F20004204600F071F902AD28
:102BB000B1A2402104F1200000902846234665F090
:102BC000ADF94CF24C6144F62062C0F6070128468C
:102BD00000F086F990B14CF256504CF2DE614CF2A6
:102BE0005562C0F60700C0F60701C0F6070265F09F
:102BF00085F94CF2CA40C0F607009EE04CF29330D3
:102C00004CF24C61C0F60700C0F6070140F6B8323E
:102C100000F066F990B14CF256504CF2DE614CF285
:102C20005562C0F60700C0F60701C0F6070265F05E
:102C300065F94CF2DD40C0F607007EE04CF2E4306E
:102C40004CF24C61C0F60700C0F6070140F6B832FE
:102C500000F046F990B14CF256504CF2DE614CF265
:102C60005562C0F60700C0F60701C0F6070265F01E
:102C700045F94CF2F940C0F607005EE04CF2B9307D
:102C80004CF24C61C0F60700C0F6070140F6B832BE
:102C900000F026F990B14CF256504CF2DE614CF245
:102CA0005562C0F60700C0F60701C0F6070265F0DE
:102CB00025F94CF2B240C0F607003EE04CF2F2308B
:102CC0004CF24C61C0F60700C0F6070140F6B8327E
:102CD00000F006F990B14CF256504CF2DE614CF225
:102CE0005562C0F60700C0F60701C0F6070265F09E
:102CF00005F94CF20E50C0F607001EE04CF21340EE
:102D00004CF24C61C0F60700C0F6070140F6B8323D
:102D100000F0E6F800B34CF256504CF2DE614CF293
:102D20005562C0F60700C0F60701C0F6070265F05D
:102D3000E5F84CF29840C0F6070065F05FFE4CF2F3
:102D400025404CF2D961C0F60700C0F6070165F0D6
:102D5000D5F8012022B0B0BD4CF256504CF2E661DD
:102D60004CF25962C0F60700C0F60701C0F6070230
:102D700065F0C4F84CF22A40C0F6070065F03EFE4C
:102D80004CF225404CF2D961C0F60700C0F60701AD
:102D900065F0B4F842F23C30C2F2000000F0A0FB53
:102DA0000028D6D142F23C30C2F2000000F0F8FF19
:102DB00042F22C10C2F2000000F07AF990B14CF20D
:102DC00056504CF2DE614CF25562C0F60700C0F678
:102DD0000701C0F6070265F091F84CF23C50C0F6CE
:102DE0000700AAE742F22C10C2F2000000F0C8FA75
:102DF000002022B0B0BD00BF415420E9809AE4BF5A
:102E0000A1E6B58BE8AF95E5A4B1E8B4A50D000047
:102E100041542B5253540D0A000000007265616446
:102E200079000000E6A8A1E59D97E5A48DE4BD8D9D
:102E3000E5A4B1E8B4A50D00415445300D0A0000E9
:102E40004154453020E8AEBEE7BDAEE5A4B1E8B4DC
:102E5000A50D000041542B43574D4F44453D310DC6
:102E60000A000000E6A8A1E5BC8FE8AEBEE7BDAE53
:102E7000E5A4B1E8B4A50D0041542B43574A415095
:102E80003D222573222C222573220D0A000000000A
:102E900010B50446002040222146FEF7ADFC207804
:102EA000FF2818BF002815D14420208145F25F304B
:102EB000C4F65310606044F65710C4F64610206004
:102EC000206245F25F00C5F24130606253202085E8
:102ED000012010BD0020E07784F83F0010BD000005
:102EE0002DE9F04FC1B015468846044603F070FC4A
:102EF000064654B32046FDF793FA82B242F67C10A0
:102F0000C2F200006423214607F0AEFF4CF2565097
:102F10004CF2E6614CF25962C0F60700C0F60701B8
:102F2000C0F6070264F0EAFF4CF234702146C0F6A6
:102F3000070064F0E3FF4CF225404CF2D961C0F683
:102F40000700C0F6070164F0D9FF03F041FC801BC5
:102F5000A84249D242F2361940F282544CF2254A34
:102F60004CF2D96BC2F20009C2F2000401AFC0F604
:102F7000070AC0F6070B04E003F02AFC801BA842F6
:102F800032D24FF4807248463946234609F064FB3A
:102F90000028F1D14CF256504CF2E6614CF25962E5
:102FA000C0F60700C0F60701C0F6070264F0A6FFEE
:102FB00027A0394664F0A2FF5046594664F09EFFB0
:102FC00038464146FDF70EFA70BB4CF24F61384669
:102FD000C0F60701FDF706FA0028CDD001242046EF
:102FE00041B0BDE8F08F00BF4CF256504CF2E661A4
:102FF0004CF25962C0F60700C0F60701C0F607029E
:1030000064F07CFF22A064F079FF01244CF225409B
:103010004CF2D961C0F60700C0F6070164F06EFFFC
:10302000204641B0BDE8F08F4CF256504CF2E661BC
:103030004CF25962C0F60700C0F60701C0F607025D
:1030400064F05CFF09A0414664F058FF0024DDE70E
:103050004553503832363620E5A484E79086E79B06
:10306000B8E5BA94203A2025730000004553503843
:1030700032363620E6A380E6B58BE588B0E79BAE16
:10308000E6A087E5938DE5BA94203A2025730000E9
:103090004553503832363620E7AD89E5BE85E59395
:1030A0008DE5BA94E8B685E697B60000000000000A
:1030B0002DE9F047AAB04CF20144804642F67C105C
:1030C000C0F60704C2F2000011226423214607F073
:1030D000CBFE4CF256504CF2E6614CF25962C0F60F
:1030E0000700C0F60701C0F6070264F007FF4CF2C4
:1030F00034702146C0F6070064F000FF4CF2254012
:103100004CF2D961C0F60700C0F6070164F0F6FE84
:1031100003F05EFB054603F05BFB401B00097C28C7
:1031200000F2B28042F2361640F284574CF2F65961
:103130004CF24F6AC2F20006C2F2000705ACC0F6BC
:103140000709C0F6070A06E003F042FB401BB0F592
:10315000FA6F80F099808022304621463B4609F084
:103160007BFA0028F0D120464946FDF73BF938B9F3
:1031700020465146FDF736F90028E5D084E000BF2F
:103180004CF2F65105A8C0F60701FDF72BF900280F
:103190007AD008F103010D3008F1040208F10503AB
:1031A00008F10607CDF810808DE88E006CA125AAE5
:1031B0000DF19E03FDF762F9072865D146F24A1129
:1031C000DDF89E00C0F26E0188424FF0000088F8E2
:1031D00002005DD046F24651DDF89E00C0F2620169
:1031E000884257D046F24D11DDF89E00C0F27201C0
:1031F000884251D047F24101DDF89E00C0F27201D1
:1032000088424BD046F24D11DDF89E00C0F27901A4
:10321000884245D047F24A51DDF89E00C0F26E0167
:1032200088423FD047F24A51DDF89E00C0F26C015F
:10323000884239D047F24151DDF89E00C0F2670163
:10324000884233D046F25351DDF89E00C0F270013F
:1032500088422DD046F24F31DDF89E00C0F2740155
:10326000884227D046F64E71DDF89E00C0F2760106
:10327000884221D046F24451DDF89E00C0F263013D
:1032800088421BD001211DE001202AB0BDE8F08753
:10329000012014E0022012E0032010E004200EE0E0
:1032A00005200CE006200AE0072008E0082006E0E0
:1032B000092004E00A2002E00B2000E00C2088F83E
:1032C0000200002146F64D722598C0F26E0290422F
:1032D0004FF0FF0088F807002CD047F25452259891
:1032E000C0F26502904227D046F257522598C0F2AC
:1032F0006402904222D046F654022598C0F275022C
:1033000090421DD047F246222598C0F269029042B1
:1033100018D046F253122598C0F27402904213D08E
:1033200047F253522598C0F26E0290420ED001200F
:1033300010E000BF01200AE0022008E0032006E0C0
:10334000042004E0052002E0062000E0072088F8C1
:1033500007000020002918BF01202AB0BDE8F0872F
:103360002533732025337320256868642025686819
:10337000643A256868643A256868642025686400B2
:103380002DE9F04F85B000284CD0C7794CF2565A41
:103390004CF2E66B4CF25968A7F10801C0F6070A37
:1033A000C0F6070BC0F6070811F1070F0446504698
:1033B0005946424638BF002764F0A0FD4CF2256014
:1033C000C0F6070064F09AFD4CF225494CF2D96131
:1033D000C0F60709C0F60701484664F08FFD504665
:1033E0005946424664F08AFD1FA52188A2782079BB
:1033F000E3786679A47955F82770CDE9000622A014
:103400000294039764F07AFD4CF2D9614846C0F605
:10341000070164F073FD50465946424664F06EFD64
:1034200026A011E04CF256504CF2DE614CF255628F
:10343000C0F60700C0F60701C0F6070264F05EFDA3
:103440004CF62500C0F6070064F058FD4CF225400C
:103450004CF2D961C0F60700C0F6070105B0BDE81F
:10346000F04F64F04BBD00BF86C6070806C70708CB
:10347000BBC6070877C607089AC70708C8C6070863
:103480006CC707081DC70708E5BD93E5898DE6975A
:10349000B6E997B4EFBC9A253034642D25303264F8
:1034A0002D2530326420253032643A253032643A9A
:1034B0002530326420282573290000003D3D3D3D24
:1034C0003D3D3D3D3D3D3D3D3D3D3D3D3D3D3D3D2C
:1034D0003D3D3D3D3D3D3D3D3D3D3D3D0000000010
:1034E0002DE9F04F81B02DED028B84B040F2B03B5E
:1034F0000290C2F2000B42F23610C2F2000000212C
:10350000CBF802108BF8001009F082F84CF25658F4
:103510004CF2E6694CF25966C0F60708C0F6070996
:10352000C0F6070640464946324664F0E7FC4CF6D2
:103530000500C0F6070064F0E1FC4CF225474CF2B0
:10354000D964C0F60707C0F607043846214664F080
:10355000D5FC4CF2F62542F67C10C0F60705C2F207
:1035600000009C226423294607F07EFC4046494621
:10357000324664F0C3FC4CF234702946C0F60700B2
:1035800064F0BCFC3846214664F0B8FC404649462D
:10359000324664F0B3FC0FF2547065F02FFA3846EF
:1035A000214664F0ABFC03F013F9044603F010F974
:1035B000001B41F2873188424FF00108039400F26A
:1035C000118142F2361743F64C74C2F2000740F202
:1035D000FE39C2F200044FF0011605E0012002445A
:1035E000ABF80420100469D0384609F001F800282F
:1035F00000F0CE80384609F017F89BF8001089B12A
:10360000BBF802304B4517D8C5B2BBF80420591C93
:103610007B2DABF80210E054E0D07D2DE2D14FF6C7
:10362000FF70DCE7C1B27B29DED18BF80080CBF8DC
:1036300002602070D8E700BF4CF256554CF2DE61B4
:10364000C0F607054CF255622846C0F60701C0F6E1
:10365000070264F053FC0FF2B06064F04FFC4CF2D0
:10366000254A4CF2D961C0F6070AC0F60701504658
:1036700064F044FC0020CBF802008BF800003846D0
:1036800008F0C6FF4CF2E6614CF259622846C0F6DB
:103690000701C0F6070264F031FC4CF60500C0F6E5
:1036A000070064F02BFC50464FF001164CF2D96134
:1036B000C0F6070164F022FC6AE000BF00206054FD
:1036C000CBF802008BF80000384608F0A1FF4CF25E
:1036D000E6654CF2596A4CF25650C0F60705C0F642
:1036E000070AC0F607002946524664F007FC4CF66C
:1036F0000500C0F6070064F001FC4CF225404CF2D6
:10370000D961C0F60700C0F607010E4664F0F6FB6B
:103710004CF256502946C0F60700524664F0EEFBC4
:103720000FF2046065F06AF94CF225403146C0F6AC
:10373000070064F0E3FB4CF256502946C0F6070040
:1037400052464FF0011664F0D9FB0FF2006021469B
:1037500064F0D4FB4CF225404CF2D961C0F607006E
:10376000C0F6070164F0CAFB029888B120460BF04E
:10377000D7FFD8B10FF2E05105460BF0ADFF0021A5
:103780000BF072FF002840F0C58028460BF03CFF8C
:103790000520FFF771F903F01BF80399401A41F275
:1037A00088318842FFF420AF1AE000BF4CF2565037
:1037B0004CF2DE614CF25562C0F60700C0F607011C
:1037C000C0F6070264F09AFB4CF2F370C0F60700F3
:1037D00064F094FB4CF22540C0F6070066E700BF9A
:1037E0004FF001084FF47A70FFF746F94CF2DD54C0
:1037F00042F67C10C0F60704C2F2000003226423E4
:10380000214607F031FB4CF256504CF2E6614CF287
:103810005962C0F60700C0F60701C0F6070264F05F
:103820006DFB4CF234702146C0F6070064F066FB75
:103830004CF225404CF2D961C0F60700C0F60701F2
:1038400064F05CFB4FF47A70FFF716F94CF22040FD
:103850004CF24C61C0F60700C0F607014FF4FA6263
:10386000FFF73EFBE8B14CF256504CF2DE614CF2F1
:103870005562C0F60700C0F60701C0F6070264F003
:103880003DFB4CF27240C0F6070065F0B7F84CF211
:1038900025404CF2D961C0F60700C0F6070164F07C
:1038A0002DFB4CF25650B8F1000FC0F607000FD0B8
:1038B0004CF2DE614CF25562C0F60701C0F6070219
:1038C00064F01CFB4CF228500124C0F607000EE007
:1038D0004CF2E6614CF25962C0F60701C0F60702ED
:1038E00064F00CFB4CF258400024C0F6070065F071
:1038F00085F84CF225404CF2D961C0F60700C0F6BD
:10390000070164F0FBFA204604B0BDEC028B01B065
:10391000BDE8F08F0FF24841019503900BF0DCFEFB
:103920000FF2484104460BF0D7FE05460BF0ECFEC3
:1039300038B1296929B11F220298FCF765FD0021E1
:10394000C1770FF22C4120460BF0C6FE05460BF066
:10395000DBFE50B1296941B1029D1F2205F1200013
:10396000FCF752FD002085F83F000FF20C41204685
:103970000BF0B2FE05460BF0C7FE50B1296941B10C
:10398000029D072205F14000FCF73EFD002085F86E
:1039900047000FF2EC3120460BF09EFE05460BF07F
:1039A000B3FE50B1296941B1029D3F2205F14800A3
:1039B000FCF72AFD002085F887000FF2CC31204665
:1039C0000BF08AFE05460BF09FFE50B1296941B10C
:1039D000029D1F2205F18800FCF716FD002085F8E6
:1039E000A7004CF274712046C0F607010BF074FE7C
:1039F00004460BF089FE50B1216941B1029C0722B7
:103A000004F1A800FCF700FD002084F8AF004CF2A0
:103A1000B8710398C0F607010BF05EFE07460298E6
:103A20000025C0F8305238460BF03EFE824603288F
:103A3000A8BF4FF0030A0128C0F23C8102984CF263
:103A40007B6600F5967B9FEDD48AC0F607064FF0A3
:103A500000080FE0029908F101080BED020AC245C7
:103A6000D1F830020BF1800B00F10100C1F83002F7
:103A700000F02081384641460BF0F6FD4CF2B6616D
:103A80008146C0F607010BF027FE04460BF03CFE12
:103A900040B1216931B1ABF17C000F22FCF7B4FCDD
:103AA0000BF86D5C4CF2AF714846C0F607010BF0A5
:103AB00013FE04460BF028FE40B1216931B1ABF191
:103AC0006C001F22FCF7A0FC0BF84D5C4CF28F71D0
:103AD0004846C0F607010BF0FFFD04460BF014FE4C
:103AE00040B1216931B1ABF14C001F22FCF78CFCD5
:103AF0000BF82D5C4CF20A714846C0F607010BF03A
:103B0000EBFD04460BF000FE40B1216931B1ABF191
:103B100014000722FCF778FC0BF80D5C4CF2A67140
:103B20004846C0F607010BF0D7FD04460BF0ECFD4C
:103B300020B1206910B1FCF783FF00E000204CF2B7
:103B400084714BF82C0C4846C0F607010BF0C4FDFD
:103B500004460BF0D9FD28B1206918B1FCF770FFBD
:103B600001E000BF00204CF2C3614BF8280C48462E
:103B7000C0F607010BF0B0FD04460BF0C5FD28B1FF
:103B8000206918B1FCF75CFF01E000BF00204BF892
:103B9000240C48467FA10BF09FFD04460BF0B4FDBA
:103BA00020B1206910B1FCF74BFF00E000204CF27F
:103BB000BE714BF8200C4846C0F607010BF08CFD97
:103BC00004460BF0A1FD28B1206918B1FCF738FFBD
:103BD00001E000BF00204CF2A461CBF80000484691
:103BE000C0F607010BF078FD04460BF08DFD28B1FF
:103BF000206918B1FCF724FF01E000BF00204CF25F
:103C00008E614BF8040C4846C0F607010BF064FDCA
:103C100004460BF079FD28B1206918B1FCF710FFBC
:103C200001E000BF00204CF2CC614BF80C0C484680
:103C3000C0F607010BF050FD04460BF065FDB0EE39
:103C4000480A38B1B0EE480A206918B164F0C8F9E2
:103C5000B7EEC00B4CF225714846C0F607010BEDDC
:103C6000070A0BF039FD04460BF04EFDB0EE480A92
:103C700038B1B0EE480A206918B164F0B1F9B7EE76
:103C8000C00B484631460BED060A0BF025FD0446F5
:103C90000BF03AFDB0EE480A00283FF4DBAEB0EE80
:103CA000480A206900283FF4D5AE64F099F9B7EED0
:103CB000C00BCFE64CF2AF610398C0F607010BF0E2
:103CC0000BFD04460BF020FD50B1216941B1029C6F
:103CD0001F2204F50D70FCF797FB002084F85302B7
:103CE00001980BF091FC4FF000087BE5E7AD89E50A
:103CF000BE85204A534F4E20E695B0E68DAEE4B81F
:103D0000AD2E2E2E0D000000455350383236362091
:103D1000E78EAFE5BDA2E7BC93E586B2E58CBAE6D7
:103D2000BAA2E587BA000000E68890E58A9FE88E8F
:103D3000B7E58F96E5AE8CE695B4204A534F4E20FA
:103D4000E695B0E68DAE210D00000000E58685E524
:103D5000AEB93A2025730A00726573756C747300EE
:103D60006C6F636174696F6E00000000696400002D
:103D70006E616D6500000000636F756E747279008E
:103D8000706174680000000074696D657A6F6E651B
:103D9000000000006C6F77000000000000000000D1
:103DA0002DE9F04F81B00028009000F097814CF28F
:103DB00056594CF2E6684CF25966C0F60709C0F64F
:103DC0000708C0F6070648464146324664F096F8B2
:103DD0004CF20460C0F6070064F090F84CF22547FE
:103DE0004CF2D964C0F60707C0F6070438462146EE
:103DF00064F084F848464146324664F07FF8009DFE
:103E0000C7A0294664F07AF83846214664F076F86F
:103E100048464146324664F071F805F12001C4A0DD
:103E200064F06CF83846214664F068F8484641462C
:103E3000324664F063F805F14001C2A064F05EF818
:103E40003846214664F05AF848464146324664F006
:103E500055F805F14801BEA064F050F838462146F7
:103E600064F04CF848464146324664F047F805F1A4
:103E70008801BAA064F042F83846214664F03EF862
:103E800048464146324664F039F805F1A801B6A02B
:103E900064F034F83846214664F030F8484641462C
:103EA000324664F02BF805F50D71B4A064F026F8E5
:103EB0003846214664F022F848464146324664F0CE
:103EC0001DF8B4A064F01AF83846214664F016F8DC
:103ED000D5F830020128C0F2FE804CF2565A4CF25E
:103EE000E66B4CF259644CF225464CF2D96700253A
:103EF000C0F6070AC0F6070BC0F60704C0F60706AF
:103F0000C0F60707DDF8008050465946224608F102
:103F1000B00963F0F3FF01354CF2E150C0F6070041
:103F2000294663F0EBFF3046394663F0E7FF504621
:103F30005946224663F0E2FF4CF24E704946C0F605
:103F4000070063F0DBFF3046394663F0D7FF504689
:103F50005946224663F0D2FF4CF2835008F1C0016B
:103F6000D8F80021C0F6070063F0C8FF3046394694
:103F700063F0C4FF50465946224663F0BFFF4CF23F
:103F8000A35008F1E001D8F80421C0F6070063F05F
:103F9000B5FF3046394663F0B1FF504659462246D8
:103FA00063F0ACFF4CF2DD70D8F80811C0F60700E2
:103FB00063F0A4FF3046394663F0A0FF50465946EF
:103FC000224663F09BFF4CF2C770D8F80C11C0F684
:103FD000070063F093FF3046394663F08FFF504689
:103FE0005946224663F08AFF98ED440A4CF2EE608F
:103FF000B7EEC00AC0F6070053EC102B63F07EFF4B
:104000003046394663F07AFF50465946224663F0FF
:1040100075FF98ED450A4CF26C50B7EEC00AC0F639
:10402000070053EC102B63F069FF3046394663F00C
:1040300065FF50465946224663F060FF4CF2C3507C
:1040400008F58C71D8F82021C0F6070063F056FF00
:104050003046394663F052FF50465946224663F0D7
:104060004DFF98ED490A4CF25A70B7EEC00AC0F6FF
:10407000070053EC102B63F041FF3046394663F0E4
:104080003DFF50465946224663F038FF4CF26560CA
:10409000D8F82811C0F6070063F030FF30463946E3
:1040A00063F02CFF50465946224663F027FF4CF23E
:1040B0005D50D8F82C11C0F6070063F01FFF3046A2
:1040C000394663F01BFF009808F18008D0F83002F1
:1040D0008542FFF619AF01B0BDE8F08F4CF25650A3
:1040E0004CF2DE614CF25562C0F60700C0F60701E3
:1040F000C0F6070263F002FF4CF64100C0F607006D
:1041000063F0FCFE4CF225404CF2D961C0F607008A
:10411000C0F6070101B0BDE8F04F63F0EFBE00BF8D
:10412000E59F8EE5B8824944EFBC9A2573000000F4
:10413000E59F8EE5B882E5908DE7A7B0EFBC9A25A4
:1041400073000000E59BBDE5AEB6EFBC9A25730099
:10415000E8B7AFE5BE84EFBC9A257300E697B6E5F5
:104160008CBAEFBC9A257300E697B6E58CBAE58168
:104170008FE7A7BBEFBC9A2573000000E69C80E5A3
:10418000908EE69BB4E696B0E697B6E997B4EFBC9E
:104190009A2573003D3D3D3D3D3D3D3D3D20E6AF13
:1041A0008FE697A5E5A4A9E6B094203D3D3D3D3DB1
:1041B0003D3D3D3D0000000080B500F071FA38B192
:1041C00042F290510068C2F200010860002080BDF8
:1041D000012080BD0000000042F29050C2F20000B9
:1041E00008307047000000002DE9F0418AB040F22D
:1041F000004404ADC5F602044FF4807004F58066F7
:10420000049001202946CDE905000320079030469F
:104210000027089702F0F0F9204629464FF400588D
:10422000CDF8108002F0E8F94FF48071002230469A
:1042300002F0BEFA4FF400510022204602F0B8FA14
:104240003220FEF7A5FB4FF400510022204602F079
:10425000AFFA0120FEF79CFB4FF48071012230463B
:1042600002F0A6FA0A20FEF793FB4FF40051204615
:1042700002F002F920462946CDE90487069702F0AC
:10428000BBF964206424FEF783FB09A80090042096
:10429000019042F27060BB21C2F2000048F240126D
:1042A0000223029402F004FD9DF8241081F03901EC
:1042B0000843C0B2002818BF01200AB0BDE8F08151
:1042C00042F29050C2F20000807970470000000076
:1042D0002DE9F04F85B042F29055BB21C2F20005A6
:1042E00048F24E12281D00906420029042F2706045
:1042F0000223C2F200000124019402F0D9FC18B19B
:10430000204605B0BDE8F08F95F90400B0F1FF3FFD
:10431000C0B207DD000722D00124204605B0BDE869
:10432000F08F00BF00F00F00687100208DF81300BF
:104330000DF1130000906420029042F27060BA21E7
:10434000C2F2000048F24E1202230124019402F04E
:10435000CBFD687906280BD328790007DCD1002033
:10436000A5F805000124204605B0BDE8F08F00BF88
:10437000AC7168B348F6383842F2706405F108064B
:104380000027C0F606084FF064094FF0040A0DF14B
:104390000F0BC2F2000404E0687901370636874249
:1043A00016D238F81720BB2102232046CDE900BAE7
:1043B000CDF8089002F07CFC0028EDD1BDF811008A
:1043C0002988BDF80F20081A30807280E4E700BF0A
:1043D0000024204605B0BDE8F08F0000000000007A
:1043E00070B5A2EB000E5C1A0EF10105013440F22B
:1043F000000E4FF0C046C6F2020E6C43DDF810C04E
:104400002A253580050AC0B2AEF80050AEF800008B
:10441000100AAEF80000D0B2AEF800002B203080B9
:10442000080AAEF80000C8B2AEF80000180AAEF8EC
:104430000000D8B2AEF800002C20E108308004F073
:10444000070000F0DA8011F00303A1F101024DD062
:10445000BCF80040012BAEF80040BCF80240AEF8BA
:104460000040BCF80440AEF80040BCF80640AEF88E
:104470000040BCF80840AEF80040BCF80A40AEF876
:104480000040BCF80C40AEF80040BCF80E40AEF85E
:10449000004005D10CF1100C1146032A2AD2ACE0E1
:1044A000BCF81040022BAEF80040BCF81240AEF849
:1044B0000040BCF81440AEF80040BCF81640AEF81E
:1044C0000040BCF81840AEF80040BCF81A40AEF806
:1044D0000040BCF81C40AEF80040BCF81E40AEF8EE
:1044E000004040F0B58002390CF1200C032AC0F0E6
:1044F000848000BF3CF8402B0439AEF800203CF823
:104500003E2CAEF800203CF83C2CAEF800203CF8E5
:104510003A2CAEF800203CF8382CAEF800203CF8DD
:10452000362CAEF800203CF8342CAEF800203CF8D5
:10453000322CAEF800203CF8302CAEF800203CF8CD
:104540002E2CAEF800203CF82C2CAEF800203CF8C5
:104550002A2CAEF800203CF8282CAEF800203CF8BD
:10456000262CAEF800203CF8242CAEF800203CF8B5
:10457000222CAEF800203CF8202CAEF800203CF8AD
:104580001E2CAEF800203CF81C2CAEF800203CF8A5
:104590001A2CAEF800203CF8182CAEF800203CF89D
:1045A000162CAEF800203CF8142CAEF800203CF895
:1045B000122CAEF800203CF8102CAEF800203CF88D
:1045C0000E2CAEF800203CF80C2CAEF800203CF885
:1045D0000A2CAEF800203CF8082CAEF800203CF87D
:1045E000062CAEF800203CF8042CAEF800203CF875
:1045F000022CAEF800207FF47DAF40B3BCF8001071
:104600000128AEF8001022D0BCF802100228AEF843
:1046100000101CD0BCF804100328AEF8001016D00F
:10462000BCF806100428AEF8001010D0BCF8081032
:104630000528AEF800100AD0BCF80A100628AEF81B
:10464000001008BF70BDBCF80C00AEF8000070BDD3
:10465000BCF820300339AEF80030BCF82230AEF898
:104660000030BCF82430AEF80030BCF82630AEF88C
:104670000030BCF82830AEF80030BCF82A30AEF874
:104680000030BCF82C30AEF80030BCF82E300CF105
:10469000300CAEF80030032ABFF42CAFADE70000B9
:1046A00042F6D030C2F20000704700000000000067
:1046B0002DE9F04F81B000244FF0C046C6F202044D
:1046C0004FF0F00EA6F800E0C32020809622A6F856
:1046D00000E04FF0360822806822A6F80080B6235A
:1046E00022803A22328005222280B022328080222B
:1046F0002280B527338020232380022323804FF09C
:10470000290A37800027238003232380042327805E
:104710004FF0130B2380B123338009232280102212
:104720002280B4223280B722278012253280C6220E
:104730002280C522328024222280E422328031224B
:104740002280E8223280402222808A22228019227E
:1047500027804FF02B0927804B21A4F800A01D20B3
:104760002280A522228033222280E0223280212250
:10477000A4F800E04FF0E10C2380A4F800B02580FD
:1047800025803C25A4F800902580442525802180A3
:104790001B21218018212180172121802080228047
:1047A000A6F800C0A4F800E023800C23A4F800B011
:1047B00023800D232380272323803B2323804D2325
:1047C00025804FF6FF7523800B23238021802180D5
:1047D0002080EC202280A6F800802080C320A6F84C
:1047E00000E020806920A6F800E020801120A6F8D3
:1047F00000B030807820FEF7CBF842F6D03040F29F
:10480000E011C2F20000A6F800A0C0F240112A2276
:104810000160F821A6F8008021800188408832805C
:104820004A1E278093B2414301382780D2B21B0A27
:104830002380CB08228082B2A6F8009027804FEA1E
:104840001222C0B22780228020804FF02C003080BE
:1048500001F0070044D013F00307A3F1010219D0BF
:10486000012F1146258025802580258025802580E3
:10487000258025800FD0022F25802580258025804A
:1048800025802580258025804AD1991E032A05D2BE
:1048900026E000BF1946032A22D300BF0439258031
:1048A00025802580258025802580258025802580E0
:1048B00025802580258025802580258025802580D0
:1048C00025802580258025802580258025802580C0
:1048D0002580258025802580258025802580DDD1A7
:1048E00090B1012825800FD0022825800CD0032804
:1048F000258009D00428258006D00528258003D0EE
:104900000628258018BF258042F2B87040F2E731B2
:10491000C2F200000068C16301B0BDE8F08F00BFC3
:10492000D91E25802580258025802580258025800D
:104930002580032AB2D2D3E72DE9F04188B042F2B4
:10494000C4644020C2F200048DF812000DF1120080
:104950000090AE21092201232046012501956426FD
:10496000029602F0C1FA3220FEF712F8C0208DF84C
:1049700013000DF11300AE21CDE900050222012341
:104980002046029602F0B0FA05A8AE21CDE9000556
:1049900003220123204600278DF814704FF00308EE
:1049A000029602F0A1FA0DF11500AE21CDE9000545
:1049B0000522012320468DF81570029602F094FA24
:1049C0000DF11600AE21CDE9000506220123204697
:1049D0008DF81670029602F087FA0DF11700AE21DD
:1049E000CDE900050422012320468DF817700296B8
:1049F00002F07AFA0F208DF8180006A8AE21CDE952
:104A00000005082201232046029602F06DFA0DF1FE
:104A10001900AE21CDE900050922012320468DF8B9
:104A20001980029602F060FA27208DF81A000DF125
:104A30001A00AE21CDE900050A2201232046029684
:104A400002F052FA0DF11B00AE21CDE900050C2257
:104A50000123204624278DF81B70029602F044FAA9
:104A600007A8AE21CDE900050D22012320468DF8CF
:104A70001C70029602F038FA7F208DF81D000DF1AF
:104A80001D00AE21CDE9000510220123204602962B
:104A900002F02AFAAE210022012320460DF11E0762
:104AA0000296CDE9007502F003F9781CAE21CDE93C
:104AB0000005012201232046029602F0F9F80020A9
:104AC00008B0BDE8F08100002DE9F04385B042F266
:104AD000C4668846C2F200068146AE210022012348
:104AE00030460DF1120400940125019564270297C8
:104AF00002F0DEF8601CAE21CDE9000501220123A1
:104B00003046029702F0D4F8062003A9CDE9001040
:104B1000AE21072201233046029702F0C9F818B1EE
:104B200005B0BDE8F08300BF9DF80D009DF80C10A6
:104B300000029DF80E2061F311409DF810109DF8C1
:104B40000F301044C9F80000080263F311409DF8CB
:104B500011100844C8F8000005B0BDE8F08300005B
:104B600043F6BC50C2F20000704700000000000095
:104B700080B543F6BC503C21C2F20000FBF727FC95
:104B800080BD00000000000080B543F6BC51B3EECC
:104B9000041AC2F20001B7EE083A01F1100391F8CD
:104BA00038C0B1F800E023F81CE002EE10EA0B8AEE
:104BB0008A8A488AB8EE422A1844CB8A10440A8B63
:104BC00018444B8B10448A8B1844CB8B10440A8CAE
:104BD00018444B8C10448A8C1844CB8C10440A8D9A
:104BE00018444B8D10448A8D1844CB8D10440A8E86
:104BF00018444B8E10448A8E1844CB8E104440F6D5
:104C0000CD42184400EE100A0CF101004243B8EE08
:104C1000400A120C02EB820280EE010A9FED0C1A90
:104C200022EE012AA0EB820081F83800002020EE5D
:104C3000010A9FED081A82EE012A80EE010A22EE97
:104C4000031A81ED011A20EE030A81ED020A80BDEC
:104C50003333534000FF7F4743F6BC51C2F200019B
:104C600008807047000000000021A0F8041180F8BF
:104C7000061170470000000040F26820C2F20000F8
:104C800000680068016841F020010160016841F09E
:104C90001001016040F25C10C2F200000068006880
:104CA000016841F020010160016841F010010160DC
:104CB0007047000000000000B0B584B001680A68C9
:104CC000D469A30609D5526AB0F80431FF2B04D881
:104CD000C5180133A0F804312A71E20655D50A68D7
:104CE00010231362B0F80421002A4ED042F6A42209
:104CF000C2F2000291424FF0010280F8062123D156
:104D000040F2D432C2F20002D2F800C0BCF1000F6F
:104D10001AD0054600208DF80F000DF10F0102900A
:104D200002AA0023604661F033FF029850B14EF6AC
:104D300004504FF08051CEF200000160BFF34F8F5E
:104D4000BFF36F8F2846296842F63832C2F200025C
:104D500091421AD140F2CC31C2F200010A68A2B1EC
:104D600005460020019001A9104661F0D5FF019889
:104D700050B14EF604504FF08051CEF20000016069
:104D8000BFF34F8FBFF36F8F284614F00E0F03D081
:104D900000680E210068016204B0B0BD0000000090
:104DA000FEE7000000000000704700000000000067
:104DB0004FF4007001F014BCEFF3108072B600BF26
:104DC000FEE700000000000044F60400C5F6020003
:104DD000816841F0020181600168890409D4016899
:104DE00089045CBF01685FEA814102D401688904DB
:104DF000F2D5704700000000B3F5804F03461BD189
:104E0000B0B5002053F822C0CCF6F0708D680CEAE3
:104E1000000C8C69D1E9000E40EA0C00C96840EA38
:104E20000E1040EA0520204340EA0141BDE8B040B1
:104E3000002043F8221070476FF07041002043F8C3
:104E40002210704700000000B0B50A6850F8223008
:104E500023F0010340F82230D1F808E0CB68D1E913
:104E600000C2BEF1080F08BF42F04002D1E904457C
:104E70001A438B692243CC692A430D6A1A434B6A51
:104E800022438C6A2A43CD6A1A430B6B22434C6B34
:104E90002A438D6B1A4350F82C30224340F2804451
:104EA000CFF6C0742A4323401A4342EA0E0240F868
:104EB0002C200A6BB2F5801F05D10A684AB102683E
:104EC00042F4801202600A681AB1496B0268114309
:104ED00001600020B0BD000070B5D1E900CED1E97D
:104EE00002564CEA0E130C6940F2000C43EA05230B
:104EF000CFF6F07C43EA06464D690CEB04548B690F
:104F00002643FE3500EB8202334343EA05635360D8
:104F10000268D20209D54268096943681A430CEB5A
:104F2000015122F4700211434160002070BD000065
:104F30007047000000000000704700000000000003
:104F400070470000000000007047000000000000F3
:104F5000704700000000000090F85020012A01D1A5
:104F60000220704710B582B042F20834002301934A
:104F7000C4F202040093A4F542720368934227D15D
:104F80004FF6006ECFF6FF7E54F80E209B681A4352
:104F900052071DD4D1F800C02268BCF1000F22F4E2
:104FA000404323D04A681A4322604FF60052CFF69E
:104FB000FF72A25854F80E301A43D20726D1226845
:104FC00040F61F739A438968114341EA0C011CE0C3
:104FD000416D41F0200141650121002280F85020FF
:104FE00002B0BDE810400846704700BF4FF60051C0
:104FF0002360CFF6FF71615854F80E201143C907A2
:1050000004D1216840F61F72914321600021E4E73A
:10501000F0B581B00022009290F85020012A03D10F
:105020000221084601B0F0BD0768012380F8503026
:10503000BB685B0700F196810C684FF6FF7CB4F10A
:10504000FF3FC0F20F0C4FEA94630FDD94FAA4F215
:1050500014EA0C0FB2FA82F208BFA20E012402F089
:105060001F0204FA02F2FC692243FA614A681F2611
:1050700003F01F03C2F3012402F01F02964007EB66
:10508000840403FA02F2256B25EA06063243226302
:10509000BA68BB6802F0040203F00803D21840F0BB
:1050A00096800A6807258E68C2F34063C2F30452F3
:1050B00007EB830395405C6906FA02F224EA0505D2
:1050C0002A435A6141F20002C5F60042126802F01A
:1050D0007042B2F1805F33D14A69FB680E2606EA5E
:1050E000530302FA03F30C69042C39D007F1600270
:1050F0000E6806F0F84652F82450334305F0004598
:105100002B4342F824300B694E7E52F82350012E77
:1051100025F0004508BF05F1004542F823500A7EFE
:105120000B693E69013A03F01F03B2FA82F226F4DA
:10513000F0465209D2029A4032433A6147E000BF3A
:10514000FA684B69FE68D2064FEA560402D404F0AE
:105150000E0201E004F0080293400C69042CC5D152
:105160003A6E0B6802F0F8429B069A4218D13A6EEA
:1051700022F000423A667A6E02F0F8429A4214D067
:10518000BA6E02F0F8429A4218D1BA6E22F000428A
:10519000BA66FA6E02F0F8429A4214D017E000BFE5
:1051A0007A6E02F0F8429A42EAD17A6E22F0004218
:1051B0007A66BA6E02F0F8429A42E6D0FA6E02F0CF
:1051C000F8429A4203D1FA6E22F00042FA66BA68B7
:1051D000D20779D1D1F800E00023C968D7F8C02000
:1051E0000EEA0C04C4F25273A24301F018042CFA24
:1051F00004F603F52D0506EA0E06A94246EA020169
:10520000C7F8C0105DD142F20011C4F202018F4212
:1052100026D042F20001C4F202018F423CD11F218C
:10522000C1F2F0418E4540F3C38040F2FF71C2F6F7
:1052300030618E4540F3A98040F60001C2F630612E
:105240008E4500F0478141F20001C3F260218E4596
:1052500000F036810021C4F221318E451DD045E198
:105260001F21C1F2F0418E4500F388800721C0F66E
:1052700090418E4500F3AA800221C0F230418E4554
:1052800000F0A1800421C0F660018E4540F02E811F
:105290004023C1F6201300E0002393FAA3F143F664
:1052A000C132B1FA81F1C0F20A0213424FF0010299
:1052B00008BF990E01F01F0102FA01F1FA691143CA
:1052C000F961BEF1FF3F01DD002150E042F2000133
:1052D00046F2083CC4F20201C5F6020C01F58072E8
:1052E00001F542739742624608BF1A468F4242F266
:1052F000001408BF1A4647F48073C4F20204A342A4
:10530000136827D18A68D1F808111143C90729D138
:10531000002103F0E074CCF684318E4508BF13F40D
:10532000000163D00021CCF252718E4540F0A08084
:105330000021B1EB146F40F09B80ACF542718F42BD
:10534000C2D1DCF8001021F0E071214341F08071FE
:10535000A5E000BF4FF60051CFF6FF715CF80110D9
:10536000C907D5D0416D41F02001416501210022DE
:1053700080F85020084601B0F0BD00BF40F2FF7138
:10538000C2F630618E4500F38F802021C1F2F041DA
:105390008E4500F0A58040F20041C2F600218E4506
:1053A00040F0A48040F60003C2F6306375E700BF0A
:1053B0000721C0F690418E4508DC0221C0F2304141
:1053C0008E457FF45FAF012367E700BF0821C0F679
:1053D00090418E457AD01021C1F2C0018E4540F037
:1053E000858040F20013C2F2801356E7ACF542719B
:1053F0008F427FF469AFDCF8001042F6635221F06F
:10540000E071C0F23E52214341F40001CCF800109B
:1054100040F21801C2F2000109688909A1FB0212D9
:105420009109022202EB41010091009900293FF409
:105430004BAF009901390091009900293FF444AF26
:10544000009901390091009900293FF43DAF00997E
:1054500001390091009900293FF436AF00990139D4
:105460000091009900294FF00001E2D17FE700BFD1
:10547000ACF542718F424FF000017FF478AF00220B
:10548000CCF6B872964508BF13F480027FF46FAF74
:10549000DCF8001021F0E071214341F48001CCF8E8
:1054A0000010002163E700BF40F60001C2F6306142
:1054B0008E450FD041F20001C3F260218E4515D117
:1054C00042F20003C3F29063E7E600BF8023C1F617
:1054D0005053E2E641F20003C3F26023DDE600BF71
:1054E00040F20023C2F2B053D7E600BF00210023F0
:1054F000C4F684318E4504BF0023C4F6B873CCE6ED
:1055000042F200020168C4F20202914218BF7047E1
:1055100080B500F009F880B2BDE88040FFF79CBB81
:1055200070470000000000000068006C7047000039
:105530002DE9F04F81B0044642F2000046F20831F6
:10554000C4F20200C5F60201276800F5807A00F572
:105550004279574508BF4946874208BF49463E68D9
:105560007D68B207D1F800800FD515F002010CD08C
:10557000606DC00603D4606D40F400606065204635
:10558000FFF7D6FC276802213960710708F01F0B6E
:1055900002D515F0040104D1310755D515F00801E5
:1055A00052D0214651F8542FD20603D40A6842F44F
:1055B00000720A60FA6812F4406F3FD1BBFA8BF2B6
:1055C000ABF10503B3FA83F352095B09384642EAAB
:1055D000030CABF10903B3FA83F342F20002C4F205
:1055E0000202574508BF10465B0943EA0C02D20786
:1055F000024618BF3A46B84208BF0246D268920433
:105600001CD43A68120719D5BA6852070CD47A68C4
:1056100022F00C027A60086820F480700860086844
:10562000C00407D50AE000BF606D04F1580140F0E6
:1056300010006065086840F0010008602046FFF730
:105640005FFF27680C213960B10602D515F02001F3
:1056500004D171062CD515F0400129D0214651F80E
:10566000542FD20603D40A6842F400520A6042F270
:1056700000023846C4F20202574508BF104608F03F
:105680001E030246062B08BF3A46BBF1000F08BFB7
:105690003A46B84208BF0246F86C10F4C07FFB6877
:1056A000D26879D02046FFF747FC27686020386031
:1056B00030060CD515F0800009D0606D40F48030C4
:1056C0006065204600F0C8F9276880203860F00542
:1056D0000DD515F480700AD0606D40F4003060651F
:1056E0002046FFF731FC27684FF480703860B00522
:1056F0000DD515F400700AD0606D40F4802060650F
:105700002046FFF725FC27684FF400703860F0064C
:1057100027D515F0100024D0206BA0B1BBF1000FED
:105720005CD046F2083042F20001C5F6020057454F
:1057300008BF4846C4F202018F4208BF48460068CD
:1057400010F4404F0BD0606D40F480606065A06D38
:1057500040F00200A0652046FFF7E2FE2768102017
:105760003860700514D515F4806011D0606D40F478
:1057700080406065A06D40F00800A0654FF4806037
:105780003860204601B0BDE8F04FFFF7D9BB00BF3D
:1057900001B0BDE8F08F00BF900106D503F4406072
:1057A00002F40053C0187FF47DAF386840067FF5DF
:1057B00079AF12F400107FF475AFB868000711D408
:1057C000786820F060007860086820F480500860F5
:1057D0000868C0053FF566AF0AE000BFF8688007BB
:1057E000B1D1BCE7606D04F1580140F01000606574
:1057F000086840F00100086054E700000000000065
:1058000070B582B0044600284FF0000001902DD002
:10581000606D30B9204600F023F90020A06584F8BF
:1058200050002068816889004FF6C071C5F6FF718D
:1058300002D582680A4082608268D20031D48268D0
:1058400001F18051114042F6635241F08051816074
:1058500040F21801C0F23E52C2F200010968890903
:10586000A1FB0212012101EB921105E00126304655
:1058700002B070BD019901390191019989B1019975
:1058800001390191019961B10199013901910199A0
:1058900000291FBF019901390191019918BF002901
:1058A000E8D18168C90009D4616D012641F0100179
:1058B0006165A16D41F00101A16500E000268168EC
:1058C000626D02F0100201F004018918616D40F070
:1058D000918021F48171023161658168C90728D105
:1058E00042F2001240F48071C4F20202914242F28C
:1058F0000001C4F2020140F0A5808A68D1F80831A5
:105900001A43D20715D101F5807201F5427346F2B0
:10591000080C9042C5F6020C1A4618BF0CF54072EE
:10592000884208BF1A466068116821F47C11084358
:10593000106000F045FF41F2030100228842A06898
:10594000A0F1100188BF0122B1FA81F1237F49093A
:105950001140226B617D154616BF4D034A031C2082
:10596000012B45EA034141EA020141EA000106D167
:10597000206A0022CFF6FE7202EB40400143606ACB
:1059800020B100F47870A26A1043014320684CF201
:105990000303CFF6F073C2681A401143C1608168F7
:1059A000826801F0040102F00802891836D1217DD5
:1059B00044F20305E26AC36842EA813123EA050240
:1059C0001143C16094F83810012901691AD14FF6CA
:1059D0001E020125CFF60042CFF6FF751140D4E933
:1059E0000F231943636C05EB02421143A26C194368
:1059F000114309E041F0100001266065304602B015
:105A000070BD00BF21F0010101610169626B21F0ED
:105A10007041114301612046FBF7DEFD2068E1681B
:105A20000129026B22F00F0102D1A269013A114350
:105A300001630121606D61F301006065304602B0D1
:105A400070BD00BF46F20802C5F602021268D20716
:105A50003FF459AF6DE70000704700000000000000
:105A6000B0B5B8B0044602A8283098210025339577
:105A7000CDE93655CDE93455FAF7A9FC42F20001DB
:105A80002068C4F20201884202D038B0B0BD00BF25
:105A90004FF400200290022004900C210395CDE9E0
:105AA0000510CDE90700C02009902020CDE90A05A6
:105AB00002A802F065F908B1FFF77EF944F2D84078
:105AC000C5F60200016841F020010160016801F0A3
:105AD000200101910199816841F001018160806894
