:020000040800F2
:10000000F86B0524AD02000821860008617A00081B
:1000100019860008391C000871A4000800000000BF
:10002000000000000000000000000000C18900087E
:10003000411C00080000000029860008E189000832
:10004000CB020008CB020008CB020008CB0200085C
:10005000CB020008CB020008CB020008CB0200084C
:10006000CB020008CB020008CB020008CB0200083C
:10007000CB020008CB020008CB020008CB0200082C
:10008000CB020008CB020008090B0008CB020008D5
:10009000CB020008CB020008CB020008491C000874
:1000A000CB020008CB020008CB020008CB020008FC
:1000B000E98B0008CB020008CB020008CB02000845
:1000C000CB020008CB020008CB020008CB020008DC
:1000D000CB02000851A4000861A40008CB0200086C
:1000E000CB020008CB02000800000000CB02000891
:1000F000CB020008CB020008CB020008CB020008AC
:10010000CB020008CB020008CB020008CB0200089B
:10011000698D0008CB020008F98B0008098C0008E3
:10012000CB020008CB020008CB020008CB0200087B
:10013000CB020008CB020008CB020008CB0200086B
:1001400000000000000000000000000000000000AF
:10015000CB020008CB020008CB020008CB0200084B
:10016000CB020008CB020008CB020008CB0200083B
:10017000CB020008CB020008CB0200080000000000
:10018000CB020008CB020008CB020008CB0200081B
:10019000CB020008CB020008CB020008CB0200080B
:1001A000CB020008CB020008CB020008CB020008FB
:1001B000CB020008CB020008CB020008CB020008EB
:1001C000CB020008CB020008CB020008CB020008DB
:1001D000CB020008CB020008CB020008CB020008CB
:1001E000CB020008CB020008CB020008CB020008BB
:1001F000CB020008CB020008CB020008CB020008AB
:10020000CB020008CB020008CB020008CB0200089A
:10021000CB020008CB020008CB020008CB0200088A
:10022000CB020008CB020008CB020008000000004F
:10023000CB020008CB02000800000000CB0200083F
:10024000CB020008CB020008CB020008CB0200085A
:10025000CB020008CB020008CB020008CB0200084A
:10026000CB020008CB020008CB020008CB0200083A
:10027000CB020008CB020008CB02000800000000FF
:10028000CB020008CB020008CB02000800000000EF
:1002900000000000CB020008DFF80CD000F090FA5C
:1002A0000048004781F90408F86B05240748804797
:1002B0000748804707480047FEE7FEE7FEE7FEE7FE
:1002C000FEE7FEE7FEE7FEE7FEE7FEE7611C00084B
:1002D000F98A0008990200082DE9F05F0546002020
:1002E00092469B4688460646814640241BE02846A7
:1002F00041464746224600F09AF853465A46C01AED
:10030000914110D311461846224600F081F82D1A6B
:1003100067EB01084F4622460120002100F078F8E3
:1003200017EB00094E41201EA4F10104DFDC484612
:1003300031462A464346BDE8F09F2DE9F0410024AE
:10034000061B254671F1000605DA01240027D0EBD3
:10035000070067EB0101161E73F1000605DA00279E
:10036000D2EB0702012567EB0303FFF7B5FF8646D3
:100370000E4617469C46AC4204D00025D0EB050E35
:1003800065EB010624B10020D2EB000760EB030C03
:10039000704631463A466346BDE8F08140EA0103C3
:1003A0009B0703D009E008C9121F08C0042AFAD22B
:1003B00003E011F8013B00F8013B521EF9D27047EF
:1003C000D2B201E000F8012B491EFBD27047002297
:1003D000F6E710B513460A4604461946FFF7F0FF44
:1003E000204610BD30B50B460146002020220124D6
:1003F00009E021FA02F59D4205D303FA02F5491BF3
:1004000004FA02F52844151EA2F10102F1DC30BD08
:10041000202A04DB203A00FA02F1002070479140C4
:10042000C2F1200320FA03F3194390407047202AB9
:1004300004DB203A21FA02F00021704721FA02F38E
:10044000D040C2F1200291400843194670472DE97F
:10045000FE4F804681EA0300C00F0C46009021F059
:10046000004123F00045B8EB0200A94105D2404607
:10047000214690461C460B46024623F0004010439E
:1004800047D0270DC7F30A00C3F30A510290401A60
:10049000019040286BDAC3F3130040F4801B0098EE
:1004A000924620B10023D2EB030A63EB0B0B0198B9
:1004B0005946C0F140025046FFF7AAFF06460D46D6
:1004C00050465946019A00F093F910EB080061413B
:1004D000002487EA115284EAE7731A4340D0009A55
:1004E00062B3019A012A4FEA075215DC001B61EB47
:1004F00002014FF0004202EA0752CDE90042001C1F
:1005000041F5801132462B4600F093F903B0BDE867
:10051000F08F40462146F9E7001B61EB0201001C09
:1005200041F5801300185B412018A2F5001747EB36
:10053000030140EAD570B6196D4111E06D084FEA2C
:10054000360645EAC0754FEA0752001B61EB02010F
:10055000001C41F5801149084FEA30000019514153
:1005600032462B4603B0BDE8F04F00F053B9009877
:10057000012240000023D0EB020263EBE0730098FD
:1005800021464FEAE074B8EB000061EB0401E9E7B3
:1005900083F000435BE781F0004158E72DE9FE4F0F
:1005A00081EA030404F0004421F0004100944FF07C
:1005B000000B23F0004350EA01045ED052EA03042A
:1005C0005BD0C3F30A54C1F30A552C44A4F2F334AC
:1005D0000194A0FB0254C1F3130141F48011C3F351
:1005E000130343F4801301FB024400FB034E840A0F
:1005F000970A44EA815447EA8357A4FB07680295A7
:100600008D0A05FB07854FEA932C04FB0C54270544
:10061000029D4FEA065847EA1637B5EB08056EEB20
:10062000070C870E920E47EA811742EA8312A7FB56
:100630000201B6EB0B0164EB00042B0D43EA0C3313
:100640005E1844EB1C50DA465146E7FB0201C5F345
:1006500013044FEA0B3343EA14534FEA0432019C6C
:1006600043EA0603A4F10C040294009CCDE900B413
:1006700000F0DFF803B0BDE8F08F00200146F9E795
:100680002DE9F04D81EA030404F0004B21F0004510
:1006900014464FF0000A23F0004150EA050220D032
:1006A00054EA01021DD0C5F30A570246C5F31303ED
:1006B000C1F31300C1F30A5640F4801543F48013CC
:1006C000A7EB0608101BD64608F2FD3873EB0500B1
:1006D00002D308F1010801E092185B41B8F1000F64
:1006E00003DA00200146BDE8F08D00204FF48011B0
:1006F000064684460EE0171B73EB050705D3121B55
:1007000063EB050306434CEA010C49084FEA30004D
:1007100092185B4150EA0107EDD152EA030012D072
:1007200082EA040083EA0501084305D0101BAB41AF
:1007300006D20122002306E000224FF0004302E02F
:100740006FF0010253101AEB06004CEB085110EB4E
:100750000A0041EB0B01BDE8F04D00F05BB8C1F3BE
:100760000A52C1F3130140F2FF3341F480119A425F
:1007700002DA00200146704740F233439A42A2F267
:10078000334202DC5242FFF752BEFFF741BE000087
:1007900030B5041E71F1000404DB4FF00044404208
:1007A00064EB0101141E73F1000405DB1C464FF0DD
:1007B0000043524263EB0403994208BF904230BDAC
:1007C0001CB509480090094801900546009C06E0C8
:1007D000E06840F0010394E8070098471034AC4209
:1007E000F6D3FFF75DFD0000849D0608A49D060872
:1007F000202A06DBCB17203A41FA02F043EAE073E5
:1008000006E041FA02F3D040C2F1200291400843D1
:100810001946704710B5141E73F1000408DA401C25
:1008200041F1000192185B411A4301D120F001000F
:1008300010BD2DE9F04D92469B4611B1B1FA81F2FF
:1008400002E0B0FA80F220329046FFF7E1FD044664
:100850000F4640EA0A0041EA0B0153465A46084354
:1008600013D0114653EA010019D0C8F14002504696
:10087000FFF7DDFD05460E46504659464246FFF756
:10088000C7FD084305D0012004E020463946BDE8F5
:10089000F08D0020054346EAE0762C4337430A9862
:1008A0006305E40AA0EB08000022FD0A44EA47546D
:1008B0000A3002D500200146E9E701051019694117
:1008C000DDE9084500196941BDE8F04DA2E770B5C2
:1008D0008C1810F8015B15F0070301D110F8013BEB
:1008E0002A1106D110F8012B03E010F8016B01F872
:1008F000016B5B1EF9D12B0705D40023521E0DD4CA
:1009000001F8013BFAE710F8013BCB1A921C03E017
:1009100013F8015B01F8015B521EF9D5A142D8D34F
:10092000002070BD00000000B0B50446006842F22F
:10093000001140F48070C4F20201884218D142F2E2
:100940000830C4F20200006810F4403F18D004F0F0
:100950007FFE61680546B1F5803F05D0B1F5403FA7
:100960002CD0B1F5003F2AD1080CB5FBF0F526E0FC
:1009700046F20830C5F60200006810F4403FE6D1A8
:100980004FF40020002103F0ABFD61680546A1F59E
:1009900080224FEAB2420A2A11D8DFE802F00707A4
:1009A0000707070755535951570000BF6FF0010063
:1009B00000EA5140B5FBF0F501E000BFAD0802F0E0
:1009C0004BFE41F2030188420ED8206842F60151E5
:1009D000C0F231118D4281682CBF41F4807121F445
:1009E00080718160B0BD00BF4BF62140C0F2BE00F7
:1009F000854205D82068816821F440718160B0BDCE
:100A000047F64100C0F27D10854207D820680122D8
:100A1000816862F309218160B0BD00BF20684FF298
:100A20008101C0F2FA218D42816805D8022262F369
:100A300009218160B0BD00BF41F440718160B0BD4B
:100A4000ED09BCE76D09BAE72D09B8E72D0AB6E74D
:100A5000AD09B4E700000000F0B581B004460068BD
:100A60008168C9074AD14FF6C0778168C7F6FF771A
:100A700007F17F0211420BD0606D40F010006065FD
:100A8000A06D40F00100A065012001B0F0BD00BFE5
:100A90008168394041F00101816002F0E5FD42F2D8
:100AA000000246F20836C4F20202216802F58073A1
:100AB00002F54275C5F60206994208BF2E469142DC
:100AC00008BF2E4699420546306814D110F01F0029
:100AD00014D110E08868C00704D18868384040F01D
:100AE0000100886002F0C0FD401B2168032802D38A
:100AF0000868C007C0D00868C007EBD0002001B06C
:100B0000F0BD00000000000040F2A840C2F200402A
:100B100001F05ABC0000000000F02EF800F008F8C8
:100B200000F04AF85DF040FAFEE700000000000027
:100B300080B582B000F078FC00F0DAFE00F05CFCDA
:100B400047F6C95044F6F03CC0F6000006A14FF449
:100B500000620023C2F2054C4FF0080ECDE900EC14
:100B60005DF0CEFE02B080BD4C76676C5F54617361
:100B70006B0000000000000080B582B000F048F873
:100B800048F6E10044F6F43CC0F6000006A14FF43C
:100B900080720023C2F2054C4FF0040ECDE900EC48
:100BA0005DF0AEFE02B080BD5254435F416C617295
:100BB0006D5F5461736B000010B582B040F2841415
:100BC000C2F20044206828B90120002103225DF010
:100BD0003BFC20604AF2794007A1C0F600004FF4C8
:100BE0008072002304344FF00A0CCDE900C45DF09C
:100BF00087FE02B010BD00BF566F6963650000003C
:100C000040F26400C2F200407047000000000000A3
:100C100010B500248021C5F602040022204602F00F
:100C200013FD04F500602021002202F00DFD40F2CA
:100C30006400C2F20040BDE8104000F005B90000B9
:100C40002DE9F04186B040F600050646C5F60205DE
:100C50008021A5F5006800224046002702F0F4FC40
:100C600020210022284602F0EFFC8021012240468C
:100C7000012402F0E9FC022000F07AFB46F00100BA
:100C800000F07EFA102001A9CDE9010703200490AD
:100C900028460597039402F0FBFB202100222846FA
:100CA00002F0D2FC022000F063FB1021284602F083
:100CB000C3FC01382021B0FA80F001224609284601
:100CC00002F0C2FC022000F053FB20210022284643
:100CD00002F0BAFC022000F04BFB1021284602F083
:100CE000ABFC01382021B0FA80F00122400946EA2D
:100CF0004006284602F0A8FC022000F039FB202123
:100D00000022284602F0A0FC022000F031FB102156
:100D1000284602F091FC01382021B0FA80F001222F
:100D2000400946EA8006284602F08EFC022000F0C8
:100D30001FFB20210022284602F086FC022000F042
:100D400017FB1021284602F077FC01382021B0FA69
:100D500080F00122400946EAC006284602F074FCF1
:100D6000022000F005FB20210022284602F06CFC46
:100D7000022000F0FDFA1021284602F05DFC013847
:100D80002021B0FA80F00122400946EA00162846E8
:100D900002F05AFC022000F0EBFA20210022284643
:100DA00002F052FC022000F0E3FA1021284602F083
:100DB00043FC01382021B0FA80F00122400946EAC4
:100DC0004016284602F040FC022000F0D1FA202113
:100DD0000022284602F038FC022000F0C9FA102157
:100DE000284602F029FC01382021B0FA80F00122C7
:100DF000400946EA8016284602F026FC022000F050
:100E0000B7FA20210022284602F01EFC022000F042
:100E1000AFFA1021284602F00FFC01382021B0FA69
:100E200080F00122400946EAC014284602F00CFC7A
:100E3000022000F09DFA80210022404602F004FCCE
:100E4000E0B206B0BDE8F0812DE9F041002406468D
:100E5000C5F6020480210022204602F0F5FB04F5CD
:100E6000006520210022284602F0EEFB80210122AD
:100E7000204602F0E9FB022000F07AFA8E2000F012
:100E80007FF9002000F07CF980210022204602F04A
:100E9000DBFBB0794FF0CD08002200FB08F1C90A56
:100EA00001EB410100EB41078021204602F0CCFB21
:100EB00020210022284602F0C7FB80210122204683
:100EC00002F0C2FB022000F053FA802000F058F933
:100ED000F8B200F055F980210022204602F0B4FB60
:100EE0007079002200FB08F1C90A01EB410100EB17
:100EF00041078021204602F0A7FB2021002228463E
:100F000002F0A2FB80210122204602F09DFB02207C
:100F100000F02EFA822000F033F9F8B200F030F938
:100F200080210022204602F08FFB3079002200FB56
:100F300008F1C90A01EB410100EB4107802120467D
:100F400002F082FB20210022284602F07DFB802156
:100F50000122204602F078FB022000F009FA8420EA
:100F600000F00EF9F8B200F00BF9802100222046C3
:100F700002F06AFBF078002200FB08F1C90A01EBDD
:100F8000410100EB41078021204602F05DFB20215A
:100F90000022284602F058FB80210122204602F060
:100FA00053FB022000F0E4F9862000F0E9F8F8B2E3
:100FB00000F0E6F880210022204602F045FBB078E0
:100FC000002200FB08F1C90A01EB410100EB4107D7
:100FD0008021204602F038FB20210022284602F022
:100FE00033FB80210122204602F02EFB022000F07C
:100FF000BFF9882000F0C4F8F8B200F0C1F88021F1
:101000000022204602F020FBF079002200FB08F1CC
:10101000C90A01EB410100EB41078021204602F0A3
:1010200013FB20210022284602F00EFB8021012222
:10103000204602F009FB022000F09AF98A2000F015
:101040009FF8F8B200F09CF880210022204602F0C0
:10105000FBFA308841F27B42810851436422490CFB
:1010600001FB1200672281B251430022890A01EB81
:10107000410100EB41068021204602F0E5FA2021E3
:101080000022284602F0E0FA80210122204602F0E8
:10109000DBFA022000F06CF98C2000F071F8F0B25D
:1010A00000F06EF880210022204602F0CDFA802167
:1010B0000022204602F0C8FA20210022284602F031
:1010C000C3FA80210122204602F0BEFA022000F07D
:1010D0004FF98E2000F054F8802000F051F8802164
:1010E00000222046BDE8F04102F0AEBA0000000048
:1010F00010B504468020FFF7A3FD0109A1EB810193
:1011000000EB4100A0718220FFF79AFD0109A1EBDD
:10111000810100EB410060718420FFF791FD01091E
:10112000A1EB810100EB410020718620FFF788FDD3
:101130000109A1EB810100EB4100E0708820FFF77D
:101140007FFD0109A1EB810100EB4100A0708A2025
:10115000FFF776FD0109A1EB810100EB4100E07191
:101160008C20FFF76DFD0109A1EB810100EB41002F
:101170004FF4FA6151FA80F0208010BD00000000A9
:10118000B0B586B040F600040021C5F60204059112
:10119000054603910320049001A9204610220192E4
:1011A0000122029202F074F920210022204602F06E
:1011B0004BFA05F001021021204602F045FA022008
:1011C00000F0D6F820210122204602F03DFA02204C
:1011D00000F0CEF820210022204602F035FAC5F3B7
:1011E00040021021204602F02FFA022000F0C0F841
:1011F00020210122204602F027FA022000F0B8F850
:1012000020210022204602F01FFAC5F3800210219F
:10121000204602F019FA022000F0AAF8202101224B
:10122000204602F011FA022000F0A2F8202100224C
:10123000204602F009FAC5F3C0021021204602F050
:1012400003FA022000F094F820210122204602F047
:10125000FBF9022000F08CF820210022204602F049
:10126000F3F9C5F300121021204602F0EDF9022037
:1012700000F07EF820210122204602F0E5F902204C
:1012800000F076F820210022204602F0DDF9C5F3B7
:1012900040121021204602F0D7F9022000F068F831
:1012A00020210122204602F0CFF9022000F060F850
:1012B00020210022204602F0C7F9C5F38012102138
:1012C000204602F0C1F90220ED0900F051F820217A
:1012D0000122204602F0B8F9022000F049F820214E
:1012E0000022204602F0B0F9102120462A4602F0E2
:1012F000ABF9022000F03CF820210122204602F048
:10130000A3F9022000F034F806B0B0BD00000000E0
:1013100080B541F2040E40F20C03CEF2000EC2F290
:101320000043DEF80020D3F800C04DF68363C4F21A
:101330001B33ACFB0331890C48434FF47A714843AB
:10134000DEF80010891A81420ED2DEF80010891AE8
:1013500081423EBFDEF80010891A814204D2DEF8D5
:101360000010891A8142EBD380BD0000000000000C
:1013700080B541F2040E40F20C03CEF2000EC2F230
:101380000043DEF80020D3F800C04DF68363C4F2BA
:101390001B33ACFB0331890C4843DEF80010891A7B
:1013A00081420ED2DEF80010891A81423EBFDEF87B
:1013B0000010891A814204D2DEF80010891A814295
:1013C000EBD380BD000000004EF6FC5141F200005E
:1013D000CEF20001CEF200000A6842F080720A608C
:1013E0000168C90701D100214160016841F0010194
:1013F000016070470000000080B500F071FA38B15C
:1014000040F282410068C2F200410860002080BDC5
:10141000012080BD0000000040F28240C2F2004086
:1014200008307047000000002DE9F0418AB040F21A
:10143000004404ADC5F602044FF4807004F58066E4
:10144000049001202946CDE905000320079030468D
:101450000027089702F01CF8204629464FF4005850
:10146000CDF8108002F014F84FF48071002230465D
:1014700002F0EAF84FF400510022204602F0E4F8AE
:101480003220FFF745FF4FF400510022204602F0C2
:10149000DBF80120FFF73CFF4FF48071012230465A
:1014A00002F0D2F80A20FFF733FF4FF40051204634
:1014B00001F02EFF20462946CDE90487069701F06A
:1014C000E7FF64206424FFF723FF09A800900420AD
:1014D000019040F26050BB21C2F2004048F240123D
:1014E0000223029402F06CF99DF8241081F0390176
:1014F0000843C0B2002818BF01200AB0BDE8F0813F
:1015000040F28240C2F20040807970470000000043
:101510002DE9F04F85B040F28245BB21C2F2004573
:1015200048F24E12281D00906420029040F2605054
:101530000223C2F200400124019402F041F918B1E3
:10154000204605B0BDE8F08F95F90400B0F1FF3FEB
:10155000C0B207DD000722D00124204605B0BDE857
:10156000F08F00BF00F00F00687100208DF81300AD
:101570000DF1130000906420029040F26050BA21F7
:10158000C2F2004048F24E1202230124019402F0FC
:1015900033FA687906280BD328790007DCD10020BC
:1015A000A5F805000124204605B0BDE8F08F00BF76
:1015B000AC7168B34FF64C3840F2605405F1080640
:1015C0000027C0F605084FF064094FF0040A0DF13A
:1015D0000F0BC2F2004404E06879013706368742F7
:1015E00016D238F81720BB2102232046CDE900BAD5
:1015F000CDF8089002F0E4F80028EDD1BDF8110014
:101600002988BDF80F20081A30807280E4E700BFF7
:101610000024204605B0BDE8F08F00000000000067
:1016200070B5A2EB000E5C1A0EF10105013440F218
:10163000000E4FF0C046C6F2020E6C43DDF810C03B
:101640002A253580050AC0B2AEF80050AEF8000079
:10165000100AAEF80000D0B2AEF800002B203080A7
:10166000080AAEF80000C8B2AEF80000180AAEF8DA
:101670000000D8B2AEF800002C20E108308004F061
:10168000070000F0DA8011F00303A1F101024DD050
:10169000BCF80040012BAEF80040BCF80240AEF8A8
:1016A0000040BCF80440AEF80040BCF80640AEF87C
:1016B0000040BCF80840AEF80040BCF80A40AEF864
:1016C0000040BCF80C40AEF80040BCF80E40AEF84C
:1016D000004005D10CF1100C1146032A2AD2ACE0CF
:1016E000BCF81040022BAEF80040BCF81240AEF837
:1016F0000040BCF81440AEF80040BCF81640AEF80C
:101700000040BCF81840AEF80040BCF81A40AEF8F3
:101710000040BCF81C40AEF80040BCF81E40AEF8DB
:10172000004040F0B58002390CF1200C032AC0F0D3
:10173000848000BF3CF8402B0439AEF800203CF810
:101740003E2CAEF800203CF83C2CAEF800203CF8D3
:101750003A2CAEF800203CF8382CAEF800203CF8CB
:10176000362CAEF800203CF8342CAEF800203CF8C3
:10177000322CAEF800203CF8302CAEF800203CF8BB
:101780002E2CAEF800203CF82C2CAEF800203CF8B3
:101790002A2CAEF800203CF8282CAEF800203CF8AB
:1017A000262CAEF800203CF8242CAEF800203CF8A3
:1017B000222CAEF800203CF8202CAEF800203CF89B
:1017C0001E2CAEF800203CF81C2CAEF800203CF893
:1017D0001A2CAEF800203CF8182CAEF800203CF88B
:1017E000162CAEF800203CF8142CAEF800203CF883
:1017F000122CAEF800203CF8102CAEF800203CF87B
:101800000E2CAEF800203CF80C2CAEF800203CF872
:101810000A2CAEF800203CF8082CAEF800203CF86A
:10182000062CAEF800203CF8042CAEF800203CF862
:10183000022CAEF800207FF47DAF40B3BCF800105E
:101840000128AEF8001022D0BCF802100228AEF831
:1018500000101CD0BCF804100328AEF8001016D0FD
:10186000BCF806100428AEF8001010D0BCF8081020
:101870000528AEF800100AD0BCF80A100628AEF809
:10188000001008BF70BDBCF80C00AEF8000070BDC1
:10189000BCF820300339AEF80030BCF82230AEF886
:1018A0000030BCF82430AEF80030BCF82630AEF87A
:1018B0000030BCF82830AEF80030BCF82A30AEF862
:1018C0000030BCF82C30AEF80030BCF82E300CF1F3
:1018D000300CAEF80030032ABFF42CAFADE70000A7
:1018E00040F62C20C2F200407047000000000000CB
:1018F0002DE9F04F81B000244FF0C046C6F202043B
:101900004FF0F00EA6F800E0C32020809622A6F843
:1019100000E04FF0360822806822A6F80080B62347
:1019200022803A22328005222280B0223280802218
:101930002280B527338020232380022323804FF089
:10194000290A37800027238003232380042327804C
:101950004FF0130B2380B123338009232280102200
:101960002280B4223280B722278012253280C622FC
:101970002280C522328024222280E4223280312239
:101980002280E8223280402222808A22228019226C
:1019900027804FF02B0927804B21A4F800A01D20A1
:1019A0002280A522228033222280E022328021223E
:1019B000A4F800E04FF0E10C2380A4F800B02580EB
:1019C00025803C25A4F80090258044252580218091
:1019D0001B21218018212180172121802080228035
:1019E000A6F800C0A4F800E023800C23A4F800B0FF
:1019F00023800D232380272323803B2323804D2313
:101A000025804FF6FF7523800B23238021802180C2
:101A10002080EC202280A6F800802080C320A6F839
:101A200000E020806920A6F800E020801120A6F8C0
:101A300000B030807820FFF76BFC40F62C2040F29D
:101A4000E011C2F20040A6F800A0C0F240112A2224
:101A50000160F821A6F8008021800188408832804A
:101A60004A1E278093B2414301382780D2B21B0A15
:101A70002380CB08228082B2A6F8009027804FEA0C
:101A80001222C0B22780228020804FF02C003080AC
:101A900001F0070044D013F00307A3F1010219D0AD
:101AA000012F1146258025802580258025802580D1
:101AB000258025800FD0022F258025802580258038
:101AC00025802580258025804AD1991E032A05D2AC
:101AD00026E000BF1946032A22D300BF043925801F
:101AE00025802580258025802580258025802580CE
:101AF00025802580258025802580258025802580BE
:101B000025802580258025802580258025802580AD
:101B10002580258025802580258025802580DDD194
:101B200090B1012825800FD0022825800CD00328F1
:101B3000258009D00428258006D00528258003D0DB
:101B40000628258018BF258040F2A86040F2E731C2
:101B5000C2F200400068C16301B0BDE8F08F00BF71
:101B6000D91E2580258025802580258025802580FB
:101B70002580032AB2D2D3E74FF66421C2F2044192
:101B800008807047000000000021A0F8041180F8D0
:101B9000061170470000000040F27000C2F20040E1
:101BA00000680068016841F020010160016841F0AF
:101BB0001001016070470000B0B582B001680A688A
:101BC000D469A30609D5526AB0F80431FF2B04D8B2
:101BD000C5180133A0F804312A71E20623D509683B
:101BE00010220A62B0F80411E9B1012180F806114F
:101BF00040F28411C2F200410A680021019192B1C1
:101C000001A9054610465CF067FC0199284651B1D0
:101C10004EF604514FF08052CEF200010A60BFF33D
:101C20004F8FBFF36F8F14F00E0F03D000680E219B
:101C30000068016202B0B0BDFEE7000000000000D5
:101C400070470000000000004FF4007001F014BC69
:101C5000EFF3108072B600BFFEE700000000000046
:101C600044F60400C5F60200816841F0020181607B
:101C70000168890409D4016889045CBF01685FEACE
:101C8000814102D401688904F2D570470000000048
:101C9000B3F5804F03461BD1B0B5002053F822C0E6
:101CA000CCF6F0708D680CEA000C8C69D1E9000E5E
:101CB00040EA0C00C96840EA0E1040EA05202043C3
:101CC00040EA0141BDE8B040002043F822107047CF
:101CD0006FF07041002043F82210704700000000B0
:101CE000B0B50A6850F8223023F0010340F82230E2
:101CF000D1F808E0CB68D1E900C2BEF1080F08BFF7
:101D000042F04002D1E904451A438B692243CC6971
:101D10002A430D6A1A434B6A22438C6A2A43CD6ACE
:101D20001A430B6B22434C6B2A438D6B1A4350F8BA
:101D30002C30224340F28044CFF6C0742A43234023
:101D40001A4342EA0E0240F82C200A6BB2F5801FBB
:101D500005D10A684AB1026842F4801202600A683A
:101D60001AB1496B0268114301600020B0BD000048
:101D700070B5D1E900CED1E902564CEA0E130C69D8
:101D800040F2000C43EA0523CFF6F07C43EA064616
:101D90004D690CEB04548B692643FE3500EB82023F
:101DA000334343EA056353600268D20209D54268AF
:101DB000096943681A430CEB015122F47002114384
:101DC0004160002070BD000070470000000000006E
:101DD0007047000000000000704700000000000095
:101DE0007047000000000000704700000000000085
:101DF00090F85020012A01D10220704710B582B01E
:101E000042F2083400230193C4F202040093A4F5C3
:101E100042720368934227D14FF6006ECFF6FF7EE1
:101E200054F80E209B681A4352071DD4D1F800C005
:101E30002268BCF1000F22F4404323D04A681A43C1
:101E400022604FF60052CFF6FF72A25854F80E30BF
:101E50001A43D20726D1226840F61F739A43896835
:101E6000114341EA0C011CE0416D41F02001416544
:101E70000121002280F8502002B0BDE81040084641
:101E8000704700BF4FF600512360CFF6FF716158D5
:101E900054F80E201143C90704D1216840F61F727F
:101EA000914321600021E4E7F0B581B00022009267
:101EB00090F85020012A03D10221084601B0F0BD5C
:101EC0000768012380F85030BB685B0700F19681FA
:101ED0000C684FF6FF7CB4F1FF3FC0F20F0C4FEAE5
:101EE00094630FDD94FAA4F214EA0C0FB2FA82F2B2
:101EF00008BFA20E012402F01F0204FA02F2FC69DC
:101F00002243FA614A681F2603F01F03C2F301242B
:101F100002F01F02964007EB840403FA02F2256BDD
:101F200025EA060632432263BA68BB6802F004025F
:101F300003F00803D21840F096800A6807258E68DF
:101F4000C2F34063C2F3045207EB830395405C691C
:101F500006FA02F224EA05052A435A6141F2000218
:101F6000C5F60042126802F07042B2F1805F33D1D0
:101F70004A69FB680E2606EA530302FA03F30C696A
:101F8000042C39D007F160020E6806F0F84652F8CA
:101F90002450334305F000452B4342F824300B69AD
:101FA0004E7E52F82350012E25F0004508BF05F162
:101FB000004542F823500A7E0B693E69013A03F05E
:101FC0001F03B2FA82F226F4F0465209D2029A4076
:101FD00032433A6147E000BFFA684B69FE68D206B7
:101FE0004FEA560402D404F00E0201E004F00802A5
:101FF00093400C69042CC5D13A6E0B6802F0F8428C
:102000009B069A4218D13A6E22F000423A667A6EE6
:1020100002F0F8429A4214D0BA6E02F0F8429A42A4
:1020200018D1BA6E22F00042BA66FA6E02F0F84297
:102030009A4214D017E000BF7A6E02F0F8429A423A
:10204000EAD17A6E22F000427A66BA6E02F0F84265
:102050009A42E6D0FA6E02F0F8429A4203D1FA6E42
:1020600022F00042FA66BA68D20779D1D1F800E0CE
:102070000023C968D7F8C0200EEA0C04C4F25273DA
:10208000A24301F018042CFA04F603F52D0506EA24
:102090000E06A94246EA0201C7F8C0105DD142F21D
:1020A0000011C4F202018F4226D042F20001C4F2B4
:1020B00002018F423CD11F21C1F2F0418E4540F315
:1020C000C38040F2FF71C2F630618E4540F3A980B3
:1020D00040F60001C2F630618E4500F0478141F2C2
:1020E0000001C3F260218E4500F036810021C4F268
:1020F00021318E451DD045E11F21C1F2F0418E45B1
:1021000000F388800721C0F690418E4500F3AA8035
:102110000221C0F230418E4500F0A1800421C0F6BA
:1021200060018E4540F02E814023C1F6201300E06F
:10213000002393FAA3F143F6C132B1FA81F1C0F260
:102140000A0213424FF0010208BF990E01F01F016D
:1021500002FA01F1FA691143F961BEF1FF3F01DDB5
:10216000002150E042F2000146F2083CC4F20201B4
:10217000C5F6020C01F5807201F542739742624682
:1021800008BF1A468F4242F2001408BF1A4647F4AD
:102190008073C4F20204A342136827D18A68D1F87D
:1021A00008111143C90729D1002103F0E074CCF6CE
:1021B00084318E4508BF13F4000163D00021CCF2B6
:1021C00052718E4540F0A0800021B1EB146F40F0B9
:1021D0009B80ACF542718F42C2D1DCF8001021F037
:1021E000E071214341F08071A5E000BF4FF600513E
:1021F000CFF6FF715CF80110C907D5D0416D41F0F1
:10220000200141650121002280F85020084601B0DC
:10221000F0BD00BF40F2FF71C2F630618E4500F3A1
:102220008F802021C1F2F0418E4500F0A58040F260
:102230000041C2F600218E4540F0A48040F6000324
:10224000C2F6306375E700BF0721C0F690418E45A6
:1022500008DC0221C0F230418E457FF45FAF0123DC
:1022600067E700BF0821C0F690418E457AD0102163
:10227000C1F2C0018E4540F0858040F20013C2F2E9
:10228000801356E7ACF542718F427FF469AFDCF8FA
:10229000001042F6635221F0E071C0F23E52214339
:1022A00041F40001CCF8001040F20C01C2F20041F0
:1022B00009688909A1FB02129109022202EB41017E
:1022C0000091009900293FF44BAF0099013900912A
:1022D000009900293FF444AF009901390091009919
:1022E00000293FF43DAF0099013900910099002980
:1022F0003FF436AF009901390091009900294FF061
:102300000001E2D17FE700BFACF542718F424FF090
:1023100000017FF478AF0022CCF6B872964508BF72
:1023200013F480027FF46FAFDCF8001021F0E0714D
:10233000214341F48001CCF80010002163E700BF85
:1023400040F60001C2F630618E450FD041F2000127
:10235000C3F260218E4515D142F20003C3F29063AF
:10236000E7E600BF8023C1F65053E2E641F20003E6
:10237000C3F26023DDE600BF40F20023C2F2B05397
:10238000D7E600BF00210023C4F684318E4504BF88
:102390000023C4F6B873CCE642F200020168C4F22E
:1023A0000202914218BF704780B500F009F880B270
:1023B000BDE88040FFF7E0BB704700000000000070
:1023C0000068006C704700002DE9F04F81B00446B2
:1023D00042F2000046F20831C4F20200C5F60201E2
:1023E000276800F5807A00F54279574508BF4946CD
:1023F000874208BF49463E687D68B207D1F8008031
:102400000FD515F002010CD0606DC00603D4606DCD
:1024100040F4006060652046FFF7D6FC2768022183
:102420003960710708F01F0B02D515F0040104D1C3
:10243000310755D515F0080152D0214651F8542FD7
:10244000D20603D40A6842F400720A60FA6812F4F1
:10245000406F3FD1BBFA8BF2ABF10503B3FA83F3C4
:1024600052095B09384642EA030CABF10903B3FA9F
:1024700083F342F20002C4F20202574508BF10463D
:102480005B0943EA0C02D207024618BF3A46B8423B
:1024900008BF0246D26892041CD43A68120719D5C4
:1024A000BA6852070CD47A6822F00C027A60086885
:1024B00020F4807008600868C00407D50AE000BFF7
:1024C000606D04F1580140F010006065086840F04C
:1024D000010008602046FFF75FFF27680C21396084
:1024E000B10602D515F0200104D171062CD515F0E6
:1024F000400129D0214651F8542FD20603D40A684E
:1025000042F400520A6042F200023846C4F202026B
:10251000574508BF104608F01E030246062B08BFA9
:102520003A46BBF1000F08BF3A46B84208BF024620
:10253000F86C10F4C07FFB68D26879D02046FFF7B2
:1025400047FC27686020386030060CD515F0800005
:1025500009D0606D40F480306065204600F0C8F915
:10256000276880203860F0050DD515F480700AD0FA
:10257000606D40F4003060652046FFF731FC27684D
:102580004FF480703860B0050DD515F400700AD096
:10259000606D40F4802060652046FFF725FC2768C9
:1025A0004FF400703860F00627D515F0100024D0E5
:1025B000206BA0B1BBF1000F5CD046F2083042F2B4
:1025C0000001C5F60200574508BF4846C4F20201A3
:1025D0008F4208BF4846006810F4404F0BD0606D32
:1025E00040F480606065A06D40F00200A065204668
:1025F000FFF7E2FE276810203860700514D515F447
:10260000806011D0606D40F480406065A06D40F046
:102610000800A0654FF480603860204601B0BDE836
:10262000F04FFFF7D9BB00BF01B0BDE8F08F00BF8E
:10263000900106D503F4406002F40053C0187FF403
:102640007DAF386840067FF579AF12F400107FF453
:1026500075AFB868000711D4786820F06000786022
:10266000086820F4805008600868C0053FF566AF30
:102670000AE000BFF8688007B1D1BCE7606D04F1E3
:10268000580140F010006065086840F001000860E3
:1026900054E700000000000070B582B00446002836
:1026A0004FF0000001902DD0606D30B9204600F051
:1026B00023F90020A06584F8500020688168890013
:1026C0004FF6C071C5F6FF7102D582680A4082607C
:1026D0008268D20031D4826801F18051114042F603
:1026E000635241F08051816040F20C01C0F23E52D1
:1026F000C2F2004109688909A1FB0212012101EB24
:10270000921105E00126304602B070BD01990139F1
:102710000191019989B1019901390191019961B141
:10272000019901390191019900291FBF01990139CE
:102730000191019918BF0029E8D18168C90009D425
:10274000616D012641F010016165A16D41F001014B
:10275000A16500E000268168626D02F0100201F0C0
:1027600004018918616D40F0918021F4817102317A
:1027700061658168C90728D142F2001240F4807176
:10278000C4F20202914242F20001C4F2020140F09E
:10279000A5808A68D1F808311A43D20715D101F50E
:1027A000807201F5427346F2080C9042C5F6020CA5
:1027B0001A4618BF0CF54072884208BF1A46606876
:1027C000116821F47C110843106000F045FF41F2CC
:1027D000030100228842A068A0F1100188BF0122F5
:1027E000B1FA81F1237F49091140226B617D1546C1
:1027F00016BF4D034A031C20012B45EA034141EA61
:10280000020141EA000106D1206A0022CFF6FE72E1
:1028100002EB40400143606A20B100F47870A26A84
:102820001043014320684CF20303CFF6F073C268F3
:102830001A401143C1608168826801F0040102F00E
:102840000802891836D1217D44F20305E26AC36883
:1028500042EA813123EA05021143C16094F838103D
:10286000012901691AD14FF61E020125CFF6004257
:10287000CFF6FF751140D4E90F231943636C05EBC4
:1028800002421143A26C1943114309E041F01000C8
:1028900001266065304602B070BD00BF21F0010125
:1028A00001610169626B21F07041114301612046B1
:1028B000FEF73AF82068E1680129026B22F00F0167
:1028C00002D1A269013A114301630121606D61F3F4
:1028D00001006065304602B070BD00BF46F20802DC
:1028E000C5F602021268D2073FF459AF6DE7000047
:1028F0007047000000000000B0B5B8B0044602A860
:102900002830982100253395CDE93655CDE9345549
:10291000FDF75DFD42F200012068C4F20201884229
:1029200002D038B0B0BD00BF4FF4002002900220AA
:1029300004900C210395CDE90510CDE90700C020D6
:1029400009902020CDE90A0502A801F0A1FF08B1F5
:10295000FFF77EF944F2D840C5F60200016841F065
:1029600020010160016801F0200101910199816855
:1029700041F001018160806833A900F001000190FD
:10298000019840203390032034900020359000209F
:10299000C5F6020000F07CFD12200621002201F0A5
:1029A00063FB122001F04CFB38B0B0BD000000000A
:1029B00070B542F2000446F20836C4F2020401681F
:1029C00004F5807204F54273C5F60206914208BF11
:1029D0001E46A14208BF1E4635688968490703D4D0
:1029E00090F85010012901D1022070BD012180F81A
:1029F00050100646FEF730F820B1002086F850004F
:102A0000012070BD306804F580729042314618BFD5
:102A10000446736D40F6017605F01F0C23EA0606A6
:102A2000231A06F580764E6518BFBCF1000F03D15E
:102A30004E6D26F480164E65B3FA83F54E6DF304A1
:102A40004FF0000644BF8E6D26F0060600236D0988
:102A50008E651C26066081F85030436823F01C0305
:102A60004360D1F810E07346BEF1080F0E6B18BF3B
:102A70000423426842EA030242600EB12DB10EE027
:102A8000426842F0100242604DB9BCF1090F29D8EA
:102A9000012240F2212302FA0CF21A4222D0C2682B
:102AA000920115D54A6D012363F30D324A656FF02B
:102AB0004001BEF1080F08BF6FF020014FF0200267
:102AC000436808BF4022194041604168114341609A
:102AD0004FF6C0728168C7F6FF7211400431816001
:102AE000002070BD4A6D42F480124A65E26892018E
:102AF00002D4002070BD00BF4A6D012363F30D3284
:102B00004A65BEF1080F416808D121F020014160FB
:102B1000416841F040014160002070BD21F040015A
:102B20004160416841F020014160002070BD00001B
:102B30002DE9F041044600F097FD1CB3054694F8DA
:102B40003500022822D140F20F472668C4F202075E
:102B500040F26F48BE426FF00E00C4F202081DDC66
:102B60006F21C4F202018E422ADC3F21C4F202012D
:102B70008E4241DC1021C4F202018E4263D0282132
:102B80005CE000BF0120BDE8F08100BF80206065EF
:102B90000120002184F83410BDE8F08146451BDC9B
:102BA00040F23F41C4F202018E422DDC40F210415E
:102BB000C4F202018E4246D040F228413EE000BFFE
:102BC0009F21C4F202018E4228DC7021C4F202016E
:102BD0008E4238D0882131E040F29F41C4F2020198
:102BE0008E4223DC40F27041C4F202018E422AD0B0
:102BF00040F2884122E000BF4021C4F202018E422F
:102C000021D058211AE000BF40F24041C4F2020135
:102C10008E4218D040F2584110E000BFA021C4F20B
:102C200002018E420FD0B82108E000BF40F2B84147
:102C3000C4F202018E4206D040F2A041C4F2020169
:102C40008E42314607D13146306820F01E0041F8EF
:102C5000140B6FF080000A68464500EA0200086025
:102C60001ADC9F20C4F20200864233DC5720C4F2F3
:102C7000020086425ADC1020C4F20200864200F0B4
:102C800097802820C4F20200864200F09180402004
:102C9000C4F202008AE000BF45F22F40C5F60200F0
:102CA00086422DDC40F2B740C4F2020086424BDC83
:102CB00040F27040C4F20200864279D040F288406F
:102CC000C4F20200864273D040F2A040C4F2020077
:102CD0006CE000BF40F22740C4F20200864243DCB1
:102CE000A020C4F20200864262D0B820C4F20200E2
:102CF00086425DD040F21040C4F2020056E000BFB0
:102D000045F26B40C5F6020086423FDC45F230409A
:102D1000C5F6020086424BD045F24440C5F602009B
:102D2000864245D045F258403EE000BF5820C4F2EC
:102D3000020086423CD07020C4F20200864237D0A6
:102D40008820C4F2020031E040F2B840C4F2020030
:102D500086422DD045F20840C5F60200864227D0B3
:102D600045F21C4020E000BF40F22840C4F20200BF
:102D700086421DD040F24040C4F20200864217D085
:102D800040F25840C4F2020010E000BF45F26C402F
:102D9000C5F6020086420BD045F29440C5F602000B
:102DA000864205D045F28040C5F60200864204D135
:102DB000206E016821F480710160306820F001000C
:102DC000306000BF3068C00710D000F04DFC401BE1
:102DD0000628F7D320206065032084F83500012001
:102DE000002184F83410BDE8F08100BF206808217C
:102DF000B8424FF03F0211DC6F23C4F20203984245
:102E00001EDC3F23C4F20203984235DC1023C4F2D7
:102E10000203984257D0282350E000BF40451BDCF6
:102E200040F23F43C4F2020398422DDC40F21043CB
:102E3000C4F20203984246D040F228433EE000BF6D
:102E40009F23C4F20203984228DC7023C4F20203D9
:102E5000984238D0882331E040F29F43C4F2020305
:102E6000984223DC40F27043C4F2020398422AD015
:102E700040F2884322E000BF4023C4F2020398429C
:102E800021D058231AE000BF40F24043C4F20203AD
:102E9000984218D040F2584310E000BFA023C4F27B
:102EA000020398420FD0B82308E000BF40F2A043CD
:102EB000C4F20203984206D040F2B843C4F20203BF
:102EC000984240F0C580D4E9163707F01F07404507
:102ED00002FA07F25A5019DC9F21C4F2020188421B
:102EE00032DC5721C4F20201884259DC1021C4F2BD
:102EF0000201884200F096802821C4F20201884233
:102F000000F090804021C4F2020189E045F22F4197
:102F1000C5F6020188422DDC40F2B741C4F202013D
:102F200088424BDC40F27041C4F20201884279D001
:102F300040F28841C4F20201884273D040F2A041BD
:102F4000C4F202016CE000BF40F22741C4F202016A
:102F5000884243DCA021C4F20201884262D0B82139
:102F6000C4F2020188425DD040F21041C4F2020175
:102F700056E000BF45F26B41C5F6020188423FDCD6
:102F800045F23041C5F6020188424BD045F244413A
:102F9000C5F60201884245D045F258413EE000BFE7
:102FA0005821C4F2020188423CD07021C4F20201CF
:102FB000884237D08821C4F2020131E040F2B841A2
:102FC000C4F2020188422DD045F20841C5F6020143
:102FD000884227D045F21C4120E000BF40F2284142
:102FE000C4F2020188421DD040F24041C4F2020105
:102FF000884217D040F25841C4F2020110E000BFED
:1030000045F26C41C5F6020188420BD045F294416D
:10301000C5F60201884205D045F28041C5F602019D
:1030200088420BD1616EA26EE06E4A6030B10168D9
:1030300021F480710160D4E91C014160012084F811
:1030400035000020002184F83410BDE8F08100BF75
:103050000421012237E70000F0B190F83510022971
:1030600018D180B540F20F420168C4F202029142C9
:1030700014DC6F23C4F20203994225DC3F23C4F21F
:10308000020399423CDC1023C4F2020399425DD052
:10309000282357E0802141650120704740F26F43AB
:1030A000C4F2020399421BDC40F23F43C4F2020324
:1030B00099422DDC40F21043C4F20203994245D0FC
:1030C00040F228433EE000BF9F23C4F2020399422E
:1030D00028DC7023C4F20203994237D0882331E000
:1030E00040F29F43C4F20203994223DC40F2704352
:1030F000C4F20203994229D040F2884322E000BF83
:103100004023C4F20203994220D058231AE000BFA2
:1031100040F24043C4F20203994217D040F25843B0
:1031200010E000BFA023C4F2020399420ED0B823DE
:1031300008E000BF40F2B843C4F20203994205D050
:1031400040F2A043C4F20203994275D191424FF07C
:10315000040280F8352011DC6F20C4F202008142A5
:1031600022DC3F20C4F20200814239DC1020C4F28C
:103170000200814259D0282054E000BF40F26F4045
:10318000C4F2020081421BDC40F23F40C4F2020064
:1031900081422DDC40F21040C4F20200814244D052
:1031A00040F228403EE000BF9F20C4F2020081426E
:1031B00028DC7020C4F20200814236D0882031E041
:1031C00040F29F40C4F20200814223DC40F2704092
:1031D000C4F20200814228D040F2884022E000BFC1
:1031E0004020C4F2020081421FD058201AE000BFE4
:1031F00040F24040C4F20200814216D040F25840F2
:1032000010E000BFA020C4F2020081420DD0B8201F
:1032100008E000BF40F2B840C4F20200814204D08E
:1032200040F2A040C4F202008142086820F0010090
:103230000860002080BD00BF0A6822F00E020A600C
:1032400045F25742C5F6020291420A6822F0010295
:103250000A600FDC45F22F42C5F60202914219DCEA
:1032600045F20842C5F60202914229D045F21C42BD
:1032700022E000BF45F27F42C5F60202914213DC14
:1032800045F25842C5F60202914219D045F26C420D
:1032900012E000BF45F23042C5F6020291420FD063
:1032A00045F2444208E000BF45F29442C5F60202EE
:1032B000914205D045F28042C5F6020291421AD1F0
:1032C000D0E9181CD0E916E30A6822F480720A607B
:1032D00003F01F01012202FA01F1CEF80410816E01
:1032E000CCF80410C16E31B10A6822F480720A6011
:1032F000D0E91C124A60012180F83510016D0022CE
:10330000002980F8342094D08847002080BD000038
:10331000002908BF70472DE9F04F81B000F1264227
:1033200042F2004302F1FF72C5F602030A259842F9
:103330004FEAB22440F2040E08BF0925092CC5F655
:10334000000E38BF4FEAB22500F1200C0022002702
:103350000024009529E000BF0323066803FA02FA5F
:103360006FF0030303EA540346EA0A06066007F017
:103370001C060F2505FA06F95CF8036026EA090623
:103380004CF80360C36823EA0A03C360436823EA76
:1033900008034360836823EA0A0383600134043727
:1033A00031FA04F302F102023CD0012303FA04F8DB
:1033B00018EA0109F2D040F2084324F00305C5F6EB
:1033C000000307F00C0BED580F2303FA0BFA009BD8
:1033D00005EA0A0503FA0BF6B542BDD1DEF87C50CA
:1033E0004FF0B04325EA0905CEF87C50DEF8805056
:1033F00025EA0905CEF88050DEF8005025EA0905D7
:10340000CEF800501E68A50826EA09061E6040F2A4
:103410000843C5F6000353F8256026EA0A0643F878
:10342000256099E701B0BDE8F04F7047000000004B
:10343000B0F5007F18BF704780B582B040F27811B8
:103440000020C2F200410190086801A95BF044F835
:10345000019850B14EF604504FF08051CEF200006A
:103460000160BFF34F8FBFF36F8F02B0BDE88040A4
:1034700070470000000000008821C5F600010A68BE
:10348000024208BF70470860FFF7D2BF000000008B
:103490002DE9F04F83B00F68002F00F0C98000F1D4
:1034A000264642F2004506F1FF76C5F602050A22DD
:1034B000A8424FEAB62540F2040C08BF092200F1E9
:1034C00020030093092DC5F6000C38BF4FEAB62241
:1034D000002400264FF0000801920AE008F10108DC
:1034E0000F6837FA08F206F1020604F1040400F04E
:1034F0009F80012202FA08FE17EA0E09EED0D1F8E9
:1035000004B003220BF00307B2407D1E6FEA020AEB
:10351000012D11D88268CD6802EA0A02B5402A431B
:103520008260CBF30015426822EA0E0205FA08F524
:103530002A43426004E000BF032F01D103271FE0AC
:10354000C2688D6802EA0A02B540022F42EA05020B
:10355000C26015D16FF0030204F01C0502EA580B9B
:10356000009A0F2352F80BE0AB400F692EEA0303D9
:10357000AF403B4342F80B30D1F804B00BF00307E7
:10358000026807FA06F302EA0A021BF4403F42EA25
:1035900003020260A2D044F2F44340F2084EC5F6A2
:1035A0000203C5F6000E0F251A6842F002021A60E7
:1035B0001A6802F00202029228F00302029B04F051
:1035C0000C0352F80E709D40AF43019D05FA03F3C2
:1035D0003B4342F80E304FF0B04EDEF800204B680F
:1035E00042EA0907DD0258BF22EA09079D02CEF828
:1035F0000070DCF8002042EA090758BF22EA0907F8
:103600009D03CCF80070DCF8802042EA090758BF1F
:1036100022EA0907DB03CCF88070DCF87C2042EA60
:10362000090758BF22EA0907CCF87C7056E700BFAB
:1036300003B0BDE8F08F00000069084018BF01200A
:103640007047000000000000002A08BF09048161E3
:10365000704700000000000041F20000C5F6004085
:103660000068000C7047000044F6EC30C2F20540E0
:10367000006870470000000090F84120202A03D124
:1036800090F84020012A01D102207047242280F8BE
:1036900041200268136823F001031360136823F4C8
:1036A00080531360136819431160116841F00101E0
:1036B0001160202180F84110002180F84010002086
:1036C000704700000000000090F84120202A03D13C
:1036D00090F84020012A01D102207047242280F86E
:1036E00041200268136823F001031360136823F478
:1036F000706343EA01211160116841F0010111601A
:10370000202180F84110002180F8401000207047EF
:1037100010B310B590F8411031B9002180F8401075
:10372000044600F085FA2046242180F8411090E8F4
:103730001210C3680A68012B22F001020A6024F00B
:1037400070620A618A6822F400428A6006D14CF4F1
:1037500000428A600CE000BF01207047022B4CF44D
:1037600004428A6004D14A6842F4006203E000BF68
:103770004A6822F400624A6000F1100C4A6842F084
:10378000007242F400424A60CA6822F40042CA60F1
:103790009CE81C101A4342EA0422CA60026A42EA08
:1037A0000C020A600A6842F001020A6000214164CA
:1037B000202280F84120016380F84210002010BDD3
:1037C0002DE9F04F83B0044690F84100202807D13E
:1037D0000C9F4FB10D9E3EB194F8400001280BD1D3
:1037E000022003B0BDE8F08F4FF400706064012048
:1037F00003B0BDE8F08F00BF9A469346884601208B
:1038000084F84000FFF730FF216805468A691204FA
:1038100049D4222084F84100402084F842005FFA15
:103820008AF04FF000096FF39F28C4F84490676254
:1038300048EA0040668549F60006C4F83490CFF6A1
:1038400000464A68CDF808803240DDF838801044E0
:103850002A4600F5005048602046414604F068FAC8
:10386000C0B9BAF1010F206809D04FEA1B2181626B
:10387000204641462A4604F05BFA58B920685FFAB0
:103880008BF181624021002220464346009504F0DE
:103890009BF948B384F84090012003B0BDE8F08F55
:1038A00088690004B5D5192120462A4604F0DCF8C1
:1038B00000289CD1FFF7D8FE401B21681A28EFD3BF
:1038C00088690004ECD5606C40F020006064202022
:1038D00084F84100002084F8420084F84000012070
:1038E00003B0BDE8F08F00BF608D40F2000AC0F267
:1038F000FF1AB0F5807F09D320680AF5105350F8FD
:10390000041F01EA0602FF210AE000BF618D206862
:10391000CAB250F8043F334043EA02420AF59233F8
:10392000029F1A4307F100794FF0FF0B06F58066FE
:103930003A43026021850BE0608D21682085C0B28A
:103940004A6849EA0040324010434860608DA8B39D
:103950000421002220464346009504F035F9002852
:103960007FF445AF2068616A406A0870218D606A03
:1039700001306062481E2085618D01396185618D4D
:103980000029E3D00004E1D18021002220464346F3
:10399000009504F019F900287FF429AF608DB0F587
:1039A000807FC9D32168A4F828B0486800EA0602DD
:1039B0000298104340EA0A00C7E700BF204641468C
:1039C0002A4604F075F900287FF411AF2068202101
:1039D0004EF60003C161CFF6006342681A404260B0
:1039E00084F84110002084F8420084F8400003B0BD
:1039F000BDE8F08F000000002DE9F04F81B00446D3
:103A000090F84100202807D10A9F4FB10B9E3EB18C
:103A100094F8400001280BD1022001B0BDE8F08FDE
:103A20004FF400706064012001B0BDE8F08F00BF6A
:103A30009A4691468B46012084F84000FFF714FE19
:103A4000216805468A6912044DD4212084F841007A
:103A5000402084F842005FFA8AF04FF000086FF3CC
:103A60009F2BC4F8448067624BEA0040668549F6A4
:103A70000046CFF60046C4F834804A68A6F5806355
:103A80001A405F461044DDF830B040F080702A469E
:103A900040F4005048602046594604F049F9C0B946
:103AA000BAF1010F206809D04FEA1921816220463E
:103AB00059462A4604F03CF958B920685FFA89F162
:103AC00081628021002220465B46009504F07CF84C
:103AD00050B384F84080012001B0BDE8F08F00BFF2
:103AE00088690004B1D5192120462A4603F0BCFF9D
:103AF000002898D1FFF7B8FD401B21681A28EFD3A2
:103B000088690004ECD5606C40F0200060642020DF
:103B100084F84100002084F8420084F8400001202D
:103B200001B0BDE8F08F00BF608D40F20009C0F227
:103B3000FF19B0F5807F09D32068B4464B4650F892
:103B4000041F01EA0602FF210BE000BF618DB446AD
:103B50002068CAB250F8043F334043EA02424FF0B3
:103B600000731A4307F1007A4FF0FF0866463A43A4
:103B7000026021850CE000BF608D21682085C0B205
:103B80004A684AEA0040324010434860608D88B37A
:103B9000204659462A4604F0CBF800287FF443AF6C
:103BA000606A216810F8012B8A626062608D0138BA
:103BB0006085208D01382085618D0029E6D00004C4
:103BC000E4D18021002220465B46009503F0FCFFF3
:103BD00000287FF428AF608DB0F5807FCCD32068BB
:103BE000A4F8288041683140394341EA0901416025
:103BF000CCE700BF204659462A4604F059F8002871
:103C00007FF411AF206820214EF60003C161CFF68A
:103C1000006342681A40426084F84110002084F832
:103C2000420084F8400001B0BDE8F08F00000000C1
:103C30002DE9F043B7B000210446CDE93511CDE9B7
:103C40003311329102A8C021FCF7C1FB45F6FF31C8
:103C50002068C4F2000188423CDC45F20041C4F215
:103C60000001884274D045F60001C4F20001884288
:103C700040F0EA800820029002A80024039400F09B
:103C800007FE08B1FDF7E4FF44F2E04532A9C5F6AE
:103C90000205286840F002002860286800F0020051
:103CA000019001984FF4406032901220CDE9330426
:103CB0000420369040F200403594C5F60200FFF72C
:103CC000E7FBA86840F48000A860A86800F48000C2
:103CD000B8E000BF45F60041C4F20001884267D059
:103CE00041F60041C5F60001884240F0AD80102049
:103CF000029002A80024039400F0CAFD08B1FDF769
:103D0000A7FF44F2E04540F20041C5F60205C5F6C2
:103D10000201286840F008002860286800F00800C8
:103D2000019001984FF4405032901220CDE93304B5
:103D30000420369001F5006032A93594FFF7A8FB06
:103D4000686940F080006861686900F0800079E08F
:103D50000820029002A80024039400F099FD08B105
:103D6000FDF776FF44F2E04532A9C5F60205286862
:103D700040F002002860286800F0020001900198DD
:103D8000C02032901220CDE9330403203590042066
:103D9000369040F20040C5F60200FFF779FBA868B4
:103DA00040F40010A860A86800F400104AE000BFCA
:103DB0000820029002A80025039500F069FD08B1D3
:103DC000FDF746FF44F2E04640F20047C5F6020622
:103DD000C5F6020732AC4FF012083068214640F0B9
:103DE0000400306030684FF0040900F004000190D6
:103DF0000198306840F001003060306800F0010048
:103E0000019001984FF40070329007F58060CDE981
:103E100033853595CDF8D890FFF73AFB4FF4807095
:103E20002146CDE93208A7F58060CDF8D890CDE9DC
:103E30003455FFF72DFBB06840F40000B060B06867
:103E400000F400000190019837B0BDE8F083000055
:103E500040F2040044F6EC31C2F20040C2F20541E7
:103E600000780A68104408607047000000000000F5
:103E700080B5032000F028F901F072FC44F21841EB
:103E80004FF65633C5F60201C0F605030A68C2F3C1
:103E900003229A5C096801F00F0102F01F02595CCD
:103EA000D04040F21002C2F2004201F01F0120FA9D
:103EB00001F1116040F20C01C2F2004108600F20D4
:103EC00000F00AF800281CBF012080BD00F0A8F80F
:103ED000002080BD000000000F2847D8B0B58AB090
:103EE0000446362000222146002500F0BDF8362089
:103EF00000F0A6F840F20800C2F20040046044F26C
:103F0000E840C5F60200016841F010010160006858
:103F100001A900F010000290029802A801F06CFBC9
:103F2000079C002C18BF012401F0BAFB4DF68361F9
:103F3000A040C4F21B3141F20002A0FB010140F29B
:103F40004070C2F200404FF0FF33C4F20002026042
:103F500003EB9141C0E9011540F2E731C0E90315D7
:103F600002F0A2F820B101200AB0B0BD01207047D4
:103F700040F24070C2F2004002F056F90AB0B0BD03
:103F800010B54EF6A05E4378CEF2000E90F800C059
:103F90004EF8083CDEF8003023F00103CEF8003084
:103FA00043684EF8043C037BC27A817A447B120654
:103FB00042EA0372837B42EAC141C27B41EA844107
:103FC000447A41EA4341007A41EA024141EA04214C
:103FD00041EA400040EA0C00CEF8000010BD0000AD
:103FE0004EF62450CEF20000BFF35F8F016821F43B
:103FF000803101600021016770470000000000006F
:104000004EF6245140F00100CEF200010867086826
:1040100040F480300860BFF34F8FBFF36F8F70475D
:1040200081B044F2F440C5F60200016841F002019B
:104030000160006800F002000090009801B0704735
:10404000002848BF704700F01F01012202FA01F169
:104050004EF20012C0F34A10CEF2000242F82010D5
:10406000704700000000000070B54EF60C5C4FF089
:10407000FF36CEF2000C00F1604505F56445DCF832
:104080000030C3F3022E8EF00703042B28BF042355
:10409000BEF1030406FA03F321EA030100F00F0363
:1040A00038BF0024043B0028634406FA04F048BFEC
:1040B00003F10C05A14022EA00000843000128702A
:1040C00070BD0000000000004EF60C514FF6FF03DB
:1040D000CEF200010A681A4060F30A2242F08060C2
:1040E00040F0FD7008607047B0B544F60C05C5F6A9
:1040F000020529684907296806D401F00701081A52
:1041000018BF0120B0BD00BF21F00701084328609F
:10411000FFF7AAFA044600BF55F8080C800407D43C
:10412000FFF7A2FA001BB0F57A7FF5D90120B0BDE8
:104130000020B0BD0000000080B501F089FA44F213
:1041400020414FF65632C5F60201C0F60502096855
:10415000C1F30211515C01F01F01C84080BD000095
:1041600080B544F23041C5F6020151F8083C51F8DF
:10417000082C51F804CCC2F3051E4A68BEF1000FAA
:104180001AD0C2F3CC0203F0030300EE102A9FED15
:104190003A1AB8EE400A20EE010A9FED381ADFE81D
:1041A00003F00323110700BF51F8302C92060DD401
:1041B0009FED331A18E000BF00218160C0E90011B3
:1041C00080BD00BF9FED2F1A0EE000BF51F8302CCC
:1041D00049F20003C0F2D033C2F3C10223FA02F263
:1041E00001EE102AB8EE411A0A689FED273A6FF3E4
:1041F0005F2202EE102A5FEACC7203FE000A03EE91
:1042000010EA0A68B8EE422AC2F34622B8EE433AF0
:10421000013230EE020AB7EE002A81EE031A30EEC8
:10422000020A21EE000A01EE102AB8EE411A80EED1
:10423000011ABCEEC11A80ED001A0A68C2F30642E8
:10424000013201EE102AB8EE411A80EE011ABCEEDE
:10425000C11A80ED011A0968C1F30661013101EE4E
:10426000101AB8EE411A80EE010ABCEEC00A10EE38
:10427000101A816080BD00BF000000390024744A1C
:104280000024744C20BCBE4B000000000000000065
:1042900080B544F2384EC5F6020E5EF8103C5EF86A
:1042A000101C5EF80C2CC1F3053CDEF80410BCF1C8
:1042B000000F19D0C9089FED3C1AD20601EAE2713D
:1042C00003F003026FF35F3100EE101AB8EE400AFC
:1042D000DFE802F0022210225EF8381C89060DD4B5
:1042E0009FED331A18E000BF00218160C0E9001182
:1042F00080BD00BF9FED2D1A0EE000BF5EF8381C98
:1043000049F20002C0F2D032C1F3C10122FA01F138
:1043100001EE101AB8EE411ADEF800109FED253AB2
:104320006FF35F2102EE101ADEF80010C1F3462190
:10433000B8EE422A013100EE032A00EE10CAB7EEB1
:10434000003AB8EE400A81EE000A32EE031A20EE7F
:10435000010A01EE101AB8EE411A80EE011ABCEE05
:10436000C11A80ED001ADEF80010C1F306410131D8
:1043700001EE101AB8EE411A80EE011ABCEEC11A15
:1043800080ED011ADEF80010C1F30661013101EE83
:10439000101AB8EE411A80EE010ABCEEC00A10EE07
:1043A000101A816080BD00BF0024744A20BCBE4B3F
:1043B0000024744C0000003980B544F2404EC5F62C
:1043C000020E5EF8183C5EF8181C5EF8142CC1F35F
:1043D000055CDEF80410BCF1000F19D0C9089FED90
:1043E0003C1AD20501EAE27103F003026FF35F3178
:1043F00000EE101AB8EE400ADFE802F002221022A6
:104400005EF8401C89060DD49FED331A18E000BFFA
:1044100000218160C0E9001180BD00BF9FED2D1A11
:104420000EE000BF5EF8401C49F20002C0F2D0323C
:10443000C1F3C10122FA01F101EE101AB8EE411ADE
:10444000DEF800109FED253A6FF35F2102EE101A9F
:10445000DEF80010C1F34621B8EE422A013100EE29
:10446000032A00EE10CAB7EE003AB8EE400A81EE19
:10447000000A32EE031A20EE010A01EE101AB8EE1D
:10448000411A80EE011ABCEEC11A80ED001ADEF866
:104490000010C1F30641013101EE101AB8EE411AC5
:1044A00080EE011ABCEEC11A80ED011ADEF8001090
:1044B000C1F30661013101EE101AB8EE411A80EE27
:1044C000010ABCEEC00A10EE101A816080BD00BF68
:1044D0000024744A20BCBE4B0024744C00000039F8
:1044E00010B584B0024641F6FF7300209B1A70EBB2
:1044F000010329DB40F2FF339B1A70EB010351DA11
:1045000082F480630B4300F0E58082F400630B4388
:1045100000F00E8182F48052114340F0A98144F2F0
:104520000041C5F60201086DC0F30232042A00F210
:10453000988148F20000C0F2BB00DFE812F00D01E4
:104540000F0127019901310147F6FF739B1A70EBA8
:10455000010353DA82F400430B4300F0DB8082F462
:1045600080330B4300F0048182F40022114340F0B9
:104570007F8144F20041C5F60201886DC0F301421B
:104580000020DFE812F0EB0005000D01750100BF0F
:104590000868800040F1658101A8FFF70DFF0398CE
:1045A00004B010BD82F480730B4353D082F40072C8
:1045B000114340F05D8144F20041C5F60201086DEF
:1045C000C0F38212042A00F24C8148F20000C0F2CB
:1045D000BB00DFE812F0C100C300DB004D010500A5
:1045E000C86C0A68520700F04052086802D5002AD9
:1045F00000F0DE80C00500F1EF80F7E082F40053A8
:104600000B434FD082F48042114340F0318144F299
:104610000044C5F60204A06DC0F30270052800F244
:104620002081DFE810F00700190103010D01F700F8
:10463000270100BF01F00CF8216A4FF65632C0F690
:104640000502C1F30211515C01F01F01C84004B022
:1046500010BD00BF44F20041C5F60201086D00F034
:104660000702042A00F2FD8048F20000C0F2BB00FD
:10467000DFE812F0720074008C00FE00060000BF3C
:10468000C86C0A68520700F04052086802D5002A38
:1046900000F08E80C00540F1A980B2F1805F00F08B
:1046A0009E80A3E044F20040C5F60200016DC1F314
:1046B0000241052900F2D580DFE811F00600D000A4
:1046C000BA00C800AE00DE0004B0BDE8104000F043
:1046D000E7BF00BF44F20041C5F60201886DC0F398
:1046E0004252042A00F2BD8048F20000C0F2BB0032
:1046F000DFE802F032344CBE040000BFC86C0A6828
:10470000520700F04052086840F16480002A4FD000
:1047100060E000BF44F20041C5F60201086DC0F33D
:1047200001720020DFE802F0021874A40868A4E017
:1047300044F20041C5F60201886DC0F30262042A0A
:1047400000F28F8048F20000C0F2BB00DFE802F008
:1047500004061E90280000BF086811E008680001E8
:1047600040F17F8001A8FFF793FD019804B010BDD0
:1047700044F20040C5F60200C16C0068C90321D4B0
:1047800080016ED501A8FFF7EBFC70E0086880009F
:1047900067D501A8FFF710FE019804B010BD00BF57
:1047A000C86C0A68520700F04052086812D58AB9EE
:1047B000C0F3C10049F20001C0F2D03121FA00F08B
:1047C00004B010BD00014CD501A8FFF761FD0398AE
:1047D00004B010BDC00509D5B2F1805F06D140F626
:1047E0000010C0F23D0004B010BD00BF0868B2F177
:1047F000005F00F400314FF0000004BF47F64000B6
:10480000C0F27D10002908BF084604B010BD00BFEB
:10481000086824E0206800E0006840F60011C00548
:10482000C0F23D0101EAE07004B010BD206800E074
:104830000068800015D501A8FFF7BEFD17E000BF96
:10484000206840070DD52068B2E700BF016849071E
:1048500007D50068ACE700BF206800E000680001F1
:1048600002D4002004B010BD01A8FFF711FD02988A
:1048700004B010BD206800E0006847F640018003E6
:10488000C0F27D1101EAE07004B010BD000000002C
:104890002DE9F0470446C07844F22C480007C5F6DD
:1048A000020828D5A06E4FEA305103292AD8DFE844
:1048B00001F0030B131B00BFD8F8001041F40031C6
:1048C000C8F8001010E000BF04F10800022103F056
:1048D000DFFE064680B906E004F12800022103F05D
:1048E0006BFF064640B9A06ED8F8241021F44011A1
:1048F0000843C8F8240000266078C00706D1354672
:104900002FE000BF01266078C007F8D0A06D042812
:1049100058D83546DFE800F004140E0B0B0000BF3A
:10492000D8F80000354640F40030C8F800002F46A3
:10493000C5B90DE004F12800002103F03DFF04E0BB
:1049400004F10800002103F0A3FE05462F464DB9EF
:10495000D8F82400A16D20F0070000250843C8F80E
:10496000240037466078800731D5E06D4FEAB010FB
:1049700004285FD8DFE800F004140E0A0A0000BF24
:10498000D8F8000040F40030C8F800002E46FDB909
:104990000EE000BF04F12800002103F00DFF04E049
:1049A00004F10800002103F073FE05462E467DB990
:1049B000D8F82400E16D20F4E07000250843C8F821
:1049C000240004E00125012760788007CDD43E460D
:1049D0006078400733D5D4F8A8004FEA7050042817
:1049E00060D8DFE800F003130D090900D8F80000D3
:1049F00040F40030C8F80000A9460DBB0EE000BF2F
:104A000004F12800002103F0D7FE04E004F10800BF
:104A1000002103F03DFE0546A9468DB9D8F82C00CB
:104A2000D4F8A81020F4600000250843C8F82C0032
:104A300005E000BF0125012660784007CBD4B146D0
:104A40006078000734D5D4F8AC004FEA3060042811
:104A50005ED8DFE800F003130D090900D8F8000064
:104A600040F40030C8F800002F4615BB0EE000BF30
:104A700004F12800002103F09FFE04E004F1080087
:104A8000002103F005FE05462F4695B9D8F82C0005
:104A9000D4F8AC1020F0E06000250843C8F82C00E2
:104AA00006E000BF01254FF0010960780007CAD475
:104AB0004F46E078800730D5E06C4FEA301003288D
:104AC00020D8DFE800F00903150900BFD8F800007E
:104AD00040F40030C8F800002E46ADB9D8F82000E8
:104AE000E16C20F0300000250843C8F8200014E0F5
:104AF00004F10800022103F0CBFD05462E461DB946
:104B0000ECE700BF012501266078C00609D434E037
:104B100001250127E0788007CED43E466078C006A4
:104B20002BD5206E4FEA3030042839D8DFE800F06A
:104B300004140E0A0A0000BFD8F8000040F4003048
:104B4000C8F800002F46CDB90EE000BF04F12800E0
:104B5000002103F031FE04E004F10800002103F01D
:104B600097FD05462F464DB9D8F82400216E20F454
:104B7000E04000250843C8F82400374660788006E6
:104B800035D5606E4FEA3040052815D8DFE800F0D3
:104B9000041A0E04040400BF2E46DDB91EE000BF57
:104BA0000125012760788006EBD420E004F128007D
:104BB000012103F001FE0AE001250126607840068C
:104BC00019D449E004F10800012103F061FD054614
:104BD0002E461DB1607840060DD43DE0D8F8240083
:104BE000616E20F4E02000250843C8F824003E460A
:104BF0006078400630D5D4F8B0004FEA3070052810
:104C00000ED8DFE800F00313070303032F46ADB906
:104C100018E000BF04F12800012103F0CDFD0AE0F7
:104C200001250127607800061AD43CE004F1080051
:104C3000012103F02DFD05462F461DB160780006C9
:104C40000ED430E0D8F82C00D4F8B01020F0E040BA
:104C500000250843C8F82C0037466078000622D5A6
:104C6000206F58B1B0F1005F0CD0B0F1805F37D148
:104C7000D8F8000040F40030C8F800002E469DB976
:104C800008E000BF04F10800012103F001FD054622
:104C90002E464DB9D8F82400216F20F04050002551
:104CA0000843C8F824003E46E078C0071DD0A06C39
:104CB000032855D8DFE800F008024A08D8F80000B9
:104CC00040F40030C8F80000A9467DB9D8F82000AB
:104CD000A16C20F0030000250843C8F8200004E080
:104CE00001250126E078C007E1D1B146A078400651
:104CF00002D44F4618E000BFD8F8D40340F48070C7
:104D0000C8F8D403FEF7B0FC064600BFD8F8D403B9
:104D1000C00507D4FEF7A8FC801B6428F6D903253C
:104D2000032701E02F46FDB12078C00700F06F8017
:104D3000E06F4FEAF00005284ED8DFE800F003539B
:104D400047030303002D2E4654D157E004F1080019
:104D5000022103F09DFC0546002DA946C6D1B5E70A
:104D600001254FF00109C1E7D8F84410D4F8B40088
:104D7000414011F4407F11D0D8F84410D8F84420B5
:104D800042F48032C8F84420D8F8442021F440711D
:104D900022F48032C8F84420C8F84410B0F5807F6F
:104DA00040F0E082FEF760FC064641F2883A0325B7
:104DB000032700BFD8F84400800700F1D182FEF736
:104DC00053FC801B5045F5D9AEE700BF04F1280025
:104DD000012103F0F1FC0AE001250126207880077B
:104DE00019D446E004F10800012103F051FC054606
:104DF0002E461DB1207880070DD43AE0D8F828005F
:104E0000E16F20F0380000250843C8F828003E462E
:104E1000207880072DD5A06F05280FD8DFE800F097
:104E200004140804040400BF2F46ADB918E000BF05
:104E300004F12800012103F0BFFC0AE0012501274D
:104E40002078400719D447E004F10800012103F05D
:104E50001FFC05462F461DB1207840070DD43BE0CE
:104E6000D8F82800A16F20F0070000250843C8F8F3
:104E700028003746207840072ED5D4F8940005281E
:104E80000ED8DFE800F00313070303032E46ADB985
:104E900018E000BF04F12800012103F08DFC0AE0B6
:104EA00001250126207880061AD44BE004F1080081
:104EB000012103F0EDFB05462E461DB1207880064A
:104EC0000ED43FE0D8F82C00D4F8941020F007005E
:104ED00000250843C8F82C003E462078800631D5CE
:104EE000D4F890004FEA307005280FD8DFE800F0C2
:104EF00004140804040400BF2F46ADB918E000BF35
:104F000004F12800022103F057FC0AE001250127E3
:104F1000207840061AD44BE004F10800002103F089
:104F2000B7FB05462F461DB1207840060ED43FE062
:104F3000D8F82800D4F8901020F0E040002508436D
:104F4000C8F8280037462078400631D5D4F89C00B0
:104F50004FEAB02005280FD8DFE800F00414080459
:104F6000040400BF2E46ADB918E000BF04F12800CC
:104F7000022103F021FC0AE0012501262078000629
:104F80001AD44EE004F10800002103F081FB05462D
:104F90002E461DB1207800060ED442E0D8F82C0031
:104FA000D4F89C1020F4E05000250843C8F82C00E9
:104FB0003E462078000634D5D4F8A0004FEA703081
:104FC000052815D8DFE800F0041A0E04040400BF19
:104FD0002F46E5B12068010727D4C1063ED400035F
:104FE00055D477E004F12800022103F0E5FB0AE044
:104FF0000125012720680107EFD516E004F108001C
:10500000002103F045FB0546002D2F46E2D1D8F8DC
:105010002C00D4F8A01020F4604000250843C8F804
:105020002C00374620680107D7D5D4F88400B0F5A6
:10503000805F09D104F12800022103F0BDFB0028A4
:1050400018BF0127D4F88400D8F8281021F4405163
:105050000843C8F828002068C106C0D5D4F89800D5
:10506000B0F5807F09D104F12800022103F0A4FBF0
:10507000002818BF0127D4F89800D8F82C1021F484
:1050800040710843C8F82C002068000322D5D4F8EA
:10509000A400B0F5003F11D0B0F5803F08D0002843
:1050A00044D104F10800002103F0F2FA05E000BF4A
:1050B00004F12800022103F07FFB05462E4655B976
:1050C000D8F82C00D4F8A41020F440300025084370
:1050D000C8F82C003E46A07840072CD5D4F88800AC
:1050E000B0F5401F0BD0B0F5001F0BD0B0F5801FFE
:1050F0002AD1D8F8000040F40030C8F800002F464C
:10510000D5B907E004F12800012103F055FB05465D
:105110002F468DB9D8F82800D4F8881020F4401014
:1051200000250843C8F8280005E000BF0125012636
:10513000A0784007D2D43746A078C00709D13E46B0
:105140002168880015D532E001250127A078C00725
:10515000F5D0206DB0F5803F10D018BBD8F8000016
:1051600040F40030C8F800002E4685B12168880060
:105170001DD460688A0326D469E000BF04F10800EA
:10518000022103F085FA0546002D2E46EED1D8F80F
:105190002000216D20F4803000250843C8F820004D
:1051A000CDE700BF0125012621688800E1D504F183
:1051B0002800022103F000FB002818BF0126D4E9D3
:1051C00000108A0343D5D4F880206FF0010303EB6D
:1051D0003223022B0BD34FEA322343B1012B40F091
:1051E000B980D8F8003043F40033C8F800303DB33C
:1051F000CA022FD4CA0037D48A0240D44A0048D405
:10520000CA0F55D109025DD4C10766D181076FD499
:10521000410779D4010700F18380C10600F18C8039
:10522000800607D504F12800022103F0C5FA002802
:1052300018BF0125002D18BF01252846BDE8F087BD
:10524000D8F8283023F440731A43C8F8282035468C
:10525000CA02CFD5D8F82420636F22F000421A4347
:10526000C8F82420CA00C7D558F81C2CD4F8B83088
:1052700022F480421A4348F81C2C8A02BED5D8F882
:105280002420E36E22F080721A43C8F824204A00DA
:10529000B6D558F81C2C22F4004248F81C2CD4F83F
:1052A000BC2058F81C3C1A4348F81C2CCA0FA9D043
:1052B000D8F82020636D22F040521A43C8F820200D
:1052C0000902A1D5D8F82810D4F88C2021F4400187
:1052D0001143C8F82810C10798D004F10800002134
:1052E00003F0D6F9002818BF0546606881078FD5FE
:1052F00004F10800012103F0CBF9002818BF05468E
:10530000606841077FF586AF04F10800022103F0D1
:10531000BFF9002818BF0546606801077FF57DAF1B
:1053200004F12800002103F047FA002818BF0546C1
:105330006068C1067FF574AF04F12800012103F015
:105340003BFA002818BF0546606880063FF56AAF43
:1053500070E700BF0125CA027FF54CAF7AE700BFB6
:10536000D4F8B4004FF6CF7358F81C2CC0F2FF03EA
:1053700000F4407122F47C5203EA10136FF31F30E3
:10538000B1F5407F08BF1A43002548F81C2CD8F817
:1053900044100843C8F84400FFF7ABBC000000000D
:1053A0002DE9F04381B0002800F0208142F200098D
:1053B0000446C5F20029D9F8000000F00F00814230
:1053C0000DD9D9F8000020F00F000843C9F80000FB
:1053D000D9F8000000F00F00884240F007812068F3
:1053E00044F218464207C5F602060AD52269336818
:1053F00003F070039A4204D9336823F070031A4310
:10540000326002070AD56269736803F070039A423A
:1054100004D9736823F070031A437260C2060AD578
:10542000A269736803F4E0639A4204D9736823F4B1
:10543000E0631A43726082060AD5E269B36803F03A
:1054400070039A4204D9B36823F070031A43B26020
:1054500010F002020AD0E368376807F00F07BB427A
:1054600004D9376827F00F073B433360C3073FD0A9
:10547000306820F47062D4E901031A4332600128D5
:1054800056F8182C0AD0032804D002280AD1920317
:105490000BD4ABE0920108D4A8E000BFD20504D43D
:1054A000A4E000BF520740F1A180884656F8081CCE
:1054B00021F00701084346F8080CFEF7D5F8054629
:1054C00041F2883756F8080C616800F03800B0EBFC
:1054D000C10F09D0FEF7C8F8401BB842F2D903202B
:1054E00001B0BDE8F08300BF2068414600F0020231
:1054F00052B1E268336803F00F039A4204D2336872
:1055000023F00F031A433260D9F8002002F00F0293
:1055100091420CD2D9F8002022F00F020A43C9F8B8
:105520000020D9F8002002F00F028A425ED1410724
:105530000AD52169326802F07002914204D23268C1
:1055400022F070021143316001070AD56169726867
:1055500002F07002914204D2726822F0700211438C
:105560007160C1060AD5A169726802F4E0629142D5
:1055700004D2726822F4E0621143716080060AD599
:10558000E069B16801F07001884204D2B16821F08D
:1055900070010843B06000F0E3F831684FF656320E
:1055A000C0F60502C1F30321515C336803F00F0319
:1055B00001F01F01D25C20FA01F102F01F0040F25D
:1055C0001002C2F2004221FA00F0106040F208001E
:1055D00040F20C02C2F20040C2F2004200681160C8
:1055E00001B0BDE8F043FEF777BC00BF012001B079
:1055F000BDE8F083000000003F22026044F2184240
:10560000C5F6020252F8083C03F007034360136832
:1056100003F470638360136803F00F03C3601368BF
:1056200003F070030361536803F070034361536830
:1056300003F4E0638361926802F07002C26142F297
:105640000000C5F20020006800F00F0008607047FD
:1056500080B500F085F844F218414FF65633C5F690
:105660000201C0F605030A68C2F303229A5C0968C6
:1056700001F00F0102F01F02595C20FA02F201F062
:105680001F0040F21001C2F2004122FA00F008604F
:1056900040F20C01C2F200410A6080BD000000002F
:1056A00080B500F05DF844F2184C4FF65633C5F65D
:1056B000020CC0F60503DCF80020C2F303229A5C5A
:1056C000DCF8001001F00F0102F01F02595CD0401D
:1056D00040F21002C2F2004201F01F0120FA01F173
:1056E000116040F20C02C2F200421060DCF80400CB
:1056F000C0F30210185C00F01F0021FA00F080BD1A
:1057000080B500F02DF844F2184C4FF65633C5F62C
:10571000020CC0F60503DCF80020C2F303229A5CF9
:10572000DCF8001001F00F0102F01F02595CD040BC
:1057300040F21002C2F2004201F01F0120FA01F112
:10574000116040F20C02C2F200421060DCF804006A
:10575000C0F30220185C00F01F0021FA00F080BDA9
:1057600044F20041C5F602010869C0F3C2000328F3
:1057700016D002280ED0002832D10868800649F2DF
:105780000000C0F2D03058BF70470968C1F3C101B2
:10579000C840704747F64000C0F27D10704700BF18
:1057A0008B6A886AD1F82CC04A6BC0F30510E8B147
:1057B000C2F3CC0203F0030300EE102A9FED2A1A75
:1057C000B8EE400A20EE010A9FED281ADFE803F048
:1057D000022110210A6892060ED49FED261A18E0C5
:1057E00040F60010C0F23D00704700BF0020704737
:1057F0009FED1F1A0DE000BF0A6849F20003C0F2D6
:10580000D033C2F3C10223FA02F201EE102AB8EE3D
:10581000411A0A6B9FED183A6FF35F2202EE102ACD
:105820005FEACC7203FE000A03EE100A086BB8EEC2
:10583000422AC0F34620B8EE433A013030EE020A65
:10584000B7EE002A81EE031A30EE020A21EE000ABA
:1058500001EE100AB8EE411A80EE010ABCEEC00A51
:1058600010EE100A704700BF000000390024744A8F
:1058700020BCBE4B0024744C00000000000000005F
:1058800070B3F0B581B00446007844F20046C0071A
:10589000C5F6020626D12078800740F1C280306923
:1058A00010F03801B06A3FD0182908BF5FEA807055
:1058B0003AD0E0683168002862D021F0190108432D
:1058C0003060FDF7D1FE05463068400748D4FDF74B
:1058D000CBFE401B0228F7D9032001B0F0BD00BF6A
:1058E00001207047306900F03801B06A102905D0F6
:1058F00018290BD100F00300022807D1306880037B
:10590000C9D560680028C6D13CE100BF6168306835
:1059100000294FD0B1F5A02F44D0B1F5803F5FD121
:1059200040F4803062E000BF30684007E06802D594
:10593000002800F02781316821F019010843306008
:10594000FDF792FE054600BF3068400708D4FDF71A
:105950008BFE401B02284FF00300F5D901B0F0BDCB
:10596000FDF77AFE41F2030188424FD82069716841
:10597000402821F47C3151D141F4003050E000BF87
:1059800021F001003060FDF76FFE054630684007EA
:1059900047D5FDF769FE401B02284FF00300F5D9FB
:1059A000DCE700BF40F480203060306840F4803095
:1059B0001CE000BF20F480303060306820F480208C
:1059C0003060FDF751FE0546306880037FF563AF18
:1059D000FDF74AFE401B64284FF00300F4D9BDE7F1
:1059E00020F480303060306820F480203060FDF793
:1059F0003BFE0546306880033FF54DAFFDF734FEB2
:105A0000401B6428F6D9032001B0F0BD70682169FD
:105A100020F0FE4040EA016002E000BF41EA0030B1
:105A200070602078C00654D5306900F03801B06A43
:105A3000082905D0182919D100F00300012815D133
:105A40003068C00503D5E069802840F09B80FDF7F1
:105A500003FE41F2030188421ED8206A71682028A3
:105A600021F0F84132D141F0804031E0E069002876
:105A7000306819D040F080003060FDF7F5FD054634
:105A80003068C005E3D4FDF7EFFD401B02284FF05E
:105A90000300F5D962E700BFF068216A20F07C506E
:105AA00040EA0160F06014E020F080003060FDF713
:105AB000DBFD05463068C0050BD5FDF7D5FD401B65
:105AC00002284FF00300F5D948E700BF41EA8060A3
:105AD0007060207800073FD42078800656D4207864
