:020000040800F2
:10000000F0870224AD020008D161000829520008DF
:10001000C9610008D9070008E9780008000000005D
:100020000000000000000000000000005166000811
:10003000E10700080000000049620008716600083E
:10004000CB020008CB020008CB020008CB0200085C
:10005000CB020008CB020008CB020008CB0200084C
:10006000CB020008CB020008CB020008CB0200083C
:10007000CB020008CB020008CB020008CB0200082C
:10008000CB020008CB020008CB020008CB0200081C
:10009000CB020008CB020008CB020008CB0200080C
:1000A000CB020008CB020008CB020008CB020008FC
:1000B000CB020008CB020008CB020008CB020008EC
:1000C000CB020008CB020008CB020008CB020008DC
:1000D000CB020008CB020008CB020008CB020008CC
:1000E000CB020008CB02000800000000CB02000891
:1000F000CB020008CB020008CB020008CB020008AC
:10010000CB020008CB020008CB020008CB0200089B
:10011000CB020008CB0200083169000841690008E1
:10012000CB020008CB020008CB020008CB0200087B
:10013000CB020008CB020008CB020008CB0200086B
:1001400000000000000000000000000000000000AF
:10015000CB020008CB020008CB020008CB0200084B
:10016000CB020008CB020008CB020008CB0200083B
:10017000CB020008CB020008CB0200080000000000
:10018000CB020008CB020008CB020008CB0200081B
:10019000CB020008CB020008CB020008CB0200080B
:1001A000CB020008CB020008CB020008CB020008FB
:1001B000CB020008CB020008CB020008CB020008EB
:1001C000CB020008CB020008CB020008CB020008DB
:1001D000CB020008CB020008CB020008CB020008CB
:1001E000CB020008CB020008CB020008CB020008BB
:1001F000CB020008CB020008CB020008CB020008AB
:10020000CB020008CB020008CB020008CB0200089A
:10021000CB020008CB020008CB020008CB0200088A
:10022000CB020008CB020008CB020008000000004F
:10023000CB020008CB02000800000000CB0200083F
:10024000CB020008CB020008CB020008CB0200085A
:10025000CB020008CB020008CB020008CB0200084A
:10026000CB020008CB020008CB020008CB0200083A
:10027000CB020008CB020008CB02000800000000FF
:10028000CB020008CB020008CB02000800000000EF
:1002900000000000CB020008DFF80CD000F0C2F82C
:1002A00000480047397E0508F08702240748804748
:1002B0000748804707480047FEE7FEE7FEE7FEE7FE
:1002C000FEE7FEE7FEE7FEE7FEE7FEE7F9070008C8
:1002D000A1670008990200082DE9F05F054600209B
:1002E00092469B4688460646814640241BE02846A7
:1002F00041464746224600F084F853465A46C01A03
:10030000914110D311461846224600F06BF82D1A81
:1003100067EB01084F4622460120002100F062F8F9
:1003200017EB00094E41201EA4F10104DFDC484612
:1003300031462A464346BDE8F09F2DE9F0410024AE
:10034000061B254671F1000605DA01240027D0EBD3
:10035000070067EB0101161E73F1000605DA00279E
:10036000D2EB0702012567EB0303FFF7B5FF8646D3
:100370000E4617469C46AC4204D00025D0EB050E35
:1003800065EB010624B10020D2EB000760EB030C03
:10039000704631463A466346BDE8F08140EA0103C3
:1003A0009B0703D009E008C9121F08C0042AFAD22B
:1003B00003E011F8013B00F8013B521EF9D27047EF
:1003C000D2B201E000F8012B491EFBD27047002297
:1003D000F6E710B513460A4604461946FFF7F0FF44
:1003E000204610BD202A04DB203A00FA02F100204A
:1003F00070479140C2F1200320FA03F31943904063
:100400007047202A04DB203A21FA02F000217047CD
:1004100021FA02F3D040C2F120029140084319466C
:10042000704700001CB50948009009480190054636
:10043000009C06E0E06840F0010394E8070098475C
:100440001034AC42F6D3FFF72BFF00004C150D081B
:100450006C150D0870B58C1810F8015B15F00703CA
:1004600001D110F8013B2A1106D110F8012B03E04D
:1004700010F8016B01F8016B5B1EF9D12B0705D455
:100480000023521E0DD401F8013BFAE710F8013B9E
:10049000CB1A921C03E013F8015B01F8015B521EBA
:1004A000F9D5A142D8D3002070BD000000000000A3
:1004B00080B500F005F870F027F9FFE7FEE70000CF
:1004C00080B582B047F68470C2F202406946486047
:1004D0000120086045F65950C0F6000040F62E0194
:1004E000C0F60D014FF40062002370F01DFC02B055
:1004F00080BD00000000000080B582B0019001982E
:100500004FF47A71484300F003F802B080BD000058
:1005100083B0029041F20400CEF200000068019026
:1005200000200090029840F20001C2F200410968E8
:100530004DF68362C4F21B32A1FB0221890C4843B1
:100540000090FFE741F20400CEF20000006801993C
:10055000401A0099884201D2FFE7F3E703B07047E1
:100560004EF6FC51CEF20001086840F08070086041
:1005700041F20000CEF200000068C00738B9FFE782
:1005800041F20401CEF2000100200860FFE741F2D1
:100590000001CEF20001086840F0010008607047D9
:1005A00080B58CB0002004900B900A9009900890C0
:1005B00007904FF4807001900790012002900890FE
:1005C000099003200A9040F60000C5F60200009052
:1005D00007A9069100F028FC06994FF400500390FB
:1005E000079040F20040C5F60200059000F01CFCA8
:1005F00000980199049A00F0FBFD0399049A05986C
:1006000000F0F6FD3220FFF777FF0399049A059872
:1006100000F0EEFD0298FFF76FFF00980199029A33
:1006200000F0E6FD0A20FFF767FF0399059800F048
:10063000D7FA039B049A05980699079308920992A2
:1006400000F0F2FB6420FFF757FF00F005F80CB054
:1006500080BD00000000000080B582B048F240106C
:100660000DF10301042200F0DBF950B9FFE79DF81A
:100670000300392804D1FFE700208DF8070004E0CB
:10068000FFE701208DF80700FFE79DF8070002B0A3
:1006900080BD00000000000080B584B048F24E101C
:1006A0000DF10A01012200F0BBF920B1FFE70120A2
:1006B0008DF80F008CE09DF80A000006002870D528
:1006C000FFE79DF80A0000F00F008DF809000020F8
:1006D0008DF808009DF8081048F24E1000F0C0F99F
:1006E0009DF8090005285BDCFFE740F2C831C2F243
:1006F00000418020087500208DF80700FFE79DF875
:1007000007009DF80910884246DAFFE79DF80710B8
:100710004BF6E020C0F60A0030F811000DF10B0195
:10072000042200F07DF980BBFFE79DF80B009DF8E7
:100730000C1040EA0120ADF804009DF80D009DF872
:100740000E1040EA0120ADF8020040F20460C2F24F
:1007500000400088BDF80210401A9DF8072040F2C2
:10076000C831C2F2004121F81200BDF804009DF822
:10077000072001EB420250819DF80720012000FA7A
:1007800002F2087D10430875FFE7FFE79DF80700B8
:1007900001308DF80700B2E700208DF80F0017E058
:1007A000FFE79DF80A0000F08F00802805D0FFE7E2
:1007B0009DF80A00000738B9FFE740F2C831C2F2DD
:1007C000004100200875FFE701208DF80F00FFE7CA
:1007D0009DF80F0004B080BDFFE7FEE700000000B9
:1007E000704700000000000081B0EFF3108072B687
:1007F0000090FFE7FEE7000044F60C01C5F6020199
:10080000086840F002000860FFE744F60400C5F6FF
:10081000020000688004002801D4FFE7F5E7704774
:1008200080B584B003900291019200930098B0F5D6
:10083000804F1DD1FFE70398019950F82100002156
:10084000CCF6F0710840029B1968D3F804E0D3F8A5
:1008500008C0DA6841EA0E1141EA0C219B6919438C
:1008600041EA024108430399019A41F8220006E057
:100870000399019A6FF0704041F82200FFE70020D1
:1008800004B080BD0000000080B586B005900491E2
:1008900005990498026851F8220020F0010041F8FF
:1008A000220004988068082803D1FFE740200390C5
:1008B00002E000200390FFE7039804990091D1F82B
:1008C00004E0D1F808C0CB680A6940EA0E0040EAAB
:1008D0000C00184310434A6910438A691043CA69DF
:1008E00010430A6A10434A6A10438A6A1043C96A6D
:1008F000084302900498016B029808430290049800
:10090000416B0298084302900498816B0298084357
:1009100002904FF67F30C0F208000190019840F439
:1009200080100190019840F400100190019840F46B
:10093000E020019005980499096850F82100019978
:100940008843029908430599049A126841F82200E5
:100950000498006BB0F5801F0ED1FFE70498006883
:1009600050B1FFE70598006820F480100499096BE6
:10097000084305990860FFE70498006838B1FFE76D
:100980000498426B0599086810430860FFE700204F
:1009900006B080BD0000000084B003900291019277
:1009A00002990868D1F804C08B68CA6840EA0C1044
:1009B00040EA032040EA02400B690022CFF6F072C1
:1009C00002EB035210434A69FE3240EA0260896931
:1009D00008430399019A01EB82014860039800687B
:1009E000C002002818D5FFE70398406820F4700083
:1009F0000090029801690020CFF6F07000EB0151E1
:100A00000098084300900398406820F47000009913
:100A1000084303994860FFE7002004B070470000D6
:100A200080B586B0ADF8160004918DF80F20BDF8A2
:100A3000162004989DF80F3069464FF0640CC1F8F9
:100A400008C04B60086040F23440C2F20040BB2155
:100A5000022300F021FD002818BF012006B080BD50
:100A600080B584B0ADF80E008DF80D10BDF80E20E5
:100A7000694664208860012048600DF10D0008601F
:100A800040F23440C2F20040BA21022300F04CFE92
:100A9000002818BF012004B080BD00000000000045
:100AA00080B584B0039000F0C3FB029003980190DE
:100AB0000198013048B1FFE740F29830C2F200409F
:100AC0000178019808440190FFE7FFE700F0B0FBD0
:100AD0000299401A0199884201D2FFE7F6E704B073
:100AE00080BD00000000000080B5BEB000203D9039
:100AF0003C903B903A90399040F2A830C2F20040CE
:100B0000006808B1FFE767E040F2A831C2F2004197
:100B10000120086008A80690C021FFF758FC06983D
:100B2000002109914FF0807208921A9101F040FC67
:100B300018B1FFE7FFF758FEFFE7FFE744F2D440A4
:100B4000C5F60200016841F480510160006800F4BC
:100B5000805007900798FFE74FF680703990022089
:100B600002903A90002003903B90032004903C9028
:100B70000C2001903D9041F20000C5F6020039A919
:100B8000059100F051F90198DDF808C0039B049A23
:100B900005994CF6337ECDF8E4E0CDF8E8C03B9300
:100BA0003C923D9040F60040C5F6020000F03CF952
:100BB000029B039A049805994FF0800CCDF8E4C08D
:100BC0003A933B923C9009203D9040F60000C5F6D8
:100BD000020000F029F9FFE73EB080BD00000000F0
:100BE00090B00F900E9100200D908020C5F600006F
:100BF0000A90FFE70E980D99C840002800F0118177
:100C0000FFE70E980D9A0121914008400C900C9836
:100C1000002800F00281FFE70D9820F0030040F269
:100C20000841C5F6000140580B900D9800F00300F4
:100C300081000F2000FA01F10B9808400B900B98EF
:100C400009900F980021C5F60201884203D1FFE701
:100C5000002008907AE00F9840F20041C5F60201AA
:100C6000884203D1FFE7012007906CE00F9840F61F
:100C70000001C5F60201884203D1FFE70220069079
:100C80005EE00F9840F60041C5F60201884203D1AC
:100C9000FFE70320059050E00F9841F20001C5F6F0
:100CA0000201884203D1FFE70420049042E00F983C
:100CB00041F20041C5F60201884203D1FFE7052059
:100CC000039034E00F9841F60001C5F60201884216
:100CD00003D1FFE70620029026E00F9841F600417D
:100CE000C5F60201884203D1FFE70720019018E012
:100CF0000F9842F20001C5F60201884203D1FFE7D6
:100D0000082000900AE00F9942F20042C5F6020264
:100D10000A20914208BF09200090FFE70098019047
:100D2000FFE701980290FFE702980390FFE703981E
:100D30000490FFE704980590FFE705980690FFE709
:100D400006980790FFE707980890FFE70998089929
:100D50000D9A02F003029200914088422AD1FFE7E7
:100D60000C9A0A990868904308600C9A0A99486896
:100D7000904348600C9A0421C5F60001086890432E
:100D800008600C9A4FF0B0410868904308600D98D5
:100D900000F0030081000F2088400B900B9B0D9802
:100DA00020F0030140F20842C5F60002885898433B
:100DB0008850FFE70D984100032000FA01F30F9AD5
:100DC000116819431160DDF834C00CF007018A0086
:100DD0000F2101FA02F30F996FF0030202EA5C029D
:100DE0000A44116A994311620D99490000FA01F30E
:100DF0000F9AD1689943D1600D9A012101FA02F34B
:100E00000F9A5168994351600D99490000FA01F217
:100E10000F99886890438860FFE70D9801300D9026
:100E2000E8E610B07047000090B00F900E910020DF
:100E30000D908020C5F600000A90FFE70E9800682C
:100E40000D99C840002800F0CF81FFE70E98006898
:100E50000D9A0121914008400C900C98002800F058
:100E6000BF81FFE70E98406800F00300012807D01B
:100E7000FFE70E98406800F0030002282FD1FFE73B
:100E80000F9880680B900D984100032000FA01F143
:100E90000B9888430B900E98C0680D99490000FA92
:100EA00001F10B9808430B900B980F9988600F98ED
:100EB00040680B900D99012000FA01F10B988843CE
:100EC0000B900E984068C0F300100D9900FA01F1E4
:100ED0000B9808430B900B980F994860FFE70E980A
:100EE000406800F00300032818D0FFE70F98C0689F
:100EF0000B900D984100032000FA01F10B988843F4
:100F00000B900E9880680D99490000FA01F10B983A
:100F100008430B900B980F99C860FFE70E98406844
:100F200000F00300022826D1FFE70F980D996FF01B
:100F3000030202EA51010844006A0B900D9800F088
:100F4000070081000F2000FA01F10B9888430B90F5
:100F50000E9800690D9901F00701890000FA01F16E
:100F60000B9808430B900B980F990D9B02EA5302C4
:100F700011440862FFE70F9800680B900D9841003C
:100F8000032000FA01F10B9888430B900E984068FB
:100F900000F003000D99490000FA01F10B98084395
:100FA0000B900B980F9908600E98807980070028A5
:100FB00000F01581FFE7FFE744F2F440C5F60200B8
:100FC000016841F002010160006800F00200099030
:100FD0000998FFE70D9820F0030040F20841C5F69C
:100FE000000140580B900D9800F0030081000F2085
:100FF00000FA01F10B9888430B900F980021C5F679
:101000000201884203D1FFE7002008907AE00F98A0
:1010100040F20041C5F60201884203D1FFE70120FA
:1010200007906CE00F9840F60001C5F60201884277
:1010300003D1FFE7022006905EE00F9840F60041E2
:10104000C5F60201884203D1FFE70320059050E076
:101050000F9841F20001C5F60201884203D1FFE773
:101060000420049042E00F9841F20041C5F60201CD
:10107000884203D1FFE70520039034E00F9841F642
:101080000001C5F60201884203D1FFE70620029065
:1010900026E00F9841F60041C5F60201884203D1CF
:1010A000FFE70720019018E00F9842F20001C5F613
:1010B0000201884203D1FFE7082000900AE00F995F
:1010C00042F20042C5F602020A20914208BF0920FE
:1010D0000090FFE700980190FFE701980290FFE77A
:1010E00002980390FFE703980490FFE704980590A7
:1010F000FFE705980690FFE706980790FFE7079837
:101100000890FFE708980D9901F00301890000FAA3
:1011100001F10B9808430B900B980D9921F00301F6
:1011200040F20842C5F6000288504FF0B040006817
:101130000B900C990B9888430B900E988079C00601
:10114000002805D5FFE70C990B9808430B90FFE7A3
:101150000B984FF0B04108600420C5F6000000680D
:101160000B900C990B9888430B900E988079800611
:10117000002805D5FFE70C990B9808430B90FFE773
:101180000B980421C5F6000108600A9840680B908E
:101190000C990B9888430B900E9880798007002853
:1011A00005D5FFE70C990B9808430B90FFE70B98C8
:1011B0000A9948600A9800680B900C990B9888432C
:1011C0000B900E988079C00728B1FFE70C990B9817
:1011D00008430B90FFE70B980A990860FFE7FFE7C9
:1011E0000D9801300D9029E610B070470000000006
:1011F00082B00190ADF802108DF801209DF8010039
:1012000028B1FFE7BDF802000199886105E0BDF84B
:101210000200000401998861FFE702B070470000F6
:1012200041F20000C5F600400068000C7047000065
:1012300047F63C70C2F202400068704700000000B0
:1012400083B001900091019890F8410020283BD193
:10125000FFE7FFE7019890F84000012804D1FFE77D
:1012600002208DF80B0033E00199012081F8400045
:10127000FFE7FFE70199242081F841000198016808
:10128000086820F00100086001980168086820F4EF
:1012900080500860009A019801680868104308604F
:1012A00001980168086840F0010008600199202059
:1012B00081F84100FFE70199002081F84000FFE735
:1012C00000208DF80B0003E002208DF80B00FFE7F3
:1012D0009DF80B0003B0704784B002900191029812
:1012E00090F84100202840D1FFE7FFE7029890F8EE
:1012F0004000012804D1FFE702208DF80F0038E0FC
:101300000299012081F84000FFE7FFE702992420BD
:1013100081F8410002980168086820F00100086027
:101320000298006800680090009820F470600090B7
:101330000199009840EA01200090009802990968FC
:10134000086002980168086840F00100086002998E
:10135000202081F84100FFE70299002081F8400039
:10136000FFE700208DF80F0003E002208DF80F004A
:10137000FFE79DF80F0004B0704700000000000078
:1013800080B582B00090009820B9FFE701208DF869
:1013900007007BE0009890F8410040B9FFE7009912
:1013A000002081F84000009800F0FAFAFFE7009969
:1013B000242081F8410000980168086820F00100AD
:1013C000086000980168406820F07060086100982B
:1013D0000168886820F4004088600098C06801288F
:1013E00007D1FFE700980168806840F400408860FA
:1013F00006E000980168806840F404408860FFE7D8
:101400000098C068022807D1FFE700980168486883
:1014100040F40060486006E000980168486820F4E5
:1014200000604860FFE700980168486848F20002E1
:10143000C0F200221043486000980168C86820F498
:101440000040C860009A1168106953699269184396
:1014500040EA0220C860009A1168D069126A1043FD
:10146000086000980168086840F001000860009971
:1014700000204864009A202182F8411000990863F6
:10148000009981F842008DF80700FFE79DF80700FA
:1014900002B080BD0000000010B588B084460C98F2
:1014A0000B98DDF828E0CDF818C0ADF81610ADF8AF
:1014B0001420ADF81230ADF81000069890F84100F5
:1014C000202840F02681FFE70A9820B1FFE7BDF809
:1014D000100040B9FFE706994FF4007048640120FE
:1014E0008DF81F0019E1FFE7069890F840000128E9
:1014F00004D1FFE702208DF81F000EE106990120BC
:1015000081F84000FFE7FFE7FFF792FE039006989F
:1015100003996A4611604FF400410122192304F037
:1015200093F820B1FFE701208DF81F00F5E0069940
:10153000222081F841000699402081F84200069956
:10154000002048640A99069A5162BDF81010069A64
:101550005185069948630698BDF81610BDF8142009
:10156000BDF81230DDF830C0039CEE46CEF80440E2
:10157000CEF800C003F07CFF50B1FFE7FFE706990B
:10158000002081F84000FFE701208DF81F00C4E033
:101590000698408DB0F5807F14D3FFE70699FF20B1
:1015A00008850698BDF8161090F82820EC4642F2FF
:1015B0000043C8F20003CCF800304FF0807304F011
:1015C00017F814E00698408D069908850698BDF82E
:1015D000161090F82820EC4642F20043C8F20003AF
:1015E000CCF800304FF0007304F002F8FFE7FFE79B
:1015F00006980C9B03996A4611600421002204F0AE
:1016000023F820B1FFE701208DF81F0085E0069840
:101610000068406A0699496A08700699486A01306C
:1016200048620699088D013808850699488D013869
:1016300048850698408DE8B3FFE70698008DC8BB43
:10164000FFE706980C9B03996A46116080210022EF
:1016500003F0FAFF20B1FFE701208DF81F005CE0E6
:101660000698408DB0F5807F11D3FFE70699FF20E3
:1016700008850698BDF8161090F82820EC4600233F
:10168000CCF800304FF0807303F0B2FF11E0069801
:10169000408D069908850698BDF8161090F8282008
:1016A000EC460023CCF800304FF0007303F0A0FFAD
:1016B000FFE7FFE7FFE70698408D002898D1FFE796
:1016C00006980C99039A04F023F820B1FFE7012053
:1016D0008DF81F0021E0069801682020C861069956
:1016E0000A6851684EF60003CFF600631940516056
:1016F000069981F841000699002081F84200FFE731
:101700000699002081F84000FFE700208DF81F00B7
:1017100003E002208DF81F00FFE79DF81F0008B0CE
:1017200010BD00000000000010B588B084460C9881
:101730000B98DDF828E0CDF818C0ADF81610ADF81C
:101740001420ADF81230ADF81000069890F8410062
:10175000202840F01B81FFE70A9820B1FFE7BDF881
:10176000100040B9FFE706994FF40070486401206B
:101770008DF81F000EE1FFE7069890F84000012861
:1017800004D1FFE702208DF81F0003E10699012034
:1017900081F84000FFE7FFE7FFF74AFD0390069856
:1017A00003996A4611604FF400410122192303F0A6
:1017B0004BFF20B1FFE701208DF81F00EAE00699FA
:1017C000212081F841000699402081F842000699C5
:1017D000002048640A99069A5162BDF81010069AD2
:1017E0005185069948630698BDF81610BDF8142077
:1017F000BDF81230DDF830C0039CEE46CEF8044050
:10180000CEF800C003F094FE50B1FFE7FFE7069961
:10181000002081F84000FFE701208DF81F00B9E0AB
:101820000698408DB0F5807F11D3FFE70699FF2021
:1018300008850698BDF8161090F82820EC4600237D
:10184000CCF800304FF0807303F0D2FE11E0069820
:10185000408D069908850698BDF8161090F8282046
:10186000EC460023CCF800304FF0007303F0C0FECC
:10187000FFE7FFE706980C99039A03F09DFF20B15C
:10188000FFE701208DF81F0084E006980168406A98
:10189000007888620699486A013048620699488D46
:1018A000013848850699088D013808850698408DCD
:1018B000E8B3FFE70698008DC8BBFFE706980C9BCE
:1018C00003996A4611608021002203F0BDFE20B119
:1018D000FFE701208DF81F005CE00698408DB0F511
:1018E000807F11D3FFE70699FF2008850698BDF891
:1018F000161090F82820EC460023CCF800304FF06A
:10190000807303F075FE11E00698408D06990885F6
:101910000698BDF8161090F82820EC460023CCF865
:1019200000304FF0007303F063FEFFE7FFE7FFE7CF
:101930000698408D00289DD1FFE706980C99039AE0
:1019400003F0E6FE20B1FFE701208DF81F0021E043
:10195000069801682020C86106990A6851684EF609
:101960000003CFF6006319405160069981F84100E9
:101970000699002081F84200FFE70699002081F8CF
:101980004000FFE700208DF81F0003E002208DF8E3
:101990001F00FFE79DF81F0008B010BD0000000009
:1019A00080B5BAB039900020389037903690359095
:1019B000349004A8C021FEF70AFD3998006845F26A
:1019C0000041C4F2000188423DD1FFE700200590AC
:1019D00008210491259004A800F0EAFC18B1FFE763
:1019E000FEF702FFFFE7FFE744F2E040C5F6020022
:1019F000016841F002010160006800F002000390FC
:101A00000398FFE7C02034901220359000203690D4
:101A1000032037900420389040F20040C5F60200C1
:101A200034A9FFF701FAFFE744F2E840C5F60200E7
:101A3000016841F400110160006800F40010029098
:101A40000298FFE746E03998006845F60001C4F2C5
:101A5000000188423DD1FFE7002005900821049154
:101A6000259004A800F0A4FC18B1FFE7FEF7BCFE27
:101A7000FFE7FFE744F2E040C5F60200016841F0ED
:101A800002010160006800F0020001900198FFE788
:101A90004FF44060349012203590002036903790FB
:101AA0000420389040F20040C5F6020034A9FFF748
:101AB000BBF9FFE744F2E840C5F60200016841F4D3
:101AC00080010160006800F4800000900098FFE74A
:101AD000FFE7FFE73AB080BD40F29830C2F2004025
:101AE000027847F63C71C2F202410868104408606F
:101AF000704700000000000080B582B0032000F0B5
:101B00004FF901F089FF44F21842C5F6020211684C
:101B1000C1F3032341F22E31C0F60701CB5C03F081
:101B20001F03D84000900098126802F00F02895CF1
:101B300001F01F01C84040F20401C2F200410860F8
:101B4000009840F20001C2F200410860002000F05D
:101B500013F820B1FFE701208DF8070005E000F041
:101B6000E7F800208DF80700FFE79DF8070002B0B6
:101B700080BD00000000000080B590B00E900E986F
:101B80000F2810D8FFE70E9936200090002200F0B1
:101B9000EFF8009800F0E0F80E9840F29C31C2F2A5
:101BA0000041086003E001208DF83F004EE0FFE7B0
:101BB00044F2E840C5F60200016841F010010160FE
:101BC000006800F0100001900198FFE706A802A944
:101BD00001F08AFE0B980490049820B9FFE701F009
:101BE000F3FE059004E001F0EFFE40000590FFE7F2
:101BF00005984DF68361C4F21B31A0FB01014FF043
:101C0000FF3000EB9140039040F2D440C2F200401C
:101C100041F20001C4F20001016040F2E731C1600D
:101C20000399416000210161816002F029FF48B9F8
:101C3000FFE740F2D440C2F2004002F09DFF8DF871
:101C40003F0003E001208DF83F00FFE79DF83F00D3
:101C500010B080BD0000000010B581B00090009869
:101C600040784EF69851CEF2000108604EF6A05131
:101C7000CEF20001086820F001000860009840687A
:101C80004EF69C52CEF200021060DDF800E09EF8A5
:101C90000C0000079EF80B2040EA02609EF800202E
:101CA0009EF808309EF809C09EF80A4040EAC440F9
:101CB0009EF80D4040EA84409EF80E4040EA4440C1
:101CC0009EF80FE040EA0E4040EA0C2040EA430054
:101CD0001043086001B010BDBFF35F8F4EF6245172
:101CE000CEF20001086820F4803008604EF694516E
:101CF000CEF20001002008607047000000000000E4
:101D000081B00090009840F001004EF69451CEF260
:101D1000000108604EF62451CEF20001086840F43C
:101D200080300860BFF34F8FBFF36F8F01B07047F3
:101D300081B0FFE744F2F440C5F60200016841F0CB
:101D400002010160006800F0020000900098FFE7C7
:101D500001B070470000000080B582B0ADF8060009
:101D6000BDF9060005F0C4FD02B080BD0000000012
:101D700080B586B0ADF816000491039205F0D0FD51
:101D80000290BDF91600019002980499039A04F09C
:101D900023FA0146019805F0CBFD06B080BD000096
:101DA00080B582B00190019805F0E6FD02B080BDDB
:101DB00080B584B0029044F60C00C5F602000068BD
:101DC00000F004010020B0EB910F13D1FFE744F6BF
:101DD0000C00C5F60200006800F007000299884276
:101DE00004D0FFE701208DF80F002EE000208DF8D1
:101DF0000F002AE044F60C01C5F60201086820F045
:101E00000700029A10430860FFF712FA0190FFE7FB
:101E100044F60400C5F60200006800F400510020FA
:101E2000B0EB513F0DD1FFE7FFF702FA0199401ADD
:101E3000B0F57A7F04D9FFE701208DF80F0004E0A8
:101E4000E6E700208DF80F00FFE79DF80F0004B0D3
:101E500080BD00000000000080B501F089FD44F263
:101E60002041C5F602010968C1F3021241F22E3188
:101E7000C0F60701895C01F01F01C84080BD000069
:101E800088B0079044F22840C5F60200016801F0CE
:101E9000030106910068C0F30530059044F22C4020
:101EA000C5F602000068C0F300100490049844F2E4
:101EB0003C41C5F60201096889B2C908484300EEF1
:101EC000100AB8EE400A8DED020A0598002800F0CD
:101ED0001181FFE70698009048B1FFE700980128BC
:101EE00065D0FFE70098022800F08380A3E044F269
:101EF0000040C5F60200006800F020010020B0EBB1
:101F0000511F31D0FFE744F20040C5F602000068DF
:101F1000C0F3C10149F20000C0F2D030C8400390C4
:101F20009DED030AB8EE400A9DED051AB8EE411A80
:101F300080EE010A44F23840C5F6020000686FF3F3
:101F40005F2001EE100AB8EE411A9DED022A9FEDC6
:101F50006F3A02EE031AB7EE002A31EE021A20EEB3
:101F6000010A8DED010A21E09DED050AB8EE401A47
:101F70009FED680A80EE010A44F23840C5F602007F
:101F800000686FF35F2001EE100AB8EE411A9DED74
:101F9000022A9FED5E3A02EE031AB7EE002A31EEF6
:101FA000021A20EE010A8DED010AFFE765E09DEDC2
:101FB000050AB8EE401A9FED560A80EE010A44F277
:101FC0003840C5F6020000686FF35F2001EE100A8A
:101FD000B8EE411A9DED022A9FED4C3A02EE031A2B
:101FE000B7EE002A31EE021A20EE010A8DED010A49
:101FF00043E09DED050AB8EE401A9FED430A80EEDE
:10200000010A44F23840C5F6020000686FF35F2011
:1020100001EE100AB8EE411A9DED022A9FED3B3AFF
:1020200002EE031AB7EE002A31EE021A20EE010A80
:102030008DED010A21E09DED050AB8EE401A9FEDF5
:10204000340A80EE010A44F23840C5F60200006806
:102050006FF35F2001EE100AB8EE411A9DED022ADF
:102060009FED2A3A02EE031AB7EE002A31EE021A69
:1020700020EE010A8DED010AFFE79DED010A44F211
:102080003840C5F60200016889B2490A01EE101A0B
:10209000B8EE411AB7EE002A31EE021A80EE010ABC
:1020A0000799BCEEC00A81ED000A9DED010A0168A6
:1020B000C1F3064101EE101AB8EE411A31EE021AD0
:1020C00080EE010A0799BCEEC00A81ED010A9DED80
:1020D000010A0068C0F3066001EE100AB8EE411A6A
:1020E00031EE021A80EE010A0798BCEEC00A80EDBC
:1020F000020A07E0079900200860079948600799DD
:102100008860FFE708B0704720BCBE4B0000003974
:102110000024744A0024744C88B0079044F228408C
:10212000C5F60200016801F0030106910068C0F3E2
:102130000550059044F22C40C5F602000068C0F33B
:1021400000200490049844F24441C5F60201096855
:1021500089B2C908484300EE100AB8EE400A8DED76
:10216000020A0598002800F01181FFE70698009008
:1021700048B1FFE70098012865D0FFE700980228E2
:1021800000F08380A3E044F20040C5F6020000683E
:1021900000F020010020B0EB511F31D0FFE744F2E6
:1021A0000040C5F602000068C0F3C10149F200001A
:1021B000C0F2D030C84003909DED030AB8EE400A4B
:1021C0009DED051AB8EE411A80EE010A44F2404036
:1021D000C5F6020000686FF35F2001EE100AB8EE4A
:1021E000411A9DED022A9FED6F3A02EE031AB7EEF7
:1021F000002A31EE021A20EE010A8DED010A21E0DB
:102200009DED050AB8EE401A9FED680A80EE010ABE
:1022100044F24040C5F6020000686FF35F2001EE13
:10222000100AB8EE411A9DED022A9FED5E3A02EEC9
:10223000031AB7EE002A31EE021A20EE010A8DEDE4
:10224000010AFFE765E09DED050AB8EE401A9FED33
:10225000560A80EE010A44F24040C5F602000068CA
:102260006FF35F2001EE100AB8EE411A9DED022ACD
:102270009FED4C3A02EE031AB7EE002A31EE021A35
:1022800020EE010A8DED010A43E09DED050AB8EE4E
:10229000401A9FED430A80EE010A44F24040C5F621
:1022A000020000686FF35F2001EE100AB8EE411AD9
:1022B0009DED022A9FED3B3A02EE031AB7EE002A8B
:1022C00031EE021A20EE010A8DED010A21E09DEDAA
:1022D000050AB8EE401A9FED340A80EE010A44F276
:1022E0004040C5F6020000686FF35F2001EE100A5F
:1022F000B8EE411A9DED022A9FED2A3A02EE031A2A
:10230000B7EE002A31EE021A20EE010A8DED010A25
:10231000FFE79DED010A44F24040C5F60200016866
:1023200089B2490A01EE101AB8EE411AB7EE002A36
:1023300031EE021A80EE010A0799BCEEC00A81ED67
:10234000000A9DED010A0168C1F3064101EE101A71
:10235000B8EE411A31EE021A80EE010A0799BCEE7E
:10236000C00A81ED010A9DED010A0068C0F3066014
:1023700001EE100AB8EE411A31EE021A80EE010A9F
:102380000798BCEEC00A80ED020A07E0079900201A
:1023900008600799486007998860FFE708B07047B0
:1023A00020BCBE4B000000390024744A0024744C49
:1023B00080B59AB0189000208DF857008DF856001F
:1023C0001898C0780007002848D5FFE71898806E55
:1023D000149078B1FFE71498B0F5801F13D0FFE791
:1023E0001498B0F5001F16D0FFE71498B0F5401F01
:1023F00019D019E044F22C41C5F60201086840F4F6
:102400000030086014E018980830022103F050FFF3
:102410008DF857000CE018982830022104F030F8AD
:102420008DF8570004E003E001208DF85700FFE726
:102430009DF8570060B9FFE744F25041C5F602012C
:10244000086820F44010189A926E1043086004E067
:102450009DF857008DF85600FFE7FFE71898407881
:10246000C007002840D0FFE71898806D139004281B
:1024700020D81399DFE801F0030C141C1D0044F26E
:102480002C41C5F60201086840F40030086015E0F0
:1024900018980830002103F00BFF8DF857000DE06D
:1024A00018982830002103F0EBFF8DF8570005E065
:1024B00004E003E001208DF85700FFE79DF8570086
:1024C00060B9FFE744F25041C5F60201086820F008
:1024D0000700189A926D1043086004E09DF85700B9
:1024E0008DF85600FFE7FFE718984078800700282E
:1024F0004BD5FFE71898C06D129088B1FFE712988E
:10250000402816D0FFE7129880281AD0FFE71298CB
:10251000C0281ED0FFE71298B0F5807F1AD01AE0CD
:1025200044F22C41C5F60201086840F4003008600E
:1025300015E018980830002103F0BAFE8DF8570016
:102540000DE018982830002103F09AFF8DF857000D
:1025500005E004E003E001208DF85700FFE79DF857
:10256000570060B9FFE744F25041C5F60201086820
:1025700020F4E070189AD26D1043086004E09DF8D2
:1025800057008DF85600FFE7FFE71898407840079E
:10259000002850D5FFE71898D0F8A8001190A0B1F6
:1025A000FFE71198B0F5001F18D0FFE71198B0F5BC
:1025B000800F1BD0FFE71198B0F5C00F1ED0FFE7CA
:1025C0001198B0F5000F1AD01AE044F22C41C5F66C
:1025D0000201086840F40030086015E018980830DF
:1025E000002103F065FE8DF857000DE018982830A3
:1025F000002103F045FF8DF8570005E004E003E0FB
:1026000001208DF85700FFE79DF8570068B9FFE7F4
:1026100044F25841C5F60201086820F46000189A97
:10262000D2F8A8201043086004E09DF857008DF808
:102630005600FFE7FFE7189840780007002850D5BC
:10264000FFE71898D0F8AC001090A0B1FFE7109801
:10265000B0F1807F18D0FFE71098B0F1007F1BD059
:10266000FFE71098B0F1407F1ED0FFE71098B0F15F
:10267000806F1AD01AE044F22C41C5F602010868B6
:1026800040F40030086015E018980830002103F08D
:102690000FFE8DF857000DE018982830002103F048
:1026A000EFFE8DF8570005E004E003E001208DF80F
:1026B0005700FFE79DF8570068B9FFE744F258411B
:1026C000C5F60201086820F0E060189AD2F8AC2044
:1026D0001043086004E09DF857008DF85600FFE7AE
:1026E000FFE71898C078800700283ED5FFE71898C4
:1026F000C06C0F90F0B1FFE70F98102808D0FFE7EB
:102700000F9820280DD0FFE70F98302811D012E045
:1027100044F22C41C5F60201086840F4003008601C
:102720000DE018980830022103F0C2FD8DF8570023
:1027300005E004E003E001208DF85700FFE79DF875
:10274000570060B9FFE744F24C41C5F60201086842
:1027500020F03000189AD26C1043086004E09DF815
:1027600057008DF85600FFE7FFE718984078C0063D
:1027700000284ED5FFE71898006E0E90A0B1FFE735
:102780000E98B0F5805F18D0FFE70E98B0F5005FA7
:102790001BD0FFE70E98B0F5405F1ED0FFE70E9804
:1027A000B0F5804F1AD01AE044F22C41C5F6020170
:1027B000086840F40030086015E0189808300021DF
:1027C00003F076FD8DF857000DE0189828300021B1
:1027D00003F056FE8DF8570005E004E003E0012009
:1027E0008DF85700FFE79DF8570060B9FFE744F206
:1027F0005041C5F60201086820F4E040189A126EB4
:102800001043086004E09DF857008DF85600FFE77C
:10281000FFE718984078800600284CD5FFE7189805
:10282000406E0D90C8B1FFE70D98B0F5803F15D010
:10283000FFE70D98B0F5003F18D0FFE70D98B0F511
:10284000403F1BD0FFE70D98B0F5802F17D0FFE772
:102850000D98B0F5A02F13D013E016E018980830AB
:10286000012103F025FD8DF857000EE0189828305F
:10287000012103F005FE8DF8570006E005E004E0B5
:1028800003E001208DF85700FFE79DF8570060B97D
:10289000FFE744F25041C5F60201086820F4E02049
:1028A000189A526E1043086004E09DF857008DF8A6
:1028B0005600FFE7FFE718984078400600284ED5FD
:1028C000FFE71898D0F8B0000C90C8B1FFE70C985B
:1028D000B0F1805F15D0FFE70C98B0F1005F18D021
:1028E000FFE70C98B0F1405F1BD0FFE70C98B0F108
:1028F000804F17D0FFE70C98B0F1A04F13D013E032
:1029000016E018980830012103F0D2FC8DF857002A
:102910000EE018982830012103F0B2FD8DF8570021
:1029200006E005E004E003E001208DF85700FFE732
:102930009DF8570068B9FFE744F25841C5F6020117
:10294000086820F0E040189AD2F8B02010430860E0
:1029500004E09DF857008DF85600FFE7FFE7189850
:102960004078000600283BD5FFE71898006F0B90D1
:10297000D8B1FFE70B98B0F1805F05D0FFE70B9867
:10298000B0F1005F09D011E044F22C41C5F602011C
:10299000086840F4003008600CE018980830012105
:1029A00003F086FC8DF8570004E003E001208DF869
:1029B0005700FFE79DF8570060B9FFE744F2504128
:1029C000C5F60201086820F04050189A126F1043B3
:1029D000086004E09DF857008DF85600FFE7FFE718
:1029E0001898C078C007002837D0FFE71898806C87
:1029F0000A90032817D80A99DFE801F014020B1394
:102A000044F22C41C5F60201086840F40030086029
:102A10000DE018980830022103F04AFC8DF85700A9
:102A200005E004E003E001208DF85700FFE79DF882
:102A3000570060B9FFE744F24C41C5F6020108684F
:102A400020F00300189A926C1043086004E09DF88F
:102A500057008DF85600FFE7FFE71898807840068A
:102A6000002840F1B480FFE744F60001C5F60201FA
:102A7000086840F480700860FEF7DAFB1690FFE704
:102A800044F60000C5F602000068C00500280CD41A
:102A9000FFE7FEF7CDFB1699401A652804D3FFE740
:102AA00003208DF8570000E0EAE79DF85700002862
:102AB00040F08780FFE744F27040C5F602000068EE
:102AC00000F440701899D1F8B41001F440718842B4
:102AD00013D0FFE744F27041C5F60201086820F404
:102AE00040701790086840F480300860086820F44F
:102AF0008030086017980860FFE71898D0F8B40095
:102B0000B0F5807F1FD1FFE7FEF792FB1690FFE73D
:102B100044F27040C5F60200006800F00201002097
:102B2000B0EB510F0ED1FFE7FEF782FB1699401A6A
:102B300041F28931884204D3FFE703208DF8570022
:102B400000E0E5E7FFE79DF85700A0BBFFE7FFE7E0
:102B50001898D0F8B40000F44070B0F5407F13D15D
:102B6000FFE744F21041C5F60201086820F47C50EA
:102B7000189AD2F8B4204FF6F043C0F6FF731A400B
:102B800040EA1210086008E044F21041C5F6020164
:102B9000086820F47C500860FFE71898D0F8B4204B
:102BA0006FF31F3244F27041C5F60201086810430A
:102BB0000860FFE704E09DF857008DF85600FFE736
:102BC00004E09DF857008DF85600FFE7FFE71898DE
:102BD0000068C007002800F04C80FFE71898C06F1D
:102BE000099028282BD80999DFE801F0152929290F
:102BF0002929292916292929292929291E29292963
:102C00002929292926292929292929292729292939
:102C100029292929280016E018980830012103F0F5
:102C200047FB8DF857000EE018982830012103F07B
:102C300027FC8DF8570006E005E004E003E00120E2
:102C40008DF85700FFE79DF8570060B9FFE744F2A1
:102C50005441C5F60201086820F03800189AD26F76
:102C60001043086004E09DF857008DF85600FFE718
:102C7000FFE7189800788007002839D5FFE71898F3
:102C8000806F0890052819D80899DFE801F003043F
:102C90000C14151616E018980830012103F008FBF3
:102CA0008DF857000EE018982830012103F0E8FB5A
:102CB0008DF8570006E005E004E003E001208DF800
:102CC0005700FFE79DF8570060B9FFE744F2544111
:102CD000C5F60201086820F00700189A926F1043A9
:102CE000086004E09DF857008DF85600FFE7FFE705
:102CF00018980078400700283BD5FFE71898D0F8CF
:102D000094000790052819D80799DFE801F003041B
:102D10000C14151616E018980830012103F0C8FAB3
:102D20008DF857000EE018982830012103F0A8FB19
:102D30008DF8570006E005E004E003E001208DF87F
:102D40005700FFE79DF8570068B9FFE744F2584184
:102D5000C5F60201086820F00700189AD2F89420FE
:102D60001043086004E09DF857008DF85600FFE717
:102D7000FFE718980078800600284ED5FFE71898DE
:102D8000D0F890000690C8B1FFE70698B0F1805FD8
:102D900015D0FFE70698B0F1005F18D0FFE706985E
:102DA000B0F1405F1BD0FFE70698B0F1804F17D01D
:102DB000FFE70698B0F1A04F13D013E016E0189883
:102DC0000830002103F074FA8DF857000EE01898CF
:102DD0002830022103F054FB8DF8570006E005E08F
:102DE00004E003E001208DF85700FFE79DF857004D
:102DF00068B9FFE744F25441C5F60201086820F0C3
:102E0000E040189AD2F890201043086004E09DF842
:102E100057008DF85600FFE7FFE718980078400646
:102E200000284ED5FFE71898D0F89C000590C8B14F
:102E3000FFE70598B0F5806F15D0FFE70598B0F56E
:102E4000006F18D0FFE70598B0F5406F1BD0FFE783
:102E50000598B0F5805F17D0FFE70598B0F5A05F43
:102E600013D013E016E018980830002103F020FA80
:102E70008DF857000EE018982830022103F000FB6F
:102E80008DF8570006E005E004E003E001208DF82E
:102E90005700FFE79DF8570068B9FFE744F2584133
:102EA000C5F60201086820F4E050189AD2F89C2078
:102EB0001043086004E09DF857008DF85600FFE7C6
:102EC000FFE718980078000600284ED5FFE718980D
:102ED000D0F8A0000490C8B1FFE70498B0F5005FF7
:102EE00015D0FFE70498B0F5804F18D0FFE704989D
:102EF000B0F5C04F1BD0FFE70498B0F5004F17D0D6
:102F0000FFE70498B0F5204F13D013E016E01898AF
:102F10000830002103F0CCF98DF857000EE0189826
:102F20002830022103F0ACFA8DF8570006E005E0E6
:102F300004E003E001208DF85700FFE79DF85700FB
:102F400068B9FFE744F25841C5F60201086820F469
:102F50006040189AD2F8A0201043086004E09DF861
:102F600057008DF85600FFE7FFE718980078000734
:102F7000002820D5FFE71898D0F88400B0F5805FCE
:102F80000CD1FFE718982830022103F079FA20B11C
:102F9000FFE701208DF85600FFE7FFE744F25441B8
:102FA000C5F60201086820F44050189AD2F884202F
:102FB00010430860FFE718980078C006002820D565
:102FC000FFE71898D0F89800B0F5807F0CD1FFE7A4
:102FD00018982830022103F053FA20B1FFE70120AE
:102FE0008DF85600FFE7FFE744F25841C5F60201AD
:102FF000086820F44070189AD2F8982010430860AE
:10300000FFE718988078000700283CD5FFE718985C
:10301000D0F8A400039050B1FFE70398B0F5803FCB
:103020000DD0FFE70398B0F5003F10D010E01898DE
:103030000830002103F03CF98DF857000CE0189897
:103040002830022103F01CFA8DF8570004E003E059
:1030500001208DF85700FFE79DF8570068B9FFE79A
:1030600044F25841C5F60201086820F44030189A2D
:10307000D2F8A4201043086004E09DF857008DF8B2
:103080005600FFE7FFE718988078400700283FD5F3
:10309000FFE71898D0F888000290B0F5801F0AD09A
:1030A000FFE70298B0F5001F0ED0FFE70298B0F5D9
:1030B000401F11D011E044F22C41C5F6020108680E
:1030C00040F4003008600CE018982830012103F02B
:1030D000D7F98DF8570004E003E001208DF8570080
:1030E000FFE79DF8570068B9FFE744F25441C5F681
:1030F0000201086820F44010189AD2F88820104382
:10310000086004E09DF857008DF85600FFE7FFE7E0
:1031100018988078C007A8B3FFE71898006D019051
:1031200028B1FFE70198B0F5803F09D010E044F2E4
:103130002C41C5F60201086840F4003008600BE03D
:1031400018980830022103F0B3F88DF8570003E017
:1031500001208DF85700FFE79DF8570060B9FFE7A1
:1031600044F24C41C5F60201086820F48030189AF8
:10317000126D1043086004E09DF857008DF856006A
:10318000FFE7FFE71898C078800600280CD5FFE716
:1031900018982830022103F073F920B1FFE70120CD
:1031A0008DF85600FFE7FFE7189880788007002821
:1031B0003CD5FFE71898D0F880000090D0B1FFE729
:1031C0000098B0F5807F0AD0FFE70098B0F5007F47
:1031D0000ED0FFE70098B0F5407F0AD00BE044F234
:1031E0002C41C5F60201086840F40030086006E092
:1031F00005E004E003E001208DF85700FFE79DF8AB
:10320000570068B9FFE744F25441C5F60201086867
:1032100020F44070189AD2F880201043086004E02F
:103220009DF857008DF85600FFE7FFE71898807863
:10323000C00600280CD5FFE744F25041C5F6020154
:10324000086820F00040189A526F10430860FFE7AA
:103250001898C078C00600280DD5FFE744F2104149
:10326000C5F60201086820F48040189AD2F8B82008
:1032700010430860FFE718988078800600280CD576
:10328000FFE744F25041C5F60201086820F0807063
:10329000189AD26E10430860FFE71898C07840066D
:1032A000002811D5FFE7FFE744F21041C5F60201FF
:1032B000086820F4004008601898D0F8BC2008681E
:1032C00010430860FFE7FFE71898C0780006002861
:1032D0000CD5FFE744F24C41C5F60201086820F026
:1032E0004050189A526D10430860FFE71898807894
:1032F000000600280DD5FFE744F25441C5F602014F
:10330000086820F44000189AD2F88C201043086016
:10331000FFE718980079C00790B1FFE718980830C8
:10332000002102F0C5FF8DF857009DF8570008B93D
:10333000FFE704E09DF857008DF85600FFE7FFE730
:10334000189800798007002812D5FFE718980830F0
:10335000012102F0ADFF8DF857009DF8570008B924
:10336000FFE704E09DF857008DF85600FFE7FFE700
:10337000189800794007002812D5FFE71898083000
:10338000022102F095FF8DF857009DF8570008B90B
:10339000FFE704E09DF857008DF85600FFE7FFE7D0
:1033A000189800790007002812D5FFE718982830F0
:1033B000002103F065F88DF857009DF8570008B913
:1033C000FFE704E09DF857008DF85600FFE7FFE7A0
:1033D00018980079C006002812D5FFE71898283001
:1033E000012103F04DF88DF857009DF8570008B9FA
:1033F000FFE704E09DF857008DF85600FFE7FFE770
:10340000189800798006002812D5FFE71898283010
:10341000022103F035F88DF857009DF8570008B9E0
:10342000FFE704E09DF857008DF85600FFE7FFE73F
:103430009DF8560020B9FFE700208DF8670003E0F3
:1034400001208DF86700FFE79DF867001AB080BD86
:1034500080B586B004900391049820B9FFE701205D
:103460008DF817003CE2039842F20001C5F20021FA
:10347000096801F00F01884216D9FFE742F2000007
:10348000C5F20020016821F00F01039A1143016089
:10349000006800F00F000399884204D0FFE7012084
:1034A0008DF817001CE2FFE7049800784007002819
:1034B00019D5FFE70498006944F21841C5F60201E6
:1034C000096801F0700188420CD9FFE744F2184105
:1034D000C5F60201086820F07000049A12691043D2
:1034E0000860FFE7FFE7049800780007002819D577
:1034F000FFE70498406944F21C41C5F602010968DF
:1035000001F0700188420CD9FFE744F21C41C5F676
:103510000201086820F07000049A526910430860A4
:10352000FFE7FFE704980078C006002819D5FFE7F9
:103530000498806944F21C41C5F60201096801F44F
:10354000E06188420CD9FFE744F21C41C5F6020154
:10355000086820F4E060049A926910430860FFE76D
:10356000FFE7049800788006002819D5FFE7049843
:10357000C06944F22041C5F60201096801F07001FA
:1035800088420CD9FFE744F22041C5F602010868E1
:1035900020F07000049AD26910430860FFE7FFE74B
:1035A000049800788007002819D5FFE70498C068C0
:1035B00044F21841C5F60201096801F00F01884282
:1035C0000CD9FFE744F21841C5F60201086820F063
:1035D0000F00049AD26810430860FFE7FFE70498E1
:1035E0000078C007002800F08C80FFE744F2184103
:1035F000C5F60201086820F47060049A92681043CE
:10360000086004984068022811D1FFE744F20040A6
:10361000C5F60200006800F400310020B0EB514F05
:1036200004D1FFE701208DF8170059E13EE004982E
:103630004068032811D1FFE744F20040C5F60200BC
:10364000006800F000710020B0EB516F04D1FFE77B
:1036500001208DF8170043E127E004984068012815
:1036600011D1FFE744F20040C5F60200006800F403
:1036700080710020B0EB112F04D1FFE701208DF8FD
:1036800017002DE110E044F20040C5F6020000688A
:1036900000F004010020B0EB910F04D1FFE70120FE
:1036A0008DF817001CE1FFE7FFE7FFE744F2104148
:1036B000C5F60201086820F00700049A526810431A
:1036C0000860FDF7B5FD0190FFE744F21040C5F634
:1036D0000200006800F0380004994968B0EBC10F9F
:1036E0000ED0FFE7FDF7A4FD0199401A41F28931A0
:1036F000884204D3FFE703208DF81700F0E0E4E7E9
:10370000FFE7049800788007002819D5FFE70498A0
:10371000C06844F21841C5F60201096801F00F01C2
:1037200088420CD2FFE744F21841C5F6020108684E
:1037300020F00F00049AD26810430860FFE7FFE70B
:10374000039842F20001C5F20021096801F00F015F
:10375000884216D2FFE742F20000C5F2002001685D
:1037600021F00F01039A11430160006800F00F007F
:103770000399884204D0FFE701208DF81700AFE0DD
:10378000FFE7049800784007002819D5FFE7049860
:10379000006944F21841C5F60201096801F07001A0
:1037A00088420CD2FFE744F21841C5F602010868CE
:1037B00020F07000049A126910430860FFE7FFE7E9
:1037C000049800780007002819D5FFE7049840699D
:1037D00044F21C41C5F60201096801F070018842FB
:1037E0000CD2FFE744F21C41C5F60201086820F044
:1037F0007000049A526910430860FFE7FFE70498DD
:103800000078C006002819D5FFE70498806944F2C3
:103810001C41C5F60201096801F4E06188420CD23E
:10382000FFE744F21C41C5F60201086820F4E0609D
:10383000049A926910430860FFE7FFE70498007854
:103840008006002819D5FFE70498C06944F220419A
:10385000C5F60201096801F0700188420CD2FFE749
:1038600044F22041C5F60201086820F07000049A75
:10387000D26910430860FFE7FFE700F0CDF844F29B
:103880001842C5F602021168C1F3032341F22E313A
:10389000C0F60701CB5C03F01F03D84000900098EE
:1038A000126802F00F02895C01F01F01C84040F26B
:1038B0000401C2F200410860009840F20001C2F227
:1038C0000041086040F29C30C2F200400068FEF700
:1038D00053F98DF80B009DF80B008DF81700FFE7EA
:1038E0009DF8170006B080BD82B00190009101994B
:1038F0003F20086044F21040C5F60200006800F066
:1039000007000199486044F21840C5F602000168BA
:1039100001F47061019A9160016801F00F01019A50
:10392000D160006800F070000199086144F21C4009
:10393000C5F60200016801F07001019A516100684A
:1039400000F4E0600199886144F22040C5F602006D
:10395000006800F070000199C86142F20000C5F2F1
:103960000020006800F00F000099086002B0704766
:1039700080B582B000F050F844F21842C5F6020259
:103980001168C1F3032341F22E31C0F60701CB5C6D
:1039900003F01F03D84001900198126802F00F0253
:1039A000895C01F01F0120FA01F140F20400C2F22B
:1039B00000400160019940F20002C2F20042116031
:1039C000006802B080BD000080B5FFF7D1FF44F26F
:1039D0001C41C5F602010968C1F3021241F22E3101
:1039E000C0F60701895C01F01F01C84080BD0000DE
:1039F00080B5FFF7BDFF44F21C41C5F6020109681E
:103A0000C1F3022241F22E31C0F60701895C01F0B8
:103A10001F01C84080BD00008AB044F21040C5F6C6
:103A20000200006800F0380001460191182800F2F9
:103A30005F810199DFE811F019005C015C015C0114
:103A40005C015C015C015C013A005C015C015C01B1
:103A50005C015C015C015C0140005C015C015C019B
:103A60005C015C015C015C01460044F20040C5F66B
:103A70000200006800F020010020B0EB511F0ED0C2
:103A8000FFE744F20040C5F602000068C0F3C10140
:103A900049F20000C0F2D030C840029005E049F27F
:103AA0000000C0F2D0300290FFE727E140F600109E
:103AB000C0F23D00029021E147F64000C0F27D10C7
:103AC00002901BE144F22840C5F60200016801F0B3
:103AD000030108910068C0F30510079044F22C40E0
:103AE000C5F60200006800F001000690069844F256
:103AF0003441C5F60201096889B2C908484300EE9D
:103B0000100AB8EE400A8DED040A0798002800F06C
:103B1000EB80FFE70898009048B1FFE70098012884
:103B200065D0FFE70098022800F08380A3E044F20C
:103B30000040C5F60200006800F020010020B0EB54
:103B4000511F31D0FFE744F20040C5F60200006883
:103B5000C0F3C10149F20000C0F2D030C840059066
:103B60009DED050AB8EE400A9DED071AB8EE411A20
:103B700080EE010A44F23040C5F6020000686FF39F
:103B80005F2001EE100AB8EE411A9DED042A9FED68
:103B90005E3A02EE031AB7EE002A31EE021A20EE68
:103BA000010A8DED030A21E09DED070AB8EE401AE7
:103BB0009FED570A80EE010A44F23040C5F602003C
:103BC00000686FF35F2001EE100AB8EE411A9DED18
:103BD000042A9FED4D3A02EE031AB7EE002A31EEA9
:103BE000021A20EE010A8DED030AFFE765E09DED64
:103BF000070AB8EE401A9FED450A80EE010A44F22A
:103C00003040C5F6020000686FF35F2001EE100A35
:103C1000B8EE411A9DED042A9FED3B3A02EE031ADD
:103C2000B7EE002A31EE021A20EE010A8DED030AEA
:103C300043E09DED070AB8EE401A9FED320A80EE90
:103C4000010A44F23040C5F6020000686FF35F20BD
:103C500001EE100AB8EE411A9DED042A9FED2A3AB2
:103C600002EE031AB7EE002A31EE021A20EE010A24
:103C70008DED030A21E09DED070AB8EE401A9FED95
:103C8000230A80EE010A44F23040C5F602000068C3
:103C90006FF35F2001EE100AB8EE411A9DED042A81
:103CA0009FED193A02EE031AB7EE002A31EE021A1E
:103CB00020EE010A8DED030AFFE744F23040C5F61D
:103CC0000200006881B2012000EB512009909DEDB7
:103CD000030A9DED091AB8EE411A80EE010ABCEE06
:103CE000C00A8DED020A02E000200290FFE705E025
:103CF00040F60010C0F23D000290FFE702980AB0C3
:103D0000704700BF20BCBE4B000000390024744A3D
:103D10000024744C0000000080B58CB00A900A9812
:103D200028B9FFE701208DF82F0000F09DBD0A980B
:103D30000078C007002800F0B980FFE744F2104087
:103D4000C5F60200006800F03800069044F22840F2
:103D5000C5F6020000680590069810280AD0FFE713
:103D6000069818281CD1FFE7059800F003000228E8
:103D700016D1FFE744F20040C5F60200006800F4E7
:103D800000310020B0EB514F09D0FFE70A9840689E
:103D900028B9FFE701208DF82F0000F065BD84E011
:103DA000FFE70A984068B0F5803F09D1FFE744F289
:103DB0000041C5F60201086840F48030086032E036
:103DC0000A98406868B9FFE744F20041C5F602016D
:103DD000086820F480300860086820F480200860BB
:103DE00020E00A984068B0F5A02F0DD1FFE744F21B
:103DF0000041C5F60201086840F4802008600868A8
:103E000040F4803008600CE044F20041C5F6020145
:103E1000086820F480300860086820F4802008607A
:103E2000FFE7FFE7FFE7FFE70A984068F0B1FFE729
:103E3000FDF7FEF90990FFE744F20040C5F60200E5
:103E4000006800F400310020B0EB514F0DD1FFE7C6
:103E5000FDF7EEF90999401A652805D3FFE703201D
:103E60008DF82F0000F000BDE6E71DE0FDF7E0F95A
:103E70000990FFE744F20040C5F60200006800F434
:103E800000310020B0EB514F0DD0FFE7FDF7D0F926
:103E90000999401A652805D3FFE703208DF82F0004
:103EA00000F0E2BCE6E7FFE7FFE7FFE70A980078EB
:103EB0008007002840F11681FFE744F21040C5F664
:103EC0000200006800F03800049044F22840C5F673
:103ED000020000680390049850B1FFE70498182886
:103EE00078D1FFE79DF80C008007002872D1FFE72A
:103EF00044F20040C5F60200006800F00401002012
:103F0000B0EB910F09D0FFE70A98C06828B9FFE726
:103F100001208DF82F0000F0A7BC44F20041C5F647
:103F20000201086820F019000A9AD268104308605C
:103F3000FDF77EF90990FFE744F20040C5F6020064
:103F4000006800F004010020B0EB910F0DD1FFE7F5
:103F5000FDF76EF90999401A032805D3FFE70320FE
:103F60008DF82F0000F080BCE6E7FFE7FDF758F979
:103F700041F2030188421DD8FFE70A9800694028F2
:103F80000AD1FFE744F20441C5F602010868202285
:103F900062F3113008600CE044F20441C5F60201FE
:103FA000086820F47C300A9A126940EA02300860FE
:103FB000FFE70CE044F20441C5F60201086820F076
:103FC000FE400A9A126940EA02600860FFE7FFE7D4
:103FD000FFE786E00A98C06800285CD0FFE744F25B
:103FE0000041C5F60201086820F019000A9AD2685B
:103FF00010430860FDF71CF90990FFE744F2004008
:10400000C5F60200006800F004010020B0EB910F3B
:104010000DD1FFE7FDF70CF90999401A032805D3E4
:10402000FFE703208DF82F0000F01EBCE6E7FFE756
:10403000FDF7F6F841F2030188421DD8FFE70A9820
:10404000006940280AD1FFE744F20441C5F60201A5
:104050000868202262F3113008600CE044F2044149
:10406000C5F60201086820F47C300A9A126940EA19
:1040700002300860FFE70CE044F20441C5F602019B
:10408000086820F0FE400A9A126940EA026008605F
:10409000FFE7FFE724E044F20041C5F602010868AB
:1040A00020F001000860FDF7C3F80990FFE744F233
:1040B0000040C5F60200006800F004010020B0EBEB
:1040C000910F0CD0FFE7FDF7B3F80999401A0328C8
:1040D00004D3FFE703208DF82F00C5E3E7E7FFE7F0
:1040E000FFE7FFE70A980078C006002840F1EB8060
:1040F000FFE744F21040C5F60200006800F0380007
:10410000029044F22840C5F602000068019002982F
:1041100008280AD0FFE70298182850D1FFE7019835
:1041200000F0030001284AD1FFE744F20040C5F641
:104130000200006800F480710020B0EB112F09D05C
:10414000FFE70A98C069802804D0FFE701208DF8B6
:104150002F0089E3FFE7FDF763F841F2030188428E
:104160001DD8FFE70A98006A20280AD1FFE744F229
:104170000441C5F602010868102262F39E600860DF
:104180000CE044F20441C5F60201086820F0F84052
:104190000A9A126A40EA82600860FFE70CE044F283
:1041A0000C41C5F60201086820F07C500A9A126A98
:1041B00040EA02600860FFE7FFE7FFE782E00A9855
:1041C000C069002858D0FFE744F20041C5F602015B
:1041D000086840F080000860FDF72AF80990FFE7C2
:1041E00044F20040C5F60200006800F4807100202F
:1041F000B0EB112F0CD1FFE7FDF71AF80999401A1F
:10420000032804D3FFE703208DF82F002CE3E7E712
:10421000FFE7FDF705F841F2030188421DD8FFE7EB
:104220000A98006A20280AD1FFE744F20441C5F643
:1042300002010868102262F39E6008600CE044F2FC
:104240000441C5F60201086820F0F8400A9A126A93
:1042500040EA82600860FFE70CE044F20C41C5F6DA
:104260000201086820F07C500A9A126A40EA026053
:104270000860FFE7FFE724E044F20041C5F60201D1
:10428000086820F080000860FCF7D2FF0990FFE783
:1042900044F20040C5F60200006800F4807100207E
:1042A000B0EB112F0CD0FFE7FCF7C2FF0999401AC1
:1042B000032804D3FFE703208DF82F00D4E2E7E7BB
:1042C000FFE7FFE7FFE70A980078000700284FD5CF
:1042D000FFE70A98406928B3FFE744F27441C5F646
:1042E0000201086840F001000860FCF7A1FF099096
:1042F000FFE744F27440C5F60200006800F00201D6
:104300000020B0EB510F0CD1FFE7FCF791FF0999AA
:10431000401A032804D3FFE703208DF82F00A3E2FF
:10432000E7E724E044F27441C5F60201086820F092
:1043300001000860FCF77CFF0990FFE744F274403D
:10434000C5F60200006800F002010020B0EB510F3A
:104350000CD0FFE7FCF76CFF0999401A032804D33F
:10436000FFE703208DF82F007EE2E7E7FFE7FFE796
:104370000A980078800600284FD5FFE70A988069E0
:1043800028B3FFE744F20041C5F60201086840F493
:1043900080500860FCF74CFF0990FFE744F20040B2
:1043A000C5F60200006800F400510020B0EB513F58
:1043B0000CD1FFE7FCF73CFF0999401A032804D30E
:1043C000FFE703208DF82F004EE2E7E724E044F2F8
:1043D0000041C5F60201086820F480500860FCF72F
:1043E00027FF0990FFE744F20040C5F6020000688D
:1043F00000F400510020B0EB513F0CD0FFE7FCF778
:1044000017FF0999401A032804D3FFE703208DF80A
:104410002F0029E2E7E7FFE7FFE70A980078400767
:10442000002840F1A780FFE744F60001C5F602012D
:10443000086840F480700860FCF7FAFE0990FFE716
:1044400044F60000C5F602000068C00500280CD440
:10445000FFE7FCF7EDFE0999401A652804D3FFE752
:1044600003208DF82F00FFE1EAE7FFE70A98806854
:10447000012809D1FFE744F27041C5F6020108683E
:1044800040F00100086031E00A98806868B9FFE7F1
:1044900044F27041C5F60201086820F0010008608E
:1044A000086820F0040008601FE00A98806805286A
:1044B0000DD1FFE744F27041C5F60201086840F0F3
:1044C00004000860086840F0010008600CE044F255
:1044D0007041C5F60201086820F001000860086814
:1044E00020F004000860FFE7FFE7FFE7FFE70A9816
:1044F0008068F8B1FFE7FCF79BFE0990FFE744F204
:104500007040C5F60200006800F002010020B0EB28
:10451000510F0ED1FFE7FCF78BFE0999401A41F2CB
:104520008931884204D3FFE703208DF82F009BE1F7
:10453000E5E71EE0FCF77CFE0990FFE744F27040DF
:10454000C5F60200006800F002010020B0EB510F38
:104550000ED0FFE7FCF76CFE0999401A41F2893151
:10456000884204D3FFE703208DF82F007CE1E5E7C4
:10457000FFE7FFE70A98406A002800F07181FFE733
:1045800044F21040C5F60200006800F03800182818
:1045900000F0E080FFE70A98406A022840F0B4800B
:1045A000FFE744F20041C5F60201086820F0807080
:1045B0000860FCF73DFE0990FFE744F20040C5F6B5
:1045C0000200006800F000710020B0EB516F0CD0C9
:1045D000FFE7FCF72DFE0999401A032804D3FFE7F3
:1045E00003208DF82F003FE1E7E7FFE744F2284181
:1045F000C5F60201086840F2F33290430A9B9A6ABA
:10460000DB6A42EA0312104308600A99086BD1F88A
:1046100034C08B6BCA6B01386FF35F204FF60061BB
:10462000CFF6FF7101EB4C2189B208440021CFF68F
:10463000FF7101EB034101F4FE0108444FF07F419B
:1046400001EB026101F0FE41084444F23041C5F63D
:1046500002010860FFE744F22C41C5F60201009117
:10466000086820F00100086044F23442C5F60202F6
:1046700010684FF6F87398430A9B9B6C40EAC3009E
:104680001060086820F00C000A9A126C1043086051
:10469000086820F002000A9A526C1043086008680B
:1046A00040F480300860086840F400300860086812
:1046B00040F480200860086840F00100086044F27F
:1046C0000041C5F60201086840F080700860FCF700
:1046D000AFFD0990FFE744F20040C5F60200006814
:1046E00000F000710020B0EB516F0CD1FFE7FCF738
:1046F0009FFD0999401A032804D3FFE703208DF892
:104700002F00B1E0E7E724E044F20041C5F60201E2
:10471000086820F080700860FCF78AFD0990FFE7C8
:1047200044F20040C5F60200006800F0007100206D
:10473000B0EB516F0CD0FFE7FCF77AFD0999401AF6
:10474000032804D3FFE703208DF82F008CE0E7E770
:10475000FFE784E044F22840C5F6020000680890B4
:1047600044F23040C5F60200006807900A98406A9B
:10477000012837D0FFE7089800F003000A99896AFA
:1047800088422FD1FFE7089800F47C710A98C06A2C
:10479000B0EB111F26D1FFE707986FF35F200A994E
:1047A000096B013988421DD1FFE7BDF81C100A983A
:1047B000406B0138B0EB512F14D1FFE7079800F49C
:1047C000FE010A98806B0138B0EB114F0AD1FFE768
:1047D000079800F0FE410A98C06B0138B0EB116FEA
:1047E00004D0FFE701208DF82F003DE044F2344073
:1047F000C5F60200006880B2C00808900A98806C74
:104800000899884229D0FFE744F22C41C5F60201FD
:10481000086820F001000860FCF70AFD0990FFE736
:10482000FCF706FD0999401A08B9FFE7F8E744F2DA
:104830003441C5F6020108684FF6F87290430A9AAF
:10484000926C40EAC200086044F22C41C5F60201B5
:10485000086840F001000860FFE7FFE7FFE7FFE7B7
:1048600000208DF82F00FFE79DF82F000CB080BDD1
:1048700080B584B0029001910092029820B9FFE7C0
:1048800001208DF80F0037E0029890F8450040B9FC
:10489000FFE70299002081F84400029800F030F808
:1048A000FFE7029951F8080BFBF7EEFF029A019916
:1048B00010689268FCF770F8029B009958689A6833
:1048C000DB6AFBF7ADFF02980168826851F82200AD
:1048D00040F0010041F8220044F20001C5F200213D
:1048E000086840F0004008600299012081F8450006
:1048F00000208DF80F00FFE79DF80F0004B080BD89
:1049000080B582B00190FCF7EFF802B080BD0000E6
:1049100081B0009001B0704781B0009001B0704745
:1049200081B0009001B0704785B003900291FFE71D
:10493000039890F83C00012804D1FFE702208DF88D
:10494000130099E00399012081F83C00FFE7FFE79D
:104950000399022081F83D000398006840680190A7
:104960000398006880680090039800680021C4F2F2
:104970000101884209D0FFE70398006840F2004136
:10498000C4F2010188420AD1FFE7019820F47000C7
:10499000019002984168019808430190FFE701984F
:1049A00020F070000190029801680198084301907E
:1049B0000198039909684860039800680021C4F2CF
:1049C000010188423CD0FFE703980068B0F1804FB6
:1049D00036D0FFE70398006840F20041C4F20001BE
:1049E00088422DD0FFE70398006840F60001C4F22A
:1049F0000001884224D0FFE70398006840F6004198
:104A0000C4F2000188421BD0FFE70398006840F21F
:104A10000041C4F20101884212D0FFE70398006808
:104A200041F60001C4F20001884209D0FFE7039873
:104A3000006844F20001C4F2010188420ED1FFE790
:104A4000009820F080000090029881680098084348
:104A500000900098039909688860FFE70399012096
:104A600081F83D00FFE70399002081F83C00FFE753
:104A700000208DF81300FFE79DF8130005B0704784
:104A800080B582B00090009820B9FFE701208DF832
:104A9000070045E0009890F83D0040B9FFE7009915
:104AA000002081F83C00009800F03EF8FFE70099F4
:104AB000022081F83D00009951F8040B01F048FFF5
:104AC0000099012081F84800FFE70099012081F852
:104AD0003E00009981F83F00009981F8400000995C
:104AE00081F84100009981F84200009981F8430063
:104AF000FFE7FFE70099012081F84400009981F861
:104B00004500009981F84600009981F84700FFE7C9
:104B10000099012081F83D0000208DF80700FFE793
:104B20009DF8070002B080BD80B584B00390039863
:104B3000006841F20041C4F20001884219D1FFE748
:104B4000FFE744F2E840C5F60200016841F02001A9
:104B50000160006800F0200002900298FFE7372013
:104B6000019000221146FDF703F90198FDF7F4F8D2
:104B7000FFE704B080BD000083B00190019890F879
:104B80003D00012804D0FFE701208DF80B0071E003
:104B90000199022081F83D0001980168C86840F041
:104BA0000100C860019800680021C4F20101884238
:104BB0003CD0FFE701980068B0F1804F36D0FFE7A6
:104BC0000198006840F20041C4F2000188422DD0F3
:104BD000FFE70198006840F60001C4F20001884236
:104BE00024D0FFE70198006840F60041C4F20001BC
:104BF00088421BD0FFE70198006840F20041C4F2F0
:104C00000101884212D0FFE70198006841F60001D7
:104C1000C4F20001884209D0FFE70198006844F21D
:104C20000001C4F20101884219D1FFE70198006830
:104C300080680721C0F20101084000900098062812
:104C40000CD0FFE70098B0F5803F07D0FFE7019850
:104C50000168086840F001000860FFE706E001987D
:104C60000168086840F001000860FFE700208DF847
:104C70000B00FFE79DF80B0003B070470000000039
:104C800081B0009001B0704780B584B00390039864
:104C90000068C068029003980068006901909DF860
:104CA00004008007002824D5FFE79DF8080080074E
:104CB00000281DD5FFE7039801686FF00200086126
:104CC000039901200877039800688069800720B164
:104CD000FFE70398FFF7D4FF06E0039800F0FCF825
:104CE000039800F0FDF8FFE7039900200877FFE73D
:104CF000FFE79DF804004007002825D5FFE79DF851
:104D00000800400700281ED5FFE7039801686FF0F0
:104D100004000861039902200877039800688069FD
:104D200010F4407F04D0FFE70398FFF7A9FF06E0E7
:104D3000039800F0D1F8039800F0D2F8FFE7039948
:104D400000200877FFE7FFE79DF804000007002830
:104D500024D5FFE79DF80800000700281DD5FFE7D0
:104D6000039801686FF00800086103990420087730
:104D700003980068C069800720B1FFE70398FFF738
:104D80007FFF06E0039800F0A7F8039800F0A8F86A
:104D9000FFE7039900200877FFE7FFE79DF804008D
:104DA000C006002825D5FFE79DF80800C0060028AA
:104DB0001ED5FFE7039801686FF0100008610399A2
:104DC0000820087703980068C06910F4407F04D079
:104DD000FFE70398FFF754FF06E0039800F07CF824
:104DE000039800F07DF8FFE7039900200877FFE7BC
:104DF000FFE79DF80400C00778B1FFE79DF80800C1
:104E0000C00748B1FFE7039801686FF0010008612F
:104E1000039800F069F8FFE7FFE7019800F08000D1
:104E2000802806D0FFE79DF805008006002810D5F1
:104E3000FFE79DF808000006002809D5FFE7039862
:104E400001686FF4025008610398FFF765FDFFE702
:104E5000FFE79DF80500C00780B1FFE79DF8080057
:104E60000006002809D5FFE7039801686FF48070F9
:104E700008610398FFF74CFDFFE7FFE79DF804008A
:104E80004006002810D5FFE79DF8080040060028DE
:104E900009D5FFE7039801686FF0400008610398A7
:104EA00000F03EF8FFE7FFE79DF8040080060028C9
:104EB00010D5FFE79DF808008006002809D5FFE718
:104EC000039801686FF0200008610398FFF728FD40
:104ED000FFE7FFE704B080BD81B0009001B07047EC
:104EE00081B0009001B0704780B582B00190019808
:104EF000006841F20001C4F20001884203D1FFE7DB
:104F0000FCF7EAFDFFE70198006841F20041C4F2B6
:104F10000001884201D1FFE7FFE702B080BD000039
:104F200081B0009001B0704783B00190FFE7019815
:104F300090F88400012804D1FFE702208DF80B00CF
:104F40002CE00199012081F88400FFE7FFE7019937
:104F50002420C1F88800019800680068009001983A
:104F60000168086820F001000860009820F00050F7
:104F7000009001990020486600980199096808602E
:104F800001992020C1F88800FFE70199002081F8ED
:104F90008400FFE700208DF80B00FFE79DF80B0071
:104FA00003B070470000000080B584B0029001910A
:104FB000FFE7029890F88400012804D1FFE702205F
:104FC0008DF80F0032E00299012081F88400FFE79C
:104FD000FFE702992420C1F8880002980068006861
:104FE000009002980168086820F0010008600298AB
:104FF0000068806820F060600199084302990968A0
:105000008860029801F078FD0098029909680860AC
:1050100002992020C1F88800FFE70299002081F85A
:105020008400FFE700208DF80F00FFE79DF80F00D8
:1050300004B080BD0000000080B584B002900191F2
:10504000FFE7029890F88400012804D1FFE70220CE
:105050008DF80F0032E00299012081F88400FFE70B
:10506000FFE702992420C1F88800029800680068D0
:10507000009002980168086820F00100086002981A
:105080000068806820F0604001990843029909682F
:105090008860029801F030FD009802990968086064
:1050A00002992020C1F88800FFE70299002081F8CA
:1050B0008400FFE700208DF80F00FFE79DF80F0048
:1050C00004B080BD0000000080B582B00090009860
:1050D00020B9FFE701208DF8070046E000988069BD
:1050E00008B1FFE700E0FFE70098D0F8880040B97A
:1050F000FFE70099002081F88400009800F03CF858
:10510000FFE700992420C1F888000098016808682A
:1051100020F0010008600098806A20B1FFE7009845
:1051200001F02EFDFFE7009801F0C2FE012804D136
:10513000FFE701208DF8070017E000980168486834
:1051400020F49040486000980168886820F02A00A8
:10515000886000980168086840F0010008600098C5
:1051600001F0B2FD8DF80700FFE79DF8070002B0DF
:1051700080BD00000000000080B5B8B0379000206E
:105180003690359034903390329002A8C021FBF7CE
:105190001EF93798006841F20001C4F2010188420B
:1051A0003ED1FFE70020039001210291219002A847
:1051B000FDF7FEF818B1FFE7FBF716FBFFE7FFE787
:1051C00044F2F040C5F60200016841F010010160B0
:1051D000006800F0100001900198FFE7FFE744F23B
:1051E000E040C5F60200016841F00201016000687C
:1051F00000F0020000900098FFE74FF4404032902A
:105200000220339000203490032035900420369003
:1052100040F20040C5F6020032A9FBF705FEFFE7A9
:1052200038B080BD00000000FFE7FEE7000000008E
:1052300081B0009000980068806900F002010020B1
:10524000B0EB510F05D0FFE700980168002088629D
:10525000FFE7009800688069C00738B9FFE7009849
:105260000168886940F001008861FFE701B070477C
:1052700080B58AB009900891079200208DF81B0034
:1052800009990968896905910490079803909DF828
:105290001400C006002840F18680FFE709980168E5
:1052A0001020C861FFE709980068806900F02002BB
:1052B00000210846B1EB521F009007D1FFE79DF88F
:1052C0001B00B0FA80F040090090FFE70098C0078B
:1052D000002857D0FFE708980130002851D0FFE799
:1052E000FBF7A6FF0399401A0899884204D8FFE704
:1052F0000898002844D1FFE709980068406800F446
:1053000080400290099890F842008DF807000998B3
:105310000068806981B20020B0EBD13F14D0FFE774
:105320000298B0F5804F0FD0FFE79DF807002028C6
:105330000AD0FFE709980168486840F48040486057
:10534000FBF776FF0390FFE7FFE7099800688069A5
:1053500000F020010020B0EB511F10D1FFE7FBF758
:1053600067FF0399401A1A2808D3FFE7049840F012
:105370002000049001208DF81B0000E0E5E7FFE726
:10538000FFE790E79DF81B0028B9FFE7099801683F
:105390002020C861FFE7049840F004000490012039
:1053A0008DF81B00FFE709980068806905909DF85B
:1053B0001500C00768B1FFE7049840F001000490B1
:1053C000099801684FF48070C86101208DF81B00B6
:1053D000FFE79DF81500400700280DD5FFE704986A
:1053E00040F008000490099801684FF48060C8619B
:1053F00001208DF81B00FFE79DF8150080070028AD
:105400000DD5FFE7049840F0020004900998016868
:105410004FF40070C86101208DF81B00FFE79DF874
:105420001B0000B3FFE70998FFF702FF0998016826
:1054300048684EF60002CFF6006210404860049AB9
:105440000999486C104348640999202081F841006B
:105450000999002081F84200FFE70999002081F8AE
:105460004000FFE7FFE79DF81B000AB080BD000089
:1054700080B586B0DDF824C0DDF820C00490ADF81A
:105480000E10ADF80C20ADF80A300498BDF80E10DF
:105490009DF80A20EC4642F20003C8F20003CCF863
:1054A0000030002300F0A4F804980899099A00F04D
:1054B00083F920B1FFE701208DF8170033E0BDF834
:1054C0000A00012806D1FFE79DF80C00049909683D
:1054D000886215E09DF80D000499096888620498B7
:1054E0000899099A00F068F920B1FFE701208DF8CA
:1054F000170018E09DF80C00049909688862FFE71E
:105500000498089B09996A4611604021002200F026
:105510009BF820B1FFE701208DF8170003E0002081
:105520008DF81700FFE79DF8170006B080BD00005A
:1055300080B586B0DDF824C0DDF820C00490ADF859
:105540000E10ADF80C20ADF80A300498BDF80E101E
:105550009DF80A20EC4642F20003C8F20003CCF8A2
:1055600000304FF0807300F043F804980899099ACE
:1055700000F022F920B1FFE701208DF8170033E099
:10558000BDF80A00012806D1FFE79DF80C00049938
:105590000968886215E09DF80D0004990968886221
:1055A00004980899099A00F007F920B1FFE7012053
:1055B0008DF8170018E09DF80C00049909688862BE
:1055C000FFE70498089B09996A4611608021002230
:1055D00000F03AF820B1FFE701208DF8170003E052
:1055E00000208DF81700FFE79DF8170006B080BD7A
:1055F00084B0DDF810C00390ADF80A108DF80920D2
:105600000193BDF80A006FF39F209DF8091040EA4E
:105610000140019908430499084320F0004000909C
:10562000039800684068049920EA515049F6004107
:10563000CFF6004108400099084303990968486083
:1056400004B070470000000080B586B0DDF820C0CF
:10565000049003918DF80B200193FFE704980068F4
:10566000806903990840401AB0FA80F040099DF81B
:105670000B10884242D1FFE704980199089AFFF77E
:10568000F7FD20B1FFE701208DF817003AE00198FF
:10569000013090B3FFE7FBF7CBFD0899401A019961
:1056A000884203D8FFE7019830BBFFE70498006801
:1056B000806903990840401AB0FA80F040099DF8CB
:1056C0000B10884217D1FFE70499486C40F0200086
:1056D00048640499202081F841000499002081F851
:1056E0004200FFE70499002081F84000FFE7012015
:1056F0008DF8170006E0FFE7FFE7AFE700208DF821
:105700001700FFE79DF8170006B080BD00000000FD
:1057100080B584B0029001910092FFE70298006882
:10572000806900F020010020B0EB511F39D1FFE764
:1057300002980199009AFFF79BFD20B1FFE7012035
:105740008DF80F0031E0FBF773FD0099401A0199C5
:10575000884203D8FFE7019810BBFFE70298006872
:10576000806900F020010020B0EB511F17D1FFE746
:105770000299486C40F0200048640299202081F88A
:1057800041000299002081F84200FFE702990020C1
:1057900081F84000FFE701208DF80F0005E0FFE7EA
:1057A000BCE700208DF80F00FFE79DF80F0004B064
:1057B00080BD00000000000080B584B0029001911F
:1057C0000092FFE702980068806900F00201002063
:1057D000B0EB510F3ED1FFE702980199009AFFF715
:1057E00047FD20B1FFE701208DF80F0036E001985A
:1057F000013070B3FFE7FBF71BFD0099401A0199D8
:10580000884203D8FFE7019810BBFFE702980068C1
:10581000806900F002010020B0EB510F17D1FFE7C3
:105820000299486C40F0200048640299202081F8D9
:1058300041000299002081F84200FFE70299002010
:1058400081F84000FFE701208DF80F0006E0FFE738
:10585000FFE7B7E700208DF80F00FFE79DF80F0086
:1058600004B080BD0000000080B586B0ADF8160021
:1058700040F20460C2F20040018842885143049122
:1058800001880139408801388AB283B20021084674
:1058900000F0AEF90498C0080390049800F00700E7
:1058A0000290FFE70398411E0391E8B1FFE7BDF8BE
:1058B00016000021C6F2020101910880BDF8160011
:1058C0000880BDF816000880BDF816000880BDF8F5
:1058D00016000880BDF816000880BDF81600088084
:1058E000BDF816000880DDE7FFE70298411E02912F
:1058F00038B1FFE7BDF816000021C6F202010880AA
:10590000F3E706B080BD000080B586B0DDF820C0AA
:10591000ADF81600ADF81410ADF81220ADF8103047
:10592000BDF81200BDF81610401A0130BDF8101075
:10593000BDF81420891A013148430390BDF81600C0
:10594000BDF81410BDF81220BDF8103000F050F969
:105950000398C0080290039800F007000190FFE749
:105960000298411E029168B3FFE70898811C0891D4
:1059700000880021C6F20201009108800898821C6C
:105980000892008808800898821C08920088088085
:105990000898821C0892008808800898821C089247
:1059A000008808800898821C08920088088008985F
:1059B000821C0892008808800898821C089200883F
:1059C0000880CDE7FFE70198411E019148B1FFE74C
:1059D0000898811C089100880021C6F20201088005
:1059E000F1E706B080BD000080B590B0F0200C90CB
:1059F00000F0A6F9C3200B9000F096F90C9800F087
:105A00009FF9962000F090F936200A9000F098F95E
:105A1000682000F089F93A2000F092F9052000F0A2
:105A200083F9B02000F08CF98020029000F07CF91E
:105A3000B62000F085F9202000F076F902200190D0
:105A400000F072F9B52000F07BF9019800F06CF9D4
:105A500003200F9000F068F90020039000F064F933
:105A6000042000F061F9B12000F06AF9029800F01A
:105A70005BF9102000F058F9B42000F061F90398A8
:105A800000F052F9B72000F05BF9C62000F04CF9A5
:105A9000C52000F055F9242000F046F9E42000F07C
:105AA0004FF9312000F040F9E82000F049F940209A
:105AB00000F03AF98A2000F037F9039800F034F941
:105AC000039800F031F929200E9000F02DF91920EB
:105AD00000F02AF9A52000F027F9332000F024F97E
