:020000040800F2
:10000000707A0024AD02000859770008316C0008AE
:100010005177000831110008D19900080000000054
:10002000000000000000000000000000797A0008D5
:100030003911000800000000A1770008617F000866
:10004000CB020008CB020008CB020008CB0200085C
:10005000CB020008CB020008CB020008CB0200084C
:10006000CB020008CB020008CB020008CB0200083C
:10007000CB020008CB020008CB020008CB0200082C
:10008000CB020008CB020008290A0008CB020008B6
:10009000CB020008CB020008CB0200084111000887
:1000A000CB020008CB020008CB020008CB020008FC
:1000B00069810008CB020008CB020008CB020008CF
:1000C000CB020008CB020008CB020008CB020008DC
:1000D000CB020008B1990008C1990008CB020008C2
:1000E000CB020008CB02000800000000CB02000891
:1000F000CB020008CB020008CB020008CB020008AC
:10010000CB020008CB020008CB020008CB0200089B
:10011000CB020008CB020008798100088981000821
:10012000CB020008CB020008CB020008CB0200087B
:10013000CB020008CB020008CB020008CB0200086B
:1001400000000000000000000000000000000000AF
:10015000CB020008CB020008CB020008CB0200084B
:10016000CB020008CB020008CB020008CB0200083B
:10017000CB020008CB020008CB0200080000000000
:10018000CB020008CB020008CB020008CB0200081B
:10019000CB020008CB020008CB020008CB0200080B
:1001A000CB020008CB020008CB020008CB020008FB
:1001B000CB020008CB020008CB020008CB020008EB
:1001C000CB020008CB020008CB020008CB020008DB
:1001D000CB020008CB020008CB020008CB020008CB
:1001E000CB020008CB020008CB020008CB020008BB
:1001F000CB020008CB020008CB020008CB020008AB
:10020000CB020008CB020008CB020008CB0200089A
:10021000CB020008CB020008CB020008CB0200088A
:10022000CB020008CB020008CB020008000000004F
:10023000CB020008CB02000800000000CB0200083F
:10024000CB020008CB020008CB020008CB0200085A
:10025000CB020008CB020008CB020008CB0200084A
:10026000CB020008CB020008CB020008CB0200083A
:10027000CB020008CB020008CB02000800000000FF
:10028000CB020008CB020008CB02000800000000EF
:1002900000000000CB020008DFF80CD000F04CFAA0
:1002A00000480047199A0008707A002407488047E0
:1002B0000748804707480047FEE7FEE7FEE7FEE7FE
:1002C000FEE7FEE7FEE7FEE7FEE7FEE7591100085E
:1002D00079800008990200082DE9F05F05460020AA
:1002E00092469B4688460646814640241BE02846A7
:1002F00041464746224600F057F853465A46C01A30
:10030000914110D311461846224600F03EF82D1AAE
:1003100067EB01084F4622460120002100F035F826
:1003200017EB00094E41201EA4F10104DFDC484612
:1003300031462A464346BDE8F09FD2B201E000F8BC
:10034000012B491EFBD270470022F6E710B5134679
:100350000A4604461946FFF7F0FF204610BD30B5A7
:100360000B46014600202022012409E021FA02F573
:100370009D4205D303FA02F5491B04FA02F528440D
:10038000151EA2F10102F1DC30BD202A04DB203A67
:1003900000FA02F1002070479140C2F1200320FAD8
:1003A00003F3194390407047202A04DB203A21FAD6
:1003B00002F00021704721FA02F3D040C2F120027E
:1003C00091400843194670472DE9FE4F804681EA67
:1003D0000300C00F0C46009021F0004123F00045BF
:1003E000B8EB0200A94105D24046214690461C4682
:1003F0000B46024623F00040104347D0270DC7F3B9
:100400000A00C3F30A510290401A019040286BDAA7
:10041000C3F3130040F4801B0098924620B10023E0
:10042000D2EB030A63EB0B0B01985946C0F1400273
:100430005046FFF7AAFF06460D4650465946019A18
:1004400000F092F910EB08006141002487EA115294
:1004500084EAE7731A4340D0009A62B3019A012AF2
:100460004FEA075215DC001B61EB02014FF000421E
:1004700002EA0752CDE90042001C41F580113246E4
:100480002B4600F092F903B0BDE8F08F40462146BC
:10049000F9E7001B61EB0201001C41F58013001815
:1004A0005B412018A2F5001747EB030140EAD57025
:1004B000B6196D4111E06D084FEA360645EAC07580
:1004C0004FEA0752001B61EB0201001C41F580114D
:1004D00049084FEA30000019514132462B4603B01B
:1004E000BDE8F04F00F052B900980122400000230F
:1004F000D0EB020263EBE073009821464FEAE07410
:10050000B8EB000061EB0401E9E783F000435BE72F
:1005100081F0004158E72DE9FE4F81EA030404F021
:10052000004421F0004100944FF0000B23F0004301
:1005300050EA01045ED052EA03045BD0C3F30A54CC
:10054000C1F30A552C44A4F2F3340194A0FB0254E5
:10055000C1F3130141F48011C3F3130343F4801377
:1005600001FB024400FB034E840A970A44EA8154CB
:1005700047EA8357A4FB076802958D0A05FB0785A8
:100580004FEA932C04FB0C542705029D4FEA0658B2
:1005900047EA1637B5EB08056EEB070C870E920E8F
:1005A00047EA811742EA8312A7FB0201B6EB0B016F
:1005B00064EB00042B0D43EA0C335E1844EB1C5033
:1005C000DA465146E7FB0201C5F313044FEA0B3349
:1005D00043EA14534FEA0432019C43EA0603A4F1B0
:1005E0000C040294009CCDE900B400F0DEF803B0E6
:1005F000BDE8F08F00200146F9E72DE9F04D81EAD2
:10060000030404F0004B21F0004514464FF0000AAB
:1006100023F0004150EA050220D054EA01021DD027
:10062000C5F30A570246C5F31303C1F31300C1F320
:100630000A5640F4801543F48013A7EB0608101BFC
:10064000D64608F2FD3873EB050002D308F1010825
:1006500001E092185B41B8F1000F03DA0020014677
:10066000BDE8F08D00204FF48011064684460EE070
:10067000171B73EB050705D3121B63EB050306433A
:100680004CEA010C49084FEA300092185B4150EAED
:100690000107EDD152EA030012D082EA040083EA96
:1006A0000501084305D0101BAB4106D201220023EF
:1006B00006E000224FF0004302E06FF00102531009
:1006C0001AEB06004CEB085110EB0A0041EB0B0152
:1006D000BDE8F04D00F05AB8C1F30A52C1F313015E
:1006E00040F2FF3341F480119A4202DA00200146C1
:1006F000704740F233439A42A2F2334202DC524244
:10070000FFF752BEFFF741BE30B5041E71F1000481
:1007100004DB4FF00044404264EB0101141E73F10E
:10072000000405DB1C464FF00043524263EB040318
:10073000994208BF904230BD1CB509480090094855
:1007400001900546009C06E0E06840F0010394E853
:10075000070098471034AC42F6D3FFF7A1FD000024
:10076000A4B60008C4B60008202A06DBCB17203A3E
:1007700041FA02F043EAE07306E041FA02F3D040A6
:10078000C2F12002914008431946704710B5141E6B
:1007900073F1000408DA401C41F1000192185B413A
:1007A0001A4301D120F0010010BD2DE9F04D924611
:1007B0009B4611B1B1FA81F202E0B0FA80F2203228
:1007C0009046FFF7E2FD04460F4640EA0A0041EA80
:1007D0000B0153465A46084313D0114653EA010011
:1007E00019D0C8F140025046FFF7DEFD05460E461F
:1007F000504659464246FFF7C8FD084305D0012040
:1008000004E020463946BDE8F08D0020054346EA65
:10081000E0762C4337430A986305E40AA0EB08000E
:100820000022FD0A44EA47540A3002D5002001465E
:10083000E9E7010510196941DDE908450019694139
:10084000BDE8F04DA2E70000B0B50446006842F2F2
:10085000001140F48070C4F20201884218D142F2C3
:100860000830C4F20200006810F4403F18D004F0D1
:100870005FF861680546B1F5803F05D0B1F5403FAE
:100880002CD0B1F5003F2AD1080CB5FBF0F526E0DD
:1008900046F20830C5F60200006810F4403FE6D189
:1008A0004FF40020002102F08BFF61680546A1F59E
:1008B00080224FEAB2420A2A11D8DFE802F0070785
:1008C0000707070755535951570000BF6FF0010044
:1008D00000EA5140B5FBF0F501E000BFAD0802F0C1
:1008E0009FF841F2030188420ED8206842F6015178
:1008F000C0F231118D4281682CBF41F4807121F426
:1009000080718160B0BD00BF4BF62140C0F2BE00D7
:10091000854205D82068816821F440718160B0BDAE
:1009200047F64100C0F27D10854207D820680122B9
:10093000816862F309218160B0BD00BF20684FF279
:100940008101C0F2FA218D42816805D8022262F34A
:1009500009218160B0BD00BF41F440718160B0BD2C
:10096000ED09BCE76D09BAE72D09B8E72D0AB6E72E
:10097000AD09B4E700000000F0B581B0044600689E
:100980008168C9074AD14FF6C0778168C7F6FF77FB
:1009900007F17F0211420BD0606D40F010006065DE
:1009A000A06D40F00100A065012001B0F0BD00BFC6
:1009B0008168394041F00101816002F039F842F26A
:1009C000000246F20836C4F20202216802F5807382
:1009D00002F54275C5F60206994208BF2E469142BD
:1009E00008BF2E4699420546306814D110F01F000A
:1009F00014D110E08868C00704D18868384040F0FE
:100A00000100886002F014F8401B2168032802D31B
:100A10000868C007C0D00868C007EBD0002001B04C
:100A2000F0BD00000000000040F22830C2F200409B
:100A300000F046BF0000000000F006F809F050FC8E
:100A4000FEE700000000000080B582B047F6992064
:100A500045F6682CC0F6000006A14FF48072002312
:100A6000C2F2004C4FF0010ECDE900EC09F034FE6B
:100A700002B080BD53656E736F725F5461736B001B
:100A800040F2E800C2F20040103070470000000061
:100A900080B540F2E80047F28171C2F2004047F2AF
:100AA0006172C0F60001C0F60002016040F6997163
:100AB000426040F28C32C0F60001C2F20042C0E94E
:100AC000021270210177052000F066FA002080BD37
:100AD0002DE9F04184B040F2E80443F2AC30C2F2B8
:100AE000004403900020CDF807000190207F256886
:100AF000E36803A90322A84748B9A168552088479D
:100B0000207F01A965680722E368A84720B101207A
:100B100004B0BDE8F08100BF9DF904E031216FEA27
:100B20000E00BEF1000F81EA400248BF420050B201
:100B30005300002848BF81EA420358B25A000028F7
:100B400048BF81EA430250B25300002848BF81EAFF
:100B5000420358B25A00002848BF81EA430250B20B
:100B60005300002848BF81EA420358B25A000028C7
:100B700048BF81EA430250B25300002848BF81EACF
:100B800042039DF805C083EA0C0042B24300002AEC
:100B900048BF81EA400358B25A00002848BF81EAA2
:100BA000430250B25300002848BF81EA420358B2C2
:100BB0005A00002848BF81EA430250B2530000287F
:100BC00048BF81EA420358B25A00002848BF81EA70
:100BD000430250B25500002848BF81EA42059DF803
:100BE000068068B26A00002848BF81EA450282EAAE
:100BF000080042B24500002A48BF81EA400568B2B9
:100C00006A00002848BF81EA450250B2550000281A
:100C100048BF81EA420568B26A00002848BF81EAFD
:100C2000450250B25500002848BF81EA420568B22B
:100C30006A00002848BF81EA450250B255000028EA
:100C400048BF81EA42059DF8072068B26E0000287F
:100C500048BF81EA450686EA020045B24600002DFB
:100C600048BF81EA400670B27500002848BF81EA9B
:100C7000460568B26E00002848BF81EA450670B29A
:100C80007500002848BF81EA460568B26E0000285A
:100C900048BF81EA450670B27500002848BF81EA66
:100CA000460568B26E00002848BF81EA450670B26A
:100CB000750000289DF8080048BF81EA46054540B8
:100CC0006EB26F00002E48BF81EA45077DB27E00FC
:100CD000002D48BF81EA470675B27700002D48BF56
:100CE00081EA46077DB27E00002D48BF81EA4706B3
:100CF00075B27700002D48BF81EA46077DB27E00BD
:100D0000002D48BF81EA470675B27700002D48BF25
:100D100081EA46077DB27E00002D48BF81EA470682
:100D20009DF809506E4077B27300002F48BF81EAEA
:100D300046035EB25F00002E48BF81EA43077BB2E4
:100D40007E00002B48BF81EA470673B27700002B74
:100D500048BF81EA46077BB27E00002B48BF81EA8C
:100D6000470673B27700002B48BF81EA46077BB283
:100D70007E00002B48BF81EA470673B27700002B44
:100D800048BF81EA46079DF80A10FBB28B4229D181
:100D90000002C82362F313409FED141A28444FEA5F
:100DA0000C31584341EA081141EA1211642200EE65
:100DB000100A01FB02F09FED0E2A84F818E0B8EE4D
:100DC000400A00EE012A00EE100A0020B8EE400AA8
:100DD00084ED042A20EE010A84ED050A04B0BDE882
:100DE000F08100BF022004B0BDE8F0810000803532
:100DF000000048C200000000B0B582B0FE2840F2FA
:100E0000081428BFFE20C2F2004401221F2898BF08
:100E10001F202568E3684109207401F140008DF826
:100E20000300A07C0DF10301A847207C0321256865
:100E3000E36861F35F108DF80400A07C01A9012232
:100E4000A847657C032D17D0022D0BD0012D1FD193
:100E500010208DF80500A07CE368D4F800C00DF1E7
:100E6000050112E011208DF80600A07CE368D4F89B
:100E700000C00DF1060108E013208DF80700A07CEA
:100E8000E368D4F800C00DF107010122E047657462
:100E900002B0B0BD0000000040F20810C2F20040F5
:100EA000143070470000000010B582B040F2081402
:100EB00047F28170C2F20044C0F6000047F261714F
:100EC00040F28C33206040F69970C0F60001C0F605
:100ED00000006160C2F20043C4E902034620A0742E
:100EE00040F2452020820020606101208DF806003C
:100EF0000DF106014620012206F042FC4520FFF7D5
:100F00007BFF11208DF80700A07CE368D4F800C0B7
:100F10000DF107010122E04700200221617402B0B7
:100F200010BD000000000000B0B582B040F208150E
:100F30000020C2F20045ADF806000DF106010222C4
:100F4000A87C6C68EB68A04710B1012002B0B0BD6E
:100F5000BDF8060040F259112A7C40BA484300EE21
:100F6000100A02EB4200400001EE100A687CB8EE65
:100F7000400A02284FF00000B8EE411A80EE010A44
:100F8000B6EE001A20EE011A01FE000A85ED050AF0
:100F900002B0B0BD0000000080B541F2040E40F286
:100FA0000C03CEF2000EC2F20043DEF80020D3F8AC
:100FB00000C04DF68363C4F21B33ACFB0331890CD4
:100FC00048434FF47A714843DEF80010891A814291
:100FD0000ED2DEF80010891A81423EBFDEF8001002
:100FE000891A814204D2DEF80010891A8142EBD3BB
:100FF00080BD0000000000004EF6FC5141F20000F0
:10100000CEF20001CEF200000A6842F080720A605F
:101010000168C90701D100214160016841F0010167
:10102000016070470000000040F69810C2F20040D6
:10103000704700000000000080B540F698103C2189
:10104000C2F20040FFF780F980BD00000000000000
:1010500080B540F69810B3EE041AC2F20040B7EE25
:10106000083A00F1100390F838E0B0F800C023F817
:101070001EC002EE10CA038A828A418AB8EE422A52
:101080001944C38A1144028B1944438B1144828B47
:101090001944C38B1144028C1944438C1144828C33
:1010A0001944C38C1144028D1944438D1144828D1F
:1010B0001944C38D1144028E1944438E1144828E0B
:1010C0001944C38E114440F6CD42194400EE101A63
:1010D0000EF101014A43B8EE400A120C02EB820203
:1010E00080EE010A9FED0C1A22EE012AA1EB82018B
:1010F00080F8381020EE010A9FED081A82EE012ACE
:1011000080EE010A22EE031A80ED011A20EE030A96
:1011100080ED020A80BD00BF3333534000FF7F479C
:1011200040F69811C2F200410880704700000000AC
:10113000FEE7000000000000704700000000000013
:101140004FF4007001F084BBEFF3108072B600BF63
:10115000FEE700000000000044F60400C5F60200AF
:10116000816841F0020181600168890409D4016845
:1011700089045CBF01685FEA814102D40168890487
:10118000F2D5704700000000B3F5804F03461BD135
:10119000B0B5002053F822C0CCF6F0708D680CEA90
:1011A000000C8C69D1E9000E40EA0C00C96840EAE5
:1011B0000E1040EA0520204340EA0141BDE8B0405E
:1011C000002043F8221070476FF07041002043F870
:1011D0002210704700000000B0B50A6850F82230B5
:1011E00023F0010340F82230D1F808E0CB68D1E9C0
:1011F00000C2BEF1080F08BF42F04002D1E9044529
:101200001A438B692243CC692A430D6A1A434B6AFD
:1012100022438C6A2A43CD6A1A430B6B22434C6BE0
:101220002A438D6B1A4350F82C30224340F28044FD
:10123000CFF6C0742A4323401A4342EA0E0240F814
:101240002C200A6BB2F5801F05D10A684AB10268EA
:1012500042F4801202600A681AB1496B02681143B5
:1012600001600020B0BD000070B5D1E900CED1E929
:1012700002564CEA0E130C6940F2000C43EA0523B7
:10128000CFF6F07C43EA06464D690CEB04548B69BB
:101290002643FE3500EB8202334343EA0563536085
:1012A0000268D20209D54268096943681A430CEB07
:1012B000015122F4700211434160002070BD000012
:1012C00070470000000000007047000000000000B0
:1012D00070470000000000007047000000000000A0
:1012E000704700000000000090F85020012A01D152
:1012F0000220704710B582B042F2083400230193F7
:10130000C4F202040093A4F542720368934227D109
:101310004FF6006ECFF6FF7E54F80E209B681A43FE
:1013200052071DD4D1F800C02268BCF1000F22F48E
:10133000404323D04A681A4322604FF60052CFF64A
:10134000FF72A25854F80E301A43D20726D12268F1
:1013500040F61F739A438968114341EA0C011CE06F
:10136000416D41F0200141650121002280F85020AB
:1013700002B0BDE810400846704700BF4FF600516C
:101380002360CFF6FF71615854F80E201143C9074E
:1013900004D1216840F61F72914321600021E4E7E7
:1013A000F0B581B00022009290F85020012A03D1BC
:1013B0000221084601B0F0BD0768012380F85030D3
:1013C000BB685B0700F196810C684FF6FF7CB4F1B7
:1013D000FF3FC0F20F0C4FEA94630FDD94FAA4F2C2
:1013E00014EA0C0FB2FA82F208BFA20E012402F036
:1013F0001F0204FA02F2FC692243FA614A681F26BE
:1014000003F01F03C2F3012402F01F02964007EB12
:10141000840403FA02F2256B25EA060632432263AE
:10142000BA68BB6802F0040203F00803D21840F067
:1014300096800A6807258E68C2F34063C2F304529F
:1014400007EB830395405C6906FA02F224EA05057E
:101450002A435A6141F20002C5F60042126802F0C6
:101460007042B2F1805F33D14A69FB680E2606EA0A
:10147000530302FA03F30C69042C39D007F160021C
:101480000E6806F0F84652F82450334305F0004544
:101490002B4342F824300B694E7E52F82350012E24
:1014A00025F0004508BF05F1004542F823500A7EAB
:1014B0000B693E69013A03F01F03B2FA82F226F487
:1014C000F0465209D2029A4032433A6147E000BFE7
:1014D000FA684B69FE68D2064FEA560402D404F05B
:1014E0000E0201E004F0080293400C69042CC5D1FF
:1014F0003A6E0B6802F0F8429B069A4218D13A6E97
:1015000022F000423A667A6E02F0F8429A4214D013
:10151000BA6E02F0F8429A4218D1BA6E22F0004236
:10152000BA66FA6E02F0F8429A4214D017E000BF91
:101530007A6E02F0F8429A42EAD17A6E22F00042C4
:101540007A66BA6E02F0F8429A42E6D0FA6E02F07B
:10155000F8429A4203D1FA6E22F00042FA66BA6863
:10156000D20779D1D1F800E00023C968D7F8C020AC
:101570000EEA0C04C4F25273A24301F018042CFAD0
:1015800004F603F52D0506EA0E06A94246EA020115
:10159000C7F8C0105DD142F20011C4F202018F42BF
:1015A00026D042F20001C4F202018F423CD11F2139
:1015B000C1F2F0418E4540F3C38040F2FF71C2F6A4
:1015C00030618E4540F3A98040F60001C2F63061DB
:1015D0008E4500F0478141F20001C3F260218E4543
:1015E00000F036810021C4F221318E451DD045E145
:1015F0001F21C1F2F0418E4500F388800721C0F61B
:1016000090418E4500F3AA800221C0F230418E4500
:1016100000F0A1800421C0F660018E4540F02E81CB
:101620004023C1F6201300E0002393FAA3F143F610
:10163000C132B1FA81F1C0F20A0213424FF0010245
:1016400008BF990E01F01F0102FA01F1FA69114376
:10165000F961BEF1FF3F01DD002150E042F20001DF
:1016600046F2083CC4F20201C5F6020C01F5807294
:1016700001F542739742624608BF1A468F4242F212
:10168000001408BF1A4647F48073C4F20204A34250
:10169000136827D18A68D1F808111143C90729D1E5
:1016A000002103F0E074CCF684318E4508BF13F4BA
:1016B000000163D00021CCF252718E4540F0A08031
:1016C0000021B1EB146F40F09B80ACF542718F426A
:1016D000C2D1DCF8001021F0E071214341F08071AB
:1016E000A5E000BF4FF60051CFF6FF715CF8011086
:1016F000C907D5D0416D41F020014165012100228B
:1017000080F85020084601B0F0BD00BF40F2FF71E4
:10171000C2F630618E4500F38F802021C1F2F04186
:101720008E4500F0A58040F20041C2F600218E45B2
:1017300040F0A48040F60003C2F6306375E700BFB6
:101740000721C0F690418E4508DC0221C0F23041ED
:101750008E457FF45FAF012367E700BF0821C0F625
:1017600090418E457AD01021C1F2C0018E4540F0E3
:10177000858040F20013C2F2801356E7ACF5427147
:101780008F427FF469AFDCF8001042F6635221F01B
:10179000E071C0F23E52214341F40001CCF8001048
:1017A00040F20C01C2F2004109688909A1FB021252
:1017B0009109022202EB41010091009900293FF4B6
:1017C0004BAF009901390091009900293FF444AFD3
:1017D000009901390091009900293FF43DAF00992B
:1017E00001390091009900293FF436AF0099013981
:1017F0000091009900294FF00001E2D17FE700BF7E
:10180000ACF542718F424FF000017FF478AF0022B7
:10181000CCF6B872964508BF13F480027FF46FAF20
:10182000DCF8001021F0E071214341F48001CCF894
:101830000010002163E700BF40F60001C2F63061EE
:101840008E450FD041F20001C3F260218E4515D1C3
:1018500042F20003C3F29063E7E600BF8023C1F6C3
:101860005053E2E641F20003C3F26023DDE600BF1D
:1018700040F20023C2F2B053D7E600BF002100239C
:10188000C4F684318E4504BF0023C4F6B873CCE699
:1018900042F200020168C4F20202914218BF70478E
:1018A00080B500F009F880B2BDE88040FFF738BC91
:1018B00070470000000000000068006C70470000E6
:1018C0002DE9F04F81B0044642F2000046F20831A3
:1018D000C4F20200C5F60201276800F5807A00F51F
:1018E0004279574508BF4946874208BF49463E6886
:1018F0007D68B207D1F800800FD515F002010CD039
:10190000606DC00603D4606D40F4006060652046E1
:10191000FFF7D6FC276802213960710708F01F0B1A
:1019200002D515F0040104D1310755D515F0080191
:1019300052D0214651F8542FD20603D40A6842F4FB
:1019400000720A60FA6812F4406F3FD1BBFA8BF262
:10195000ABF10503B3FA83F352095B09384642EA57
:10196000030CABF10903B3FA83F342F20002C4F2B1
:101970000202574508BF10465B0943EA0C02D20732
:10198000024618BF3A46B84208BF0246D2689204DF
:101990001CD43A68120719D5BA6852070CD47A6871
:1019A00022F00C027A60086820F4807008600868F1
:1019B000C00407D50AE000BF606D04F1580140F093
:1019C00010006065086840F0010008602046FFF7DD
:1019D0005FFF27680C213960B10602D515F02001A0
:1019E00004D171062CD515F0400129D0214651F8BB
:1019F000542FD20603D40A6842F400520A6042F21D
:101A000000023846C4F20202574508BF104608F0EB
:101A10001E030246062B08BF3A46BBF1000F08BF63
:101A20003A46B84208BF0246F86C10F4C07FFB6823
:101A3000D26879D02046FFF747FC276860203860DD
:101A400030060CD515F0800009D0606D40F4803070
:101A50006065204600F0C8F9276880203860F005EE
:101A60000DD515F480700AD0606D40F400306065CB
:101A70002046FFF731FC27684FF480703860B005CE
:101A80000DD515F400700AD0606D40F480206065BB
:101A90002046FFF725FC27684FF400703860F006F9
:101AA00027D515F0100024D0206BA0B1BBF1000F9A
:101AB0005CD046F2083042F20001C5F602005745FC
:101AC00008BF4846C4F202018F4208BF484600687A
:101AD00010F4404F0BD0606D40F480606065A06DE5
:101AE00040F00200A0652046FFF7E2FE27681020C4
:101AF0003860700514D515F4806011D0606D40F425
:101B000080406065A06D40F00800A0654FF48060E3
:101B10003860204601B0BDE8F04FFFF7D9BB00BFE9
:101B200001B0BDE8F08F00BF900106D503F440601E
:101B300002F40053C0187FF47DAF386840067FF58B
:101B400079AF12F400107FF475AFB868000711D4B4
:101B5000786820F060007860086820F480500860A1
:101B60000868C0053FF566AF0AE000BFF868800767
:101B7000B1D1BCE7606D04F1580140F01000606520
:101B8000086840F00100086054E700000000000011
:101B900070B582B0044600284FF0000001902DD0AF
:101BA000606D30B9204600F023F90020A06584F86C
:101BB00050002068816889004FF6C071C5F6FF713A
:101BC00002D582680A4082608268D20031D482687D
:101BD00001F18051114042F6635241F08051816021
:101BE00040F20C01C0F23E52C2F20041096889097C
:101BF000A1FB0212012101EB921105E00126304602
:101C000002B070BD019901390191019989B1019921
:101C100001390191019961B101990139019101994C
:101C200000291FBF019901390191019918BF0029AD
:101C3000E8D18168C90009D4616D012641F0100125
:101C40006165A16D41F00101A16500E00026816898
:101C5000626D02F0100201F004018918616D40F01C
:101C6000918021F48171023161658168C90728D1B1
:101C700042F2001240F48071C4F20202914242F238
:101C80000001C4F2020140F0A5808A68D1F8083151
:101C90001A43D20715D101F5807201F5427346F25D
:101CA000080C9042C5F6020C1A4618BF0CF540729B
:101CB000884208BF1A466068116821F47C11084305
:101CC000106000F0ADFE41F2030100228842A068DE
:101CD000A0F1100188BF0122B1FA81F1237F4909E7
:101CE0001140226B617D154616BF4D034A031C202F
:101CF000012B45EA034141EA020141EA000106D114
:101D0000206A0022CFF6FE7202EB40400143606A77
:101D100020B100F47870A26A1043014320684CF2AD
:101D20000303CFF6F073C2681A401143C1608168A3
:101D3000826801F0040102F00802891836D1217D81
:101D400044F20305E26AC36842EA813123EA0502EC
:101D50001143C16094F83810012901691AD14FF676
:101D60001E020125CFF60042CFF6FF751140D4E9DF
:101D70000F231943636C05EB02421143A26C194314
:101D8000114309E041F0100001266065304602B0C1
:101D900070BD00BF21F0010101610169626B21F09A
:101DA0007041114301612046FEF74EFD2068E16855
:101DB0000129026B22F00F0102D1A269013A1143FD
:101DC00001630121606D61F301006065304602B07E
:101DD00070BD00BF46F20802C5F602021268D207C3
:101DE0003FF459AF6DE700007047000000000000AD
:101DF000B0B5B8B0044602A8283098210025339524
:101E0000CDE93655CDE93455FEF79EFA42F2000190
:101E10002068C4F20201884202D038B0B0BD00BFD1
:101E20004FF400200290022004900C210395CDE98C
:101E30000510CDE90700C02009902020CDE90A0552
:101E400002A801F095FE08B1FFF77EF944F2D840F0
:101E5000C5F60200016841F020010160016801F04F
:101E6000200101910199816841F001018160806840
:101E700033A900F001000190019840203390032025
:101E80003490002035900020C5F6020000F0ECFCF4
:101E900012200621002201F057FA122001F040FA28
:101EA00038B0B0BD0000000070B542F2000446F248
:101EB0000836C4F20204016804F5807204F5427326
:101EC000C5F60206914208BF1E46A14208BF1E4643
:101ED00035688968490703D490F85010012901D169
:101EE000022070BD012180F850100646FEF744FD27
:101EF00020B1002086F85000012070BD306804F544
:101F000080729042314618BF0446736D40F60176E8
:101F100005F01F0C23EA0606231A06F580764E65A7
:101F200018BFBCF1000F03D14E6D26F480164E652C
:101F3000B3FA83F54E6DF3044FF0000644BF8E6D87
:101F400026F0060600236D098E651C26066081F8C2
:101F50005030436823F01C034360D1F810E073460F
:101F6000BEF1080F0E6B18BF0423426842EA030259
:101F700042600EB12DB10EE0426842F010024260A4
:101F80004DB9BCF1090F29D8012240F2212302FAF0
:101F90000CF21A4222D0C268920115D54A6D012373
:101FA00063F30D324A656FF04001BEF1080F08BFC0
:101FB0006FF020014FF02002436808BF4022194013
:101FC00041604168114341604FF6C0728168C7F6B5
:101FD000FF72114004318160002070BD4A6D42F4EF
:101FE00080124A65E268920102D4002070BD00BFF1
:101FF0004A6D012363F30D324A65BEF1080F416853
:1020000008D121F020014160416841F04001416068
:10201000002070BD21F040014160416841F0200185
:102020004160002070BD00002DE9F041044600F041
:10203000FFFC1CB3054694F83500022822D140F27B
:102040000F472668C4F2020740F26F48BE426FF0A5
:102050000E00C4F202081DDC6F21C4F202018E42A0
:102060002ADC3F21C4F202018E4241DC1021C4F27D
:1020700002018E4263D028215CE000BF0120BDE850
:10208000F08100BF802060650120002184F83410B9
:10209000BDE8F08146451BDC40F23F41C4F202013D
:1020A0008E422DDC40F21041C4F202018E4246D035
:1020B00040F228413EE000BF9F21C4F202018E425F
:1020C00028DC7021C4F202018E4238D0882131E030
:1020D00040F29F41C4F202018E4223DC40F2704183
:1020E000C4F202018E422AD040F2884122E000BFB1
:1020F0004021C4F202018E4221D058211AE000BFD3
:1021000040F24041C4F202018E4218D040F25841E0
:1021100010E000BFA021C4F202018E420FD0B8210E
:1021200008E000BF40F2B841C4F202018E4206D07E
:1021300040F2A041C4F202018E42314607D131463D
:10214000306820F01E0041F8140B6FF080000A6820
:10215000464500EA020008601ADC9F20C4F2020033
:10216000864233DC5720C4F2020086425ADC10203B
:10217000C4F20200864200F097802820C4F20200D8
:10218000864200F091804020C4F202008AE000BF45
:1021900045F22F40C5F6020086422DDC40F2B740E2
:1021A000C4F2020086424BDC40F27040C4F20200EE
:1021B000864279D040F28840C4F20200864273D051
:1021C00040F2A040C4F202006CE000BF40F22740A1
:1021D000C4F20200864243DCA020C4F20200864220
:1021E00062D0B820C4F2020086425DD040F21040B6
:1021F000C4F2020056E000BF45F26B40C5F6020093
:1022000086423FDC45F23040C5F6020086424BD0A4
:1022100045F24440C5F60200864245D045F258409A
:102220003EE000BF5820C4F2020086423CD070203D
:10223000C4F20200864237D08820C4F2020031E0A6
:1022400040F2B840C4F2020086422DD045F2084068
:10225000C5F60200864227D045F21C4020E000BFB0
:1022600040F22840C4F2020086421DD040F24040B5
:10227000C4F20200864217D040F25840C4F2020075
:1022800010E000BF45F26C40C5F6020086420BD05C
:1022900045F29440C5F60200864205D045F28040E2
:1022A000C5F60200864204D1206E016821F48071D7
:1022B0000160306820F00100306000BF3068C00766
:1022C00010D000F0B5FB401B0628F7D32020606536
:1022D000032084F835000120002184F83410BDE883
:1022E000F08100BF20680821B8424FF03F0211DCA6
:1022F0006F23C4F2020398421EDC3F23C4F20203A0
:10230000984235DC1023C4F20203984257D02823A8
:1023100050E000BF40451BDC40F23F43C4F20203E3
:1023200098422DDC40F21043C4F20203984246D09A
:1023300040F228433EE000BF9F23C4F202039842CC
:1023400028DC7023C4F20203984238D0882331E09D
:1023500040F29F43C4F20203984223DC40F27043F0
:10236000C4F2020398422AD040F2884322E000BF20
:102370004023C4F20203984221D058231AE000BF40
:1023800040F24043C4F20203984218D040F258434E
:1023900010E000BFA023C4F2020398420FD0B8237C
:1023A00008E000BF40F2A043C4F20203984206D006
:1023B00040F2B843C4F20203984240F0C580D4E929
:1023C000163707F01F07404502FA07F25A5019DC8A
:1023D0009F21C4F20201884232DC5721C4F202017B
:1023E000884259DC1021C4F20201884200F0968034
:1023F0002821C4F20201884200F090804021C4F2FA
:10240000020189E045F22F41C5F6020188422DDC28
:1024100040F2B741C4F2020188424BDC40F2704105
:10242000C4F20201884279D040F28841C4F202012C
:10243000884273D040F2A041C4F202016CE000BFB8
:1024400040F22741C4F20201884243DCA021C4F2D9
:102450000201884262D0B821C4F2020188425DD0F4
:1024600040F21041C4F2020156E000BF45F26B4158
:10247000C5F6020188423FDC45F23041C5F6020153
:1024800088424BD045F24441C5F60201884245D00E
:1024900045F258413EE000BF5821C4F20201884293
:1024A0003CD07021C4F20201884237D08821C4F2A6
:1024B000020131E040F2B841C4F2020188422DD05D
:1024C00045F20841C5F60201884227D045F21C4179
:1024D00020E000BF40F22841C4F2020188421DD032
:1024E00040F24041C4F20201884217D040F2584104
:1024F000C4F2020110E000BF45F26C41C5F60201D2
:1025000088420BD045F29441C5F60201884205D0BD
:1025100045F28041C5F6020188420BD1616EA26E80
:10252000E06E4A6030B1016821F480710160D4E945
:102530001C014160012084F835000020002184F84E
:102540003410BDE8F08100BF0421012237E700000C
:10255000F0B190F83510022918D180B540F20F4241
:102560000168C4F20202914214DC6F23C4F2020338
:10257000994225DC3F23C4F2020399423CDC10233C
:10258000C4F2020399425DD0282357E080214165BF
:102590000120704740F26F43C4F2020399421BDCF2
:1025A00040F23F43C4F2020399422DDC40F2104353
:1025B000C4F20203994245D040F228433EE000BFF6
:1025C0009F23C4F20203994228DC7023C4F2020361
:1025D000994237D0882331E040F29F43C4F202038E
:1025E000994223DC40F27043C4F20203994229D09D
:1025F00040F2884322E000BF4023C4F20203994224
:1026000020D058231AE000BF40F24043C4F2020336
:10261000994217D040F2584310E000BFA023C4F203
:10262000020399420ED0B82308E000BF40F2B8433D
:10263000C4F20203994205D040F2A043C4F202035F
:10264000994275D191424FF0040280F8352011DC97
:102650006F20C4F20200814222DC3F20C4F202005B
:10266000814239DC1020C4F20200814259D0282076
:1026700054E000BF40F26F40C4F2020081421BDC14
:1026800040F23F40C4F2020081422DDC40F2104093
:10269000C4F20200814244D040F228403EE000BF34
:1026A0009F20C4F20200814228DC7020C4F20200A4
:1026B000814236D0882031E040F29F40C4F20200CF
:1026C000814223DC40F27040C4F20200814228D0F3
:1026D00040F2884022E000BF4020C4F20200814264
:1026E0001FD058201AE000BF40F24040C4F2020060
:1026F000814216D040F2584010E000BFA020C4F242
:10270000020081420DD0B82008E000BF40F2B8407E
:10271000C4F20200814204D040F2A040C4F20200A0
:102720008142086820F001000860002080BD00BFE1
:102730000A6822F00E020A6045F25742C5F602020C
:1027400091420A6822F001020A600FDC45F22F4232
:10275000C5F60202914219DC45F20842C5F60202B2
:10276000914229D045F21C4222E000BF45F27F424F
:10277000C5F60202914213DC45F25842C5F6020248
:10278000914219D045F26C4212E000BF45F230424E
:10279000C5F6020291420FD045F2444208E000BF64
:1027A00045F29442C5F60202914205D045F28042BC
:1027B000C5F6020291421AD1D0E9181CD0E916E3FD
:1027C0000A6822F480720A6003F01F01012202FAF3
:1027D00001F1CEF80410816ECCF80410C16E31B155
:1027E0000A6822F480720A60D0E91C124A60012152
:1027F00080F83510016D0022002980F8342094D033
:102800008847002080BD0000B0F5007F18BF7047EA
:1028100080B582B040F218010020C2F20041019060
:10282000086801A907F0D8FE019850B14EF604508F
:102830004FF08051CEF200000160BFF34F8FBFF325
:102840006F8F02B0BDE880407047000000000000BC
:102850008821C5F600010A68024208BF7047086077
:10286000FFF7D2BF000000002DE9F04F83B00F68E2
:10287000002F00F0C98000F1264642F2004506F123
:10288000FF76C5F602050A22A8424FEAB62540F2B5
:10289000040C08BF092200F120030093092DC5F69E
:1028A000000C38BF4FEAB622002400264FF0000883
:1028B00001920AE008F101080F6837FA08F206F100
:1028C000020604F1040400F09F80012202FA08FECF
:1028D00017EA0E09EED0D1F804B003220BF003077B
:1028E000B2407D1E6FEA020A012D11D88268CD68C0
:1028F00002EA0A02B5402A438260CBF3001542681F
:1029000022EA0E0205FA08F52A43426004E000BFFD
:10291000032F01D103271FE0C2688D6802EA0A0273
:10292000B540022F42EA0502C26015D16FF00302E2
:1029300004F01C0502EA580B009A0F2352F80BE032
:10294000AB400F692EEA0303AF403B4342F80B3024
:10295000D1F804B00BF00307026807FA06F302EAA5
:102960000A021BF4403F42EA03020260A2D044F292
:10297000F44340F2084EC5F60203C5F6000E0F25DB
:102980001A6842F002021A601A6802F00202029209
:1029900028F00302029B04F00C0352F80E709D40D5
:1029A000AF43019D05FA03F33B4342F80E304FF06D
:1029B000B04EDEF800204B6842EA0907DD0258BF3E
:1029C00022EA09079D02CEF80070DCF8002042EAF6
:1029D000090758BF22EA09079D03CCF80070DCF80C
:1029E000802042EA090758BF22EA0907DB03CCF836
:1029F0008070DCF87C2042EA090758BF22EA090708
:102A0000CCF87C7056E700BF03B0BDE8F08F000043
:102A1000002A08BF0904816170470000000000001F
:102A200041F20000C5F600400068000C704700004D
:102A300045F66420C2F200400068704700000000C4
:102A400090F84120202A03D190F84020012A01D19A
:102A500002207047242280F841200268136823F086
:102A600001031360136823F4805313601368194340
:102A70001160116841F001011160202180F84110BE
:102A8000002180F840100020704700000000000086
:102A900090F84120202A03D190F84020012A01D14A
:102AA00002207047242280F841200268136823F036
:102AB00001031360136823F4706343EA012111607A
:102AC000116841F001011160202180F841100021BE
:102AD00080F840100020704710B310B590F84110F6
:102AE00031B9002180F84010044600F011FA204668
:102AF000242180F8411090E81210C3680A68012B65
:102B000022F001020A6024F070620A618A6822F4ED
:102B100000428A6006D14CF400428A600CE000BF9B
:102B200001207047022B4CF404428A6004D14A68A9
:102B300042F4006203E000BF4A6822F400624A6087
:102B400000F1100C4A6842F0007242F400424A6000
:102B5000CA6822F40042CA609CE81C101A4342EA88
:102B60000422CA60026A42EA0C020A600A6842F061
:102B700001020A6000214164202280F841200163A3
:102B800080F84210002010BD2DE9F04F81B00446BE
:102B900090F84100202803D194F84000012803D187
:102BA000022001B0BDE8F08F0D461746984601207F
:102BB00084F84000FFF73CFF216806468A6912044A
:102BC00027D4222084F84100102084F842000020FD
:102BD0006064676249F6000CA4F82A8040F200089D
:102BE0006063CFF6004C608DC0F2FF18B0F5807FB7
:102BF00028D32A464B686FF39F2203EA0C031A433B
:102C0000424402F510524A60FF222AE0886900041B
:102C1000D7D519212046324604F00EF8002871D18C
:102C2000FFF706FF801B21681A28EFD3886900048C
:102C3000ECD5606C40F020006064202084F84100F6
:102C4000012070E0628D2B466FF39F234868D7B256
:102C500000EA0C0043EA0743184308F5923318438F
:102C6000486022850A9F608D002845D06FF39F251C
:102C70004FF0FF0A05F100790CF5806B0DE000BF05
:102C8000608D21682085C0B24A6849EA004002EAA6
:102C90000B0210434860608D70B3204639463246BF
:102CA00004F0EEF870BB2068616A406A0870218DFC
:102CB000606A01306062481E2085618D013961853E
:102CC000618D0029E7D00004E5D180210022204653
:102CD0003B46009604F060F8A0B9608DB0F5807FA7
:102CE000CED32068A4F828A0416801EA0B0129434B
:102CF00041EA08014160CEE720463946324604F0F9
:102D00002BF918B1012001B0BDE8F08F2068202117
:102D10004EF60003C161CFF6006342681A4042607C
:102D2000002084F84110002184F8421084F84010FB
:102D300001B0BDE8F08F00002DE9F04F81B00446EE
:102D400090F84100202803D194F84000012803D1D5
:102D5000022001B0BDE8F08F0D46984617460120CD
:102D600084F84000FFF764FE216806468A69120471
:102D70001BD4212084F84100102084F84200002058
:102D80006064676249F6000CA4F82A80CFF6004C14
:102D90006063608DB0F5807F22D3FF2222854FF0E3
:102DA000807324E088690004E3D519212046324667
:102DB00003F042FF002840F08580FFF739FE801BBA
:102DC00021681A28EED388690004EBD5606C40F0C6
:102DD00020006064202084F84100012083E000BFCF
:102DE000628D2285002A00F087804FF0007317F86B
:102DF000010B88626762608D01386085501E2085F6
:102E0000D2B228466FF39F2040EA02404A68184336
:102E100002EA0C02104340F4005048600A9F608DA3
:102E2000002849D06FF39F2540F2000B05F1007890
:102E30004FF0FF090CF5806AC0F2FF1B0DE000BFE8
:102E4000608D21682085C0B24A6848EA004002EAE5
:102E50000A0210434860608D70B3204639463246FE
:102E600004F0BAF870BB606A216810F8012B8A621E
:102E70006062608D01386085208D01382085618D0C
:102E80000029E8D00004E6D18021002220463B46FC
:102E9000009603F081FFA8B9608DB0F5807FCFD395
:102EA0002068A4F82890416801EA0A01294341EA10
:102EB0000B014160CFE700BF20463946324604F09F
:102EC0004BF818B1012001B0BDE8F08F2068202137
:102ED0004EF60003C161CFF6006342681A404260BB
:102EE000002084F84110002184F8421084F840103A
:102EF00001B0BDE8F08F00BF486808222B4600EA09
:102F00000C0062F39F23184340F0007085E7000037
:102F10002DE9F043B7B000210446CDE93511CDE9E4
:102F20003311329102A8C021FDF70EFA45F6FF31A8
:102F30002068C4F2000188423CDC45F20041C4F242
:102F40000001884274D045F60001C4F200018842B5
:102F500040F0EA800820029002A80024039400F0C8
:102F600007FE08B1FEF7F0F844F2E04532A9C5F6D5
:102F70000205286840F002002860286800F002007E
:102F8000019001984FF4406032901220CDE9330453
:102F90000420369040F200403594C5F60200FFF759
:102FA00063FCA86840F48000A860A86800F4800072
:102FB000B8E000BF45F60041C4F20001884267D086
:102FC00041F60041C5F60001884240F0AD80102076
:102FD000029002A80024039400F0CAFD08B1FEF795
:102FE000B3F844F2E04540F20041C5F60205C5F6EB
:102FF0000201286840F008002860286800F00800F6
:10300000019001984FF4405032901220CDE93304E2
:103010000420369001F5006032A93594FFF724FCB6
:10302000686940F080006861686900F0800079E0BC
:103030000820029002A80024039400F099FD08B132
:10304000FEF782F844F2E04532A9C5F60205286889
:1030500040F002002860286800F00200019001980A
:10306000C02032901220CDE9330403203590042093
:10307000369040F20040C5F60200FFF7F5FBA86865
:1030800040F40010A860A86800F400104AE000BFF7
:103090000820029002A80025039500F069FD08B100
:1030A000FEF752F844F2E04640F20047C5F6020649
:1030B000C5F6020732AC4FF012083068214640F0E6
:1030C0000400306030684FF0040900F00400019003
:1030D0000198306840F001003060306800F0010075
:1030E000019001984FF40070329007F58060CDE9AF
:1030F00033853595CDF8D890FFF7B6FB4FF4807047
:103100002146CDE93208A7F58060CDF8D890CDE909
:103110003455FFF7A9FBB06840F40000B060B06818
:1031200000F400000190019837B0BDE8F083000082
:1031300040F2040045F66421C2F20040C2F20041B0
:1031400000780A6810440860704700000000000022
:1031500080B5032000F028F901F072FC44F2184118
:103160004BF2EE53C5F60201C0F600030A68C2F343
:1031700003229A5C096801F00F0102F01F02595CFA
:10318000D04040F21002C2F2004201F01F0120FACA
:1031900001F1116040F20C01C2F2004108600F2001
:1031A00000F00AF800281CBF012080BD00F0A8F83C
:1031B000002080BD000000000F2847D8B0B58AB0BD
:1031C0000446362000222146002500F0BDF83620B6
:1031D00000F0A6F840F20800C2F20040046044F299
:1031E000E840C5F60200016841F010010160006886
:1031F00001A900F010000290029802A801F06CFBF7
:10320000079C002C18BF012401F0BAFB4DF6836126
:10321000A040C4F21B3141F20002A0FB010140F2C8
:10322000C050C2F200404FF0FF33C4F2000202600F
:1032300003EB9141C0E9011540F2E731C0E9031504
:1032400002F0A2F820B101200AB0B0BD0120704701
:1032500040F2C050C2F2004002F056F90AB0B0BDD0
:1032600010B54EF6A05E4378CEF2000E90F800C086
:103270004EF8083CDEF8003023F00103CEF80030B1
:1032800043684EF8043C037BC27A817A447B120681
:1032900042EA0372837B42EAC141C27B41EA844134
:1032A000447A41EA4341007A41EA024141EA042179
:1032B00041EA400040EA0C00CEF8000010BD0000DA
:1032C0004EF62450CEF20000BFF35F8F016821F468
:1032D000803101600021016770470000000000009C
:1032E0004EF6245140F00100CEF200010867086854
:1032F00040F480300860BFF34F8FBFF36F8F70478B
:1033000081B044F2F440C5F60200016841F00201C8
:103310000160006800F002000090009801B0704762
:10332000002848BF704700F01F01012202FA01F196
:103330004EF20012C0F34A10CEF2000242F8201002
:10334000704700000000000070B54EF60C5C4FF0B6
:10335000FF36CEF2000C00F1604505F56445DCF85F
:103360000030C3F3022E8EF00703042B28BF042382
:10337000BEF1030406FA03F321EA030100F00F0390
:1033800038BF0024043B0028634406FA04F048BF19
:1033900003F10C05A14022EA000008430001287057
:1033A00070BD0000000000004EF60C514FF6FF0308
:1033B000CEF200010A681A4060F30A2242F08060EF
:1033C00040F0FD7008607047B0B544F60C05C5F6D6
:1033D000020529684907296806D401F00701081A7F
:1033E00018BF0120B0BD00BF21F0070108432860CD
:1033F000FFF71EFB044600BF55F8080C800407D4F5
:10340000FFF716FB001BB0F57A7FF5D90120B0BDA0
:103410000020B0BD0000000080B501F089FA44F240
:1034200020414BF2EE52C5F60201C0F600020968D7
:10343000C1F30211515C01F01F01C84080BD0000C2
:1034400080B544F23041C5F6020151F8083C51F80C
:10345000082C51F804CCC2F3051E4A68BEF1000FD7
:103460001AD0C2F3CC0203F0030300EE102A9FED42
:103470003A1AB8EE400A20EE010A9FED381ADFE84A
:1034800003F00323110700BF51F8302C92060DD42E
:103490009FED331A18E000BF00218160C0E90011E0
:1034A00080BD00BF9FED2F1A0EE000BF51F8302CF9
:1034B00049F20003C0F2D033C2F3C10223FA02F290
:1034C00001EE102AB8EE411A0A689FED273A6FF311
:1034D0005F2202EE102A5FEACC7203FE000A03EEBE
:1034E00010EA0A68B8EE422AC2F34622B8EE433A1E
:1034F000013230EE020AB7EE002A81EE031A30EEF6
:10350000020A21EE000A01EE102AB8EE411A80EEFE
:10351000011ABCEEC11A80ED001A0A68C2F3064215
:10352000013201EE102AB8EE411A80EE011ABCEE0B
:10353000C11A80ED011A0968C1F30661013101EE7B
:10354000101AB8EE411A80EE010ABCEEC00A10EE65
:10355000101A816080BD00BF000000390024744A49
:103560000024744C20BCBE4B000000000000000092
:1035700080B544F2384EC5F6020E5EF8103C5EF897
:10358000101C5EF80C2CC1F3053CDEF80410BCF1F5
:10359000000F19D0C9089FED3C1AD20601EAE2716A
:1035A00003F003026FF35F3100EE101AB8EE400A29
:1035B000DFE802F0022210225EF8381C89060DD4E2
:1035C0009FED331A18E000BF00218160C0E90011AF
:1035D00080BD00BF9FED2D1A0EE000BF5EF8381CC5
:1035E00049F20002C0F2D032C1F3C10122FA01F166
:1035F00001EE101AB8EE411ADEF800109FED253AE0
:103600006FF35F2102EE101ADEF80010C1F34621BD
:10361000B8EE422A013100EE032A00EE10CAB7EEDE
:10362000003AB8EE400A81EE000A32EE031A20EEAC
:10363000010A01EE101AB8EE411A80EE011ABCEE32
:10364000C11A80ED001ADEF80010C1F30641013105
:1036500001EE101AB8EE411A80EE011ABCEEC11A42
:1036600080ED011ADEF80010C1F30661013101EEB0
:10367000101AB8EE411A80EE010ABCEEC00A10EE34
:10368000101A816080BD00BF0024744A20BCBE4B6C
:103690000024744C0000003980B544F2404EC5F659
:1036A000020E5EF8183C5EF8181C5EF8142CC1F38C
:1036B000055CDEF80410BCF1000F19D0C9089FEDBD
:1036C0003C1AD20501EAE27103F003026FF35F31A5
:1036D00000EE101AB8EE400ADFE802F002221022D3
:1036E0005EF8401C89060DD49FED331A18E000BF28
:1036F00000218160C0E9001180BD00BF9FED2D1A3F
:103700000EE000BF5EF8401C49F20002C0F2D03269
:10371000C1F3C10122FA01F101EE101AB8EE411A0B
:10372000DEF800109FED253A6FF35F2102EE101ACC
:10373000DEF80010C1F34621B8EE422A013100EE56
:10374000032A00EE10CAB7EE003AB8EE400A81EE46
:10375000000A32EE031A20EE010A01EE101AB8EE4A
:10376000411A80EE011ABCEEC11A80ED001ADEF893
:103770000010C1F30641013101EE101AB8EE411AF2
:1037800080EE011ABCEEC11A80ED011ADEF80010BD
:10379000C1F30661013101EE101AB8EE411A80EE54
:1037A000010ABCEEC00A10EE101A816080BD00BF95
:1037B0000024744A20BCBE4B0024744C0000003925
:1037C00010B584B0024641F6FF7300209B1A70EBDF
:1037D000010329DB40F2FF339B1A70EB010351DA3E
:1037E00082F480630B4300F0E58082F400630B43B6
:1037F00000F00E8182F48052114340F0A98144F21E
:103800000041C5F60201086DC0F30232042A00F23D
:10381000988148F20000C0F2BB00DFE812F00D0111
:103820000F0127019901310147F6FF739B1A70EBD5
:10383000010353DA82F400430B4300F0DB8082F48F
:1038400080330B4300F0048182F40022114340F0E6
:103850007F8144F20041C5F60201886DC0F3014248
:103860000020DFE812F0EB0005000D01750100BF3C
:103870000868800040F1658101A8FFF70DFF0398FB
:1038800004B010BD82F480730B4353D082F40072F5
:10389000114340F05D8144F20041C5F60201086D1C
:1038A000C0F38212042A00F24C8148F20000C0F2F8
:1038B000BB00DFE812F0C100C300DB004D010500D2
:1038C000C86C0A68520700F04052086802D5002A06
:1038D00000F0DE80C00500F1EF80F7E082F40053D5
:1038E0000B434FD082F48042114340F0318144F2C7
:1038F0000044C5F60204A06DC0F30270052800F272
:103900002081DFE810F00700190103010D01F70025
:10391000270100BF01F00CF8216A4BF2EE52C0F60D
:103920000002C1F30211515C01F01F01C84004B054
:1039300010BD00BF44F20041C5F60201086D00F061
:103940000702042A00F2FD8048F20000C0F2BB002A
:10395000DFE812F0720074008C00FE00060000BF69
:10396000C86C0A68520700F04052086802D5002A65
:1039700000F08E80C00540F1A980B2F1805F00F0B8
:103980009E80A3E044F20040C5F60200016DC1F341
:103990000241052900F2D580DFE811F00600D000D1
:1039A000BA00C800AE00DE0004B0BDE8104000F070
:1039B000E7BF00BF44F20041C5F60201886DC0F3C5
:1039C0004252042A00F2BD8048F20000C0F2BB005F
:1039D000DFE802F032344CBE040000BFC86C0A6855
:1039E000520700F04052086840F16480002A4FD02E
:1039F00060E000BF44F20041C5F60201086DC0F36B
:103A000001720020DFE802F0021874A40868A4E044
:103A100044F20041C5F60201886DC0F30262042A37
:103A200000F28F8048F20000C0F2BB00DFE802F035
:103A300004061E90280000BF086811E00868000115
:103A400040F17F8001A8FFF793FD019804B010BDFD
:103A500044F20040C5F60200C16C0068C90321D4DD
:103A600080016ED501A8FFF7EBFC70E008688000CC
:103A700067D501A8FFF710FE019804B010BD00BF84
:103A8000C86C0A68520700F04052086812D58AB91B
:103A9000C0F3C10049F20001C0F2D03121FA00F0B8
:103AA00004B010BD00014CD501A8FFF761FD0398DB
:103AB00004B010BDC00509D5B2F1805F06D140F653
:103AC0000010C0F23D0004B010BD00BF0868B2F1A4
:103AD000005F00F400314FF0000004BF47F64000E3
:103AE000C0F27D10002908BF084604B010BD00BF19
:103AF000086824E0206800E0006840F60011C00576
:103B0000C0F23D0101EAE07004B010BD206800E0A1
:103B10000068800015D501A8FFF7BEFD17E000BFC3
:103B2000206840070DD52068B2E700BF016849074B
:103B300007D50068ACE700BF206800E0006800011E
:103B400002D4002004B010BD01A8FFF711FD0298B7
:103B500004B010BD206800E0006847F64001800313
:103B6000C0F27D1101EAE07004B010BD0000000059
:103B70002DE9F0470446C07844F22C480007C5F60A
:103B8000020828D5A06E4FEA305103292AD8DFE871
:103B900001F0030B131B00BFD8F8001041F40031F3
:103BA000C8F8001010E000BF04F10800022103F083
:103BB0002BFE064680B906E004F12800022103F03E
:103BC000B7FE064640B9A06ED8F8241021F4401183
:103BD0000843C8F8240000266078C00706D135469F
:103BE0002FE000BF01266078C007F8D0A06D042840
:103BF00058D83546DFE800F004140E0B0B0000BF68
:103C0000D8F80000354640F40030C8F800002F46D0
:103C1000C5B90DE004F12800002103F089FE04E09D
:103C200004F10800002103F0EFFD05462F464DB9D1
:103C3000D8F82400A16D20F0070000250843C8F83B
:103C4000240037466078800731D5E06D4FEAB01028
:103C500004285FD8DFE800F004140E0A0A0000BF51
:103C6000D8F8000040F40030C8F800002E46FDB936
:103C70000EE000BF04F12800002103F059FE04E02B
:103C800004F10800002103F0BFFD05462E467DB972
:103C9000D8F82400E16D20F4E07000250843C8F84E
:103CA000240004E00125012760788007CDD43E463A
:103CB0006078400733D5D4F8A8004FEA7050042844
:103CC00060D8DFE800F003130D090900D8F8000000
:103CD00040F40030C8F80000A9460DBB0EE000BF5C
:103CE00004F12800002103F023FE04E004F10800A1
:103CF000002103F089FD0546A9468DB9D8F82C00AE
:103D0000D4F8A81020F4600000250843C8F82C005F
:103D100005E000BF0125012660784007CBD4B146FD
:103D20006078000734D5D4F8AC004FEA306004283E
:103D30005ED8DFE800F003130D090900D8F8000091
:103D400040F40030C8F800002F4615BB0EE000BF5D
:103D500004F12800002103F0EBFD04E004F1080069
:103D6000002103F051FD05462F4695B9D8F82C00E7
:103D7000D4F8AC1020F0E06000250843C8F82C000F
:103D800006E000BF01254FF0010960780007CAD4A2
:103D90004F46E078800730D5E06C4FEA30100328BA
:103DA00020D8DFE800F00903150900BFD8F80000AB
:103DB00040F40030C8F800002E46ADB9D8F8200015
:103DC000E16C20F0300000250843C8F8200014E022
:103DD00004F10800022103F017FD05462E461DB927
:103DE000ECE700BF012501266078C00609D434E065
:103DF00001250127E0788007CED43E466078C006D2
:103E00002BD5206E4FEA3030042839D8DFE800F097
:103E100004140E0A0A0000BFD8F8000040F4003075
:103E2000C8F800002F46CDB90EE000BF04F128000D
:103E3000002103F07DFD04E004F10800002103F0FF
:103E4000E3FC05462F464DB9D8F82400216E20F436
:103E5000E04000250843C8F8240037466078800613
:103E600035D5606E4FEA3040052815D8DFE800F000
:103E7000041A0E04040400BF2E46DDB91EE000BF84
:103E80000125012760788006EBD420E004F12800AA
:103E9000012103F04DFD0AE001250126607840066E
:103EA00019D449E004F10800012103F0ADFC0546F6
:103EB0002E461DB1607840060DD43DE0D8F82400B0
:103EC000616E20F4E02000250843C8F824003E4637
:103ED0006078400630D5D4F8B0004FEA307005283D
:103EE0000ED8DFE800F00313070303032F46ADB934
:103EF00018E000BF04F12800012103F019FD0AE0D9
:103F000001250127607800061AD43CE004F108007E
:103F1000012103F079FC05462F461DB160780006AB
:103F20000ED430E0D8F82C00D4F8B01020F0E040E7
:103F300000250843C8F82C0037466078000622D5D3
:103F4000206F58B1B0F1005F0CD0B0F1805F37D175
:103F5000D8F8000040F40030C8F800002E469DB9A3
:103F600008E000BF04F10800012103F04DFC054604
:103F70002E464DB9D8F82400216F20F0405000257E
:103F80000843C8F824003E46E078C0071DD0A06C66
:103F9000032855D8DFE800F008024A08D8F80000E6
:103FA00040F40030C8F80000A9467DB9D8F82000D8
:103FB000A16C20F0030000250843C8F8200004E0AD
:103FC00001250126E078C007E1D1B146A07840067E
:103FD00002D44F4618E000BFD8F8D40340F48070F4
:103FE000C8F8D403FEF724FD064600BFD8F8D40372
:103FF000C00507D4FEF71CFD801B6428F6D90325F5
:10400000032701E02F46FDB12078C00700F06F8044
:10401000E06F4FEAF00005284ED8DFE800F00353C8
:1040200047030303002D2E4654D157E004F1080046
:10403000022103F0E9FB0546002DA946C6D1B5E7EC
:1040400001254FF00109C1E7D8F84410D4F8B400B5
:10405000414011F4407F11D0D8F84410D8F84420E2
:1040600042F48032C8F84420D8F8442021F440714A
:1040700022F48032C8F84420C8F84410B0F5807F9C
:1040800040F0E082FEF7D4FC064641F2883A032570
:10409000032700BFD8F84400800700F1D182FEF763
:1040A000C7FC801B5045F5D9AEE700BF04F12800DE
:1040B000012103F03DFC0AE001250126207880075C
:1040C00019D446E004F10800012103F09DFB0546E8
:1040D0002E461DB1207880070DD43AE0D8F828008C
:1040E000E16F20F0380000250843C8F828003E465C
:1040F000207880072DD5A06F05280FD8DFE800F0C5
:1041000004140804040400BF2F46ADB918E000BF32
:1041100004F12800012103F00BFC0AE0012501272E
:104120002078400719D447E004F10800012103F08A
:104130006BFB05462F461DB1207840070DD43BE0B0
:10414000D8F82800A16F20F0070000250843C8F820
:1041500028003746207840072ED5D4F8940005284B
:104160000ED8DFE800F00313070303032E46ADB9B2
:1041700018E000BF04F12800012103F0D9FB0AE098
:1041800001250126207880061AD44BE004F10800AE
:10419000012103F039FB05462E461DB1207880062B
:1041A0000ED43FE0D8F82C00D4F8941020F007008B
:1041B00000250843C8F82C003E462078800631D5FB
:1041C000D4F890004FEA307005280FD8DFE800F0EF
:1041D00004140804040400BF2F46ADB918E000BF62
:1041E00004F12800022103F0A3FB0AE001250127C6
:1041F000207840061AD44BE004F10800002103F0B7
:1042000003FB05462F461DB1207840060ED43FE043
:10421000D8F82800D4F8901020F0E040002508439A
:10422000C8F8280037462078400631D5D4F89C00DD
:104230004FEAB02005280FD8DFE800F00414080486
:10424000040400BF2E46ADB918E000BF04F12800F9
:10425000022103F06DFB0AE001250126207800060B
:104260001AD44EE004F10800002103F0CDFA05460F
:104270002E461DB1207800060ED442E0D8F82C005E
:10428000D4F89C1020F4E05000250843C8F82C0016
:104290003E462078000634D5D4F8A0004FEA7030AE
:1042A000052815D8DFE800F0041A0E04040400BF46
:1042B0002F46E5B12068010727D4C1063ED400038C
:1042C00055D477E004F12800022103F031FB0AE025
:1042D0000125012720680107EFD516E004F1080049
:1042E000002103F091FA0546002D2F46E2D1D8F8BF
:1042F0002C00D4F8A01020F4604000250843C8F832
:104300002C00374620680107D7D5D4F88400B0F5D3
:10431000805F09D104F12800022103F009FB002885
:1043200018BF0127D4F88400D8F8281021F4405190
:104330000843C8F828002068C106C0D5D4F8980002
:10434000B0F5807F09D104F12800022103F0F0FAD2
:10435000002818BF0127D4F89800D8F82C1021F4B1
:1043600040710843C8F82C002068000322D5D4F817
:10437000A400B0F5003F11D0B0F5803F08D0002870
:1043800044D104F10800002103F03EFA05E000BF2B
:1043900004F12800022103F0CBFA05462E4655B958
:1043A000D8F82C00D4F8A41020F44030002508439D
:1043B000C8F82C003E46A07840072CD5D4F88800D9
:1043C000B0F5401F0BD0B0F5001F0BD0B0F5801F2B
:1043D0002AD1D8F8000040F40030C8F800002F4679
:1043E000D5B907E004F12800012103F0A1FA054640
:1043F0002F468DB9D8F82800D4F8881020F4401042
:1044000000250843C8F8280005E000BF0125012663
:10441000A0784007D2D43746A078C00709D13E46DD
:104420002168880015D532E001250127A078C00752
:10443000F5D0206DB0F5803F10D018BBD8F8000043
:1044400040F40030C8F800002E4685B1216888008D
:104450001DD460688A0326D469E000BF04F1080017
:10446000022103F0D1F90546002D2E46EED1D8F8F1
:104470002000216D20F4803000250843C8F820007A
:10448000CDE700BF0125012621688800E1D504F1B0
:104490002800022103F04CFA002818BF0126D4E9B5
:1044A00000108A0343D5D4F880206FF0010303EB9A
:1044B0003223022B0BD34FEA322343B1012B40F0BE
:1044C000B980D8F8003043F40033C8F800303DB369
:1044D000CA022FD4CA0037D48A0240D44A0048D432
:1044E000CA0F55D109025DD4C10766D181076FD4C7
:1044F000410779D4010700F18380C10600F18C8067
:10450000800607D504F12800022103F011FA0028E3
:1045100018BF0125002D18BF01252846BDE8F087EA
:10452000D8F8283023F440731A43C8F828203546B9
:10453000CA02CFD5D8F82420636F22F000421A4374
:10454000C8F82420CA00C7D558F81C2CD4F8B830B5
:1045500022F480421A4348F81C2C8A02BED5D8F8AF
:104560002420E36E22F080721A43C8F824204A0007
:10457000B6D558F81C2C22F4004248F81C2CD4F86C
:10458000BC2058F81C3C1A4348F81C2CCA0FA9D070
:10459000D8F82020636D22F040521A43C8F820203A
:1045A0000902A1D5D8F82810D4F88C2021F44001B4
:1045B0001143C8F82810C10798D004F10800002161
:1045C00003F022F9002818BF0546606881078FD5DF
:1045D00004F10800012103F017F9002818BF05466F
:1045E000606841077FF586AF04F10800022103F0FF
:1045F0000BF9002818BF0546606801077FF57DAFFD
:1046000004F12800002103F093F9002818BF0546A3
:104610006068C1067FF574AF04F12800012103F042
:1046200087F9002818BF0546606880063FF56AAF25
:1046300070E700BF0125CA027FF54CAF7AE700BFE3
:10464000D4F8B4004FF6CF7358F81C2CC0F2FF0317
:1046500000F4407122F47C5203EA10136FF31F3010
:10466000B1F5407F08BF1A43002548F81C2CD8F844
:1046700044100843C8F84400FFF7ABBC000000003A
:104680002DE9F04381B0002800F0208142F20009BA
:104690000446C5F20029D9F8000000F00F0081425D
:1046A0000DD9D9F8000020F00F000843C9F8000028
:1046B000D9F8000000F00F00884240F00781206820
:1046C00044F218464207C5F602060AD52269336845
:1046D00003F070039A4204D9336823F070031A433D
:1046E000326002070AD56269736803F070039A4268
:1046F00004D9736823F070031A437260C2060AD5A6
:10470000A269736803F4E0639A4204D9736823F4DE
:10471000E0631A43726082060AD5E269B36803F067
:1047200070039A4204D9B36823F070031A43B2604D
:1047300010F002020AD0E368376807F00F07BB42A7
:1047400004D9376827F00F073B433360C3073FD0D6
:10475000306820F47062D4E901031A433260012802
:1047600056F8182C0AD0032804D002280AD1920344
:104770000BD4ABE0920108D4A8E000BFD20504D46A
:10478000A4E000BF520740F1A180884656F8081CFB
:1047900021F00701084346F8080CFEF749F90546E1
:1047A00041F2883756F8080C616800F03800B0EB29
:1047B000C10F09D0FEF73CF9401BB842F2D90320E3
:1047C00001B0BDE8F08300BF2068414600F002025E
:1047D00052B1E268336803F00F039A4204D233689F
:1047E00023F00F031A433260D9F8002002F00F02C1
:1047F00091420CD2D9F8002022F00F020A43C9F8E6
:104800000020D9F8002002F00F028A425ED1410751
:104810000AD52169326802F07002914204D23268EE
:1048200022F070021143316001070AD56169726894
:1048300002F07002914204D2726822F070021143B9
:104840007160C1060AD5A169726802F4E062914202
:1048500004D2726822F4E0621143716080060AD5C6
:10486000E069B16801F07001884204D2B16821F0BA
:1048700070010843B06000F0E3F831684BF2EE528B
:10488000C0F60002C1F30321515C336803F00F034B
:1048900001F01F01D25C20FA01F102F01F0040F28A
:1048A0001002C2F2004221FA00F0106040F208004B
:1048B00040F20C02C2F20040C2F2004200681160F5
:1048C00001B0BDE8F043FEF777BC00BF012001B0A6
:1048D000BDE8F083000000003F22026044F218426D
:1048E000C5F6020252F8083C03F007034360136860
:1048F00003F470638360136803F00F03C3601368ED
:1049000003F070030361536803F07003436153685D
:1049100003F4E0638361926802F07002C26142F2C4
:104920000000C5F20020006800F00F00086070472A
:1049300080B500F085F844F218414BF2EE53C5F60D
:104940000201C0F600030A68C2F303229A5C0968F8
:1049500001F00F0102F01F02595C20FA02F201F08F
:104960001F0040F21001C2F2004122FA00F008607C
:1049700040F20C01C2F200410A6080BD000000005C
:1049800080B500F05DF844F2184C4BF2EE53C5F6DA
:10499000020CC0F60003DCF80020C2F303229A5C8C
:1049A000DCF8001001F00F0102F01F02595CD0404A
:1049B00040F21002C2F2004201F01F0120FA01F1A0
:1049C000116040F20C02C2F200421060DCF80400F8
:1049D000C0F30210185C00F01F0021FA00F080BD47
:1049E00080B500F02DF844F2184C4BF2EE53C5F6AA
:1049F000020CC0F60003DCF80020C2F303229A5C2C
:104A0000DCF8001001F00F0102F01F02595CD040E9
:104A100040F21002C2F2004201F01F0120FA01F13F
:104A2000116040F20C02C2F200421060DCF8040097
:104A3000C0F30220185C00F01F0021FA00F080BDD6
:104A400044F20041C5F602010869C0F3C200032820
:104A500016D002280ED0002832D10868800649F20C
:104A60000000C0F2D03058BF70470968C1F3C101DF
:104A7000C840704747F64000C0F27D10704700BF45
:104A80008B6A886AD1F82CC04A6BC0F30510E8B174
:104A9000C2F3CC0203F0030300EE102A9FED2A1AA2
:104AA000B8EE400A20EE010A9FED281ADFE803F075
:104AB000022110210A6892060ED49FED261A18E0F2
:104AC00040F60010C0F23D00704700BF0020704764
:104AD0009FED1F1A0DE000BF0A6849F20003C0F203
:104AE000D033C2F3C10223FA02F201EE102AB8EE6B
:104AF000411A0A6B9FED183A6FF35F2202EE102AFB
:104B00005FEACC7203FE000A03EE100A086BB8EEEF
:104B1000422AC0F34620B8EE433A013030EE020A92
:104B2000B7EE002A81EE031A30EE020A21EE000AE7
:104B300001EE100AB8EE411A80EE010ABCEEC00A7E
:104B400010EE100A704700BF000000390024744ABC
:104B500020BCBE4B0024744C00000000000000008C
:104B600070B3F0B581B00446007844F20046C00747
:104B7000C5F6020626D12078800740F1C280306950
:104B800010F03801B06A3FD0182908BF5FEA807082
:104B90003AD0E0683168002862D021F0190108435A
:104BA0003060FDF745FF05463068400748D4FDF703
:104BB0003FFF401B0228F7D9032001B0F0BD00BF22
:104BC00001207047306900F03801B06A102905D023
:104BD00018290BD100F00300022807D130688003A8
:104BE000C9D560680028C6D13CE100BF6168306863
:104BF00000294FD0B1F5A02F44D0B1F5803F5FD14F
:104C000040F4803062E000BF30684007E06802D5C1
:104C1000002800F02781316821F019010843306035
:104C2000FDF706FF054600BF3068400708D4FDF7D2
:104C3000FFFE401B02284FF00300F5D901B0F0BD84
:104C4000FDF7EEFE41F2030188424FD820697168FA
:104C5000402821F47C3151D141F4003050E000BFB4
:104C600021F001003060FDF7E3FE054630684007A3
:104C700047D5FDF7DDFE401B02284FF00300F5D9B4
:104C8000DCE700BF40F480203060306840F48030C2
:104C90001CE000BF20F480303060306820F48020B9
:104CA0003060FDF7C5FE0546306880037FF563AFD1
:104CB000FDF7BEFE401B64284FF00300F4D9BDE7AA
:104CC00020F480303060306820F480203060FDF7C0
:104CD000AFFE0546306880033FF54DAFFDF7A8FEF7
:104CE000401B6428F6D9032001B0F0BD706821692B
:104CF00020F0FE4040EA016002E000BF41EA0030DF
:104D000070602078C00654D5306900F03801B06A70
:104D1000082905D0182919D100F00300012815D160
:104D20003068C00503D5E069802840F09B80FDF71E
:104D300077FE41F2030188421ED8206A716820285C
:104D400021F0F84132D141F0804031E0E0690028A3
:104D5000306819D040F080003060FDF769FE0546EC
:104D60003068C005E3D4FDF763FE401B02284FF016
:104D70000300F5D962E700BFF068216A20F07C509B
:104D800040EA0160F06014E020F080003060FDF740
:104D90004FFE05463068C0050BD5FDF749FE401BA8
:104DA00002284FF00300F5D948E700BF41EA8060D0
:104DB0007060207800073FD42078800656D4207891
:104DC000400769D4656A9DB3306900F0380018283F
:104DD00040F0A880012DB16A306B43D001F003028E
:104DE000A36A9A423ED1C1F30511E26A914239D1D8
:104DF0000146226B6FF35F21013A914232D1C0F339
:104E00004622616B01398A422CD1C0F30642A16B64
:104E100001398A4226D1C0F30660E16B013988422C
:104E200020D1706BA16CC0F3CC00814240F0348182
:104E3000002001B0F0BD00BF60690028706F41D054
:104E400040F001007067FDF7F3FD0546706F8007C5
:104E5000B2D4FDF7EDFD401B0228F7D9032001B0C5
:104E6000F0BD00BF012001B0F0BD00BFA069002867
:104E7000306845D040F480503060FDF7D9FD0546DC
:104E8000306880049BD4FDF7D3FD401B0228F7D97E
:104E9000032001B0F0BD00BFD6F8000440F48070DC
:104EA000C6F80004FDF7C4FD054600BFD6F80004AF
:104EB000C00519D4FDF7BCFD401B6428F6D90320BA
:104EC00001B0F0BD20F001007067FDF7B1FD0546AF
:104ED000706F80077FF570AFFDF7AAFD401B0228B9
:104EE0004FF00300F4D9A9E6A168306F002943D040
:104EF000052939D0012957D140F001005AE000BFFF
:104F000020F480503060FDF793FD05463068800442
:104F10007FF555AFFDF78CFD401B02284FF00300D5
:104F2000F4D98BE6306820F080703060FDF780FDAA
:104F3000022D05460CD100BF306880014CD5FDF72D
:104F400077FD401B02284FF00300F5D976E600BF3D
:104F5000306880017FF56CAFFDF76AFD401B0228C9
:104F60004FF00300F4D969E640F004003067306F79
:104F700040F001001EE000BF20F001003067306FFC
:104F800020F004003067FDF753FD054641F28837F5
:104F9000306F80077FF516AFFDF74AFD401BB84222
:104FA0004FF00300F4D949E620F001003067306F7C
:104FB00020F004003067FDF73BFD054641F28837DD
:104FC000306F80073FF5FEAEFDF732FD401BB84263
:104FD0004FF00300F4D931E604F12807B06A40F23B
:104FE000F33188438ECF0843591E40EA02104FF434
:104FF0007E426FF35F21B06202EB47204FF4FE0266
:1050000080B2E36B0844A16B02EB01414FF0FE421A
:1050100001F4FE0102EB0362084402F0FE41084481
:105020003063F06A4FF6F87120F00100F062706BA7
:10503000A26C884340EAC2007063F06A216C20F0E1
:105040000C000843F062F06A616C20F00200084333
:10505000F062F06A40F48030F062F06A40F40030B0
:10506000F062F06A40F48020F062F06A40F00100E3
:10507000F062306840F080703060FDF7D9FC044683
:10508000306880013FF5D4AEFDF7D2FC001B02284A
:105090004FF00300F4D9D1E5F06A20F00100F0628E
:1050A000FDF7C6FC0546FDF7C3FCA842FBD0706BBC
:1050B0004FF6F871A26C884340EAC2007063F06A50
:1050C00040F00100F062002001B0F0BD00000000DF
:1050D00090B370B5044690F8450015460E4628B9C1
:1050E000002084F84400204600F02AF8206804F1EB
:1050F0000801FCF771F820683146A268FCF7B4F8A3
:10510000D4E90102E36A2946FCF73EF8A068216869
:1051100051F8202042F0010241F8202044F2000022
:10512000C5F20020016841F000410160012084F8CF
:105130004500002070BD00BF012070470000000046
:105140002DE9F043B7B040F2E4000025C2F2004080
:105150003695359501783295CDE9335500294ED1F4
:1051600002AC0121017004F10800B821FBF7ECF852
:105170004FF08070029020460395FEF7F9FC08B1CD
:10518000FBF7E2FF44F2D44040F60004C5F602000B
:10519000C5F6020432AD4FF0020801684FF0000975
:1051A00041F4805101600068294600F4805001906C
:1051B00001984FF68070329004F50060CDF8CC80F5
:1051C0000326CDF8D0900C2735963697FDF74CFB8B
:1051D00032A94CF63370CDE9356781E8010304F557
:1051E00080602946FDF740FB32A98020359681E892
:1051F00001030920369020462946FDF735FB37B0DC
:10520000BDE8F083000000007047000000000000CF
:105210007047000000000000704700000000000020
:1052200090F83C20012A01D102207047B0B5CB682C
:1052300048F2FF7ED1E901C223F47C5322F470527C
:10524000CFF6F07E42EA03040CEA0E030A68234319
:1052500022F477220C691A4324F47623D0F800C094
:105260001A434B691A438B6A22F4742E23F4702379
:105270008A6940F200454CF48064C4F2010543EAB7
:105280000E03AC4243EA02430FD1002523F07C72A7
:105290004B6ACFF6F045CC6905EA03531A4324F074
:1052A0000073096A1A4342EA0103CCF84430002132
:1052B00080F83C100020B0BD90F83C20012A4FF04F
:1052C00002025ED0B0B580F83D2040F2004C02688A
:1052D000C4F2010C42F4806363455368D2F808E0DD
:1052E00002BF23F470034C68234341F2FF740D683E
:1052F000C4F2000423F07003A24243EA05035360A2
:105300000CDC40F2FF73C4F200039A4216DCB2F1E7
:10531000804F29D040F2004318E000BF40F2FF3335
:10532000C4F201039A4217DC41F60003C4F2000301
:105330009A4219D00023C4F2010309E040F60003A9
:10534000C4F200039A420FD040F60043C4F20003B7
:105350009A4209D00DE000BF44F20003C4F20103F9
:105360009A4201D0624504D12EF080038968194326
:1053700091600022012180F83D1080F83C20BDE8BA
:10538000B04010467047000060B310B5044690F876
:105390003D0028B9002084F83C00204600F024F8A5
:1053A000022084F83D002068211D02F0F5FE012056
:1053B00084F8480084F83E0084F83F0084F84000F8
:1053C00084F8410084F8420084F8430084F84400E3
:1053D00084F8450084F8460084F8470084F83D00CE
:1053E000002010BD0120704710B582B041F200418D
:1053F0000068C4F20001884212D0B0F1804F29D178
:1054000044F2E8401C24C5F60200016841F00101A5
:105410000160006800F00100019001980EE000BFFB
:1054200044F2E8403724C5F60200016841F020014B
:105430000160006800F02000009000980021002228
:105440002046FDF781FF204602B0BDE81040FDF781
:1054500067BF00BF02B010BD90F83D10012917D101
:10546000022180F83D10016841F2FF70C4F2000093
:1054700081420FDC40F2FF70C4F20000814217DC71
:10548000B1F1804F2CD040F20040C4F2000025E082
:105490000120704740F2FF30C4F20100814213DC6A
:1054A00041F60000C4F20000814219D0002013E050
:1054B00040F60000C4F20000814211D040F60040E6
:1054C000C4F200000AE000BF44F20000C4F2010090
:1054D000814205D040F20040C4F2010081420BD16C
:1054E00007228868C0F2010202400020062A18BF85
:1054F000B2F5803F00D17047086840F001000860B5
:10550000002070470000000090F83D1001291BD1D9
:10551000022180F83D10016841F2FF70C4F20000E2
:105520008142C86840F00100C8600FDC40F2FF70A3
:10553000C4F20000814217DCB1F1804F2CD040F260
:105540000040C4F2000025E00120704740F2FF3027
:10555000C4F20100814213DC41F60000C4F20000F5
:10556000814219D0002013E040F60000C4F2000090
:10557000814211D040F60040C4F200000AE000BFB2
:1055800044F20000C4F20100814205D040F2004024
:10559000C4F2010081420BD107228868C0F20102E7
:1055A00002400020062A18BFB2F5803F00D17047A4
:1055B000086840F00100086000207047000000000B
:1055C00090F83C20012A4FF0020200F0AA8080B53A
:1055D00080F83D208822D0F800C0CFF6CE72DCF8EB
:1055E00008301A40CCF808200B686F2B0EDDB3F1A1
:1055F000101F37DAB3F5005F6EDA702B00F0B6805B
:10560000B3F5805F00F08480D8E000BF2F2B33DD3E
:105610004F2B39DC302B6FD0402B40F0CF80D1F8AE
:1056200004E0C968DCF82030DCF8202022F0010218
:10563000CCF82020DCF8182022F0F00242EA011118
:1056400023F00A02CCF8181042EA0E01CCF8201020
:105650004FF68872DCF80810CFF6CF721140473150
:1056600054E000BF2F21C0F210018B423ADCB3F1AD
:10567000101F41D020213BE0002B18BF102B3BD046
:10568000202B39D09AE000BF502B4DD0602B40F03A
:105690009580D1F804E0C968DCF82030DCF82020DF
:1056A00022F01002CCF82020DCF8182022F47042FE
:1056B00042EA013123F0A002CCF8181042EA0E11A0
:1056C000CCF820104FF68872DCF80810CFF6CF72B5
:1056D000114067311AE000BF5CD0B3F5801F0BD0DA
:1056E0006CE000BF3021C0F210018B4204D0402199
:1056F000C0F210018B4261D14FF68872DCF80810BD
:10570000CFF6CF721140194341F00701CCF80810D1
:105710000022012180F83D10002180F83C10BDE8F6
:1057200080401046704700BFD1F804E0C968DCF83B
:105730002030DCF8202022F00102CCF82020DCF818
:10574000182022F0F00242EA011123F00A02CCF8FC
:10575000181042EA0E01CCF820104FF68872DCF8DF
:105760000810CFF6CF7211405731CFE701F1040E88
:105770009EE80C40DCF808101A4321F47F4142EA0D
:105780000E221143CCF80810DCF8081041F0770124
:10579000BCE700BF01F1040E9EE80C40DCF80810E5
:1057A0001A4321F47F4142EA0E221143CCF808103B
:1057B000DCF8081041F48041A8E700BF0122A8E707
:1057C0007047000000000000F0B581B0044600689A
:1057D000C5680669B10717D515F0020114D06FF03E
:1057E00002010161012121778069800704D02046F0
:1057F000FFF7E6FF06E000BF204600F09DF82046D8
:1058000000F042FB00202077700719D515F0040046
:1058100016D020686FF004010161022121778069B0
:1058200010F4407F04D02046FFF7CAFF06E000BF17
:10583000204600F081F8204600F026FB002020776B
:10584000300717D515F0080014D020686FF0080154
:10585000016104212177C069800703D02046FFF74A
:10586000AFFF05E0204600F067F8204600F00CFB93
:1058700000202077F00619D515F0100016D020680A
:105880006FF01001016108212177C06910F4407F99
:1058900004D02046FFF794FF06E000BF204600F04A
:1058A0004BF8204600F0F0FA00202077F00718BFF0
:1058B00015F0010006D020686FF00101016120465B
:1058C00000F096FB05F0800716F4025F18BF002F6A
:1058D00002D1F00509D410E020686FF40251016193
:1058E0002046FFF795FCF00507D537B120686FF427
:1058F000807101612046FFF787FC700609D515F01D
:10590000400006D020686FF040010161204600F0A1
:105910007BFBB0060CD515F0200009D020686FF095
:1059200020010161204601B0BDE8F040FFF774BCE2
:1059300001B0F0BD00000000704700000000000052
:1059400090F83C30012B01D1022070474FEAB2029F
:10595000052A00F223812DE9F041DFE812F007006B
:10596000BB00570095003100F90000BF036843F603
:10597000FF76C4F201061C6AB3421A6A24F00204DC
:1059800022F001021A621A46D3F804C052F818EF46
:105990008D6844EA0504D1F8008040F3818144F227
:1059A0000007C4F20107BB4200F0858144F60007FE
:1059B000C4F20107BB4200F07E8144F2004776E169
:1059C000036843F6FF77C4F20107D3F820C0BB4257
:1059D0001A6A22F480321A621A465C6852F8546FCE
:1059E0000D68D1F808E040F3DF8044F20007C4F20C
:1059F0000107BB4200F0E38044F60007C4F2010750
:105A0000BB4200F0DC8044F20047D4E0036840F27F
:105A1000004E43F48067C4F2010E1C6A77451A6A8F
:105A200024F4007422F480721A621A465D6852F8F7
:105A30001CCF8E6844EA062407D1CE6840F2FF47A7
:105A4000360224F44064BE43344343F6FF76D1F873
:105A50000080C4F20106B34240F3D28044F2000752
:105A6000C4F20107BB4200F0D28044F60007C4F242
:105A70000107BB4200F0CB8044F20047C4F20107AB
:105A8000BB4200F0C480C9E0036843F6FF77C4F26C
:105A90000107D3F820C0BB421A6A22F480521A626E
:105AA0001A465C6852F81C6F0D68D1F808E040F3A4
:105AB000CD8044F20007C4F20107BB4200F0D18060
:105AC00044F60007C4F20107BB4200F0CA8044F26A
:105AD0000047C2E0036840F2004E43F48067C4F21E
